{
  "contractName": "UprtclWrapper",
  "abi": [
    {
      "constant": false,
      "inputs": [],
      "name": "renounceOwnership",
      "outputs": [],
      "payable": false,
      "stateMutability": "nonpayable",
      "type": "function"
    },
    {
      "constant": true,
      "inputs": [],
      "name": "owner",
      "outputs": [
        {
          "name": "",
          "type": "address"
        }
      ],
      "payable": false,
      "stateMutability": "view",
      "type": "function"
    },
    {
      "constant": true,
      "inputs": [],
      "name": "isOwner",
      "outputs": [
        {
          "name": "",
          "type": "bool"
        }
      ],
      "payable": false,
      "stateMutability": "view",
      "type": "function"
    },
    {
      "constant": false,
      "inputs": [
        {
          "name": "newOwner",
          "type": "address"
        }
      ],
      "name": "transferOwnership",
      "outputs": [],
      "payable": false,
      "stateMutability": "nonpayable",
      "type": "function"
    },
    {
      "anonymous": false,
      "inputs": [
        {
          "indexed": true,
          "name": "previousOwner",
          "type": "address"
        },
        {
          "indexed": true,
          "name": "newOwner",
          "type": "address"
        }
      ],
      "name": "OwnershipTransferred",
      "type": "event"
    },
    {
      "constant": false,
      "inputs": [
        {
          "name": "_uprtclRoot",
          "type": "address"
        },
        {
          "name": "_uprtclDetails",
          "type": "address"
        },
        {
          "name": "_uprtclProposals",
          "type": "address"
        },
        {
          "name": "_uprtclHomePerspectives",
          "type": "address"
        }
      ],
      "name": "setDependencies",
      "outputs": [],
      "payable": false,
      "stateMutability": "nonpayable",
      "type": "function"
    },
    {
      "constant": false,
      "inputs": [
        {
          "name": "perspectiveId",
          "type": "string"
        }
      ],
      "name": "setHomePerspective",
      "outputs": [],
      "payable": false,
      "stateMutability": "nonpayable",
      "type": "function"
    },
    {
      "constant": false,
      "inputs": [
        {
          "name": "proposalId",
          "type": "bytes32"
        },
        {
          "name": "authorized",
          "type": "uint8"
        },
        {
          "name": "execute",
          "type": "bool"
        }
      ],
      "name": "authorizeProposal",
      "outputs": [],
      "payable": false,
      "stateMutability": "nonpayable",
      "type": "function"
    },
    {
      "constant": false,
      "inputs": [
        {
          "name": "perspectiveIdHash",
          "type": "bytes32"
        },
        {
          "name": "newOwner",
          "type": "address"
        }
      ],
      "name": "changePerspectiveOwner",
      "outputs": [],
      "payable": false,
      "stateMutability": "nonpayable",
      "type": "function"
    },
    {
      "constant": false,
      "inputs": [
        {
          "name": "perspectiveIdHash",
          "type": "bytes32"
        },
        {
          "name": "context",
          "type": "string"
        }
      ],
      "name": "setPerspectiveDetails",
      "outputs": [],
      "payable": false,
      "stateMutability": "nonpayable",
      "type": "function"
    },
    {
      "constant": false,
      "inputs": [
        {
          "components": [
            {
              "name": "perspectiveId",
              "type": "string"
            },
            {
              "name": "headCid1",
              "type": "bytes32"
            },
            {
              "name": "headCid0",
              "type": "bytes32"
            },
            {
              "name": "owner",
              "type": "address"
            }
          ],
          "name": "newPerspectives",
          "type": "tuple[]"
        },
        {
          "components": [
            {
              "name": "toPerspectiveId",
              "type": "string"
            },
            {
              "name": "fromPerspectiveId",
              "type": "string"
            },
            {
              "name": "toHeadId",
              "type": "string"
            },
            {
              "name": "fromHeadId",
              "type": "string"
            },
            {
              "name": "owner",
              "type": "address"
            },
            {
              "name": "nonce",
              "type": "uint256"
            },
            {
              "components": [
                {
                  "name": "perspectiveIdHash",
                  "type": "bytes32"
                },
                {
                  "name": "headCid1",
                  "type": "bytes32"
                },
                {
                  "name": "headCid0",
                  "type": "bytes32"
                },
                {
                  "name": "fromPerspectiveId",
                  "type": "string"
                },
                {
                  "name": "fromHeadId",
                  "type": "string"
                }
              ],
              "name": "headUpdates",
              "type": "tuple[]"
            },
            {
              "name": "approvedAddresses",
              "type": "address[]"
            }
          ],
          "name": "newProposal",
          "type": "tuple"
        },
        {
          "name": "account",
          "type": "address"
        }
      ],
      "name": "createAndInitProposal",
      "outputs": [],
      "payable": false,
      "stateMutability": "nonpayable",
      "type": "function"
    }
  ],
  "bytecode": "0x608060405261001261005f60201b60201c565b600080546001600160a01b0319166001600160a01b03928316178082556040519216917f8be0079c531659141344cd1fd0a4f28419497f9722a3daafe3b4186f6b6457e0908290a3610063565b3390565b611247806100726000396000f3fe608060405234801561001057600080fd5b506004361061009e5760003560e01c80638f32d59b116100665780638f32d59b14610104578063a931154714610119578063d9ad3c0e1461012c578063eb5e06c31461013f578063f2fde38b146101525761009e565b806339c37594146100a35780633bde7d2e146100b8578063641591af146100cb578063715018a6146100de5780638da5cb5b146100e6575b600080fd5b6100b66100b1366004610a57565b610165565b005b6100b66100c6366004610b1b565b6101d2565b6100b66100d9366004610ad8565b610252565b6100b66102c2565b6100ee610333565b6040516100fb9190610fba565b60405180910390f35b61010c610342565b6040516100fb9190610fe8565b6100b6610127366004610a91565b610366565b6100b661013a3660046109dd565b61039d565b6100b661014d366004610b7c565b610439565b6100b66101603660046109b7565b61046f565b600154604051600160e21b6303ab26c30281526001600160a01b0390911690630eac9b0c9061019c90859085903390600401610ff6565b600060405180830381600087803b1580156101b657600080fd5b505af11580156101ca573d6000803e3d6000fd5b505050505050565b6101da610342565b61020257604051600160e51b62461bcd0281526004016101f9906110b3565b60405180910390fd5b600180546001600160a01b039586166001600160a01b0319918216179091556002805494861694821694909417909355600380549285169284169290921790915560048054919093169116179055565b600354604051600160e41b630bb61de30281526001600160a01b039091169063bb61de309061028b90869086908690339060040161104d565b600060405180830381600087803b1580156102a557600080fd5b505af11580156102b9573d6000803e3d6000fd5b50505050505050565b6102ca610342565b6102e957604051600160e51b62461bcd0281526004016101f9906110b3565b600080546040516001600160a01b03909116907f8be0079c531659141344cd1fd0a4f28419497f9722a3daafe3b4186f6b6457e0908390a3600080546001600160a01b0319169055565b6000546001600160a01b031690565b600080546001600160a01b03166103576104a2565b6001600160a01b031614905090565b600254604051600160e01b6326d5ec010281526001600160a01b03909116906326d5ec019061019c9085908590339060040161101e565b600154604051600160e11b6311a4d2490281526001600160a01b0390911690632349a492906103d29086908590600401610fc8565b600060405180830381600087803b1580156103ec57600080fd5b505af1158015610400573d6000803e3d6000fd5b5050600354604051600160e01b63d04355910281526001600160a01b03909116925063d0435591915061028b90859085906004016110c3565b60048054604051600160e31b631369375f0281526001600160a01b0390911691639b49baf89161019c9186918691339101611082565b610477610342565b61049657604051600160e51b62461bcd0281526004016101f9906110b3565b61049f816104a6565b50565b3390565b6001600160a01b0381166104cf57604051600160e51b62461bcd0281526004016101f9906110a3565b600080546040516001600160a01b03808516939216917f8be0079c531659141344cd1fd0a4f28419497f9722a3daafe3b4186f6b6457e091a3600080546001600160a01b0319166001600160a01b0392909216919091179055565b8035610535816111d5565b92915050565b600082601f83011261054c57600080fd5b813561055f61055a826110fa565b6110d4565b9150818183526020840193506020810190508385602084028201111561058457600080fd5b60005b838110156105b0578161059a888261052a565b8452506020928301929190910190600101610587565b5050505092915050565b600082601f8301126105cb57600080fd5b81356105d961055a826110fa565b81815260209384019390925082018360005b838110156105b05781358601610601888261072c565b84525060209283019291909101906001016105eb565b600082601f83011261062857600080fd5b813561063661055a826110fa565b81815260209384019390925082018360005b838110156105b0578135860161065e88826107dd565b8452506020928301929190910190600101610648565b8035610535816111e9565b8035610535816111f2565b8035610535816111fb565b60008083601f8401126106a757600080fd5b5081356001600160401b038111156106be57600080fd5b6020830191508360018202830111156106d657600080fd5b9250929050565b600082601f8301126106ee57600080fd5b81356106fc61055a8261111a565b9150808252602083016020830185838301111561071857600080fd5b61072383828461118f565b50505092915050565b600060a0828403121561073e57600080fd5b61074860a06110d4565b90506000610756848461067f565b82525060206107678484830161067f565b602083015250604061077b8482850161067f565b60408301525060608201356001600160401b0381111561079a57600080fd5b6107a6848285016106dd565b60608301525060808201356001600160401b038111156107c557600080fd5b6107d1848285016106dd565b60808301525092915050565b6000608082840312156107ef57600080fd5b6107f960806110d4565b905081356001600160401b0381111561081157600080fd5b61081d848285016106dd565b825250602061082e8484830161067f565b60208301525060406108428482850161067f565b60408301525060606108568482850161052a565b60608301525092915050565b6000610100828403121561087557600080fd5b6108806101006110d4565b905081356001600160401b0381111561089857600080fd5b6108a4848285016106dd565b82525060208201356001600160401b038111156108c057600080fd5b6108cc848285016106dd565b60208301525060408201356001600160401b038111156108eb57600080fd5b6108f7848285016106dd565b60408301525060608201356001600160401b0381111561091657600080fd5b610922848285016106dd565b60608301525060806109368482850161052a565b60808301525060a061094a8482850161067f565b60a08301525060c08201356001600160401b0381111561096957600080fd5b610975848285016105ba565b60c08301525060e08201356001600160401b0381111561099457600080fd5b6109a08482850161053b565b60e08301525092915050565b803561053581611204565b6000602082840312156109c957600080fd5b60006109d5848461052a565b949350505050565b6000806000606084860312156109f257600080fd5b83356001600160401b03811115610a0857600080fd5b610a1486828701610617565b93505060208401356001600160401b03811115610a3057600080fd5b610a3c86828701610862565b9250506040610a4d8682870161052a565b9150509250925092565b60008060408385031215610a6a57600080fd5b6000610a76858561067f565b9250506020610a878582860161052a565b9150509250929050565b60008060408385031215610aa457600080fd5b6000610ab0858561067f565b92505060208301356001600160401b03811115610acc57600080fd5b610a87858286016106dd565b600080600060608486031215610aed57600080fd5b6000610af9868661067f565b9350506020610b0a868287016109ac565b9250506040610a4d86828701610674565b60008060008060808587031215610b3157600080fd5b6000610b3d878761068a565b9450506020610b4e8782880161068a565b9350506040610b5f8782880161068a565b9250506060610b708782880161068a565b91505092959194509250565b60008060208385031215610b8f57600080fd5b82356001600160401b03811115610ba557600080fd5b610bb185828601610695565b92509250509250929050565b6000610bc98383610bff565b505060200190565b6000610bdd8383610e20565b9392505050565b6000610bdd8383610e95565b610bf981611184565b82525050565b610bf981611154565b6000610c1382611147565b610c1d818561114b565b9350610c2883611141565b8060005b83811015610c56578151610c408882610bbd565b9750610c4b83611141565b925050600101610c2c565b509495945050505050565b6000610c6c82611147565b610c76818561114b565b935083602082028501610c8885611141565b8060005b85811015610cc25784840389528151610ca58582610bd1565b9450610cb083611141565b60209a909a0199925050600101610c8c565b5091979650505050505050565b6000610cda82611147565b610ce4818561114b565b935083602082028501610cf685611141565b8060005b85811015610cc25784840389528151610d138582610be4565b9450610d1e83611141565b60209a909a0199925050600101610cfa565b610bf98161115f565b610bf981611164565b6000610d4e838561114b565b9350610d5b83858461118f565b610d64836111cb565b9093019392505050565b6000610d7982611147565b610d83818561114b565b9350610d9381856020860161119b565b610d64816111cb565b6000610da960268361114b565b7f4f776e61626c653a206e6577206f776e657220697320746865207a65726f20618152600160d01b6564647265737302602082015260400192915050565b6000610df460208361114b565b7f4f776e61626c653a2063616c6c6572206973206e6f7420746865206f776e6572815260200192915050565b805160009060a0840190610e348582610d39565b506020830151610e476020860182610d39565b506040830151610e5a6040860182610d39565b5060608301518482036060860152610e728282610d6e565b91505060808301518482036080860152610e8c8282610d6e565b95945050505050565b8051608080845260009190840190610ead8282610d6e565b9150506020830151610ec26020860182610d39565b506040830151610ed56040860182610d39565b506060830151610ee86060860182610bff565b509392505050565b805161010080845260009190840190610f098282610d6e565b91505060208301518482036020860152610f238282610d6e565b91505060408301518482036040860152610f3d8282610d6e565b91505060608301518482036060860152610f578282610d6e565b9150506080830151610f6c6080860182610bff565b5060a0830151610f7f60a0860182610d39565b5060c083015184820360c0860152610f978282610c61565b91505060e083015184820360e0860152610e8c8282610c08565b610bf98161117e565b602081016105358284610bff565b60408082528101610fd98185610ccf565b9050610bdd6020830184610bff565b602081016105358284610d30565b606081016110048286610d39565b6110116020830185610bff565b6109d56040830184610bf0565b6060810161102c8286610d39565b818103602083015261103e8185610d6e565b90506109d56040830184610bf0565b6080810161105b8287610d39565b6110686020830186610fb1565b6110756040830185610d30565b610e8c6060830184610bf0565b60408082528101611094818587610d42565b90506109d56020830184610bf0565b6020808252810161053581610d9c565b6020808252810161053581610de7565b60408082528101610fd98185610ef0565b6040518181016001600160401b03811182821017156110f257600080fd5b604052919050565b60006001600160401b0382111561111057600080fd5b5060209081020190565b60006001600160401b0382111561113057600080fd5b506020601f91909101601f19160190565b60200190565b5190565b90815260200190565b600061053582611172565b151590565b90565b600061053582611154565b6001600160a01b031690565b60ff1690565b600061053582611167565b82818337506000910152565b60005b838110156111b657818101518382015260200161119e565b838111156111c5576000848401525b50505050565b601f01601f191690565b6111de81611154565b811461049f57600080fd5b6111de8161115f565b6111de81611164565b6111de81611167565b6111de8161117e56fea265627a7a723058200ebe16c3bb9ec614e04c2ea49da95eaf2566426726fd2fa0996740206eb1e2ef6c6578706572696d656e74616cf50037",
  "source": "pragma solidity >=0.5.0 <0.6.0;\npragma experimental ABIEncoderV2;\n\nimport \"./UprtclRoot.sol\";\nimport \"./UprtclDetails.sol\";\nimport \"./UprtclProposals.sol\";\nimport \"./UprtclHomePerspectives.sol\";\n\ncontract UprtclWrapper is Ownable {\n    UprtclRoot uprtclRoot;\n    UprtclDetails uprtclDetails;\n    UprtclProposals uprtclProposals;\n    UprtclHomePerspectives uprtclHomePerspectives;\n\n    function setDependencies(\n        UprtclRoot _uprtclRoot,\n        UprtclDetails _uprtclDetails,\n        UprtclProposals _uprtclProposals,\n        UprtclHomePerspectives _uprtclHomePerspectives\n    ) external onlyOwner {\n        uprtclRoot = _uprtclRoot;\n        uprtclDetails = _uprtclDetails;\n        uprtclProposals = _uprtclProposals;\n        uprtclHomePerspectives = _uprtclHomePerspectives;\n    }\n\n    function setHomePerspective(string calldata perspectiveId) external {\n        uprtclHomePerspectives.setHomePerspectiveSuperUser(\n            perspectiveId,\n            msg.sender\n        );\n    }\n\n    function authorizeProposal(\n        bytes32 proposalId,\n        uint8 authorized,\n        bool execute\n    ) external {\n        uprtclProposals.authorizeProposalSuperUser(\n            proposalId,\n            authorized,\n            execute,\n            msg.sender\n        );\n    }\n\n    function changePerspectiveOwner(\n        bytes32 perspectiveIdHash,\n        address newOwner\n    ) external {\n        uprtclRoot.changePerspectiveOwnerSuperUser(\n            perspectiveIdHash,\n            newOwner,\n            msg.sender\n        );\n    }\n\n    function setPerspectiveDetails(\n        bytes32 perspectiveIdHash,\n        string memory context\n    ) public {\n        uprtclDetails.setPerspectiveDetailsSuperUser(\n            perspectiveIdHash,\n            context,\n            msg.sender\n        );\n    }\n\n    /** create the perspectives and initialize a new proposal on one tx */\n    function createAndInitProposal(\n        UprtclRoot.NewPerspective[] memory newPerspectives,\n        UprtclProposals.NewProposal memory newProposal,\n        address account) public {\n\n        uprtclRoot.createPerspectiveBatch(newPerspectives, account);\n        uprtclProposals.initProposal(newProposal, account);\n    }\n\n}\n",
  "sourcePath": "/home/pepo/pr/uprtcl/eth-uprtcl/contracts/UprtclWrapper.sol",
  "compiler": {
    "name": "solc",
    "version": "0.5.8+commit.23d335f2.Emscripten.clang"
  },
  "schemaVersion": "3.0.11",
  "updatedAt": "2020-04-22T14:05:01.895Z",
  "devdoc": {
    "methods": {
      "isOwner()": {
        "details": "Returns true if the caller is the current owner."
      },
      "owner()": {
        "details": "Returns the address of the current owner."
      },
      "renounceOwnership()": {
        "details": "Leaves the contract without owner. It will not be possible to call `onlyOwner` functions anymore. Can only be called by the current owner.     * NOTE: Renouncing ownership will leave the contract without an owner, thereby removing any functionality that is only available to the owner."
      },
      "transferOwnership(address)": {
        "details": "Transfers ownership of the contract to a new account (`newOwner`). Can only be called by the current owner."
      }
    }
  },
  "userdoc": {
    "methods": {
      "createAndInitProposal((string,bytes32,bytes32,address)[],(string,string,string,string,address,uint256,(bytes32,bytes32,bytes32,string,string)[],address[]),address)": {
        "notice": "create the perspectives and initialize a new proposal on one tx "
      }
    }
  }
}