{
  "contractName": "UprtclWrapper",
  "abi": [
    {
      "constant": false,
      "inputs": [],
      "name": "renounceOwnership",
      "outputs": [],
      "payable": false,
      "stateMutability": "nonpayable",
      "type": "function"
    },
    {
      "constant": true,
      "inputs": [],
      "name": "owner",
      "outputs": [
        {
          "name": "",
          "type": "address"
        }
      ],
      "payable": false,
      "stateMutability": "view",
      "type": "function"
    },
    {
      "constant": true,
      "inputs": [],
      "name": "isOwner",
      "outputs": [
        {
          "name": "",
          "type": "bool"
        }
      ],
      "payable": false,
      "stateMutability": "view",
      "type": "function"
    },
    {
      "constant": false,
      "inputs": [
        {
          "name": "newOwner",
          "type": "address"
        }
      ],
      "name": "transferOwnership",
      "outputs": [],
      "payable": false,
      "stateMutability": "nonpayable",
      "type": "function"
    },
    {
      "anonymous": false,
      "inputs": [
        {
          "indexed": true,
          "name": "previousOwner",
          "type": "address"
        },
        {
          "indexed": true,
          "name": "newOwner",
          "type": "address"
        }
      ],
      "name": "OwnershipTransferred",
      "type": "event"
    },
    {
      "constant": false,
      "inputs": [
        {
          "name": "_uprtclRoot",
          "type": "address"
        },
        {
          "name": "_uprtclDetails",
          "type": "address"
        },
        {
          "name": "_uprtclProposals",
          "type": "address"
        },
        {
          "name": "_uprtclHomePerspectives",
          "type": "address"
        }
      ],
      "name": "setDependencies",
      "outputs": [],
      "payable": false,
      "stateMutability": "nonpayable",
      "type": "function"
    },
    {
      "constant": false,
      "inputs": [
        {
          "name": "perspectiveId",
          "type": "string"
        }
      ],
      "name": "setHomePerspective",
      "outputs": [],
      "payable": false,
      "stateMutability": "nonpayable",
      "type": "function"
    },
    {
      "constant": false,
      "inputs": [
        {
          "name": "proposalId",
          "type": "bytes32"
        },
        {
          "name": "authorized",
          "type": "uint8"
        },
        {
          "name": "execute",
          "type": "bool"
        }
      ],
      "name": "authorizeProposal",
      "outputs": [],
      "payable": false,
      "stateMutability": "nonpayable",
      "type": "function"
    },
    {
      "constant": false,
      "inputs": [
        {
          "name": "perspectiveIdHash",
          "type": "bytes32"
        },
        {
          "name": "newOwner",
          "type": "address"
        }
      ],
      "name": "changePerspectiveOwner",
      "outputs": [],
      "payable": false,
      "stateMutability": "nonpayable",
      "type": "function"
    },
    {
      "constant": false,
      "inputs": [
        {
          "name": "perspectiveIdHash",
          "type": "bytes32"
        },
        {
          "name": "context",
          "type": "string"
        }
      ],
      "name": "setPerspectiveDetails",
      "outputs": [],
      "payable": false,
      "stateMutability": "nonpayable",
      "type": "function"
    },
    {
      "constant": false,
      "inputs": [
        {
          "components": [
            {
              "components": [
                {
                  "name": "perspectiveId",
                  "type": "string"
                },
                {
                  "name": "headCid1",
                  "type": "bytes32"
                },
                {
                  "name": "headCid0",
                  "type": "bytes32"
                },
                {
                  "name": "owner",
                  "type": "address"
                }
              ],
              "name": "perspective",
              "type": "tuple"
            },
            {
              "name": "context",
              "type": "string"
            }
          ],
          "name": "newPerspectives",
          "type": "tuple[]"
        },
        {
          "components": [
            {
              "name": "toPerspectiveId",
              "type": "string"
            },
            {
              "name": "fromPerspectiveId",
              "type": "string"
            },
            {
              "name": "toHeadId",
              "type": "string"
            },
            {
              "name": "fromHeadId",
              "type": "string"
            },
            {
              "name": "owner",
              "type": "address"
            },
            {
              "name": "nonce",
              "type": "uint256"
            },
            {
              "components": [
                {
                  "name": "perspectiveIdHash",
                  "type": "bytes32"
                },
                {
                  "name": "headCid1",
                  "type": "bytes32"
                },
                {
                  "name": "headCid0",
                  "type": "bytes32"
                },
                {
                  "name": "fromPerspectiveId",
                  "type": "string"
                },
                {
                  "name": "fromHeadId",
                  "type": "string"
                }
              ],
              "name": "headUpdates",
              "type": "tuple[]"
            },
            {
              "name": "approvedAddresses",
              "type": "address[]"
            }
          ],
          "name": "newProposal",
          "type": "tuple"
        },
        {
          "name": "account",
          "type": "address"
        }
      ],
      "name": "createAndInitProposal",
      "outputs": [],
      "payable": false,
      "stateMutability": "nonpayable",
      "type": "function"
    }
  ],
  "bytecode": "0x608060405261001261005f60201b60201c565b600080546001600160a01b0319166001600160a01b03928316178082556040519216917f8be0079c531659141344cd1fd0a4f28419497f9722a3daafe3b4186f6b6457e0908290a3610063565b3390565b6112ed806100726000396000f3fe608060405234801561001057600080fd5b506004361061009e5760003560e01c80638da5cb5b116100665780638da5cb5b146100f95780638f32d59b14610117578063a93115471461012c578063eb5e06c31461013f578063f2fde38b146101525761009e565b806339c37594146100a35780633bde7d2e146100b8578063641591af146100cb578063715018a6146100de5780638235e098146100e6575b600080fd5b6100b66100b1366004610acb565b610165565b005b6100b66100c6366004610b8f565b6101d2565b6100b66100d9366004610b4c565b610252565b6100b66102c2565b6100b66100f4366004610a51565b610333565b6101016103cf565b60405161010e9190611060565b60405180910390f35b61011f6103de565b60405161010e919061108e565b6100b661013a366004610b05565b610402565b6100b661014d366004610bf0565b610439565b6100b6610160366004610a2b565b61046f565b600154604051600160e21b6303ab26c30281526001600160a01b0390911690630eac9b0c9061019c9085908590339060040161109c565b600060405180830381600087803b1580156101b657600080fd5b505af11580156101ca573d6000803e3d6000fd5b505050505050565b6101da6103de565b61020257604051600160e51b62461bcd0281526004016101f990611159565b60405180910390fd5b600180546001600160a01b039586166001600160a01b0319918216179091556002805494861694821694909417909355600380549285169284169290921790915560048054919093169116179055565b600354604051600160e41b630bb61de30281526001600160a01b039091169063bb61de309061028b9086908690869033906004016110f3565b600060405180830381600087803b1580156102a557600080fd5b505af11580156102b9573d6000803e3d6000fd5b50505050505050565b6102ca6103de565b6102e957604051600160e51b62461bcd0281526004016101f990611159565b600080546040516001600160a01b03909116907f8be0079c531659141344cd1fd0a4f28419497f9722a3daafe3b4186f6b6457e0908390a3600080546001600160a01b0319169055565b600254604051600160e01b63cf886bab0281526001600160a01b039091169063cf886bab90610368908690859060040161106e565b600060405180830381600087803b15801561038257600080fd5b505af1158015610396573d6000803e3d6000fd5b5050600354604051600160e01b63d04355910281526001600160a01b03909116925063d0435591915061028b9085908590600401611169565b6000546001600160a01b031690565b600080546001600160a01b03166103f36104a2565b6001600160a01b031614905090565b600254604051600160e01b6326d5ec010281526001600160a01b03909116906326d5ec019061019c908590859033906004016110c4565b60048054604051600160e31b631369375f0281526001600160a01b0390911691639b49baf89161019c9186918691339101611128565b6104776103de565b61049657604051600160e51b62461bcd0281526004016101f990611159565b61049f816104a6565b50565b3390565b6001600160a01b0381166104cf57604051600160e51b62461bcd0281526004016101f990611149565b600080546040516001600160a01b03808516939216917f8be0079c531659141344cd1fd0a4f28419497f9722a3daafe3b4186f6b6457e091a3600080546001600160a01b0319166001600160a01b0392909216919091179055565b80356105358161127b565b92915050565b600082601f83011261054c57600080fd5b813561055f61055a826111a0565b61117a565b9150818183526020840193506020810190508385602084028201111561058457600080fd5b60005b838110156105b0578161059a888261052a565b8452506020928301929190910190600101610587565b5050505092915050565b600082601f8301126105cb57600080fd5b81356105d961055a826111a0565b81815260209384019390925082018360005b838110156105b05781358601610601888261072c565b84525060209283019291909101906001016105eb565b600082601f83011261062857600080fd5b813561063661055a826111a0565b81815260209384019390925082018360005b838110156105b0578135860161065e88826107dd565b8452506020928301929190910190600101610648565b80356105358161128f565b803561053581611298565b8035610535816112a1565b60008083601f8401126106a757600080fd5b5081356001600160401b038111156106be57600080fd5b6020830191508360018202830111156106d657600080fd5b9250929050565b600082601f8301126106ee57600080fd5b81356106fc61055a826111c0565b9150808252602083016020830185838301111561071857600080fd5b610723838284611235565b50505092915050565b600060a0828403121561073e57600080fd5b61074860a061117a565b90506000610756848461067f565b82525060206107678484830161067f565b602083015250604061077b8482850161067f565b60408301525060608201356001600160401b0381111561079a57600080fd5b6107a6848285016106dd565b60608301525060808201356001600160401b038111156107c557600080fd5b6107d1848285016106dd565b60808301525092915050565b6000604082840312156107ef57600080fd5b6107f9604061117a565b905081356001600160401b0381111561081157600080fd5b61081d84828501610851565b82525060208201356001600160401b0381111561083957600080fd5b610845848285016106dd565b60208301525092915050565b60006080828403121561086357600080fd5b61086d608061117a565b905081356001600160401b0381111561088557600080fd5b610891848285016106dd565b82525060206108a28484830161067f565b60208301525060406108b68482850161067f565b60408301525060606108ca8482850161052a565b60608301525092915050565b600061010082840312156108e957600080fd5b6108f461010061117a565b905081356001600160401b0381111561090c57600080fd5b610918848285016106dd565b82525060208201356001600160401b0381111561093457600080fd5b610940848285016106dd565b60208301525060408201356001600160401b0381111561095f57600080fd5b61096b848285016106dd565b60408301525060608201356001600160401b0381111561098a57600080fd5b610996848285016106dd565b60608301525060806109aa8482850161052a565b60808301525060a06109be8482850161067f565b60a08301525060c08201356001600160401b038111156109dd57600080fd5b6109e9848285016105ba565b60c08301525060e08201356001600160401b03811115610a0857600080fd5b610a148482850161053b565b60e08301525092915050565b8035610535816112aa565b600060208284031215610a3d57600080fd5b6000610a49848461052a565b949350505050565b600080600060608486031215610a6657600080fd5b83356001600160401b03811115610a7c57600080fd5b610a8886828701610617565b93505060208401356001600160401b03811115610aa457600080fd5b610ab0868287016108d6565b9250506040610ac18682870161052a565b9150509250925092565b60008060408385031215610ade57600080fd5b6000610aea858561067f565b9250506020610afb8582860161052a565b9150509250929050565b60008060408385031215610b1857600080fd5b6000610b24858561067f565b92505060208301356001600160401b03811115610b4057600080fd5b610afb858286016106dd565b600080600060608486031215610b6157600080fd5b6000610b6d868661067f565b9350506020610b7e86828701610a20565b9250506040610ac186828701610674565b60008060008060808587031215610ba557600080fd5b6000610bb1878761068a565b9450506020610bc28782880161068a565b9350506040610bd38782880161068a565b9250506060610be48782880161068a565b91505092959194509250565b60008060208385031215610c0357600080fd5b82356001600160401b03811115610c1957600080fd5b610c2585828601610695565b92509250509250929050565b6000610c3d8383610c73565b505060200190565b6000610c518383610e94565b9392505050565b6000610c518383610f09565b610c6d8161122a565b82525050565b610c6d816111fa565b6000610c87826111ed565b610c9181856111f1565b9350610c9c836111e7565b8060005b83811015610cca578151610cb48882610c31565b9750610cbf836111e7565b925050600101610ca0565b509495945050505050565b6000610ce0826111ed565b610cea81856111f1565b935083602082028501610cfc856111e7565b8060005b85811015610d365784840389528151610d198582610c45565b9450610d24836111e7565b60209a909a0199925050600101610d00565b5091979650505050505050565b6000610d4e826111ed565b610d5881856111f1565b935083602082028501610d6a856111e7565b8060005b85811015610d365784840389528151610d878582610c58565b9450610d92836111e7565b60209a909a0199925050600101610d6e565b610c6d81611205565b610c6d8161120a565b6000610dc283856111f1565b9350610dcf838584611235565b610dd883611271565b9093019392505050565b6000610ded826111ed565b610df781856111f1565b9350610e07818560208601611241565b610dd881611271565b6000610e1d6026836111f1565b7f4f776e61626c653a206e6577206f776e657220697320746865207a65726f20618152600160d01b6564647265737302602082015260400192915050565b6000610e686020836111f1565b7f4f776e61626c653a2063616c6c6572206973206e6f7420746865206f776e6572815260200192915050565b805160009060a0840190610ea88582610dad565b506020830151610ebb6020860182610dad565b506040830151610ece6040860182610dad565b5060608301518482036060860152610ee68282610de2565b91505060808301518482036080860152610f008282610de2565b95945050505050565b8051604080845260009190840190610f218282610f3b565b91505060208301518482036020860152610f008282610de2565b8051608080845260009190840190610f538282610de2565b9150506020830151610f686020860182610dad565b506040830151610f7b6040860182610dad565b506060830151610f8e6060860182610c73565b509392505050565b805161010080845260009190840190610faf8282610de2565b91505060208301518482036020860152610fc98282610de2565b91505060408301518482036040860152610fe38282610de2565b91505060608301518482036060860152610ffd8282610de2565b91505060808301516110126080860182610c73565b5060a083015161102560a0860182610dad565b5060c083015184820360c086015261103d8282610cd5565b91505060e083015184820360e0860152610f008282610c7c565b610c6d81611224565b602081016105358284610c73565b6040808252810161107f8185610d43565b9050610c516020830184610c73565b602081016105358284610da4565b606081016110aa8286610dad565b6110b76020830185610c73565b610a496040830184610c64565b606081016110d28286610dad565b81810360208301526110e48185610de2565b9050610a496040830184610c64565b608081016111018287610dad565b61110e6020830186611057565b61111b6040830185610da4565b610f006060830184610c64565b6040808252810161113a818587610db6565b9050610a496020830184610c64565b6020808252810161053581610e10565b6020808252810161053581610e5b565b6040808252810161107f8185610f96565b6040518181016001600160401b038111828210171561119857600080fd5b604052919050565b60006001600160401b038211156111b657600080fd5b5060209081020190565b60006001600160401b038211156111d657600080fd5b506020601f91909101601f19160190565b60200190565b5190565b90815260200190565b600061053582611218565b151590565b90565b6000610535826111fa565b6001600160a01b031690565b60ff1690565b60006105358261120d565b82818337506000910152565b60005b8381101561125c578181015183820152602001611244565b8381111561126b576000848401525b50505050565b601f01601f191690565b611284816111fa565b811461049f57600080fd5b61128481611205565b6112848161120a565b6112848161120d565b6112848161122456fea265627a7a72305820d66c9c2218e50bde596432a2b0f74fcbb98b126caee7f3730076e14c077785f46c6578706572696d656e74616cf50037",
  "source": "pragma solidity >=0.5.0 <0.6.0;\npragma experimental ABIEncoderV2;\n\nimport \"./UprtclRoot.sol\";\nimport \"./UprtclDetails.sol\";\nimport \"./UprtclProposals.sol\";\nimport \"./UprtclHomePerspectives.sol\";\n\ncontract UprtclWrapper is Ownable {\n    UprtclRoot uprtclRoot;\n    UprtclDetails uprtclDetails;\n    UprtclProposals uprtclProposals;\n    UprtclHomePerspectives uprtclHomePerspectives;\n\n    function setDependencies(\n        UprtclRoot _uprtclRoot,\n        UprtclDetails _uprtclDetails,\n        UprtclProposals _uprtclProposals,\n        UprtclHomePerspectives _uprtclHomePerspectives\n    ) external onlyOwner {\n        uprtclRoot = _uprtclRoot;\n        uprtclDetails = _uprtclDetails;\n        uprtclProposals = _uprtclProposals;\n        uprtclHomePerspectives = _uprtclHomePerspectives;\n    }\n\n    function setHomePerspective(string calldata perspectiveId) external {\n        uprtclHomePerspectives.setHomePerspectiveSuperUser(\n            perspectiveId,\n            msg.sender\n        );\n    }\n\n    function authorizeProposal(\n        bytes32 proposalId,\n        uint8 authorized,\n        bool execute\n    ) external {\n        uprtclProposals.authorizeProposalSuperUser(\n            proposalId,\n            authorized,\n            execute,\n            msg.sender\n        );\n    }\n\n    function changePerspectiveOwner(\n        bytes32 perspectiveIdHash,\n        address newOwner\n    ) external {\n        uprtclRoot.changePerspectiveOwnerSuperUser(\n            perspectiveIdHash,\n            newOwner,\n            msg.sender\n        );\n    }\n\n    function setPerspectiveDetails(\n        bytes32 perspectiveIdHash,\n        string memory context\n    ) public {\n        uprtclDetails.setPerspectiveDetailsSuperUser(\n            perspectiveIdHash,\n            context,\n            msg.sender\n        );\n    }\n\n    /** create the perspectives and initialize a new proposal on one tx */\n    function createAndInitProposal(\n        UprtclDetails.InitPerspective[] memory newPerspectives,\n        UprtclProposals.NewProposal memory newProposal,\n        address account) public {\n\n        uprtclDetails.initPerspectiveBatch(newPerspectives, account);\n        uprtclProposals.initProposal(newProposal, account);\n    }\n\n}\n",
  "sourcePath": "/home/pepo/pr/uprtcl/eth-uprtcl/contracts/UprtclWrapper.sol",
  "compiler": {
    "name": "solc",
    "version": "0.5.8+commit.23d335f2.Emscripten.clang"
  },
  "schemaVersion": "3.0.23",
  "updatedAt": "2020-04-28T16:12:24.597Z",
  "networkType": "ethereum",
  "devdoc": {
    "methods": {
      "isOwner()": {
        "details": "Returns true if the caller is the current owner."
      },
      "owner()": {
        "details": "Returns the address of the current owner."
      },
      "renounceOwnership()": {
        "details": "Leaves the contract without owner. It will not be possible to call `onlyOwner` functions anymore. Can only be called by the current owner.     * NOTE: Renouncing ownership will leave the contract without an owner, thereby removing any functionality that is only available to the owner."
      },
      "transferOwnership(address)": {
        "details": "Transfers ownership of the contract to a new account (`newOwner`). Can only be called by the current owner."
      }
    }
  },
  "userdoc": {
    "methods": {
      "createAndInitProposal(((string,bytes32,bytes32,address),string)[],(string,string,string,string,address,uint256,(bytes32,bytes32,bytes32,string,string)[],address[]),address)": {
        "notice": "create the perspectives and initialize a new proposal on one tx "
      }
    }
  }
}