{
  "contractName": "UprtclProposals",
  "abi": [
    {
      "constant": true,
      "inputs": [],
      "name": "factor_num",
      "outputs": [
        {
          "name": "",
          "type": "uint256"
        }
      ],
      "payable": false,
      "stateMutability": "view",
      "type": "function"
    },
    {
      "constant": true,
      "inputs": [],
      "name": "minFee",
      "outputs": [
        {
          "name": "",
          "type": "uint256"
        }
      ],
      "payable": false,
      "stateMutability": "view",
      "type": "function"
    },
    {
      "constant": true,
      "inputs": [
        {
          "name": "",
          "type": "bytes32"
        }
      ],
      "name": "proposals",
      "outputs": [
        {
          "name": "owner",
          "type": "address"
        },
        {
          "name": "status",
          "type": "uint8"
        },
        {
          "name": "authorized",
          "type": "uint8"
        },
        {
          "name": "rejected",
          "type": "uint8"
        },
        {
          "name": "withdrawn",
          "type": "uint8"
        }
      ],
      "payable": false,
      "stateMutability": "view",
      "type": "function"
    },
    {
      "constant": false,
      "inputs": [
        {
          "name": "suAddress",
          "type": "address"
        },
        {
          "name": "value",
          "type": "bool"
        }
      ],
      "name": "setSuperUser",
      "outputs": [],
      "payable": false,
      "stateMutability": "nonpayable",
      "type": "function"
    },
    {
      "constant": true,
      "inputs": [],
      "name": "factor_den",
      "outputs": [
        {
          "name": "",
          "type": "uint256"
        }
      ],
      "payable": false,
      "stateMutability": "view",
      "type": "function"
    },
    {
      "constant": false,
      "inputs": [],
      "name": "renounceOwnership",
      "outputs": [],
      "payable": false,
      "stateMutability": "nonpayable",
      "type": "function"
    },
    {
      "constant": true,
      "inputs": [],
      "name": "owner",
      "outputs": [
        {
          "name": "",
          "type": "address"
        }
      ],
      "payable": false,
      "stateMutability": "view",
      "type": "function"
    },
    {
      "constant": true,
      "inputs": [],
      "name": "isOwner",
      "outputs": [
        {
          "name": "",
          "type": "bool"
        }
      ],
      "payable": false,
      "stateMutability": "view",
      "type": "function"
    },
    {
      "constant": true,
      "inputs": [
        {
          "name": "suAddress",
          "type": "address"
        }
      ],
      "name": "isSuperUser",
      "outputs": [
        {
          "name": "",
          "type": "bool"
        }
      ],
      "payable": false,
      "stateMutability": "view",
      "type": "function"
    },
    {
      "constant": false,
      "inputs": [
        {
          "name": "newOwner",
          "type": "address"
        }
      ],
      "name": "transferOwnership",
      "outputs": [],
      "payable": false,
      "stateMutability": "nonpayable",
      "type": "function"
    },
    {
      "constant": true,
      "inputs": [
        {
          "name": "",
          "type": "address"
        }
      ],
      "name": "fees",
      "outputs": [
        {
          "name": "fee",
          "type": "uint256"
        },
        {
          "name": "balance",
          "type": "uint256"
        }
      ],
      "payable": false,
      "stateMutability": "view",
      "type": "function"
    },
    {
      "anonymous": false,
      "inputs": [
        {
          "indexed": true,
          "name": "toPerspectiveIdHash",
          "type": "bytes32"
        },
        {
          "indexed": true,
          "name": "fromPerspectiveIdHash",
          "type": "bytes32"
        },
        {
          "indexed": true,
          "name": "proposalId",
          "type": "bytes32"
        },
        {
          "indexed": false,
          "name": "toPerspectiveId",
          "type": "string"
        },
        {
          "indexed": false,
          "name": "fromPerspectiveId",
          "type": "string"
        },
        {
          "indexed": false,
          "name": "toHeadId",
          "type": "string"
        },
        {
          "indexed": false,
          "name": "fromHeadId",
          "type": "string"
        },
        {
          "indexed": false,
          "name": "nonce",
          "type": "uint256"
        },
        {
          "indexed": false,
          "name": "creator",
          "type": "address"
        }
      ],
      "name": "ProposalCreated",
      "type": "event"
    },
    {
      "anonymous": false,
      "inputs": [
        {
          "indexed": true,
          "name": "previousOwner",
          "type": "address"
        },
        {
          "indexed": true,
          "name": "newOwner",
          "type": "address"
        }
      ],
      "name": "OwnershipTransferred",
      "type": "event"
    },
    {
      "constant": false,
      "inputs": [
        {
          "name": "_uprtclRoot",
          "type": "address"
        }
      ],
      "name": "setUprtclRoot",
      "outputs": [],
      "payable": false,
      "stateMutability": "nonpayable",
      "type": "function"
    },
    {
      "constant": true,
      "inputs": [
        {
          "name": "toPerspectiveId",
          "type": "string"
        },
        {
          "name": "fromPerspectiveId",
          "type": "string"
        },
        {
          "name": "nonce",
          "type": "uint256"
        }
      ],
      "name": "getProposalId",
      "outputs": [
        {
          "name": "proposalId",
          "type": "bytes32"
        }
      ],
      "payable": false,
      "stateMutability": "pure",
      "type": "function"
    },
    {
      "constant": false,
      "inputs": [
        {
          "name": "_minFee",
          "type": "uint256"
        }
      ],
      "name": "setMinFee",
      "outputs": [],
      "payable": false,
      "stateMutability": "nonpayable",
      "type": "function"
    },
    {
      "constant": false,
      "inputs": [
        {
          "name": "_factor_num",
          "type": "uint256"
        }
      ],
      "name": "setFactorNum",
      "outputs": [],
      "payable": false,
      "stateMutability": "nonpayable",
      "type": "function"
    },
    {
      "constant": false,
      "inputs": [
        {
          "name": "_factor_den",
          "type": "uint256"
        }
      ],
      "name": "setFactorDen",
      "outputs": [],
      "payable": false,
      "stateMutability": "nonpayable",
      "type": "function"
    },
    {
      "constant": false,
      "inputs": [
        {
          "components": [
            {
              "name": "toPerspectiveId",
              "type": "string"
            },
            {
              "name": "fromPerspectiveId",
              "type": "string"
            },
            {
              "name": "toHeadId",
              "type": "string"
            },
            {
              "name": "fromHeadId",
              "type": "string"
            },
            {
              "name": "owner",
              "type": "address"
            },
            {
              "name": "nonce",
              "type": "uint256"
            },
            {
              "components": [
                {
                  "name": "perspectiveIdHash",
                  "type": "bytes32"
                },
                {
                  "name": "headCid1",
                  "type": "bytes32"
                },
                {
                  "name": "headCid0",
                  "type": "bytes32"
                },
                {
                  "name": "executed",
                  "type": "uint8"
                }
              ],
              "name": "headUpdates",
              "type": "tuple[]"
            },
            {
              "name": "approvedAddresses",
              "type": "address[]"
            }
          ],
          "name": "newProposal",
          "type": "tuple"
        },
        {
          "name": "account",
          "type": "address"
        }
      ],
      "name": "initProposal",
      "outputs": [],
      "payable": false,
      "stateMutability": "nonpayable",
      "type": "function"
    },
    {
      "constant": false,
      "inputs": [
        {
          "name": "proposalId",
          "type": "bytes32"
        },
        {
          "components": [
            {
              "name": "perspectiveIdHash",
              "type": "bytes32"
            },
            {
              "name": "headCid1",
              "type": "bytes32"
            },
            {
              "name": "headCid0",
              "type": "bytes32"
            },
            {
              "name": "executed",
              "type": "uint8"
            }
          ],
          "name": "headUpdates",
          "type": "tuple[]"
        }
      ],
      "name": "addUpdatesToProposal",
      "outputs": [],
      "payable": false,
      "stateMutability": "nonpayable",
      "type": "function"
    },
    {
      "constant": false,
      "inputs": [
        {
          "name": "proposalId",
          "type": "bytes32"
        },
        {
          "name": "status",
          "type": "uint8"
        }
      ],
      "name": "setProposalStatus",
      "outputs": [],
      "payable": false,
      "stateMutability": "nonpayable",
      "type": "function"
    },
    {
      "constant": false,
      "inputs": [
        {
          "name": "proposalId",
          "type": "bytes32"
        },
        {
          "name": "authorized",
          "type": "uint8"
        },
        {
          "name": "execute",
          "type": "bool"
        },
        {
          "name": "msgSender",
          "type": "address"
        }
      ],
      "name": "authorizeProposalSuperUser",
      "outputs": [],
      "payable": false,
      "stateMutability": "nonpayable",
      "type": "function"
    },
    {
      "constant": false,
      "inputs": [
        {
          "name": "proposalId",
          "type": "bytes32"
        },
        {
          "name": "authorized",
          "type": "uint8"
        },
        {
          "name": "execute",
          "type": "bool"
        }
      ],
      "name": "authorizeProposal",
      "outputs": [],
      "payable": false,
      "stateMutability": "nonpayable",
      "type": "function"
    },
    {
      "constant": false,
      "inputs": [
        {
          "name": "proposalId",
          "type": "bytes32"
        }
      ],
      "name": "rejectProposal",
      "outputs": [],
      "payable": false,
      "stateMutability": "nonpayable",
      "type": "function"
    },
    {
      "constant": false,
      "inputs": [
        {
          "name": "proposalId",
          "type": "bytes32"
        }
      ],
      "name": "withdrawProposal",
      "outputs": [],
      "payable": false,
      "stateMutability": "nonpayable",
      "type": "function"
    },
    {
      "constant": false,
      "inputs": [
        {
          "name": "proposalId",
          "type": "bytes32"
        }
      ],
      "name": "executeProposalExternal",
      "outputs": [],
      "payable": false,
      "stateMutability": "nonpayable",
      "type": "function"
    },
    {
      "constant": false,
      "inputs": [
        {
          "name": "proposalId",
          "type": "bytes32"
        },
        {
          "name": "indexes",
          "type": "uint256[]"
        }
      ],
      "name": "executeProposalPartially",
      "outputs": [],
      "payable": false,
      "stateMutability": "nonpayable",
      "type": "function"
    },
    {
      "constant": true,
      "inputs": [
        {
          "name": "proposalId",
          "type": "bytes32"
        }
      ],
      "name": "getProposal",
      "outputs": [
        {
          "components": [
            {
              "name": "owner",
              "type": "address"
            },
            {
              "components": [
                {
                  "name": "perspectiveIdHash",
                  "type": "bytes32"
                },
                {
                  "name": "headCid1",
                  "type": "bytes32"
                },
                {
                  "name": "headCid0",
                  "type": "bytes32"
                },
                {
                  "name": "executed",
                  "type": "uint8"
                }
              ],
              "name": "headUpdates",
              "type": "tuple[]"
            },
            {
              "name": "approvedAddresses",
              "type": "address[]"
            },
            {
              "name": "status",
              "type": "uint8"
            },
            {
              "name": "authorized",
              "type": "uint8"
            },
            {
              "name": "rejected",
              "type": "uint8"
            },
            {
              "name": "withdrawn",
              "type": "uint8"
            }
          ],
          "name": "proposal",
          "type": "tuple"
        }
      ],
      "payable": false,
      "stateMutability": "view",
      "type": "function"
    }
  ],
  "bytecode": "0x608060405261001261005f60201b60201c565b600080546001600160a01b0319166001600160a01b03928316178082556040519216917f8be0079c531659141344cd1fd0a4f28419497f9722a3daafe3b4186f6b6457e0908290a3610063565b3390565b612ca1806100726000396000f3fe608060405234801561001057600080fd5b506004361061018e5760003560e01c806352f386cb116100de5780638da5cb5b11610097578063bb61de3011610071578063bb61de3014610343578063cd784d1b14610356578063f2fde38b14610369578063faaebd211461037c5761018e565b80638da5cb5b146103065780638f32d59b1461031b578063971a294f146103305761018e565b806352f386cb146102aa57806363685b5b146102b2578063641591af146102c5578063715018a6146102d85780637a9700e2146102e05780637cce0117146102f35761018e565b80632bc3ed3a1161014b57806339eacf341161012557806339eacf34146102515780633ca0df3f14610264578063430694cf1461027757806345655b4e146102975761018e565b80632bc3ed3a1461020757806331ac99201461021a57806332ed5b121461022d5761018e565b806305196b9d146101935780630de4cb19146101b157806311ab31ed146101c6578063158215d3146101d957806324ec7590146101ec57806326d50df1146101f4575b600080fd5b61019b61039d565b6040516101a8919061292c565b60405180910390f35b6101c46101bf366004611e5f565b6103a3565b005b6101c46101d4366004611e5f565b6103d8565b6101c46101e7366004611ee2565b610454565b61019b610463565b6101c4610202366004611e9b565b610469565b61019b610215366004612025565b610795565b6101c4610228366004611e5f565b6107cb565b61024061023b366004611e5f565b6107f7565b6040516101a89594939291906128d2565b6101c461025f366004611f29565b61083b565b6101c4610272366004611e5f565b61091e565b61028a610285366004611e5f565b61099c565b6040516101a89190612b04565b6101c46102a5366004611e25565b610aee565b61019b610b40565b6101c46102c0366004612095565b610b46565b6101c46102d3366004611f59565b61103d565b6101c461104e565b6101c46102ee366004611e5f565b6110bf565b6101c4610301366004612007565b6110cc565b61030e611115565b6040516101a8919061285e565b610323611125565b6040516101a8919061291e565b6101c461033e366004611e5f565b611149565b6101c4610351366004611fa6565b611175565b610323610364366004611de1565b6111a9565b6101c4610377366004611de1565b6111c7565b61038f61038a366004611de1565b6111f7565b6040516101a8929190612b15565b60055481565b6103ab611125565b6103d357604051600160e51b62461bcd0281526004016103ca90612ad4565b60405180910390fd5b600555565b600081815260026020526040902080546001600160a01b0316331461041257604051600160e51b62461bcd0281526004016103ca90612ae4565b6003810154610100900460ff161561043f57604051600160e51b62461bcd0281526004016103ca90612a84565b600301805462ff000019166201000017905550565b61045f828233611210565b5050565b60045481565b600082815260026020526040902080546001600160a01b03166104a157604051600160e51b62461bcd0281526004016103ca90612a34565b600381015460ff166104c857604051600160e51b62461bcd0281526004016103ca90612af4565b6040805160e08101825282546001600160a01b031681526001830180548351602082810282018101909552818152600094610609949387938286019392889084015b82821015610561576000848152602090819020604080516080810182526004860290920180548352600180820154848601526002820154928401929092526003015460ff166060830152908352909201910161050a565b505050508152602001600282018054806020026020016040519081016040528092919081815260200182805480156105c257602002820191906000526020600020905b81546001600160a01b031681526001909101906020018083116105a4575b50505091835250506003919091015460ff808216602084015261010082048116604084015262010000820481166060840152630100000090910416608090910152336114b3565b60ff161161062c57604051600160e51b62461bcd0281526004016103ca90612a64565b60005b82518160ff16101561078f576106436118cc565b838260ff168151811061065257fe5b60200260200101519050806060015160ff1660001461068657604051600160e51b62461bcd0281526004016103ca90612a04565b82546007548251604051600160e01b631393bbf50281526001600160a01b039384169390921691631393bbf5916106bf9160040161292c565b60206040518083038186803b1580156106d757600080fd5b505afa1580156106eb573d6000803e3d6000fd5b505050506040513d601f19601f8201168201806040525061070f9190810190611e07565b6001600160a01b03161461073857604051600160e51b62461bcd0281526004016103ca906129f4565b600183810180548083018255600091825260209182902084516004909202019081559083015181830155604083015160028201556060909201516003909201805460ff191660ff909316929092179091550161062f565b50505050565b60008383836040516020016107ac9392919061282f565b6040516020818303038152906040528051906020012090509392505050565b6107d3611125565b6107f257604051600160e51b62461bcd0281526004016103ca90612ad4565b600455565b600260205260009081526040902080546003909101546001600160a01b039091169060ff808216916101008104821691620100008204811691630100000090041685565b6000828152600260209081526040808320815160e08101835281546001600160a01b031681526001820180548451818702810187019095528085529295946108e39492938793858301939092909190889084018215610561576000848152602090819020604080516080810182526004860290920180548352600180820154848601526002820154928401929092526003015460ff166060830152908352909201910161050a565b60ff161161090657604051600160e51b62461bcd0281526004016103ca90612a64565b600301805460ff191660ff9290921691909117905550565b600081815260026020526040902080546001600160a01b0316331461095857604051600160e51b62461bcd0281526004016103ca90612ae4565b6003810154610100900460ff161561098557604051600160e51b62461bcd0281526004016103ca90612aa4565b600301805463ff0000001916630100000017905550565b6109a46118f3565b6000828152600260209081526040808320815160e08101835281546001600160a01b031681526001820180548451818702810187019095528085529195929486810194939192919084015b82821015610a46576000848152602090819020604080516080810182526004860290920180548352600180820154848601526002820154928401929092526003015460ff16606083015290835290920191016109ef565b50505050815260200160028201805480602002602001604051908101604052809291908181526020018280548015610aa757602002820191906000526020600020905b81546001600160a01b03168152600190910190602001808311610a89575b50505091835250506003919091015460ff80821660208401526101008204811660408401526201000082048116606084015263010000009091041660809091015292915050565b610af6611125565b610b1557604051600160e51b62461bcd0281526004016103ca90612ad4565b6001600160a01b03919091166000908152600160205260409020805460ff1916911515919091179055565b60065481565b6007548251604051600160e01b63fc87de390281526000926001600160a01b031691631393bbf591839163fc87de3991610b83919060040161296f565b60206040518083038186803b158015610b9b57600080fd5b505afa158015610baf573d6000803e3d6000fd5b505050506040513d601f19601f82011682018060405250610bd39190810190611e7d565b6040518263ffffffff1660e01b8152600401610bef919061292c565b60206040518083038186803b158015610c0757600080fd5b505afa158015610c1b573d6000803e3d6000fd5b505050506040513d601f19601f82011682018060405250610c3f9190810190611e07565b6001600160a01b03811660009081526003602052604090205490915080610cd75760045415610cd25760075460048054604051600160e51b6302654acd0281526001600160a01b0390931692634ca959a092610c9f9288923392016128aa565b600060405180830381600087803b158015610cb957600080fd5b505af1158015610ccd573d6000803e3d6000fd5b505050505b610e1d565b6000610d00600654610cf46005548561153690919063ffffffff16565b9063ffffffff61157a16565b90506000610d31600654610cf4610d246005546006546115bc90919063ffffffff16565b869063ffffffff61153616565b6004549091508290811015610d4557506004545b600754604051600160e01b636556cd050281526001600160a01b0390911690636556cd0590610d7e90899033908a90889060040161286c565b600060405180830381600087803b158015610d9857600080fd5b505af1158015610dac573d6000803e3d6000fd5b5050600754604051600160e51b6302654acd0281526001600160a01b039091169250634ca959a09150610de7908990339086906004016128aa565b600060405180830381600087803b158015610e0157600080fd5b505af1158015610e15573d6000803e3d6000fd5b505050505050505b6000610e36856000015186602001518760a00151610795565b60008181526002602052604090208054919250906001600160a01b031615610e7357604051600160e51b62461bcd0281526004016103ca90612a94565b608086015181546001600160a01b0319166001600160a01b0390911617815560e08601518051610ead916002840191602090910190611930565b5060038101805463ffffff001960ff1990911660011716905560c0860151610ed6908390610469565b6007546020870151604051600160e01b63fc87de3902815284926001600160a01b03169163fc87de3991610f0d919060040161296f565b60206040518083038186803b158015610f2557600080fd5b505afa158015610f39573d6000803e3d6000fd5b505050506040513d601f19601f82011682018060405250610f5d9190810190611e7d565b6007548851604051600160e01b63fc87de390281526001600160a01b039092169163fc87de3991610f909160040161296f565b60206040518083038186803b158015610fa857600080fd5b505afa158015610fbc573d6000803e3d6000fd5b505050506040513d601f19601f82011682018060405250610fe09190810190611e7d565b7f887b6b2688e70065ea92520acf8e6153a2cf80b2ec02264d0efbc097db7b016689600001518a602001518b604001518c606001518d60a001513360405161102d96959493929190612980565b60405180910390a4505050505050565b611049838383336115fe565b505050565b611056611125565b61107557604051600160e51b62461bcd0281526004016103ca90612ad4565b600080546040516001600160a01b03909116907f8be0079c531659141344cd1fd0a4f28419497f9722a3daafe3b4186f6b6457e0908390a3600080546001600160a01b0319169055565b6110c981336116a2565b50565b6110d4611125565b6110f357604051600160e51b62461bcd0281526004016103ca90612ad4565b600780546001600160a01b0319166001600160a01b0392909216919091179055565b6000546001600160a01b03165b90565b600080546001600160a01b031661113a6117db565b6001600160a01b031614905090565b611151611125565b61117057604051600160e51b62461bcd0281526004016103ca90612ad4565b600655565b61117e336111a9565b61119d57604051600160e51b62461bcd0281526004016103ca90612a54565b61078f848484846115fe565b6001600160a01b031660009081526001602052604090205460ff1690565b6111cf611125565b6111ee57604051600160e51b62461bcd0281526004016103ca90612ad4565b6110c9816117df565b6003602052600090815260409020805460019091015482565b60008381526002602052604090206003810154610100900460ff1661124a57604051600160e51b62461bcd0281526004016103ca90612ac4565b6040805160e08101825282546001600160a01b03168152600183018054835160208281028201810190955281815260009461138b949387938286019392889084015b828210156112e3576000848152602090819020604080516080810182526004860290920180548352600180820154848601526002820154928401929092526003015460ff166060830152908352909201910161128c565b5050505081526020016002820180548060200260200160405190810160405280929190818152602001828054801561134457602002820191906000526020600020905b81546001600160a01b03168152600190910190602001808311611326575b50505091835250506003919091015460ff808216602084015261010082048116604084015262010000820481166060840152630100000090910416608090910152846114b3565b60ff16116113ae57604051600160e51b62461bcd0281526004016103ca90612a64565b60005b83518110156114ac576000826001018583815181106113cc57fe5b6020026020010151815481106113de57fe5b60009182526020909120600490910201600381015490915060ff161561141957604051600160e51b62461bcd0281526004016103ca90612a44565b60038101805460ff191660019081179091556007548254918301546002840154604051600160e31b6301d4f0fd0281526001600160a01b0390931693630ea787e89361146d9391929060009060040161293a565b600060405180830381600087803b15801561148757600080fd5b505af115801561149b573d6000803e3d6000fd5b5050600190930192506113b1915050565b5050505050565b6000826040015151600014156114cb57506001611530565b60005b8360400151518163ffffffff16101561152a5783604001518163ffffffff16815181106114f757fe5b60200260200101516001600160a01b0316836001600160a01b03161415611522575060019050611530565b6001016114ce565b50600090505b92915050565b60008261154557506000611530565b8282028284828161155257fe5b041461157357604051600160e51b62461bcd0281526004016103ca90612ab4565b9392505050565b600061157383836040518060400160405280601a81526020017f536166654d6174683a206469766973696f6e206279207a65726f000000000000815250611863565b600061157383836040518060400160405280601e81526020017f536166654d6174683a207375627472616374696f6e206f766572666c6f77000081525061189d565b600084815260026020526040902080546001600160a01b0383811691161461163b57604051600160e51b62461bcd0281526004016103ca90612a24565b60ff8416156116805760038101546301000000900460ff161561167357604051600160e51b62461bcd0281526004016103ca90612a74565b60038101805460ff191690555b60038101805461ff00191661010060ff87160217905582156114ac576114ac85835b6000828152600260209081526040808320815160e08101835281546001600160a01b0316815260018201805484518187028101870190955280855292959461174a94929387938583019390929091908890840182156112e3576000848152602090819020604080516080810182526004860290920180548352600180820154848601526002820154928401929092526003015460ff166060830152908352909201910161128c565b60ff161161176d57604051600160e51b62461bcd0281526004016103ca90612a64565b6001810154604080518281526020808402820101909152606091801561179d578160200160208202803883390190505b50905060005b60018301548110156117cf57808282815181106117bc57fe5b60209081029190910101526001016117a3565b5061078f848285611210565b3390565b6001600160a01b03811661180857604051600160e51b62461bcd0281526004016103ca90612a14565b600080546040516001600160a01b03808516939216917f8be0079c531659141344cd1fd0a4f28419497f9722a3daafe3b4186f6b6457e091a3600080546001600160a01b0319166001600160a01b0392909216919091179055565b6000818361188757604051600160e51b62461bcd0281526004016103ca919061296f565b50600083858161189357fe5b0495945050505050565b600081848411156118c457604051600160e51b62461bcd0281526004016103ca919061296f565b505050900390565b60408051608081018252600080825260208201819052918101829052606081019190915290565b6040805160e08101825260008082526060602083018190529282018390529181018290526080810182905260a0810182905260c081019190915290565b828054828255906000526020600020908101928215611985579160200282015b8281111561198557825182546001600160a01b0319166001600160a01b03909116178255602090920191600190910190611950565b50611991929150611995565b5090565b61112291905b808211156119915780546001600160a01b031916815560010161199b565b803561153081612c2f565b805161153081612c2f565b600082601f8301126119e057600080fd5b81356119f36119ee82612b56565b612b30565b91508181835260208401935060208101905083856020840282011115611a1857600080fd5b60005b83811015611a445781611a2e88826119b9565b8452506020928301929190910190600101611a1b565b5050505092915050565b600082601f830112611a5f57600080fd5b8135611a6d6119ee82612b56565b91508181835260208401935060208101905083856080840282011115611a9257600080fd5b60005b83811015611a445781611aa88882611c1d565b84525060209092019160809190910190600101611a95565b600082601f830112611ad157600080fd5b8135611adf6119ee82612b56565b91508181835260208401935060208101905083856080840282011115611b0457600080fd5b60005b83811015611a445781611b1a8882611c1d565b84525060209092019160809190910190600101611b07565b600082601f830112611b4357600080fd5b8135611b516119ee82612b56565b91508181835260208401935060208101905083856020840282011115611b7657600080fd5b60005b83811015611a445781611b8c8882611bad565b8452506020928301929190910190600101611b79565b803561153081612c43565b803561153081612c4c565b805161153081612c4c565b803561153081612c55565b600082601f830112611bdf57600080fd5b8135611bed6119ee82612b76565b91508082526020830160208301858383011115611c0957600080fd5b611c14838284612bed565b50505092915050565b600060808284031215611c2f57600080fd5b611c396080612b30565b90506000611c478484611bad565b8252506020611c5884848301611bad565b6020830152506040611c6c84828501611bad565b6040830152506060611c8084828501611dd6565b60608301525092915050565b60006101008284031215611c9f57600080fd5b611caa610100612b30565b905081356001600160401b03811115611cc257600080fd5b611cce84828501611bce565b82525060208201356001600160401b03811115611cea57600080fd5b611cf684828501611bce565b60208301525060408201356001600160401b03811115611d1557600080fd5b611d2184828501611bce565b60408301525060608201356001600160401b03811115611d4057600080fd5b611d4c84828501611bce565b6060830152506080611d60848285016119b9565b60808301525060a0611d7484828501611bad565b60a08301525060c08201356001600160401b03811115611d9357600080fd5b611d9f84828501611a4e565b60c08301525060e08201356001600160401b03811115611dbe57600080fd5b611dca848285016119cf565b60e08301525092915050565b803561153081612c5e565b600060208284031215611df357600080fd5b6000611dff84846119b9565b949350505050565b600060208284031215611e1957600080fd5b6000611dff84846119c4565b60008060408385031215611e3857600080fd5b6000611e4485856119b9565b9250506020611e5585828601611ba2565b9150509250929050565b600060208284031215611e7157600080fd5b6000611dff8484611bad565b600060208284031215611e8f57600080fd5b6000611dff8484611bb8565b60008060408385031215611eae57600080fd5b6000611eba8585611bad565b92505060208301356001600160401b03811115611ed657600080fd5b611e5585828601611ac0565b60008060408385031215611ef557600080fd5b6000611f018585611bad565b92505060208301356001600160401b03811115611f1d57600080fd5b611e5585828601611b32565b60008060408385031215611f3c57600080fd5b6000611f488585611bad565b9250506020611e5585828601611dd6565b600080600060608486031215611f6e57600080fd5b6000611f7a8686611bad565b9350506020611f8b86828701611dd6565b9250506040611f9c86828701611ba2565b9150509250925092565b60008060008060808587031215611fbc57600080fd5b6000611fc88787611bad565b9450506020611fd987828801611dd6565b9350506040611fea87828801611ba2565b9250506060611ffb878288016119b9565b91505092959194509250565b60006020828403121561201957600080fd5b6000611dff8484611bc3565b60008060006060848603121561203a57600080fd5b83356001600160401b0381111561205057600080fd5b61205c86828701611bce565b93505060208401356001600160401b0381111561207857600080fd5b61208486828701611bce565b9250506040611f9c86828701611bad565b600080604083850312156120a857600080fd5b82356001600160401b038111156120be57600080fd5b6120ca85828601611c8c565b9250506020611e55858286016119b9565b60006120e78383612112565b505060200190565b60006120fb838361272f565b505060800190565b61210c81612be2565b82525050565b61210c81612bb5565b600061212682612ba3565b6121308185612ba7565b935061213b83612b9d565b8060005b8381101561216957815161215388826120db565b975061215e83612b9d565b92505060010161213f565b509495945050505050565b600061217f82612ba3565b6121898185612ba7565b935061219483612b9d565b8060005b838110156121695781516121ac88826120ef565b97506121b783612b9d565b925050600101612198565b61210c81612bc0565b61210c81611122565b60006121df82612ba3565b6121e98185612ba7565b93506121f9818560208601612bf9565b61220281612c25565b9093019392505050565b600061221782612ba3565b6122218185612bb0565b9350612231818560208601612bf9565b9290920192915050565b6000612248603783612ba7565b7f70726f706f73616c2063616e206f6e6c792073746f726520706572737065637481527f69766573206f776e656420627920697473206f776e6572000000000000000000602082015260400192915050565b60006122a7602a83612ba7565b7f68656164207570646174652065786563757465642070726f7065727479206d758152600160b01b697374206265207a65726f02602082015260400192915050565b60006122f6602683612ba7565b7f4f776e61626c653a206e6577206f776e657220697320746865207a65726f20618152600160d01b6564647265737302602082015260400192915050565b6000612341602c83612ba7565b7f50726f706f73616c2063616e206f6e6c7920627920617574686f72697a65642081527f627920697473206f776e65720000000000000000000000000000000000000000602082015260400192915050565b60006123a0601283612ba7565b7f70726f706f73616c206e6f7420666f756e640000000000000000000000000000815260200192915050565b60006123d9601c83612ba7565b7f686561642075706461746520616c726561647920657865637574656400000000815260200192915050565b6000612412602883612ba7565b7f486173537570657255736572733a2063616c6c6572206973206e6f74206120738152600160c11b673ab832b92ab9b2b902602082015260400192915050565b600061245f602283612ba7565b7f6d73672e73656e646572206e6f7420616e20617070726f7665642061646472658152600160f01b61737302602082015260400192915050565b60006124a6603183612ba7565b7f70726f706f73616c2063616e277420626520617574686f72697a65642c20697481527f2773206265656e2077697468647261776e000000000000000000000000000000602082015260400192915050565b6000612505603383612ba7565b7f70726f706f73616c2063616e27742062652072656a65637465642c206974277381527f20616c726561647920617574686f72697a656400000000000000000000000000602082015260400192915050565b6000612564601683612ba7565b7f70726f706f73616c20616c726561647920657869737400000000000000000000815260200192915050565b600061259d603483612ba7565b7f70726f706f73616c2063616e27742062652077697468647261776e2c2069742781527f7320616c726561647920617574686f72697a6564000000000000000000000000602082015260400192915050565b60006125fc602183612ba7565b7f536166654d6174683a206d756c7469706c69636174696f6e206f766572666c6f8152600160f81b607702602082015260400192915050565b6000612642601783612ba7565b7f50726f706f73616c206e6f7420617574686f72697a6564000000000000000000815260200192915050565b600061267b602083612ba7565b7f4f776e61626c653a2063616c6c6572206973206e6f7420746865206f776e6572815260200192915050565b60006126b4602a83612ba7565b7f50726f706f73616c2063616e206f6e6c792062792072656a65637465642062798152600160b11b691034ba399037bbb732b902602082015260400192915050565b6000612703601b83612ba7565b7f70726f706f73616c207374617475732069732064697361626c65640000000000815260200192915050565b8051608083019061274084826121cb565b50602082015161275360208501826121cb565b50604082015161276660408501826121cb565b50606082015161078f6060850182612826565b805160009060e084019061278d8582612112565b50602083015184820360208601526127a58282612174565b915050604083015184820360408601526127bf828261211b565b91505060608301516127d46060860182612826565b5060808301516127e76080860182612826565b5060a08301516127fa60a0860182612826565b5060c083015161280d60c0860182612826565b509392505050565b61210c61282182611122565b611122565b61210c81612bdc565b600061283b828661220c565b9150612847828561220c565b91506128538284612815565b506020019392505050565b602081016115308284612112565b6080810161287a8287612112565b6128876020830186612103565b6128946040830185612112565b6128a160608301846121cb565b95945050505050565b606081016128b88286612112565b6128c56020830185612103565b611dff60408301846121cb565b60a081016128e08288612112565b6128ed6020830187612826565b6128fa6040830186612826565b6129076060830185612826565b6129146080830184612826565b9695505050505050565b6020810161153082846121c2565b6020810161153082846121cb565b6080810161294882876121cb565b61295560208301866121cb565b61296260408301856121cb565b6128a16060830184612103565b6020808252810161157381846121d4565b60c0808252810161299181896121d4565b905081810360208301526129a581886121d4565b905081810360408301526129b981876121d4565b905081810360608301526129cd81866121d4565b90506129dc60808301856121cb565b6129e960a0830184612103565b979650505050505050565b602080825281016115308161223b565b602080825281016115308161229a565b60208082528101611530816122e9565b6020808252810161153081612334565b6020808252810161153081612393565b60208082528101611530816123cc565b6020808252810161153081612405565b6020808252810161153081612452565b6020808252810161153081612499565b60208082528101611530816124f8565b6020808252810161153081612557565b6020808252810161153081612590565b60208082528101611530816125ef565b6020808252810161153081612635565b602080825281016115308161266e565b60208082528101611530816126a7565b60208082528101611530816126f6565b602080825281016115738184612779565b60408101612b2382856121cb565b61157360208301846121cb565b6040518181016001600160401b0381118282101715612b4e57600080fd5b604052919050565b60006001600160401b03821115612b6c57600080fd5b5060209081020190565b60006001600160401b03821115612b8c57600080fd5b506020601f91909101601f19160190565b60200190565b5190565b90815260200190565b919050565b600061153082612bd0565b151590565b600061153082612bb5565b6001600160a01b031690565b60ff1690565b600061153082612bc5565b82818337506000910152565b60005b83811015612c14578181015183820152602001612bfc565b8381111561078f5750506000910152565b601f01601f191690565b612c3881612bb5565b81146110c957600080fd5b612c3881612bc0565b612c3881611122565b612c3881612bc5565b612c3881612bdc56fea265627a7a723058207e7e537d4ab60d14061f87094664092b7d28343c789dd2bf7401f0a7456217676c6578706572696d656e74616cf50037",
  "source": "pragma solidity >=0.5.0 <0.6.0;\npragma experimental ABIEncoderV2;\n\nimport \"./UprtclRoot.sol\";\nimport \"./SafeMath.sol\";\nimport \"./HasSuperUsers.sol\";\n\ncontract UprtclProposals is HasSuperUsers {\n\n    using SafeMath for uint256;\n\n    struct HeadUpdate {\n        bytes32 perspectiveIdHash;\n        bytes32 headCid1;\n        bytes32 headCid0;\n        uint8 executed;\n    }\n\n    struct NewProposal {\n        string toPerspectiveId;\n        string fromPerspectiveId;\n        string toHeadId;\n        string fromHeadId;\n        address owner;\n        uint256 nonce;\n        HeadUpdate[] headUpdates;\n        address[] approvedAddresses;\n    }\n\n    struct Proposal {\n        address owner;\n        HeadUpdate[] headUpdates;\n        address[] approvedAddresses;\n        uint8 status;\n        uint8 authorized;\n        uint8 rejected;\n        uint8 withdrawn;\n    }\n\n    struct OwnerFees {\n        uint256 fee;\n        uint256 balance;\n    }\n\n    mapping(bytes32 => Proposal) public proposals;\n    mapping(address => OwnerFees) public fees;\n\n    uint256 public minFee;\n    uint256 public factor_num;\n    uint256 public factor_den;\n\n    UprtclRoot uprtclRoot;\n\n    event ProposalCreated(\n        bytes32 indexed toPerspectiveIdHash,\n        bytes32 indexed fromPerspectiveIdHash,\n        bytes32 indexed proposalId,\n        string toPerspectiveId,\n        string fromPerspectiveId,\n        string toHeadId,\n        string fromHeadId,\n        uint256 nonce,\n        address creator\n    );\n\n    function setUprtclRoot(UprtclRoot _uprtclRoot) external onlyOwner {\n        uprtclRoot = _uprtclRoot;\n    }\n\n    function getProposalId(\n        string memory toPerspectiveId,\n        string memory fromPerspectiveId,\n        uint256 nonce\n    ) public pure returns (bytes32 proposalId) {\n        proposalId = keccak256(\n            abi.encodePacked(toPerspectiveId, fromPerspectiveId, nonce)\n        );\n    }\n\n    function setMinFee(uint256 _minFee) external onlyOwner {\n        minFee = _minFee;\n    }\n\n    function setFactorNum(uint256 _factor_num) external onlyOwner {\n        factor_num = _factor_num;\n    }\n\n    function setFactorDen(uint256 _factor_den) external onlyOwner {\n        factor_den = _factor_den;\n    }\n\n    function initProposal(\n        NewProposal memory newProposal,\n        address account\n    ) public {\n\n        address perspOwner = uprtclRoot.getPerspectiveOwner(\n            uprtclRoot.getPerspectiveIdHash(newProposal.toPerspectiveId)\n        );\n        uint256 perspFee = fees[perspOwner].fee;\n\n        if (perspFee == 0) {\n            /** charge only min fee */\n            if (minFee > 0) {\n                uprtclRoot.consume(account, msg.sender, minFee);\n            }\n        } else {\n            /** charge fee and transfer to perspOwner, keep a fraction to us */\n            uint256 feeUprtcl = perspFee.mul(factor_num).div(factor_den);\n            uint256 feeOwner = perspFee.mul(factor_den.sub(factor_num)).div(factor_den);\n\n            uint256 feeUprtclActual = feeUprtcl;\n            if (feeUprtcl < minFee) {\n                feeUprtclActual = minFee;\n            }\n\n            uprtclRoot.transferTo(account, msg.sender, perspOwner, feeOwner);\n            uprtclRoot.consume(account, msg.sender, feeUprtclActual);\n        }\n\n        bytes32 proposalId = getProposalId(\n            newProposal.toPerspectiveId,\n            newProposal.fromPerspectiveId,\n            newProposal.nonce\n        );\n\n        /** make sure the proposal does not exist */\n        Proposal storage proposal = proposals[proposalId];\n        require(proposal.owner == address(0), \"proposal already exist\");\n\n        proposal.owner = newProposal.owner;\n        proposal.approvedAddresses = newProposal.approvedAddresses;\n        proposal.status = 1;\n        proposal.authorized = 0;\n        proposal.rejected = 0;\n        proposal.withdrawn = 0;\n\n        addUpdatesToProposal(proposalId, newProposal.headUpdates);\n\n        emit ProposalCreated(\n            uprtclRoot.getPerspectiveIdHash(newProposal.toPerspectiveId),\n            uprtclRoot.getPerspectiveIdHash(newProposal.fromPerspectiveId),\n            proposalId,\n            newProposal.toPerspectiveId,\n            newProposal.fromPerspectiveId,\n            newProposal.toHeadId,\n            newProposal.fromHeadId,\n            newProposal.nonce,\n            msg.sender\n        );\n    }\n\n    function isApproved(Proposal memory proposal, address value)\n        private\n        pure\n        returns (uint8 approved)\n    {\n        if (proposal.approvedAddresses.length == 0) {\n          approved = 1;\n          return approved;\n        }\n\n        for (uint32 ix = 0; ix < proposal.approvedAddresses.length; ix++) {\n            if (value == proposal.approvedAddresses[ix]) {\n                approved = 1;\n                return approved;\n            }\n        }\n        approved = 0;\n    }\n\n    /** Add one or more headUpdate elements to an existing proposal */\n    function addUpdatesToProposal(\n        bytes32 proposalId,\n        HeadUpdate[] memory headUpdates\n    ) public {\n        Proposal storage proposal = proposals[proposalId];\n\n        /** make sure the proposal is open for new elements */\n        require(proposal.owner != address(0), \"proposal not found\");\n        require(proposal.status != 0, \"proposal status is disabled\");\n        require(\n            isApproved(proposal, msg.sender) > 0,\n            \"msg.sender not an approved address\"\n        );\n\n        for (uint8 ix = 0; ix < headUpdates.length; ix++) {\n            HeadUpdate memory headUpdate = headUpdates[ix];\n            require(\n                headUpdate.executed == 0,\n                \"head update executed property must be zero\"\n            );\n            require(\n                uprtclRoot.getPerspectiveOwner(headUpdate.perspectiveIdHash) == proposal.owner,\n                \"proposal can only store perspectives owned by its owner\"\n            );\n            proposal.headUpdates.push(headUpdate);\n        }\n    }\n\n    function setProposalStatus(bytes32 proposalId, uint8 status) external {\n        Proposal storage proposal = proposals[proposalId];\n        require(\n            isApproved(proposal, msg.sender) > 0,\n            \"msg.sender not an approved address\"\n        );\n        proposal.status = status;\n    }\n\n    function authorizeProposalSuperUser(bytes32 proposalId, uint8 authorized, bool execute, address msgSender) external onlySuperUser {\n        setProposalAuthorized(proposalId, authorized, execute, msgSender);\n    }\n\n    function authorizeProposal(bytes32 proposalId, uint8 authorized, bool execute) external {\n        setProposalAuthorized(proposalId, authorized, execute, msg.sender);\n    }\n\n    function setProposalAuthorized(bytes32 proposalId, uint8 authorized, bool execute, address msgSender) private {\n        Proposal storage proposal = proposals[proposalId];\n        require(\n            msgSender == proposal.owner,\n            \"Proposal can only by authorized by its owner\"\n        );\n        if (authorized > 0) {\n            require(proposal.withdrawn == 0, \"proposal can't be authorized, it's been withdrawn\");\n            /** by default the proposal is closed once it is authorized. */\n            proposal.status = 0;\n        }\n        proposal.authorized = authorized;\n\n        if (execute) {\n            executeProposalInternal(proposalId, msgSender);\n        }\n    }\n\n    function rejectProposal(bytes32 proposalId) external {\n        Proposal storage proposal = proposals[proposalId];\n        require(\n            msg.sender == proposal.owner,\n            \"Proposal can only by rejected by its owner\"\n        );\n        require(proposal.authorized == 0, \"proposal can't be rejected, it's already authorized\");\n        /** once rejected, a proposal cant be executed */\n        proposal.rejected = 1;\n    }\n\n    function withdrawProposal(bytes32 proposalId) external {\n        Proposal storage proposal = proposals[proposalId];\n        require(\n            msg.sender == proposal.owner,\n            \"Proposal can only by rejected by its owner\"\n        );\n        require(proposal.authorized == 0, \"proposal can't be withdrawn, it's already authorized\");\n\n        /** once withdrawn, a proposal cant be authorized */\n        proposal.withdrawn = 1;\n    }\n\n\n    function executeProposalInternal(bytes32 proposalId, address msgSender) private {\n        Proposal storage proposal = proposals[proposalId];\n\n        /** Check the msg.sender is an approved address */\n        require(\n            isApproved(proposal, msgSender) > 0,\n            \"msg.sender not an approved address\"\n        );\n\n        uint256[] memory indexes = new uint256[](proposal.headUpdates.length);\n        for (uint256 ix = 0; ix < proposal.headUpdates.length; ix++) {\n            indexes[ix] = ix;\n        }\n\n        executeProposalPartiallyInternal(proposalId, indexes, msgSender);\n    }\n\n\n    function executeProposalExternal(bytes32 proposalId) external {\n        executeProposalInternal(proposalId, msg.sender);\n    }\n\n    function executeProposalPartially(\n        bytes32 proposalId,\n        uint256[] memory indexes\n    ) public {\n        executeProposalPartiallyInternal(proposalId, indexes, msg.sender);\n    }\n\n    function executeProposalPartiallyInternal(\n        bytes32 proposalId,\n        uint256[] memory indexes,\n        address msgSender\n    ) private {\n        Proposal storage proposal = proposals[proposalId];\n        require(proposal.authorized != 0, \"Proposal not authorized\");\n\n        require(\n            isApproved(proposal, msgSender) > 0,\n            \"msg.sender not an approved address\"\n        );\n\n        for (uint256 ix = 0; ix < indexes.length; ix++) {\n            HeadUpdate storage headUpdate = proposal.headUpdates[indexes[ix]];\n\n            require(headUpdate.executed == 0, \"head update already executed\");\n            headUpdate.executed = 1;\n\n            uprtclRoot.updateHead(headUpdate.perspectiveIdHash, headUpdate.headCid1, headUpdate.headCid0, address(0));\n        }\n    }\n\n    function getProposal(bytes32 proposalId)\n        public\n        view\n        returns (Proposal memory proposal)\n    {\n        return (proposals[proposalId]);\n    }\n}\n",
  "sourcePath": "/home/pepo/pr/uprtcl/eth-uprtcl/contracts/UprtclProposals.sol",
  "compiler": {
    "name": "solc",
    "version": "0.5.8+commit.23d335f2.Emscripten.clang"
  },
  "schemaVersion": "3.0.11",
  "updatedAt": "2020-04-19T13:53:28.741Z",
  "devdoc": {
    "methods": {
      "isOwner()": {
        "details": "Returns true if the caller is the current owner."
      },
      "owner()": {
        "details": "Returns the address of the current owner."
      },
      "renounceOwnership()": {
        "details": "Leaves the contract without owner. It will not be possible to call `onlyOwner` functions anymore. Can only be called by the current owner.     * NOTE: Renouncing ownership will leave the contract without an owner, thereby removing any functionality that is only available to the owner."
      },
      "transferOwnership(address)": {
        "details": "Transfers ownership of the contract to a new account (`newOwner`). Can only be called by the current owner."
      }
    }
  },
  "userdoc": {
    "methods": {
      "addUpdatesToProposal(bytes32,(bytes32,bytes32,bytes32,uint8)[])": {
        "notice": "Add one or more headUpdate elements to an existing proposal "
      }
    }
  }
}