{
  "contractName": "UprtclHomePerspectives",
  "abi": [
    {
      "constant": true,
      "inputs": [
        {
          "internalType": "address",
          "name": "",
          "type": "address"
        }
      ],
      "name": "homePerspectives",
      "outputs": [
        {
          "internalType": "string",
          "name": "",
          "type": "string"
        }
      ],
      "payable": false,
      "stateMutability": "view",
      "type": "function"
    },
    {
      "constant": true,
      "inputs": [
        {
          "internalType": "address",
          "name": "owner",
          "type": "address"
        }
      ],
      "name": "getHomePerspective",
      "outputs": [
        {
          "internalType": "string",
          "name": "home",
          "type": "string"
        }
      ],
      "payable": false,
      "stateMutability": "view",
      "type": "function"
    },
    {
      "constant": false,
      "inputs": [
        {
          "internalType": "string",
          "name": "perspectiveId",
          "type": "string"
        }
      ],
      "name": "setHomePerspective",
      "outputs": [],
      "payable": false,
      "stateMutability": "nonpayable",
      "type": "function"
    }
  ],
  "bytecode": "0x608060405234801561001057600080fd5b506103ab806100206000396000f3fe608060405234801561001057600080fd5b50600436106100415760003560e01c80632c7bfd76146100465780635b041086146100e1578063eb5e06c314610107575b600080fd5b61006c6004803603602081101561005c57600080fd5b50356001600160a01b0316610179565b6040805160208082528351818301528351919283929083019185019080838360005b838110156100a657818101518382015260200161008e565b50505050905090810190601f1680156100d35780820380516001836020036101000a031916815260200191505b509250505060405180910390f35b61006c600480360360208110156100f757600080fd5b50356001600160a01b0316610222565b6101776004803603602081101561011d57600080fd5b81019060208101813564010000000081111561013857600080fd5b82018360208201111561014a57600080fd5b8035906020019184600183028401116401000000008311171561016c57600080fd5b5090925090506102bc565b005b6001600160a01b0381166000908152602081815260409182902080548351601f60026000196101006001861615020190931692909204918201849004840281018401909452808452606093928301828280156102165780601f106101eb57610100808354040283529160200191610216565b820191906000526020600020905b8154815290600101906020018083116101f957829003601f168201915b50505050509050919050565b600060208181529181526040908190208054825160026001831615610100026000190190921691909104601f8101859004850282018501909352828152929091908301828280156102b45780601f10610289576101008083540402835291602001916102b4565b820191906000526020600020905b81548152906001019060200180831161029757829003601f168201915b505050505081565b3360009081526020819052604090206102d69083836102db565b505050565b828054600181600116156101000203166002900490600052602060002090601f016020900481019282601f1061031c5782800160ff19823516178555610349565b82800160010185558215610349579182015b8281111561034957823582559160200191906001019061032e565b50610355929150610359565b5090565b61037391905b80821115610355576000815560010161035f565b9056fea265627a7a72315820c934726ab7ebc0056f08dc3dfc1af7dca9a229a62e16c8d7c755b16f130667a164736f6c63430005100032",
  "source": "pragma solidity >=0.5.0 <0.6.0;\n\ncontract UprtclHomePerspectives {\n    mapping(address => string) public homePerspectives;\n\n    function getHomePerspective(address owner) external view returns (string memory home) {\n        return homePerspectives[owner];\n    }\n\n    function setHomePerspective(string calldata perspectiveId) external {\n        homePerspectives[msg.sender] = perspectiveId;\n    }\n\n}\n",
  "sourcePath": "/home/pepo/pr/uprtcl/eth-uprtcl/contracts/UprtclHomePerspetives.sol",
  "compiler": {
    "name": "solc",
    "version": "0.5.16+commit.9c3226ce.Emscripten.clang"
  },
  "schemaVersion": "3.0.11",
  "updatedAt": "2020-03-16T21:31:30.811Z",
  "devdoc": {
    "methods": {}
  },
  "userdoc": {
    "methods": {}
  }
}