{
  "contractName": "UprtclDetails",
  "abi": [
    {
      "anonymous": false,
      "inputs": [
        {
          "indexed": true,
          "internalType": "address",
          "name": "previousOwner",
          "type": "address"
        },
        {
          "indexed": true,
          "internalType": "address",
          "name": "newOwner",
          "type": "address"
        }
      ],
      "name": "OwnershipTransferred",
      "type": "event"
    },
    {
      "anonymous": false,
      "inputs": [
        {
          "indexed": true,
          "internalType": "bytes32",
          "name": "perspectiveIdHash",
          "type": "bytes32"
        },
        {
          "indexed": true,
          "internalType": "bytes32",
          "name": "contextHash",
          "type": "bytes32"
        }
      ],
      "name": "PerspectiveDetailsSet",
      "type": "event"
    },
    {
      "constant": true,
      "inputs": [],
      "name": "isOwner",
      "outputs": [
        {
          "internalType": "bool",
          "name": "",
          "type": "bool"
        }
      ],
      "payable": false,
      "stateMutability": "view",
      "type": "function"
    },
    {
      "constant": true,
      "inputs": [],
      "name": "owner",
      "outputs": [
        {
          "internalType": "address payable",
          "name": "",
          "type": "address"
        }
      ],
      "payable": false,
      "stateMutability": "view",
      "type": "function"
    },
    {
      "constant": true,
      "inputs": [
        {
          "internalType": "bytes32",
          "name": "",
          "type": "bytes32"
        }
      ],
      "name": "perspectivesDetails",
      "outputs": [
        {
          "internalType": "string",
          "name": "name",
          "type": "string"
        },
        {
          "internalType": "string",
          "name": "context",
          "type": "string"
        }
      ],
      "payable": false,
      "stateMutability": "view",
      "type": "function"
    },
    {
      "constant": false,
      "inputs": [],
      "name": "renounceOwnership",
      "outputs": [],
      "payable": false,
      "stateMutability": "nonpayable",
      "type": "function"
    },
    {
      "constant": false,
      "inputs": [
        {
          "internalType": "address payable",
          "name": "newOwner",
          "type": "address"
        }
      ],
      "name": "transferOwnership",
      "outputs": [],
      "payable": false,
      "stateMutability": "nonpayable",
      "type": "function"
    },
    {
      "constant": false,
      "inputs": [
        {
          "internalType": "contract UprtclRoot",
          "name": "_uprtclRoot",
          "type": "address"
        }
      ],
      "name": "setUprtclRoot",
      "outputs": [],
      "payable": false,
      "stateMutability": "nonpayable",
      "type": "function"
    },
    {
      "constant": true,
      "inputs": [
        {
          "internalType": "string",
          "name": "context",
          "type": "string"
        }
      ],
      "name": "getContextHash",
      "outputs": [
        {
          "internalType": "bytes32",
          "name": "contextHash",
          "type": "bytes32"
        }
      ],
      "payable": false,
      "stateMutability": "pure",
      "type": "function"
    },
    {
      "constant": false,
      "inputs": [
        {
          "internalType": "bytes32",
          "name": "perspectiveIdHash",
          "type": "bytes32"
        },
        {
          "components": [
            {
              "internalType": "string",
              "name": "name",
              "type": "string"
            },
            {
              "internalType": "string",
              "name": "context",
              "type": "string"
            }
          ],
          "internalType": "struct UprtclDetails.PerspectiveDetails",
          "name": "newDetails",
          "type": "tuple"
        }
      ],
      "name": "setPerspectiveDetails",
      "outputs": [],
      "payable": false,
      "stateMutability": "nonpayable",
      "type": "function"
    },
    {
      "constant": true,
      "inputs": [
        {
          "internalType": "bytes32",
          "name": "perspectiveIdHash",
          "type": "bytes32"
        }
      ],
      "name": "getPerspectiveDetails",
      "outputs": [
        {
          "internalType": "string",
          "name": "name",
          "type": "string"
        },
        {
          "internalType": "string",
          "name": "context",
          "type": "string"
        }
      ],
      "payable": false,
      "stateMutability": "view",
      "type": "function"
    },
    {
      "constant": false,
      "inputs": [
        {
          "components": [
            {
              "components": [
                {
                  "internalType": "string",
                  "name": "perspectiveId",
                  "type": "string"
                },
                {
                  "internalType": "bytes32",
                  "name": "headCid1",
                  "type": "bytes32"
                },
                {
                  "internalType": "bytes32",
                  "name": "headCid0",
                  "type": "bytes32"
                },
                {
                  "internalType": "address",
                  "name": "owner",
                  "type": "address"
                }
              ],
              "internalType": "struct UprtclRoot.NewPerspective",
              "name": "perspective",
              "type": "tuple"
            },
            {
              "components": [
                {
                  "internalType": "string",
                  "name": "name",
                  "type": "string"
                },
                {
                  "internalType": "string",
                  "name": "context",
                  "type": "string"
                }
              ],
              "internalType": "struct UprtclDetails.PerspectiveDetails",
              "name": "details",
              "type": "tuple"
            }
          ],
          "internalType": "struct UprtclDetails.InitPerspective",
          "name": "perspectiveData",
          "type": "tuple"
        },
        {
          "internalType": "address",
          "name": "account",
          "type": "address"
        }
      ],
      "name": "initPerspective",
      "outputs": [],
      "payable": false,
      "stateMutability": "nonpayable",
      "type": "function"
    },
    {
      "constant": false,
      "inputs": [
        {
          "components": [
            {
              "components": [
                {
                  "internalType": "string",
                  "name": "perspectiveId",
                  "type": "string"
                },
                {
                  "internalType": "bytes32",
                  "name": "headCid1",
                  "type": "bytes32"
                },
                {
                  "internalType": "bytes32",
                  "name": "headCid0",
                  "type": "bytes32"
                },
                {
                  "internalType": "address",
                  "name": "owner",
                  "type": "address"
                }
              ],
              "internalType": "struct UprtclRoot.NewPerspective",
              "name": "perspective",
              "type": "tuple"
            },
            {
              "components": [
                {
                  "internalType": "string",
                  "name": "name",
                  "type": "string"
                },
                {
                  "internalType": "string",
                  "name": "context",
                  "type": "string"
                }
              ],
              "internalType": "struct UprtclDetails.PerspectiveDetails",
              "name": "details",
              "type": "tuple"
            }
          ],
          "internalType": "struct UprtclDetails.InitPerspective[]",
          "name": "perspectivesData",
          "type": "tuple[]"
        },
        {
          "internalType": "address",
          "name": "account",
          "type": "address"
        }
      ],
      "name": "initPerspectiveBatch",
      "outputs": [],
      "payable": false,
      "stateMutability": "nonpayable",
      "type": "function"
    }
  ],
  "bytecode": "0x60806040526100156001600160e01b0361006216565b600080546001600160a01b0319166001600160a01b03928316178082556040519216917f8be0079c531659141344cd1fd0a4f28419497f9722a3daafe3b4186f6b6457e0908290a3610066565b3390565b611540806100756000396000f3fe608060405234801561001057600080fd5b50600436106100a95760003560e01c8063b81c6b3411610071578063b81c6b341461011f578063c08b985d14610132578063cf29e96914610145578063e3ada24d14610158578063e7d075991461016b578063f2fde38b1461018b576100a9565b8063715018a6146100ae57806376914ecf146100b85780637cce0117146100e25780638da5cb5b146100f55780638f32d59b1461010a575b600080fd5b6100b661019e565b005b6100cb6100c6366004610fd7565b610215565b6040516100d9929190611358565b60405180910390f35b6100b66100f036600461105b565b61037e565b6100fd6103c4565b6040516100d991906112f5565b6101126103d4565b6040516100d9919061132b565b6100b661012d366004610f86565b6103f8565b6100b6610140366004611013565b61053c565b6100cb610153366004610fd7565b61054b565b6100b66101663660046110ae565b610685565b61017e610179366004611079565b610780565b6040516100d99190611339565b6100b6610199366004610f68565b6107b0565b6101a66103d4565b6101cb5760405162461bcd60e51b81526004016101c2906113ad565b60405180910390fd5b600080546040516001600160a01b03909116907f8be0079c531659141344cd1fd0a4f28419497f9722a3daafe3b4186f6b6457e0908390a3600080546001600160a01b0319169055565b606080610220610bc3565b6000848152600160208181526040928390208351815460029481161561010002600019011693909304601f810183900490920283016060908101855293830182815292939092849290918491908401828280156102be5780601f10610293576101008083540402835291602001916102be565b820191906000526020600020905b8154815290600101906020018083116102a157829003601f168201915b50505050508152602001600182018054600181600116156101000203166002900480601f0160208091040260200160405190810160405280929190818152602001828054600181600116156101000203166002900480156103605780601f1061033557610100808354040283529160200191610360565b820191906000526020600020905b81548152906001019060200180831161034357829003601f168201915b50505091909252505081516020909201519194509092505050915091565b6103866103d4565b6103a25760405162461bcd60e51b81526004016101c2906113ad565b600280546001600160a01b0319166001600160a01b0392909216919091179055565b6000546001600160a01b03165b90565b600080546001600160a01b03166103e96107e0565b6001600160a01b031614905090565b600082519050600061049682600260009054906101000a90046001600160a01b03166001600160a01b031663b7b0ccde6040518163ffffffff1660e01b815260040160206040518083038186803b15801561045257600080fd5b505afa158015610466573d6000803e3d6000fd5b505050506040513d601f19601f8201168201806040525061048a9190810190610ff5565b9063ffffffff6107e416565b90508015610505576002546040516302654acd60e51b81526001600160a01b0390911690634ca959a0906104d290869033908690600401611303565b600060405180830381600087803b1580156104ec57600080fd5b505af1158015610500573d6000803e3d6000fd5b505050505b60005b828110156105355761052d85828151811061051f57fe5b602002602001015185610827565b600101610508565b5050505050565b61054782823361091d565b5050565b60016020818152600092835260409283902080548451600294821615610100026000190190911693909304601f81018390048302840183019094528383529283918301828280156105dd5780601f106105b2576101008083540402835291602001916105dd565b820191906000526020600020905b8154815290600101906020018083116105c057829003601f168201915b505050505090806001018054600181600116156101000203166002900480601f01602080910402602001604051908101604052809291908181526020018280546001816001161561010002031660029004801561067b5780601f106106505761010080835404028352916020019161067b565b820191906000526020600020905b81548152906001019060200180831161065e57829003601f168201915b5050505050905082565b600254604080516310d061ab60e31b815290516000926001600160a01b0316916386830d58916004808301926020929190829003018186803b1580156106ca57600080fd5b505afa1580156106de573d6000803e3d6000fd5b505050506040513d601f19601f820116820180604052506107029190810190610ff5565b90508015610771576002546040516302654acd60e51b81526001600160a01b0390911690634ca959a09061073e90859033908690600401611303565b600060405180830381600087803b15801561075857600080fd5b505af115801561076c573d6000803e3d6000fd5b505050505b61077b8383610827565b505050565b60008160405160200161079391906112e2565b604051602081830303815290604052805190602001209050919050565b6107b86103d4565b6107d45760405162461bcd60e51b81526004016101c2906113ad565b6107dd81610b42565b50565b3390565b6000826107f357506000610821565b8282028284828161080057fe5b041461081e5760405162461bcd60e51b81526004016101c29061139d565b90505b92915050565b600254825160405163c886170b60e01b81526001600160a01b039092169163c886170b916108599185906004016113bd565b600060405180830381600087803b15801561087357600080fd5b505af1158015610887573d6000803e3d6000fd5b505060025484515160405163fc87de3960e01b815261054794506001600160a01b03909216925063fc87de39916108c19190600401611347565b60206040518083038186803b1580156108d957600080fd5b505afa1580156108ed573d6000803e3d6000fd5b505050506040513d601f19601f820116820180604052506109119190810190610ff5565b60208401518451606001515b600254604051631393bbf560e01b81526001600160a01b03808416921690631393bbf59061094f908790600401611339565b60206040518083038186803b15801561096757600080fd5b505afa15801561097b573d6000803e3d6000fd5b505050506040513d601f19601f8201168201806040525061099f9190810190610f42565b6001600160a01b0316146109c55760405162461bcd60e51b81526004016101c29061137d565b60008381526001602090815260409091208351805191926109eb92849290910190610bdd565b506020808401518051610a049260018501920190610bdd565b50806001600086815260200190815260200160002060008201816000019080546001816001161561010002031660029004610a40929190610c5b565b5060018201816001019080546001816001161561010002031660029004610a68929190610c5b565b50905050610b11816001018054600181600116156101000203166002900480601f016020809104026020016040519081016040528092919081815260200182805460018160011615610100020316600290048015610b075780601f10610adc57610100808354040283529160200191610b07565b820191906000526020600020905b815481529060010190602001808311610aea57829003601f168201915b5050505050610780565b60405185907f54d694087b2b7af3574607f1c7957f264e43dae2cd138a793dc22d407fac002b90600090a350505050565b6001600160a01b038116610b685760405162461bcd60e51b81526004016101c29061138d565b600080546040516001600160a01b03808516939216917f8be0079c531659141344cd1fd0a4f28419497f9722a3daafe3b4186f6b6457e091a3600080546001600160a01b0319166001600160a01b0392909216919091179055565b604051806040016040528060608152602001606081525090565b828054600181600116156101000203166002900490600052602060002090601f016020900481019282601f10610c1e57805160ff1916838001178555610c4b565b82800160010185558215610c4b579182015b82811115610c4b578251825591602001919060010190610c30565b50610c57929150610cd0565b5090565b828054600181600116156101000203166002900490600052602060002090601f016020900481019282601f10610c945780548555610c4b565b82800160010185558215610c4b57600052602060002091601f016020900482015b82811115610c4b578254825591600101919060010190610cb5565b6103d191905b80821115610c575760008155600101610cd6565b8035610821816114d7565b8051610821816114d7565b600082601f830112610d1157600080fd5b8135610d24610d1f82611404565b6113dd565b81815260209384019390925082018360005b83811015610d625781358601610d4c8882610ddc565b8452506020928301929190910190600101610d36565b5050505092915050565b8035610821816114eb565b8051610821816114eb565b8035610821816114f4565b600082601f830112610d9e57600080fd5b8135610dac610d1f82611425565b91508082526020830160208301858383011115610dc857600080fd5b610dd3838284611491565b50505092915050565b600060408284031215610dee57600080fd5b610df860406113dd565b9050813567ffffffffffffffff811115610e1157600080fd5b610e1d84828501610e52565b825250602082013567ffffffffffffffff811115610e3a57600080fd5b610e4684828501610ed8565b60208301525092915050565b600060808284031215610e6457600080fd5b610e6e60806113dd565b9050813567ffffffffffffffff811115610e8757600080fd5b610e9384828501610d8d565b8252506020610ea484848301610d6c565b6020830152506040610eb884828501610d6c565b6040830152506060610ecc84828501610cea565b60608301525092915050565b600060408284031215610eea57600080fd5b610ef460406113dd565b9050813567ffffffffffffffff811115610f0d57600080fd5b610f1984828501610d8d565b825250602082013567ffffffffffffffff811115610f3657600080fd5b610e4684828501610d8d565b600060208284031215610f5457600080fd5b6000610f608484610cf5565b949350505050565b600060208284031215610f7a57600080fd5b6000610f608484610cea565b60008060408385031215610f9957600080fd5b823567ffffffffffffffff811115610fb057600080fd5b610fbc85828601610d00565b9250506020610fcd85828601610cea565b9150509250929050565b600060208284031215610fe957600080fd5b6000610f608484610d6c565b60006020828403121561100757600080fd5b6000610f608484610d77565b6000806040838503121561102657600080fd5b60006110328585610d6c565b925050602083013567ffffffffffffffff81111561104f57600080fd5b610fcd85828601610ed8565b60006020828403121561106d57600080fd5b6000610f608484610d82565b60006020828403121561108b57600080fd5b813567ffffffffffffffff8111156110a257600080fd5b610f6084828501610d8d565b600080604083850312156110c157600080fd5b823567ffffffffffffffff8111156110d857600080fd5b610fbc85828601610ddc565b6110ed81611486565b82525050565b6110ed8161145f565b6110ed8161146a565b6110ed816103d1565b60006111198261144d565b6111238185611451565b935061113381856020860161149d565b61113c816114cd565b9093019392505050565b60006111518261144d565b61115b818561145a565b935061116b81856020860161149d565b9290920192915050565b6000611182602c83611451565b7f64657461696c732063616e206f6e6c792062792073657420627920706572737081526b32b1ba34bb329037bbb732b960a11b602082015260400192915050565b60006111d0602683611451565b7f4f776e61626c653a206e6577206f776e657220697320746865207a65726f206181526564647265737360d01b602082015260400192915050565b6000611218602183611451565b7f536166654d6174683a206d756c7469706c69636174696f6e206f766572666c6f8152607760f81b602082015260400192915050565b600061125b602083611451565b7f4f776e61626c653a2063616c6c6572206973206e6f7420746865206f776e6572815260200192915050565b805160808084526000919084019061129f828261110e565b91505060208301516112b46020860182611105565b5060408301516112c76040860182611105565b5060608301516112da60608601826110f3565b509392505050565b60006112ee8284611146565b9392505050565b6020810161082182846110f3565b6060810161131182866110f3565b61131e60208301856110e4565b610f606040830184611105565b6020810161082182846110fc565b602081016108218284611105565b602080825281016112ee818461110e565b60408082528101611369818561110e565b90508181036020830152610f60818461110e565b6020808252810161082181611175565b60208082528101610821816111c3565b602080825281016108218161120b565b602080825281016108218161124e565b604080825281016113ce8185611287565b90506112ee60208301846110f3565b60405181810167ffffffffffffffff811182821017156113fc57600080fd5b604052919050565b600067ffffffffffffffff82111561141b57600080fd5b5060209081020190565b600067ffffffffffffffff82111561143c57600080fd5b506020601f91909101601f19160190565b5190565b90815260200190565b919050565b60006108218261147a565b151590565b60006108218261145f565b6001600160a01b031690565b60006108218261146f565b82818337506000910152565b60005b838110156114b85781810151838201526020016114a0565b838111156114c7576000848401525b50505050565b601f01601f191690565b6114e08161145f565b81146107dd57600080fd5b6114e0816103d1565b6114e08161146f56fea365627a7a72315820902f8e949e92a11fd9253255dd241d416fdee7104dd61b54b42ab6d5b37c0b696c6578706572696d656e74616cf564736f6c63430005100040",
  "source": "pragma solidity >=0.5.0 <0.6.0;\npragma experimental ABIEncoderV2;\n\nimport \"./UprtclRoot.sol\";\nimport \"./Ownable.sol\";\nimport \"./SafeMath.sol\";\n\ncontract UprtclDetails is Ownable {\n    using SafeMath for uint256;\n\n    struct PerspectiveDetails {\n        string name;\n        string context;\n    }\n\n    struct InitPerspective {\n        UprtclRoot.NewPerspective perspective;\n        PerspectiveDetails details;\n    }\n\n    event PerspectiveDetailsSet (\n        bytes32 indexed perspectiveIdHash,\n        bytes32 indexed contextHash\n    );\n\n    mapping(bytes32 => PerspectiveDetails) public perspectivesDetails;\n\n    UprtclRoot uprtclRoot;\n\n    function setUprtclRoot(UprtclRoot _uprtclRoot) public onlyOwner {\n        uprtclRoot = _uprtclRoot;\n    }\n\n    function getContextHash(string memory context) public pure returns (bytes32 contextHash) {\n        return keccak256(abi.encodePacked(context));\n    }\n\n    /** Adds a new perspective to the mapping and sets the owner. The head pointer and the context. */\n    function setPerspectiveDetailsInternal(\n        bytes32 perspectiveIdHash,\n        PerspectiveDetails memory newDetails,\n        address sender\n    ) private {\n        require(uprtclRoot.getPerspectiveOwner(perspectiveIdHash) == sender, \"details can only by set by perspective owner\");\n\n        PerspectiveDetails storage details = perspectivesDetails[perspectiveIdHash];\n\n        details.name = newDetails.name;\n        details.context = newDetails.context;\n\n        perspectivesDetails[perspectiveIdHash] = details;\n\n        emit PerspectiveDetailsSet(\n            perspectiveIdHash,\n            getContextHash(details.context)\n        );\n    }\n\n    function setPerspectiveDetails(\n        bytes32 perspectiveIdHash,\n        PerspectiveDetails memory newDetails\n    ) public {\n        setPerspectiveDetailsInternal(perspectiveIdHash, newDetails, msg.sender);\n    }\n\n    function getPerspectiveDetails(bytes32 perspectiveIdHash) public view returns (string memory name, string memory context) {\n        PerspectiveDetails memory details = perspectivesDetails[perspectiveIdHash];\n        return (details.name, details.context);\n    }\n\n    function initPerspectiveInternal(InitPerspective memory perspectiveData, address account) private {\n        uprtclRoot.createPerspective(perspectiveData.perspective, account);\n\n        setPerspectiveDetailsInternal(\n            uprtclRoot.getPerspectiveIdHash(perspectiveData.perspective.perspectiveId),\n            perspectiveData.details,\n            perspectiveData.perspective.owner);\n    }\n\n    function initPerspective(\n        InitPerspective memory perspectiveData,\n        address account) public {\n\n        /** collect fee here */\n        uint256 fee = uprtclRoot.getAddFee();\n        if (fee > 0) {\n            uprtclRoot.consume(account, msg.sender, fee);\n        }\n\n        initPerspectiveInternal(perspectiveData, account);\n    }\n\n    function initPerspectiveBatch(InitPerspective[] memory perspectivesData, address account)\n        public\n    {\n        uint256 nPerspectives = perspectivesData.length;\n        uint256 fee = uprtclRoot.getUpdateFee().mul(nPerspectives);\n\n        if (fee > 0) {\n            uprtclRoot.consume(account, msg.sender, fee);\n        }\n\n        for (uint256 ix = 0; ix < nPerspectives; ix++) {\n            initPerspectiveInternal(perspectivesData[ix], account);\n        }\n    }\n\n}\n",
  "sourcePath": "/home/pepo/pr/uprtcl/eth-uprtcl/contracts/UprtclDetails.sol",
  "compiler": {
    "name": "solc",
    "version": "0.5.16+commit.9c3226ce.Emscripten.clang"
  },
  "schemaVersion": "3.0.11",
  "updatedAt": "2020-03-16T21:31:31.372Z",
  "devdoc": {
    "methods": {
      "isOwner()": {
        "details": "Returns true if the caller is the current owner."
      },
      "owner()": {
        "details": "Returns the address of the current owner."
      },
      "renounceOwnership()": {
        "details": "Leaves the contract without owner. It will not be possible to call `onlyOwner` functions anymore. Can only be called by the current owner.     * NOTE: Renouncing ownership will leave the contract without an owner, thereby removing any functionality that is only available to the owner."
      },
      "transferOwnership(address)": {
        "details": "Transfers ownership of the contract to a new account (`newOwner`). Can only be called by the current owner."
      }
    }
  },
  "userdoc": {
    "methods": {}
  }
}