{
  "contractName": "UprtclProposals",
  "abi": [
    {
      "anonymous": false,
      "inputs": [
        {
          "indexed": true,
          "internalType": "address",
          "name": "previousOwner",
          "type": "address"
        },
        {
          "indexed": true,
          "internalType": "address",
          "name": "newOwner",
          "type": "address"
        }
      ],
      "name": "OwnershipTransferred",
      "type": "event"
    },
    {
      "anonymous": false,
      "inputs": [
        {
          "indexed": true,
          "internalType": "bytes32",
          "name": "toPerspectiveIdHash",
          "type": "bytes32"
        },
        {
          "indexed": true,
          "internalType": "bytes32",
          "name": "fromPerspectiveIdHash",
          "type": "bytes32"
        },
        {
          "indexed": true,
          "internalType": "bytes32",
          "name": "proposalId",
          "type": "bytes32"
        },
        {
          "indexed": false,
          "internalType": "address",
          "name": "creator",
          "type": "address"
        }
      ],
      "name": "ProposalCreated",
      "type": "event"
    },
    {
      "constant": true,
      "inputs": [],
      "name": "factor_den",
      "outputs": [
        {
          "internalType": "uint256",
          "name": "",
          "type": "uint256"
        }
      ],
      "payable": false,
      "stateMutability": "view",
      "type": "function"
    },
    {
      "constant": true,
      "inputs": [],
      "name": "factor_num",
      "outputs": [
        {
          "internalType": "uint256",
          "name": "",
          "type": "uint256"
        }
      ],
      "payable": false,
      "stateMutability": "view",
      "type": "function"
    },
    {
      "constant": true,
      "inputs": [
        {
          "internalType": "address",
          "name": "",
          "type": "address"
        }
      ],
      "name": "fees",
      "outputs": [
        {
          "internalType": "uint256",
          "name": "fee",
          "type": "uint256"
        },
        {
          "internalType": "uint256",
          "name": "balance",
          "type": "uint256"
        }
      ],
      "payable": false,
      "stateMutability": "view",
      "type": "function"
    },
    {
      "constant": true,
      "inputs": [],
      "name": "isOwner",
      "outputs": [
        {
          "internalType": "bool",
          "name": "",
          "type": "bool"
        }
      ],
      "payable": false,
      "stateMutability": "view",
      "type": "function"
    },
    {
      "constant": true,
      "inputs": [],
      "name": "minFee",
      "outputs": [
        {
          "internalType": "uint256",
          "name": "",
          "type": "uint256"
        }
      ],
      "payable": false,
      "stateMutability": "view",
      "type": "function"
    },
    {
      "constant": true,
      "inputs": [],
      "name": "owner",
      "outputs": [
        {
          "internalType": "address payable",
          "name": "",
          "type": "address"
        }
      ],
      "payable": false,
      "stateMutability": "view",
      "type": "function"
    },
    {
      "constant": true,
      "inputs": [
        {
          "internalType": "bytes32",
          "name": "",
          "type": "bytes32"
        }
      ],
      "name": "proposals",
      "outputs": [
        {
          "internalType": "string",
          "name": "toPerspectiveId",
          "type": "string"
        },
        {
          "internalType": "string",
          "name": "fromPerspectiveId",
          "type": "string"
        },
        {
          "internalType": "address",
          "name": "owner",
          "type": "address"
        },
        {
          "internalType": "uint256",
          "name": "nonce",
          "type": "uint256"
        },
        {
          "internalType": "uint8",
          "name": "status",
          "type": "uint8"
        },
        {
          "internalType": "uint8",
          "name": "authorized",
          "type": "uint8"
        }
      ],
      "payable": false,
      "stateMutability": "view",
      "type": "function"
    },
    {
      "constant": false,
      "inputs": [],
      "name": "renounceOwnership",
      "outputs": [],
      "payable": false,
      "stateMutability": "nonpayable",
      "type": "function"
    },
    {
      "constant": false,
      "inputs": [
        {
          "internalType": "address payable",
          "name": "newOwner",
          "type": "address"
        }
      ],
      "name": "transferOwnership",
      "outputs": [],
      "payable": false,
      "stateMutability": "nonpayable",
      "type": "function"
    },
    {
      "constant": false,
      "inputs": [
        {
          "internalType": "contract UprtclRoot",
          "name": "_uprtclRoot",
          "type": "address"
        }
      ],
      "name": "setUprtclRoot",
      "outputs": [],
      "payable": false,
      "stateMutability": "nonpayable",
      "type": "function"
    },
    {
      "constant": true,
      "inputs": [
        {
          "internalType": "string",
          "name": "toPerspectiveId",
          "type": "string"
        },
        {
          "internalType": "string",
          "name": "fromPerspectiveId",
          "type": "string"
        },
        {
          "internalType": "uint256",
          "name": "nonce",
          "type": "uint256"
        }
      ],
      "name": "getProposalId",
      "outputs": [
        {
          "internalType": "bytes32",
          "name": "proposalId",
          "type": "bytes32"
        }
      ],
      "payable": false,
      "stateMutability": "pure",
      "type": "function"
    },
    {
      "constant": false,
      "inputs": [
        {
          "internalType": "uint256",
          "name": "_minFee",
          "type": "uint256"
        }
      ],
      "name": "setMinFee",
      "outputs": [],
      "payable": false,
      "stateMutability": "nonpayable",
      "type": "function"
    },
    {
      "constant": false,
      "inputs": [
        {
          "internalType": "uint256",
          "name": "_factor_num",
          "type": "uint256"
        }
      ],
      "name": "setFactorNum",
      "outputs": [],
      "payable": false,
      "stateMutability": "nonpayable",
      "type": "function"
    },
    {
      "constant": false,
      "inputs": [
        {
          "internalType": "uint256",
          "name": "_factor_den",
          "type": "uint256"
        }
      ],
      "name": "setFactorDen",
      "outputs": [],
      "payable": false,
      "stateMutability": "nonpayable",
      "type": "function"
    },
    {
      "constant": false,
      "inputs": [
        {
          "components": [
            {
              "internalType": "string",
              "name": "toPerspectiveId",
              "type": "string"
            },
            {
              "internalType": "string",
              "name": "fromPerspectiveId",
              "type": "string"
            },
            {
              "internalType": "address",
              "name": "owner",
              "type": "address"
            },
            {
              "internalType": "uint256",
              "name": "nonce",
              "type": "uint256"
            },
            {
              "components": [
                {
                  "internalType": "bytes32",
                  "name": "perspectiveIdHash",
                  "type": "bytes32"
                },
                {
                  "internalType": "bytes32",
                  "name": "headCid1",
                  "type": "bytes32"
                },
                {
                  "internalType": "bytes32",
                  "name": "headCid0",
                  "type": "bytes32"
                },
                {
                  "internalType": "uint8",
                  "name": "executed",
                  "type": "uint8"
                }
              ],
              "internalType": "struct UprtclProposals.HeadUpdate[]",
              "name": "headUpdates",
              "type": "tuple[]"
            },
            {
              "internalType": "address[]",
              "name": "approvedAddresses",
              "type": "address[]"
            }
          ],
          "internalType": "struct UprtclProposals.NewProposal",
          "name": "newProposal",
          "type": "tuple"
        },
        {
          "internalType": "address",
          "name": "account",
          "type": "address"
        }
      ],
      "name": "initProposal",
      "outputs": [],
      "payable": false,
      "stateMutability": "nonpayable",
      "type": "function"
    },
    {
      "constant": false,
      "inputs": [
        {
          "internalType": "bytes32",
          "name": "proposalId",
          "type": "bytes32"
        },
        {
          "components": [
            {
              "internalType": "bytes32",
              "name": "perspectiveIdHash",
              "type": "bytes32"
            },
            {
              "internalType": "bytes32",
              "name": "headCid1",
              "type": "bytes32"
            },
            {
              "internalType": "bytes32",
              "name": "headCid0",
              "type": "bytes32"
            },
            {
              "internalType": "uint8",
              "name": "executed",
              "type": "uint8"
            }
          ],
          "internalType": "struct UprtclProposals.HeadUpdate[]",
          "name": "headUpdates",
          "type": "tuple[]"
        }
      ],
      "name": "addUpdatesToProposal",
      "outputs": [],
      "payable": false,
      "stateMutability": "nonpayable",
      "type": "function"
    },
    {
      "constant": false,
      "inputs": [
        {
          "internalType": "bytes32",
          "name": "proposalId",
          "type": "bytes32"
        },
        {
          "internalType": "uint8",
          "name": "status",
          "type": "uint8"
        }
      ],
      "name": "setProposalStatus",
      "outputs": [],
      "payable": false,
      "stateMutability": "nonpayable",
      "type": "function"
    },
    {
      "constant": false,
      "inputs": [
        {
          "internalType": "bytes32",
          "name": "proposalId",
          "type": "bytes32"
        },
        {
          "internalType": "uint8",
          "name": "authorized",
          "type": "uint8"
        }
      ],
      "name": "setProposalAuthorized",
      "outputs": [],
      "payable": false,
      "stateMutability": "nonpayable",
      "type": "function"
    },
    {
      "constant": false,
      "inputs": [
        {
          "internalType": "bytes32",
          "name": "proposalId",
          "type": "bytes32"
        }
      ],
      "name": "executeProposal",
      "outputs": [],
      "payable": false,
      "stateMutability": "nonpayable",
      "type": "function"
    },
    {
      "constant": false,
      "inputs": [
        {
          "internalType": "bytes32",
          "name": "proposalId",
          "type": "bytes32"
        },
        {
          "internalType": "uint256[]",
          "name": "indexes",
          "type": "uint256[]"
        }
      ],
      "name": "executeProposalPartially",
      "outputs": [],
      "payable": false,
      "stateMutability": "nonpayable",
      "type": "function"
    },
    {
      "constant": true,
      "inputs": [
        {
          "internalType": "bytes32",
          "name": "proposalId",
          "type": "bytes32"
        }
      ],
      "name": "getProposal",
      "outputs": [
        {
          "components": [
            {
              "internalType": "string",
              "name": "toPerspectiveId",
              "type": "string"
            },
            {
              "internalType": "string",
              "name": "fromPerspectiveId",
              "type": "string"
            },
            {
              "internalType": "address",
              "name": "owner",
              "type": "address"
            },
            {
              "internalType": "uint256",
              "name": "nonce",
              "type": "uint256"
            },
            {
              "components": [
                {
                  "internalType": "bytes32",
                  "name": "perspectiveIdHash",
                  "type": "bytes32"
                },
                {
                  "internalType": "bytes32",
                  "name": "headCid1",
                  "type": "bytes32"
                },
                {
                  "internalType": "bytes32",
                  "name": "headCid0",
                  "type": "bytes32"
                },
                {
                  "internalType": "uint8",
                  "name": "executed",
                  "type": "uint8"
                }
              ],
              "internalType": "struct UprtclProposals.HeadUpdate[]",
              "name": "headUpdates",
              "type": "tuple[]"
            },
            {
              "internalType": "address[]",
              "name": "approvedAddresses",
              "type": "address[]"
            },
            {
              "internalType": "uint8",
              "name": "status",
              "type": "uint8"
            },
            {
              "internalType": "uint8",
              "name": "authorized",
              "type": "uint8"
            }
          ],
          "internalType": "struct UprtclProposals.Proposal",
          "name": "proposal",
          "type": "tuple"
        }
      ],
      "payable": false,
      "stateMutability": "view",
      "type": "function"
    }
  ],
  "bytecode": "0x60806040526100156001600160e01b0361006216565b600080546001600160a01b0319166001600160a01b03928316178082556040519216917f8be0079c531659141344cd1fd0a4f28419497f9722a3daafe3b4186f6b6457e0908290a3610066565b3390565b612b83806100756000396000f3fe608060405234801561001057600080fd5b50600436106101375760003560e01c806352f386cb116100b857806395f720a41161007c57806395f720a414610268578063971a294f1461027b578063980ff6c61461028e578063f18251f1146102a1578063f2fde38b146102b4578063faaebd21146102c757610137565b806352f386cb1461021b578063715018a6146102235780637cce01171461022b5780638da5cb5b1461023e5780638f32d59b1461025357610137565b80632bc3ed3a116100ff5780632bc3ed3a1461019d57806331ac9920146101b057806332ed5b12146101c357806339eacf34146101e8578063430694cf146101fb57610137565b806305196b9d1461013c5780630de4cb191461015a578063158215d31461016f57806324ec75901461018257806326d50df11461018a575b600080fd5b6101446102e8565b6040516101519190612859565b60405180910390f35b61016d610168366004611fd8565b6102ee565b005b61016d61017d366004612066565b610320565b61014461032f565b61016d610198366004612014565b610335565b6101446101ab3660046120fc565b61079c565b61016d6101be366004611fd8565b6107d2565b6101d66101d1366004611fd8565b6107fb565b604051610151969594939291906128ad565b61016d6101f63660046120ae565b61095f565b61020e610209366004611fd8565b6109b1565b60405161015191906129e3565b610144610c46565b61016d610c4c565b61016d6102393660046120de565b610cba565b610246610d00565b60405161015191906127d7565b61025b610d10565b604051610151919061284b565b61016d610276366004612178565b610d34565b61016d610289366004611fd8565b61123a565b61016d61029c366004611fd8565b611263565b61016d6102af3660046120ae565b611371565b61016d6102c2366004611f94565b6113df565b6102da6102d5366004611f94565b61140f565b6040516101519291906129f4565b60045481565b6102f6610d10565b61031b5760405162461bcd60e51b8152600401610312906129c3565b60405180910390fd5b600455565b61032b828233611428565b5050565b60035481565b600082815260016020526040902060028101546001600160a01b031661036d5760405162461bcd60e51b815260040161031290612963565b600681015460ff166103915760405162461bcd60e51b8152600401610312906129d3565b60408051825460206002610100600184161581026000190190931604601f81018290049091028301610120908101909452908201818152600093610616939286928492909184918401828280156104295780601f106103fe57610100808354040283529160200191610429565b820191906000526020600020905b81548152906001019060200180831161040c57829003601f168201915b50505050508152602001600182018054600181600116156101000203166002900480601f0160208091040260200160405190810160405280929190818152602001828054600181600116156101000203166002900480156104cb5780601f106104a0576101008083540402835291602001916104cb565b820191906000526020600020905b8154815290600101906020018083116104ae57829003601f168201915b505050505081526020016002820160009054906101000a90046001600160a01b03166001600160a01b03166001600160a01b031681526020016003820154815260200160048201805480602002602001604051908101604052809291908181526020016000905b82821015610589576000848152602090819020604080516080810182526004860290920180548352600180820154848601526002820154928401929092526003015460ff1660608301529083529092019101610532565b505050508152602001600582018054806020026020016040519081016040528092919081815260200182805480156105ea57602002820191906000526020600020905b81546001600160a01b031681526001909101906020018083116105cc575b50505091835250506006919091015460ff80821660208401526101009091041660409091015233611803565b60ff16116106365760405162461bcd60e51b815260040161031290612983565b60005b82518160ff1610156107965761064d611a33565b838260ff168151811061065c57fe5b60200260200101519050806060015160ff1660001461068d5760405162461bcd60e51b815260040161031290612933565b60028301546006548251604051631393bbf560e01b81526001600160a01b039384169390921691631393bbf5916106c691600401612859565b60206040518083038186803b1580156106de57600080fd5b505afa1580156106f2573d6000803e3d6000fd5b505050506040513d601f19601f820116820180604052506107169190810190611fba565b6001600160a01b03161461073c5760405162461bcd60e51b815260040161031290612923565b600483810180546001808201835560009283526020928390208551929094029093019081559083015181830155604083015160028201556060909201516003909201805460ff191660ff9093169290921790915501610639565b50505050565b60008383836040516020016107b39392919061279a565b6040516020818303038152906040528051906020012090509392505050565b6107da610d10565b6107f65760405162461bcd60e51b8152600401610312906129c3565b600355565b60016020818152600092835260409283902080548451600294821615610100026000190190911693909304601f810183900483028401830190945283835292839183018282801561088d5780601f106108625761010080835404028352916020019161088d565b820191906000526020600020905b81548152906001019060200180831161087057829003601f168201915b505050505090806001018054600181600116156101000203166002900480601f01602080910402602001604051908101604052809291908181526020018280546001816001161561010002031660029004801561092b5780601f106109005761010080835404028352916020019161092b565b820191906000526020600020905b81548152906001019060200180831161090e57829003601f168201915b505050506002830154600384015460069094015492936001600160a01b039091169290915060ff8082169161010090041686565b600082815260016020526040902060028101546001600160a01b031633146109995760405162461bcd60e51b815260040161031290612913565b600601805460ff191660ff9290921691909117905550565b6109b9611a5a565b6000828152600160208181526040928390208351815460026101009582161586026000190190911604601f810184900490930281016101209081019095529283018281529293909284929091849190840182828015610a595780601f10610a2e57610100808354040283529160200191610a59565b820191906000526020600020905b815481529060010190602001808311610a3c57829003601f168201915b50505050508152602001600182018054600181600116156101000203166002900480601f016020809104026020016040519081016040528092919081815260200182805460018160011615610100020316600290048015610afb5780601f10610ad057610100808354040283529160200191610afb565b820191906000526020600020905b815481529060010190602001808311610ade57829003601f168201915b505050505081526020016002820160009054906101000a90046001600160a01b03166001600160a01b03166001600160a01b031681526020016003820154815260200160048201805480602002602001604051908101604052809291908181526020016000905b82821015610bb9576000848152602090819020604080516080810182526004860290920180548352600180820154848601526002820154928401929092526003015460ff1660608301529083529092019101610b62565b50505050815260200160058201805480602002602001604051908101604052809291908181526020018280548015610c1a57602002820191906000526020600020905b81546001600160a01b03168152600190910190602001808311610bfc575b50505091835250506006919091015460ff80821660208401526101009091041660409091015292915050565b60055481565b610c54610d10565b610c705760405162461bcd60e51b8152600401610312906129c3565b600080546040516001600160a01b03909116907f8be0079c531659141344cd1fd0a4f28419497f9722a3daafe3b4186f6b6457e0908390a3600080546001600160a01b0319169055565b610cc2610d10565b610cde5760405162461bcd60e51b8152600401610312906129c3565b600680546001600160a01b0319166001600160a01b0392909216919091179055565b6000546001600160a01b03165b90565b600080546001600160a01b0316610d25611886565b6001600160a01b031614905090565b600654825160405163fc87de3960e01b81526000926001600160a01b031691631393bbf591839163fc87de3991610d6e919060040161289c565b60206040518083038186803b158015610d8657600080fd5b505afa158015610d9a573d6000803e3d6000fd5b505050506040513d601f19601f82011682018060405250610dbe9190810190611ff6565b6040518263ffffffff1660e01b8152600401610dda9190612859565b60206040518083038186803b158015610df257600080fd5b505afa158015610e06573d6000803e3d6000fd5b505050506040513d601f19601f82011682018060405250610e2a9190810190611fba565b6001600160a01b03811660009081526002602052604090205490915080610ec05760035415610ebb576006546003546040516302654acd60e51b81526001600160a01b0390921691634ca959a091610e889187913391600401612823565b600060405180830381600087803b158015610ea257600080fd5b505af1158015610eb6573d6000803e3d6000fd5b505050505b611000565b6000610ee9600554610edd6004548561188a90919063ffffffff16565b9063ffffffff6118cb16565b90506000610f1a600554610edd610f0d60045460055461190d90919063ffffffff16565b869063ffffffff61188a16565b6003549091508290811015610f2e57506003545b600654604051636556cd0560e01b81526001600160a01b0390911690636556cd0590610f6490899033908a9088906004016127e5565b600060405180830381600087803b158015610f7e57600080fd5b505af1158015610f92573d6000803e3d6000fd5b50506006546040516302654acd60e51b81526001600160a01b039091169250634ca959a09150610fca90899033908690600401612823565b600060405180830381600087803b158015610fe457600080fd5b505af1158015610ff8573d6000803e3d6000fd5b505050505050505b600061101985600001518660200151876060015161079c565b60008181526001602052604090206002810154919250906001600160a01b0316156110565760405162461bcd60e51b815260040161031290612993565b8551805161106b918391602090910190611aae565b5060208087015180516110849260018501920190611aae565b5060408601516002820180546001600160a01b0319166001600160a01b039092169190911790556060860151600382015560a086015180516110d0916005840191602090910190611b2c565b5060068101805461ff001960ff1990911660011716905560808601516110f7908390610335565b600654602087015160405163fc87de3960e01b815284926001600160a01b03169163fc87de399161112b919060040161289c565b60206040518083038186803b15801561114357600080fd5b505afa158015611157573d6000803e3d6000fd5b505050506040513d601f19601f8201168201806040525061117b9190810190611ff6565b600654885160405163fc87de3960e01b81526001600160a01b039092169163fc87de39916111ab9160040161289c565b60206040518083038186803b1580156111c357600080fd5b505afa1580156111d7573d6000803e3d6000fd5b505050506040513d601f19601f820116820180604052506111fb9190810190611ff6565b7f7172667a4024e27a0d3a896c8ba72947ebed1a0bb37d5c6aaff808c4f6b574ef3360405161122a91906127c9565b60405180910390a4505050505050565b611242610d10565b61125e5760405162461bcd60e51b8152600401610312906129c3565b600555565b60008181526001602081815260408084208151815460026101009682161587026000190190911604601f810185900490940281016101209081019093529384018381529094936112de9390928692849290918491908401828280156104295780601f106103fe57610100808354040283529160200191610429565b60ff16116112fe5760405162461bcd60e51b815260040161031290612983565b6004810154604080518281526020808402820101909152606091801561132e578160200160208202803883390190505b50905060005b6004830154811015611360578082828151811061134d57fe5b6020908102919091010152600101611334565b5061136c838233611428565b505050565b600082815260016020526040902060028101546001600160a01b031633146113ab5760405162461bcd60e51b815260040161031290612953565b60ff8216156113c15760068101805460ff191690555b600601805460ff9092166101000261ff001990921691909117905550565b6113e7610d10565b6114035760405162461bcd60e51b8152600401610312906129c3565b61140c8161194f565b50565b6002602052600090815260409020805460019091015482565b60008381526001602052604090206006810154610100900460ff1661145f5760405162461bcd60e51b8152600401610312906129b3565b60408051825460206002610100600184161581026000190190931604601f810182900490910283016101209081019094529082018181526000936116e4939286928492909184918401828280156114f75780601f106114cc576101008083540402835291602001916114f7565b820191906000526020600020905b8154815290600101906020018083116114da57829003601f168201915b50505050508152602001600182018054600181600116156101000203166002900480601f0160208091040260200160405190810160405280929190818152602001828054600181600116156101000203166002900480156115995780601f1061156e57610100808354040283529160200191611599565b820191906000526020600020905b81548152906001019060200180831161157c57829003601f168201915b505050505081526020016002820160009054906101000a90046001600160a01b03166001600160a01b03166001600160a01b031681526020016003820154815260200160048201805480602002602001604051908101604052809291908181526020016000905b82821015611657576000848152602090819020604080516080810182526004860290920180548352600180820154848601526002820154928401929092526003015460ff1660608301529083529092019101611600565b505050508152602001600582018054806020026020016040519081016040528092919081815260200182805480156116b857602002820191906000526020600020905b81546001600160a01b0316815260019091019060200180831161169a575b50505091835250506006919091015460ff80821660208401526101009091041660409091015284611803565b60ff16116117045760405162461bcd60e51b815260040161031290612983565b60005b83518110156117fc5760008260040185838151811061172257fe5b60200260200101518154811061173457fe5b60009182526020909120600490910201600381015490915060ff161561176c5760405162461bcd60e51b815260040161031290612973565b60038101805460ff1916600190811790915560065482549183015460028401546040516301d4f0fd60e31b81526001600160a01b0390931693630ea787e8936117bd93919290600090600401612867565b600060405180830381600087803b1580156117d757600080fd5b505af11580156117eb573d6000803e3d6000fd5b505060019093019250611707915050565b5050505050565b60008260a00151516000141561181b57506001611880565b60005b8360a00151518163ffffffff16101561187a578360a001518163ffffffff168151811061184757fe5b60200260200101516001600160a01b0316836001600160a01b03161415611872575060019050611880565b60010161181e565b50600090505b92915050565b3390565b60008261189957506000611880565b828202828482816118a657fe5b04146118c45760405162461bcd60e51b8152600401610312906129a3565b9392505050565b60006118c483836040518060400160405280601a81526020017f536166654d6174683a206469766973696f6e206279207a65726f0000000000008152506119d0565b60006118c483836040518060400160405280601e81526020017f536166654d6174683a207375627472616374696f6e206f766572666c6f770000815250611a07565b6001600160a01b0381166119755760405162461bcd60e51b815260040161031290612943565b600080546040516001600160a01b03808516939216917f8be0079c531659141344cd1fd0a4f28419497f9722a3daafe3b4186f6b6457e091a3600080546001600160a01b0319166001600160a01b0392909216919091179055565b600081836119f15760405162461bcd60e51b8152600401610312919061289c565b5060008385816119fd57fe5b0495945050505050565b60008184841115611a2b5760405162461bcd60e51b8152600401610312919061289c565b505050900390565b60408051608081018252600080825260208201819052918101829052606081019190915290565b604051806101000160405280606081526020016060815260200160006001600160a01b03168152602001600081526020016060815260200160608152602001600060ff168152602001600060ff1681525090565b828054600181600116156101000203166002900490600052602060002090601f016020900481019282601f10611aef57805160ff1916838001178555611b1c565b82800160010185558215611b1c579182015b82811115611b1c578251825591602001919060010190611b01565b50611b28929150611b8d565b5090565b828054828255906000526020600020908101928215611b81579160200282015b82811115611b8157825182546001600160a01b0319166001600160a01b03909116178255602090920191600190910190611b4c565b50611b28929150611ba7565b610d0d91905b80821115611b285760008155600101611b93565b610d0d91905b80821115611b285780546001600160a01b0319168155600101611bad565b803561188081612b11565b805161188081612b11565b600082601f830112611bf257600080fd5b8135611c05611c0082612a36565b612a0f565b91508181835260208401935060208101905083856020840282011115611c2a57600080fd5b60005b83811015611c565781611c408882611bcb565b8452506020928301929190910190600101611c2d565b5050505092915050565b600082601f830112611c7157600080fd5b8135611c7f611c0082612a36565b91508181835260208401935060208101905083856080840282011115611ca457600080fd5b60005b83811015611c565781611cba8882611e24565b84525060209092019160809190910190600101611ca7565b600082601f830112611ce357600080fd5b8135611cf1611c0082612a36565b91508181835260208401935060208101905083856080840282011115611d1657600080fd5b60005b83811015611c565781611d2c8882611e24565b84525060209092019160809190910190600101611d19565b600082601f830112611d5557600080fd5b8135611d63611c0082612a36565b91508181835260208401935060208101905083856020840282011115611d8857600080fd5b60005b83811015611c565781611d9e8882611db4565b8452506020928301929190910190600101611d8b565b803561188081612b25565b805161188081612b25565b803561188081612b2e565b600082601f830112611de657600080fd5b8135611df4611c0082612a57565b91508082526020830160208301858383011115611e1057600080fd5b611e1b838284612acf565b50505092915050565b600060808284031215611e3657600080fd5b611e406080612a0f565b90506000611e4e8484611db4565b8252506020611e5f84848301611db4565b6020830152506040611e7384828501611db4565b6040830152506060611e8784828501611f89565b60608301525092915050565b600060c08284031215611ea557600080fd5b611eaf60c0612a0f565b9050813567ffffffffffffffff811115611ec857600080fd5b611ed484828501611dd5565b825250602082013567ffffffffffffffff811115611ef157600080fd5b611efd84828501611dd5565b6020830152506040611f1184828501611bcb565b6040830152506060611f2584828501611db4565b606083015250608082013567ffffffffffffffff811115611f4557600080fd5b611f5184828501611c60565b60808301525060a082013567ffffffffffffffff811115611f7157600080fd5b611f7d84828501611be1565b60a08301525092915050565b803561188081612b37565b600060208284031215611fa657600080fd5b6000611fb28484611bcb565b949350505050565b600060208284031215611fcc57600080fd5b6000611fb28484611bd6565b600060208284031215611fea57600080fd5b6000611fb28484611db4565b60006020828403121561200857600080fd5b6000611fb28484611dbf565b6000806040838503121561202757600080fd5b60006120338585611db4565b925050602083013567ffffffffffffffff81111561205057600080fd5b61205c85828601611cd2565b9150509250929050565b6000806040838503121561207957600080fd5b60006120858585611db4565b925050602083013567ffffffffffffffff8111156120a257600080fd5b61205c85828601611d44565b600080604083850312156120c157600080fd5b60006120cd8585611db4565b925050602061205c85828601611f89565b6000602082840312156120f057600080fd5b6000611fb28484611dca565b60008060006060848603121561211157600080fd5b833567ffffffffffffffff81111561212857600080fd5b61213486828701611dd5565b935050602084013567ffffffffffffffff81111561215157600080fd5b61215d86828701611dd5565b925050604061216e86828701611db4565b9150509250925092565b6000806040838503121561218b57600080fd5b823567ffffffffffffffff8111156121a257600080fd5b6121ae85828601611e93565b925050602061205c85828601611bcb565b60006121cb83836121f6565b505060200190565b60006121df8383612679565b505060800190565b6121f081612ac4565b82525050565b6121f081612a97565b600061220a82612a85565b6122148185612a89565b935061221f83612a7f565b8060005b8381101561224d57815161223788826121bf565b975061224283612a7f565b925050600101612223565b509495945050505050565b600061226382612a85565b61226d8185612a89565b935061227883612a7f565b8060005b8381101561224d57815161229088826121d3565b975061229b83612a7f565b92505060010161227c565b6121f081612aa2565b6121f081610d0d565b60006122c382612a85565b6122cd8185612a89565b93506122dd818560208601612adb565b6122e681612b07565b9093019392505050565b60006122fb82612a85565b6123058185612a92565b9350612315818560208601612adb565b9290920192915050565b600061232c602c83612a89565b7f50726f706f73616c207374617475732063616e206f6e6c79206279207365742081526b313c9034ba399037bbb732b960a11b602082015260400192915050565b600061237a603783612a89565b7f70726f706f73616c2063616e206f6e6c792073746f726520706572737065637481527f69766573206f776e656420627920697473206f776e6572000000000000000000602082015260400192915050565b60006123d9602a83612a89565b7f68656164207570646174652065786563757465642070726f7065727479206d758152697374206265207a65726f60b01b602082015260400192915050565b6000612425602683612a89565b7f4f776e61626c653a206e6577206f776e657220697320746865207a65726f206181526564647265737360d01b602082015260400192915050565b600061246d602c83612a89565b7f50726f706f73616c2063616e206f6e6c7920627920617574686f72697a65642081526b313c9034ba399037bbb732b960a11b602082015260400192915050565b60006124bb601283612a89565b711c1c9bdc1bdcd85b081b9bdd08199bdd5b9960721b815260200192915050565b60006124e9601c83612a89565b7f686561642075706461746520616c726561647920657865637574656400000000815260200192915050565b6000612522602283612a89565b7f6d73672e73656e646572206e6f7420616e20617070726f766564206164647265815261737360f01b602082015260400192915050565b6000612566601683612a89565b751c1c9bdc1bdcd85b08185b1c9958591e48195e1a5cdd60521b815260200192915050565b6000612598602183612a89565b7f536166654d6174683a206d756c7469706c69636174696f6e206f766572666c6f8152607760f81b602082015260400192915050565b60006125db601783612a89565b7f50726f706f73616c206e6f7420617574686f72697a6564000000000000000000815260200192915050565b6000612614602083612a89565b7f4f776e61626c653a2063616c6c6572206973206e6f7420746865206f776e6572815260200192915050565b600061264d601b83612a89565b7f70726f706f73616c207374617475732069732064697361626c65640000000000815260200192915050565b8051608083019061268a84826122af565b50602082015161269d60208501826122af565b5060408201516126b060408501826122af565b5060608201516107966060850182612791565b8051610100808452600091908401906126dc82826122b8565b915050602083015184820360208601526126f682826122b8565b915050604083015161270b60408601826121f6565b50606083015161271e60608601826122af565b50608083015184820360808601526127368282612258565b91505060a083015184820360a086015261275082826121ff565b91505060c083015161276560c0860182612791565b5060e083015161277860e0860182612791565b509392505050565b6121f061278c82610d0d565b610d0d565b6121f081612abe565b60006127a682866122f0565b91506127b282856122f0565b91506127be8284612780565b506020019392505050565b6020810161188082846121e7565b6020810161188082846121f6565b608081016127f382876121f6565b61280060208301866121e7565b61280d60408301856121f6565b61281a60608301846122af565b95945050505050565b6060810161283182866121f6565b61283e60208301856121e7565b611fb260408301846122af565b6020810161188082846122a6565b6020810161188082846122af565b6080810161287582876122af565b61288260208301866122af565b61288f60408301856122af565b61281a60608301846121e7565b602080825281016118c481846122b8565b60c080825281016128be81896122b8565b905081810360208301526128d281886122b8565b90506128e160408301876121f6565b6128ee60608301866122af565b6128fb6080830185612791565b61290860a0830184612791565b979650505050505050565b602080825281016118808161231f565b602080825281016118808161236d565b60208082528101611880816123cc565b6020808252810161188081612418565b6020808252810161188081612460565b60208082528101611880816124ae565b60208082528101611880816124dc565b6020808252810161188081612515565b6020808252810161188081612559565b602080825281016118808161258b565b60208082528101611880816125ce565b6020808252810161188081612607565b6020808252810161188081612640565b602080825281016118c481846126c3565b60408101612a0282856122af565b6118c460208301846122af565b60405181810167ffffffffffffffff81118282101715612a2e57600080fd5b604052919050565b600067ffffffffffffffff821115612a4d57600080fd5b5060209081020190565b600067ffffffffffffffff821115612a6e57600080fd5b506020601f91909101601f19160190565b60200190565b5190565b90815260200190565b919050565b600061188082612ab2565b151590565b600061188082612a97565b6001600160a01b031690565b60ff1690565b600061188082612aa7565b82818337506000910152565b60005b83811015612af6578181015183820152602001612ade565b838111156107965750506000910152565b601f01601f191690565b612b1a81612a97565b811461140c57600080fd5b612b1a81610d0d565b612b1a81612aa7565b612b1a81612abe56fea365627a7a72315820c8cf9ba06b3ccddf0a0ac1118d28cf51aa13bb763f8de188122944ae2e6f416b6c6578706572696d656e74616cf564736f6c63430005100040",
  "source": "pragma solidity >=0.5.0 <0.6.0;\npragma experimental ABIEncoderV2;\n\nimport \"./UprtclRoot.sol\";\nimport \"./SafeMath.sol\";\n\ncontract UprtclProposals is Ownable {\n\n    using SafeMath for uint256;\n\n    struct HeadUpdate {\n        bytes32 perspectiveIdHash;\n        bytes32 headCid1;\n        bytes32 headCid0;\n        uint8 executed;\n    }\n\n    struct NewProposal {\n        string toPerspectiveId;\n        string fromPerspectiveId;\n        address owner;\n        uint256 nonce;\n        HeadUpdate[] headUpdates;\n        address[] approvedAddresses;\n    }\n\n    struct Proposal {\n        string toPerspectiveId;\n        string fromPerspectiveId;\n        address owner;\n        uint256 nonce;\n        HeadUpdate[] headUpdates;\n        address[] approvedAddresses;\n        uint8 status;\n        uint8 authorized;\n    }\n\n    struct OwnerFees {\n        uint256 fee;\n        uint256 balance;\n    }\n\n    mapping(bytes32 => Proposal) public proposals;\n    mapping(address => OwnerFees) public fees;\n    \n    uint256 public minFee;\n    uint256 public factor_num;\n    uint256 public factor_den;\n\n    UprtclRoot uprtclRoot;\n\n    event ProposalCreated(\n        bytes32 indexed toPerspectiveIdHash,\n        bytes32 indexed fromPerspectiveIdHash,\n        bytes32 indexed proposalId,\n        address creator\n    );\n\n    function setUprtclRoot(UprtclRoot _uprtclRoot) public onlyOwner {\n        uprtclRoot = _uprtclRoot;\n    }\n\n    function getProposalId(\n        string memory toPerspectiveId,\n        string memory fromPerspectiveId,\n        uint256 nonce\n    ) public pure returns (bytes32 proposalId) {\n        proposalId = keccak256(\n            abi.encodePacked(toPerspectiveId, fromPerspectiveId, nonce)\n        );\n    }\n\n    function setMinFee(uint256 _minFee) public onlyOwner {\n        minFee = _minFee;\n    }\n\n    function setFactorNum(uint256 _factor_num) public onlyOwner {\n        factor_num = _factor_num;\n    }\n\n    function setFactorDen(uint256 _factor_den) public onlyOwner {\n        factor_den = _factor_den;\n    }\n\n    function initProposal(\n        NewProposal memory newProposal,\n        address account\n    ) public {\n        \n        address perspOwner = uprtclRoot.getPerspectiveOwner(\n            uprtclRoot.getPerspectiveIdHash(newProposal.toPerspectiveId)\n        );\n        uint256 perspFee = fees[perspOwner].fee;\n\n        if (perspFee == 0) {\n            /** charge only min fee */\n            if (minFee > 0) {\n                uprtclRoot.consume(account, msg.sender, minFee);\n            }\n        } else {\n            /** charge fee and transfer to perspOwner, keep a fraction to us */\n            uint256 feeUprtcl = perspFee.mul(factor_num).div(factor_den);\n            uint256 feeOwner = perspFee.mul(factor_den.sub(factor_num)).div(factor_den);\n\n            uint256 feeUprtclActual = feeUprtcl;\n            if (feeUprtcl < minFee) {\n                feeUprtclActual = minFee;\n            }\n\n            uprtclRoot.transferTo(account, msg.sender, perspOwner, feeOwner);\n            uprtclRoot.consume(account, msg.sender, feeUprtclActual);\n        }\n\n        bytes32 proposalId = getProposalId(\n            newProposal.toPerspectiveId,\n            newProposal.fromPerspectiveId,\n            newProposal.nonce\n        );\n\n        /** make sure the proposal does not exist */\n        Proposal storage proposal = proposals[proposalId];\n        require(proposal.owner == address(0), \"proposal already exist\");\n\n        proposal.toPerspectiveId = newProposal.toPerspectiveId;\n        proposal.fromPerspectiveId = newProposal.fromPerspectiveId;\n        proposal.owner = newProposal.owner;\n        proposal.nonce = newProposal.nonce;\n        proposal.approvedAddresses = newProposal.approvedAddresses;\n        proposal.status = 1;\n        proposal.authorized = 0;\n\n        addUpdatesToProposal(proposalId, newProposal.headUpdates);\n\n        emit ProposalCreated(\n            uprtclRoot.getPerspectiveIdHash(newProposal.toPerspectiveId),\n            uprtclRoot.getPerspectiveIdHash(newProposal.fromPerspectiveId),\n            proposalId,\n            msg.sender\n        );\n    }\n\n    function isApproved(Proposal memory proposal, address value)\n        private\n        pure\n        returns (uint8 approved)\n    {\n\t\tif (proposal.approvedAddresses.length == 0) {\n\t\t\tapproved = 1;\n\t\t\treturn approved;\n\t\t}\n\n        for (uint32 ix = 0; ix < proposal.approvedAddresses.length; ix++) {\n            if (value == proposal.approvedAddresses[ix]) {\n                approved = 1;\n                return approved;\n            }\n        }\n        approved = 0;\n    }\n\n    /** Add one or more headUpdate elements to an existing proposal */\n    function addUpdatesToProposal(\n        bytes32 proposalId,\n        HeadUpdate[] memory headUpdates\n    ) public {\n        Proposal storage proposal = proposals[proposalId];\n\n        /** make sure the proposal is open for new elements */\n        require(proposal.owner != address(0), \"proposal not found\");\n        require(proposal.status != 0, \"proposal status is disabled\");\n        require(\n            isApproved(proposal, msg.sender) > 0,\n            \"msg.sender not an approved address\"\n        );\n\n        for (uint8 ix = 0; ix < headUpdates.length; ix++) {\n            HeadUpdate memory headUpdate = headUpdates[ix];\n            require(\n                headUpdate.executed == 0,\n                \"head update executed property must be zero\"\n            );\n            require(\n                uprtclRoot.getPerspectiveOwner(headUpdate.perspectiveIdHash) == proposal.owner,\n                \"proposal can only store perspectives owned by its owner\"\n            );\n            proposal.headUpdates.push(headUpdate);\n        }\n    }\n\n    function setProposalStatus(bytes32 proposalId, uint8 status) public {\n        Proposal storage proposal = proposals[proposalId];\n        require(\n            msg.sender == proposal.owner,\n            \"Proposal status can only by set by its owner\"\n        );\n        proposal.status = status;\n    }\n\n    function setProposalAuthorized(bytes32 proposalId, uint8 authorized) public {\n        Proposal storage proposal = proposals[proposalId];\n        require(\n            msg.sender == proposal.owner,\n            \"Proposal can only by authorized by its owner\"\n        );\n        /** by default the proposal is closed once it is authorized. */\n        if (authorized > 0) proposal.status = 0;\n        proposal.authorized = authorized;\n    }\n\n    function executeProposal(bytes32 proposalId) public {\n        Proposal storage proposal = proposals[proposalId];\n\n        /** Check the msg.sender is an approved address */\n        require(\n            isApproved(proposal, msg.sender) > 0,\n            \"msg.sender not an approved address\"\n        );\n\n        uint256[] memory indexes = new uint256[](proposal.headUpdates.length);\n        for (uint256 ix = 0; ix < proposal.headUpdates.length; ix++) {\n            indexes[ix] = ix;\n        }\n\n        executeProposalPartiallyInternal(proposalId, indexes, msg.sender);\n    }\n\n    function executeProposalPartially(\n        bytes32 proposalId,\n        uint256[] memory indexes\n    ) public {\n        executeProposalPartiallyInternal(proposalId, indexes, msg.sender);\n    }\n\n    function executeProposalPartiallyInternal(\n        bytes32 proposalId,\n        uint256[] memory indexes,\n        address msgSender\n    ) private {\n        Proposal storage proposal = proposals[proposalId];\n        require(proposal.authorized != 0, \"Proposal not authorized\");\n\n        require(\n            isApproved(proposal, msgSender) > 0,\n            \"msg.sender not an approved address\"\n        );\n\n        for (uint256 ix = 0; ix < indexes.length; ix++) {\n            HeadUpdate storage headUpdate = proposal.headUpdates[indexes[ix]];\n\n            require(headUpdate.executed == 0, \"head update already executed\");\n            headUpdate.executed = 1;\n\n            uprtclRoot.updateHead(headUpdate.perspectiveIdHash, headUpdate.headCid1, headUpdate.headCid0, address(0));\n        }\n    }\n\n    function getProposal(bytes32 proposalId)\n        public\n        view\n        returns (Proposal memory proposal)\n    {\n        return (proposals[proposalId]);\n    }\n}\n",
  "sourcePath": "/home/pepo/pr/uprtcl/eth-uprtcl/contracts/UprtclProposals.sol",
  "compiler": {
    "name": "solc",
    "version": "0.5.16+commit.9c3226ce.Emscripten.clang"
  },
  "schemaVersion": "3.0.23",
  "updatedAt": "2020-03-02T09:06:43.465Z",
  "devdoc": {
    "methods": {
      "isOwner()": {
        "details": "Returns true if the caller is the current owner."
      },
      "owner()": {
        "details": "Returns the address of the current owner."
      },
      "renounceOwnership()": {
        "details": "Leaves the contract without owner. It will not be possible to call `onlyOwner` functions anymore. Can only be called by the current owner.     * NOTE: Renouncing ownership will leave the contract without an owner, thereby removing any functionality that is only available to the owner."
      },
      "transferOwnership(address)": {
        "details": "Transfers ownership of the contract to a new account (`newOwner`). Can only be called by the current owner."
      }
    }
  },
  "userdoc": {
    "methods": {
      "addUpdatesToProposal(bytes32,(bytes32,bytes32,bytes32,uint8)[])": {
        "notice": "Add one or more headUpdate elements to an existing proposal "
      }
    }
  }
}