{
  "contractName": "UprtclRoot",
  "abi": [
    {
      "anonymous": false,
      "inputs": [
        {
          "indexed": true,
          "internalType": "address",
          "name": "previousOwner",
          "type": "address"
        },
        {
          "indexed": true,
          "internalType": "address",
          "name": "newOwner",
          "type": "address"
        }
      ],
      "name": "OwnershipTransferred",
      "type": "event"
    },
    {
      "anonymous": false,
      "inputs": [
        {
          "indexed": true,
          "internalType": "bytes32",
          "name": "perspectiveIdHash",
          "type": "bytes32"
        },
        {
          "indexed": false,
          "internalType": "string",
          "name": "perspectiveId",
          "type": "string"
        }
      ],
      "name": "PerspectiveCreated",
      "type": "event"
    },
    {
      "constant": true,
      "inputs": [],
      "name": "accounts",
      "outputs": [
        {
          "internalType": "contract UprtclAccounts",
          "name": "",
          "type": "address"
        }
      ],
      "payable": false,
      "stateMutability": "view",
      "type": "function"
    },
    {
      "constant": true,
      "inputs": [
        {
          "internalType": "uint256",
          "name": "",
          "type": "uint256"
        }
      ],
      "name": "fees",
      "outputs": [
        {
          "internalType": "uint256",
          "name": "",
          "type": "uint256"
        }
      ],
      "payable": false,
      "stateMutability": "view",
      "type": "function"
    },
    {
      "constant": true,
      "inputs": [],
      "name": "isOwner",
      "outputs": [
        {
          "internalType": "bool",
          "name": "",
          "type": "bool"
        }
      ],
      "payable": false,
      "stateMutability": "view",
      "type": "function"
    },
    {
      "constant": true,
      "inputs": [
        {
          "internalType": "address",
          "name": "suAddress",
          "type": "address"
        }
      ],
      "name": "isSuperUser",
      "outputs": [
        {
          "internalType": "bool",
          "name": "",
          "type": "bool"
        }
      ],
      "payable": false,
      "stateMutability": "view",
      "type": "function"
    },
    {
      "constant": true,
      "inputs": [],
      "name": "owner",
      "outputs": [
        {
          "internalType": "address payable",
          "name": "",
          "type": "address"
        }
      ],
      "payable": false,
      "stateMutability": "view",
      "type": "function"
    },
    {
      "constant": true,
      "inputs": [
        {
          "internalType": "bytes32",
          "name": "",
          "type": "bytes32"
        }
      ],
      "name": "perspectives",
      "outputs": [
        {
          "internalType": "address",
          "name": "owner",
          "type": "address"
        },
        {
          "internalType": "bytes32",
          "name": "headCid1",
          "type": "bytes32"
        },
        {
          "internalType": "bytes32",
          "name": "headCid0",
          "type": "bytes32"
        }
      ],
      "payable": false,
      "stateMutability": "view",
      "type": "function"
    },
    {
      "constant": false,
      "inputs": [],
      "name": "renounceOwnership",
      "outputs": [],
      "payable": false,
      "stateMutability": "nonpayable",
      "type": "function"
    },
    {
      "constant": false,
      "inputs": [
        {
          "internalType": "address",
          "name": "suAddress",
          "type": "address"
        },
        {
          "internalType": "bool",
          "name": "value",
          "type": "bool"
        }
      ],
      "name": "setSuperUser",
      "outputs": [],
      "payable": false,
      "stateMutability": "nonpayable",
      "type": "function"
    },
    {
      "constant": false,
      "inputs": [
        {
          "internalType": "address payable",
          "name": "newOwner",
          "type": "address"
        }
      ],
      "name": "transferOwnership",
      "outputs": [],
      "payable": false,
      "stateMutability": "nonpayable",
      "type": "function"
    },
    {
      "constant": false,
      "inputs": [
        {
          "internalType": "contract UprtclAccounts",
          "name": "_accounts",
          "type": "address"
        }
      ],
      "name": "setAccounts",
      "outputs": [],
      "payable": false,
      "stateMutability": "nonpayable",
      "type": "function"
    },
    {
      "constant": false,
      "inputs": [
        {
          "internalType": "uint256",
          "name": "amount",
          "type": "uint256"
        }
      ],
      "name": "withdraw",
      "outputs": [],
      "payable": false,
      "stateMutability": "nonpayable",
      "type": "function"
    },
    {
      "constant": false,
      "inputs": [
        {
          "internalType": "uint256",
          "name": "addFee",
          "type": "uint256"
        },
        {
          "internalType": "uint256",
          "name": "updateFee",
          "type": "uint256"
        }
      ],
      "name": "setFees",
      "outputs": [],
      "payable": false,
      "stateMutability": "nonpayable",
      "type": "function"
    },
    {
      "constant": true,
      "inputs": [],
      "name": "getFees",
      "outputs": [
        {
          "internalType": "uint256",
          "name": "addFee",
          "type": "uint256"
        },
        {
          "internalType": "uint256",
          "name": "updateFee",
          "type": "uint256"
        }
      ],
      "payable": false,
      "stateMutability": "view",
      "type": "function"
    },
    {
      "constant": true,
      "inputs": [],
      "name": "getAddFee",
      "outputs": [
        {
          "internalType": "uint256",
          "name": "",
          "type": "uint256"
        }
      ],
      "payable": false,
      "stateMutability": "view",
      "type": "function"
    },
    {
      "constant": true,
      "inputs": [],
      "name": "getUpdateFee",
      "outputs": [
        {
          "internalType": "uint256",
          "name": "",
          "type": "uint256"
        }
      ],
      "payable": false,
      "stateMutability": "view",
      "type": "function"
    },
    {
      "constant": false,
      "inputs": [
        {
          "internalType": "address",
          "name": "account",
          "type": "address"
        },
        {
          "internalType": "address",
          "name": "by",
          "type": "address"
        },
        {
          "internalType": "uint256",
          "name": "amount",
          "type": "uint256"
        }
      ],
      "name": "consume",
      "outputs": [],
      "payable": false,
      "stateMutability": "nonpayable",
      "type": "function"
    },
    {
      "constant": false,
      "inputs": [
        {
          "internalType": "address",
          "name": "from",
          "type": "address"
        },
        {
          "internalType": "address",
          "name": "by",
          "type": "address"
        },
        {
          "internalType": "address",
          "name": "to",
          "type": "address"
        },
        {
          "internalType": "uint256",
          "name": "amount",
          "type": "uint256"
        }
      ],
      "name": "transferTo",
      "outputs": [],
      "payable": false,
      "stateMutability": "nonpayable",
      "type": "function"
    },
    {
      "constant": true,
      "inputs": [
        {
          "internalType": "string",
          "name": "perspectiveId",
          "type": "string"
        }
      ],
      "name": "getPerspectiveIdHash",
      "outputs": [
        {
          "internalType": "bytes32",
          "name": "idHash",
          "type": "bytes32"
        }
      ],
      "payable": false,
      "stateMutability": "pure",
      "type": "function"
    },
    {
      "constant": false,
      "inputs": [
        {
          "components": [
            {
              "internalType": "string",
              "name": "perspectiveId",
              "type": "string"
            },
            {
              "internalType": "bytes32",
              "name": "headCid1",
              "type": "bytes32"
            },
            {
              "internalType": "bytes32",
              "name": "headCid0",
              "type": "bytes32"
            },
            {
              "internalType": "address",
              "name": "owner",
              "type": "address"
            }
          ],
          "internalType": "struct UprtclRoot.NewPerspective",
          "name": "newPerspective",
          "type": "tuple"
        },
        {
          "internalType": "address",
          "name": "account",
          "type": "address"
        }
      ],
      "name": "createPerspective",
      "outputs": [],
      "payable": false,
      "stateMutability": "nonpayable",
      "type": "function"
    },
    {
      "constant": false,
      "inputs": [
        {
          "components": [
            {
              "internalType": "string",
              "name": "perspectiveId",
              "type": "string"
            },
            {
              "internalType": "bytes32",
              "name": "headCid1",
              "type": "bytes32"
            },
            {
              "internalType": "bytes32",
              "name": "headCid0",
              "type": "bytes32"
            },
            {
              "internalType": "address",
              "name": "owner",
              "type": "address"
            }
          ],
          "internalType": "struct UprtclRoot.NewPerspective[]",
          "name": "newPerspectives",
          "type": "tuple[]"
        },
        {
          "internalType": "address",
          "name": "account",
          "type": "address"
        }
      ],
      "name": "createPerspectiveBatch",
      "outputs": [],
      "payable": false,
      "stateMutability": "nonpayable",
      "type": "function"
    },
    {
      "constant": false,
      "inputs": [
        {
          "internalType": "bytes32",
          "name": "perspectiveIdHash",
          "type": "bytes32"
        },
        {
          "internalType": "bytes32",
          "name": "newHeadCid1",
          "type": "bytes32"
        },
        {
          "internalType": "bytes32",
          "name": "newHeadCid0",
          "type": "bytes32"
        },
        {
          "internalType": "address",
          "name": "account",
          "type": "address"
        }
      ],
      "name": "updateHead",
      "outputs": [],
      "payable": false,
      "stateMutability": "nonpayable",
      "type": "function"
    },
    {
      "constant": false,
      "inputs": [
        {
          "internalType": "bytes32",
          "name": "perspectiveIdHash",
          "type": "bytes32"
        },
        {
          "internalType": "address",
          "name": "newOwner",
          "type": "address"
        }
      ],
      "name": "changePerspectiveOwner",
      "outputs": [],
      "payable": false,
      "stateMutability": "nonpayable",
      "type": "function"
    },
    {
      "constant": false,
      "inputs": [
        {
          "internalType": "bytes32[]",
          "name": "perspectiveIdsHashes",
          "type": "bytes32[]"
        },
        {
          "internalType": "address",
          "name": "newOwner",
          "type": "address"
        }
      ],
      "name": "changePerspectiveOwnerBatch",
      "outputs": [],
      "payable": false,
      "stateMutability": "nonpayable",
      "type": "function"
    },
    {
      "constant": true,
      "inputs": [
        {
          "internalType": "bytes32",
          "name": "perspectiveIdHash",
          "type": "bytes32"
        }
      ],
      "name": "getPerspective",
      "outputs": [
        {
          "internalType": "address",
          "name": "owner",
          "type": "address"
        },
        {
          "internalType": "bytes32",
          "name": "headCid1",
          "type": "bytes32"
        },
        {
          "internalType": "bytes32",
          "name": "headCid0",
          "type": "bytes32"
        }
      ],
      "payable": false,
      "stateMutability": "view",
      "type": "function"
    },
    {
      "constant": true,
      "inputs": [
        {
          "internalType": "bytes32",
          "name": "perspectiveIdHash",
          "type": "bytes32"
        }
      ],
      "name": "getPerspectiveOwner",
      "outputs": [
        {
          "internalType": "address",
          "name": "owner",
          "type": "address"
        }
      ],
      "payable": false,
      "stateMutability": "view",
      "type": "function"
    }
  ],
  "bytecode": "0x60806040526100156001600160e01b0361006216565b600080546001600160a01b0319166001600160a01b03928316178082556040519216917f8be0079c531659141344cd1fd0a4f28419497f9722a3daafe3b4186f6b6457e0908290a3610066565b3390565b611867806100756000396000f3fe608060405234801561001057600080fd5b50600436106101735760003560e01c80636556cd05116100de578063b7b0ccde11610097578063cd784d1b11610071578063cd784d1b14610313578063db8d55f114610326578063f2fde38b1461033c578063fc87de391461034f57610173565b8063b7b0ccde146102e5578063b92d30dc146102ed578063c886170b1461030057610173565b80636556cd051461029057806368cd03f6146102a3578063715018a6146102b857806386830d58146102c05780638da5cb5b146102c85780638f32d59b146102d057610173565b80632e1a7d4d116101305780632e1a7d4d1461021157806339c375941461022457806345655b4e146102375780634acc79ed1461024a5780634ca959a01461026a5780634eee8c431461027d57610173565b806308274382146101785780630b78f9c01461018d5780630ea787e8146101a0578063133075d2146101b35780631393bbf5146101de5780632349a492146101fe575b600080fd5b61018b61018636600461122d565b610362565b005b61018b61019b3660046112b6565b6103b1565b61018b6101ae3660046111d8565b610428565b6101c66101c136600461119b565b610511565b6040516101d59392919061160b565b60405180910390f35b6101f16101ec36600461119b565b610565565b6040516101d5919061157c565b61018b61020c366004611165565b6105b0565b61018b61021f36600461119b565b61067e565b61018b6102323660046111b9565b61074f565b61018b6102453660046110e4565b61075a565b61025d61025836600461119b565b6107a9565b6040516101d59190611634565b61018b610278366004611097565b6107bb565b61018b61028b36600461111e565b61084a565b61018b61029e366004611036565b610881565b6102ab610913565b6040516101d59190611642565b61018b610922565b61025d610990565b6101f16109be565b6102d86109cd565b6040516101d59190611626565b61025d6109f1565b6101c66102fb36600461119b565b610a20565b61018b61030e366004611280565b610a4c565b6102d8610321366004610ff2565b610adc565b61032e610afa565b6040516101d59291906116e1565b61018b61034a366004610ff2565b610b4c565b61025d61035d36600461124b565b610b7c565b61036a6109cd565b61038f5760405162461bcd60e51b8152600401610386906116b1565b60405180910390fd5b600480546001600160a01b0319166001600160a01b0392909216919091179055565b6103b96109cd565b6103d55760405162461bcd60e51b8152600401610386906116b1565b60036020527f3617319a054d772f909f7c479a2cebe5066e836a939412e32403c99029b92eff9190915560016000527fa15bc60c955c405d20d9149c709e2460f1c2d9a497496a7f46004d1772c3054c55565b61043133610adc565b6104af57600061043f6109f1565b905080156104ad57600480546040516302654acd60e51b81526001600160a01b0390911691634ca959a09161047a918691339187910161158a565b600060405180830381600087803b15801561049457600080fd5b505af11580156104a8573d6000803e3d6000fd5b505050505b505b600084815260026020526040902080546001600160a01b03163314806104d957506104d933610adc565b6104f55760405162461bcd60e51b815260040161038690611691565b821561050a5760028101839055600181018490555b5050505050565b600080600061051e610dea565b50505060009182525060026020818152604092839020835160608101855281546001600160a01b031680825260018301549382018490529190930154929093018290529192565b600061056f610dea565b5050600090815260026020818152604092839020835160608101855281546001600160a01b0316808252600183015493820193909352920154919092015290565b81516105bb33610adc565b6106495760006105d9826105cd6109f1565b9063ffffffff610bac16565b9050801561064757600480546040516302654acd60e51b81526001600160a01b0390911691634ca959a091610614918791339187910161158a565b600060405180830381600087803b15801561062e57600080fd5b505af1158015610642573d6000803e3d6000fd5b505050505b505b60005b818110156106785761067084828151811061066357fe5b6020026020010151610bef565b60010161064c565b50505050565b6106866109cd565b6106a25760405162461bcd60e51b8152600401610386906116b1565b306001600160a01b0316638da5cb5b6040518163ffffffff1660e01b815260040160206040518083038186803b1580156106db57600080fd5b505afa1580156106ef573d6000803e3d6000fd5b505050506040513d601f19601f820116820180604052506107139190810190611018565b6001600160a01b03166108fc829081150290604051600060405180830381858888f1935050505015801561074b573d6000803e3d6000fd5b5050565b61074b828233610d08565b6107626109cd565b61077e5760405162461bcd60e51b8152600401610386906116b1565b6001600160a01b03919091166000908152600160205260409020805460ff1916911515919091179055565b60036020526000908152604090205481565b6107c433610adc565b6107e05760405162461bcd60e51b815260040161038690611681565b600480546040516302654acd60e51b81526001600160a01b0390911691634ca959a09161081391879187918791016115f0565b600060405180830381600087803b15801561082d57600080fd5b505af1158015610841573d6000803e3d6000fd5b50505050505050565b60005b825181101561087c5761087483828151811061086557fe5b60200260200101518333610d08565b60010161084d565b505050565b61088a33610adc565b6108a65760405162461bcd60e51b815260040161038690611681565b60048054604051636556cd0560e01b81526001600160a01b0390911691636556cd05916108db918891889188918891016115b2565b600060405180830381600087803b1580156108f557600080fd5b505af1158015610909573d6000803e3d6000fd5b5050505050505050565b6004546001600160a01b031681565b61092a6109cd565b6109465760405162461bcd60e51b8152600401610386906116b1565b600080546040516001600160a01b03909116907f8be0079c531659141344cd1fd0a4f28419497f9722a3daafe3b4186f6b6457e0908390a3600080546001600160a01b0319169055565b6000805260036020527f3617319a054d772f909f7c479a2cebe5066e836a939412e32403c99029b92eff5490565b6000546001600160a01b031690565b600080546001600160a01b03166109e2610d65565b6001600160a01b031614905090565b600160005260036020527fa15bc60c955c405d20d9149c709e2460f1c2d9a497496a7f46004d1772c3054c5490565b60026020819052600091825260409091208054600182015491909201546001600160a01b039092169183565b610a5533610adc565b610ad3576000610a63610990565b90508015610ad157600480546040516302654acd60e51b81526001600160a01b0390911691634ca959a091610a9e918691339187910161158a565b600060405180830381600087803b158015610ab857600080fd5b505af1158015610acc573d6000803e3d6000fd5b505050505b505b61074b82610bef565b6001600160a01b031660009081526001602052604090205460ff1690565b60036020527f3617319a054d772f909f7c479a2cebe5066e836a939412e32403c99029b92eff5460016000527fa15bc60c955c405d20d9149c709e2460f1c2d9a497496a7f46004d1772c3054c549091565b610b546109cd565b610b705760405162461bcd60e51b8152600401610386906116b1565b610b7981610d69565b50565b600081604051602001610b8f9190611569565b604051602081830303815290604052805190602001209050919050565b600082610bbb57506000610be9565b82820282848281610bc857fe5b0414610be65760405162461bcd60e51b8152600401610386906116a1565b90505b92915050565b6000610bfe8260000151610b7c565b60008181526002602052604090206060840151919250906001600160a01b0316610c3a5760405162461bcd60e51b8152600401610386906116d1565b80546001600160a01b031615610c625760405162461bcd60e51b815260040161038690611661565b606083015181546001600160a01b039182166001600160a01b03199182161780845560208087015160018087019182556040808a01516002808a0191825560008b81529581905294829020805490971695909716949094178555905490840155925491909201558351905183917f9096b4564a2bafa0ceef5b1e2a3726b6c688e97d8231050b488716d3c5d0632891610cfb9190611650565b60405180910390a2505050565b600083815260026020526040902080546001600160a01b03838116911614610d425760405162461bcd60e51b8152600401610386906116c1565b80546001600160a01b0319166001600160a01b0393909316929092179091555050565b3390565b6001600160a01b038116610d8f5760405162461bcd60e51b815260040161038690611671565b600080546040516001600160a01b03808516939216917f8be0079c531659141344cd1fd0a4f28419497f9722a3daafe3b4186f6b6457e091a3600080546001600160a01b0319166001600160a01b0392909216919091179055565b604080516060810182526000808252602082018190529181019190915290565b8035610be9816117f5565b8051610be9816117f5565b600082601f830112610e3157600080fd5b8135610e44610e3f82611723565b6116fc565b91508181835260208401935060208101905083856020840282011115610e6957600080fd5b60005b83811015610e955781610e7f8882610f07565b8452506020928301929190910190600101610e6c565b5050505092915050565b600082601f830112610eb057600080fd5b8135610ebe610e3f82611723565b81815260209384019390925082018360005b83811015610e955781358601610ee68882610f6c565b8452506020928301929190910190600101610ed0565b8035610be981611809565b8035610be981611812565b8035610be98161181b565b600082601f830112610f2e57600080fd5b8135610f3c610e3f82611744565b91508082526020830160208301858383011115610f5857600080fd5b610f638382846117b3565b50505092915050565b600060808284031215610f7e57600080fd5b610f8860806116fc565b9050813567ffffffffffffffff811115610fa157600080fd5b610fad84828501610f1d565b8252506020610fbe84848301610f07565b6020830152506040610fd284828501610f07565b6040830152506060610fe684828501610e0a565b60608301525092915050565b60006020828403121561100457600080fd5b60006110108484610e0a565b949350505050565b60006020828403121561102a57600080fd5b60006110108484610e15565b6000806000806080858703121561104c57600080fd5b60006110588787610e0a565b945050602061106987828801610e0a565b935050604061107a87828801610e0a565b925050606061108b87828801610f07565b91505092959194509250565b6000806000606084860312156110ac57600080fd5b60006110b88686610e0a565b93505060206110c986828701610e0a565b92505060406110da86828701610f07565b9150509250925092565b600080604083850312156110f757600080fd5b60006111038585610e0a565b925050602061111485828601610efc565b9150509250929050565b6000806040838503121561113157600080fd5b823567ffffffffffffffff81111561114857600080fd5b61115485828601610e20565b925050602061111485828601610e0a565b6000806040838503121561117857600080fd5b823567ffffffffffffffff81111561118f57600080fd5b61115485828601610e9f565b6000602082840312156111ad57600080fd5b60006110108484610f07565b600080604083850312156111cc57600080fd5b60006111548585610f07565b600080600080608085870312156111ee57600080fd5b60006111fa8787610f07565b945050602061120b87828801610f07565b935050604061121c87828801610f07565b925050606061108b87828801610e0a565b60006020828403121561123f57600080fd5b60006110108484610f12565b60006020828403121561125d57600080fd5b813567ffffffffffffffff81111561127457600080fd5b61101084828501610f1d565b6000806040838503121561129357600080fd5b823567ffffffffffffffff8111156112aa57600080fd5b61115485828601610f6c565b600080604083850312156112c957600080fd5b60006112d58585610f07565b925050602061111485828601610f07565b6112ef816117a8565b82525050565b6112ef8161177e565b6112ef81611789565b6112ef8161178e565b6112ef81611791565b60006113248261176c565b61132e8185611779565b935061133e8185602086016117bf565b9290920192915050565b60006113538261176c565b61135d8185611770565b935061136d8185602086016117bf565b611376816117eb565b9093019392505050565b600061138d601483611770565b736578697374696e6720706572737065637469766560601b815260200192915050565b60006113bd602683611770565b7f4f776e61626c653a206e6577206f776e657220697320746865207a65726f206181526564647265737360d01b602082015260400192915050565b6000611405602883611770565b7f486173537570657255736572733a2063616c6c6572206973206e6f74206120738152673ab832b92ab9b2b960c11b602082015260400192915050565b600061144f602983611770565b7f6f6e6c7920746865206f776e65722063616e207570646174652074686520706581526872737065637469766560b81b602082015260400192915050565b600061149a602183611770565b7f536166654d6174683a206d756c7469706c69636174696f6e206f766572666c6f8152607760f81b602082015260400192915050565b60006114dd602083611770565b7f4f776e61626c653a2063616c6c6572206973206e6f7420746865206f776e6572815260200192915050565b6000611516601383611770565b72756e617574686f72697a65642061636365737360681b815260200192915050565b6000611545601583611770565b746f776e65722063616e6e6f7420626520656d70747960581b815260200192915050565b60006115758284611319565b9392505050565b60208101610be982846112f5565b6060810161159882866112f5565b6115a560208301856112e6565b6110106040830184611307565b608081016115c082876112f5565b6115cd60208301866112f5565b6115da60408301856112f5565b6115e76060830184611307565b95945050505050565b606081016115fe82866112f5565b6115a560208301856112f5565b6060810161161982866112f5565b6115a56020830185611307565b60208101610be982846112fe565b60208101610be98284611307565b60208101610be98284611310565b602080825281016115758184611348565b60208082528101610be981611380565b60208082528101610be9816113b0565b60208082528101610be9816113f8565b60208082528101610be981611442565b60208082528101610be98161148d565b60208082528101610be9816114d0565b60208082528101610be981611509565b60208082528101610be981611538565b604081016116ef8285611307565b6115756020830184611307565b60405181810167ffffffffffffffff8111828210171561171b57600080fd5b604052919050565b600067ffffffffffffffff82111561173a57600080fd5b5060209081020190565b600067ffffffffffffffff82111561175b57600080fd5b506020601f91909101601f19160190565b5190565b90815260200190565b919050565b6000610be98261179c565b151590565b90565b6000610be98261177e565b6001600160a01b031690565b6000610be982611791565b82818337506000910152565b60005b838110156117da5781810151838201526020016117c2565b838111156106785750506000910152565b601f01601f191690565b6117fe8161177e565b8114610b7957600080fd5b6117fe81611789565b6117fe8161178e565b6117fe8161179156fea365627a7a7231582032a472bd4aa168e1f2aa405674cc82cbc00835fe564ce582f5854c9766839a146c6578706572696d656e74616cf564736f6c63430005100040",
  "source": "pragma solidity >=0.5.0 <0.6.0;\npragma experimental ABIEncoderV2;\n\nimport \"./Ownable.sol\";\nimport \"./SafeMath.sol\";\n\nimport \"./UprtclAccounts.sol\";\n\n/** Underscore Protocol Ethereum Service used to store the content of\n* _Prtcl perspectives */\ncontract UprtclRoot is HasSuperUsers {\n    using SafeMath for uint256;\n\n    struct Perspective {\n        address owner;\n        bytes32 headCid1;\n        bytes32 headCid0;\n    }\n\n    struct NewPerspective {\n        string perspectiveId;\n        bytes32 headCid1;\n        bytes32 headCid0;\n        address owner;\n    }\n\n    /** superUsers can update any perspective */\n    mapping(bytes32 => Perspective) public perspectives;\n\n    mapping(uint256 => uint256) public fees;\n\n    event PerspectiveCreated(\n        bytes32 indexed perspectiveIdHash,\n        string perspectiveId\n    );\n\n    UprtclAccounts public accounts;\n\n    function setAccounts(UprtclAccounts _accounts) public onlyOwner {\n        accounts = _accounts;\n    }\n\n    function withdraw(uint256 amount) public onlyOwner {\n        this.owner().transfer(amount);\n    }\n\n    function setFees(uint256 addFee, uint256 updateFee) public onlyOwner {\n        fees[0] = addFee;\n        fees[1] = updateFee;\n    }\n\n    function getFees() public view returns (uint256 addFee, uint256 updateFee) {\n        return (fees[0], fees[1]);\n    }\n\n    function getAddFee() public view returns (uint256) {\n        return fees[0];\n    }\n\n    function getUpdateFee() public view returns (uint256) {\n        return fees[1];\n    }\n\n    function consume(address account, address by, uint256 amount) public onlySuperUser {\n        accounts.consume(account, by, amount);\n    }\n\n    function transferTo(address from, address by, address to, uint256 amount) public onlySuperUser {\n        accounts.transferTo(from, by, to, amount);\n    }\n\n    function getPerspectiveIdHash(string memory perspectiveId) public pure returns (bytes32 idHash) {\n        return keccak256(abi.encodePacked(perspectiveId));\n    }\n\n    /** Adds a new perspective to the mapping and sets the owner. The head pointer and the context. */\n    function createPerspectiveInternal(NewPerspective memory newPerspective)\n        private\n    {\n        bytes32 perspectiveIdHash = getPerspectiveIdHash(newPerspective.perspectiveId);\n\n        Perspective storage perspective = perspectives[perspectiveIdHash];\n        require(address(0) != newPerspective.owner, \"owner cannot be empty\");\n        require(address(0) == perspective.owner, \"existing perspective\");\n\n        perspective.owner = newPerspective.owner;\n        perspective.headCid1 = newPerspective.headCid1;\n        perspective.headCid0 = newPerspective.headCid0;\n\n        perspectives[perspectiveIdHash] = perspective;\n\n        emit PerspectiveCreated(\n            perspectiveIdHash,\n            newPerspective.perspectiveId\n        );\n    }\n\n    function createPerspective(NewPerspective memory newPerspective, address account)\n        public\n    {\n        if (!isSuperUser(msg.sender)) {\n            uint256 fee = getAddFee();\n            if (fee > 0) {\n                accounts.consume(account, msg.sender, fee);\n            }\n        }\n        createPerspectiveInternal(newPerspective);\n    }\n\n    function createPerspectiveBatch(NewPerspective[] memory newPerspectives, address account)\n        public\n    {\n        uint256 nPerspectives = newPerspectives.length;\n\n        if (!isSuperUser(msg.sender)) {\n            uint256 fee = getUpdateFee().mul(nPerspectives);\n\n            if (fee > 0) {\n                accounts.consume(account, msg.sender, fee);\n            }\n        }\n\n        for (uint256 ix = 0; ix < nPerspectives; ix++) {\n            createPerspectiveInternal(newPerspectives[ix]);\n        }\n    }\n\n    function updateHead(\n        bytes32 perspectiveIdHash,\n        bytes32 newHeadCid1,\n        bytes32 newHeadCid0,\n        address account\n    ) public {\n        if (!isSuperUser(msg.sender)) {\n            uint256 fee = getUpdateFee();\n            if (fee > 0) {\n                accounts.consume(account, msg.sender, fee);\n            }\n        }\n\n        Perspective storage perspective = perspectives[perspectiveIdHash];\n\n        require(\n            (perspective.owner == msg.sender) || isSuperUser(msg.sender),\n            \"only the owner can update the perspective\"\n        );\n\n        if (newHeadCid0 != bytes32(0)) {\n            perspective.headCid0 = newHeadCid0;\n            perspective.headCid1 = newHeadCid1;\n        }\n    }\n\n    function changePerspectiveOwnerInternal(\n        bytes32 perspectiveIdHash,\n        address newOwner,\n        address sender\n    ) private {\n        Perspective storage perspective = perspectives[perspectiveIdHash];\n        require(sender == perspective.owner, \"unauthorized access\");\n        \n        perspective.owner = newOwner;\n    }\n\n    /** Changes the owner of a given perspective. Available only to the current owner of that perspective. */\n    function changePerspectiveOwner(bytes32 perspectiveIdHash, address newOwner)\n        public\n    {\n        changePerspectiveOwnerInternal(perspectiveIdHash, newOwner, msg.sender);\n    }\n\n    function changePerspectiveOwnerBatch(\n        bytes32[] memory perspectiveIdsHashes,\n        address newOwner\n    ) public {\n        for (uint256 ix = 0; ix < perspectiveIdsHashes.length; ix++) {\n            changePerspectiveOwnerInternal(\n                perspectiveIdsHashes[ix],\n                newOwner,\n                msg.sender\n            );\n        }\n    }\n\n    /** Get the perspective owner and details from its ID */\n    function getPerspective(bytes32 perspectiveIdHash)\n        public\n        view\n        returns (address owner, bytes32 headCid1, bytes32 headCid0)\n    {\n        Perspective memory perspective = perspectives[perspectiveIdHash];\n\n        return (perspective.owner, perspective.headCid1, perspective.headCid0);\n    }\n\n    /** Get the perspective owner and details from its ID */\n    function getPerspectiveOwner(bytes32 perspectiveIdHash)\n        public\n        view\n        returns (address owner)\n    {\n        Perspective memory perspective = perspectives[perspectiveIdHash];\n\n        return (perspective.owner);\n    }\n\n}\n",
  "sourcePath": "/home/pepo/pr/uprtcl/eth-uprtcl/contracts/UprtclRoot.sol",
  "compiler": {
    "name": "solc",
    "version": "0.5.16+commit.9c3226ce.Emscripten.clang"
  },
  "schemaVersion": "3.0.11",
  "updatedAt": "2020-02-28T17:15:41.488Z",
  "devdoc": {
    "methods": {
      "isOwner()": {
        "details": "Returns true if the caller is the current owner."
      },
      "owner()": {
        "details": "Returns the address of the current owner."
      },
      "renounceOwnership()": {
        "details": "Leaves the contract without owner. It will not be possible to call `onlyOwner` functions anymore. Can only be called by the current owner.     * NOTE: Renouncing ownership will leave the contract without an owner, thereby removing any functionality that is only available to the owner."
      },
      "transferOwnership(address)": {
        "details": "Transfers ownership of the contract to a new account (`newOwner`). Can only be called by the current owner."
      }
    }
  },
  "userdoc": {
    "methods": {
      "changePerspectiveOwner(bytes32,address)": {
        "notice": "Changes the owner of a given perspective. Available only to the current owner of that perspective. "
      },
      "getPerspective(bytes32)": {
        "notice": "Get the perspective owner and details from its ID "
      },
      "getPerspectiveOwner(bytes32)": {
        "notice": "Get the perspective owner and details from its ID "
      }
    },
    "notice": "Underscore Protocol Ethereum Service used to store the content of _Prtcl perspectives "
  }
}