{
  "contractName": "UprtclProposals",
  "abi": [
    {
      "anonymous": false,
      "inputs": [
        {
          "indexed": true,
          "internalType": "address",
          "name": "previousOwner",
          "type": "address"
        },
        {
          "indexed": true,
          "internalType": "address",
          "name": "newOwner",
          "type": "address"
        }
      ],
      "name": "OwnershipTransferred",
      "type": "event"
    },
    {
      "anonymous": false,
      "inputs": [
        {
          "indexed": true,
          "internalType": "bytes32",
          "name": "toPerspectiveIdHash",
          "type": "bytes32"
        },
        {
          "indexed": true,
          "internalType": "bytes32",
          "name": "fromPerspectiveIdHash",
          "type": "bytes32"
        },
        {
          "indexed": true,
          "internalType": "bytes32",
          "name": "proposalId",
          "type": "bytes32"
        },
        {
          "indexed": false,
          "internalType": "address",
          "name": "creator",
          "type": "address"
        }
      ],
      "name": "ProposalCreated",
      "type": "event"
    },
    {
      "constant": true,
      "inputs": [],
      "name": "factor_den",
      "outputs": [
        {
          "internalType": "uint256",
          "name": "",
          "type": "uint256"
        }
      ],
      "payable": false,
      "stateMutability": "view",
      "type": "function"
    },
    {
      "constant": true,
      "inputs": [],
      "name": "factor_num",
      "outputs": [
        {
          "internalType": "uint256",
          "name": "",
          "type": "uint256"
        }
      ],
      "payable": false,
      "stateMutability": "view",
      "type": "function"
    },
    {
      "constant": true,
      "inputs": [
        {
          "internalType": "address",
          "name": "",
          "type": "address"
        }
      ],
      "name": "fees",
      "outputs": [
        {
          "internalType": "uint256",
          "name": "fee",
          "type": "uint256"
        },
        {
          "internalType": "uint256",
          "name": "balance",
          "type": "uint256"
        }
      ],
      "payable": false,
      "stateMutability": "view",
      "type": "function"
    },
    {
      "constant": true,
      "inputs": [],
      "name": "isOwner",
      "outputs": [
        {
          "internalType": "bool",
          "name": "",
          "type": "bool"
        }
      ],
      "payable": false,
      "stateMutability": "view",
      "type": "function"
    },
    {
      "constant": true,
      "inputs": [
        {
          "internalType": "address",
          "name": "suAddress",
          "type": "address"
        }
      ],
      "name": "isSuperUser",
      "outputs": [
        {
          "internalType": "bool",
          "name": "",
          "type": "bool"
        }
      ],
      "payable": false,
      "stateMutability": "view",
      "type": "function"
    },
    {
      "constant": true,
      "inputs": [],
      "name": "minFee",
      "outputs": [
        {
          "internalType": "uint256",
          "name": "",
          "type": "uint256"
        }
      ],
      "payable": false,
      "stateMutability": "view",
      "type": "function"
    },
    {
      "constant": true,
      "inputs": [],
      "name": "owner",
      "outputs": [
        {
          "internalType": "address payable",
          "name": "",
          "type": "address"
        }
      ],
      "payable": false,
      "stateMutability": "view",
      "type": "function"
    },
    {
      "constant": true,
      "inputs": [
        {
          "internalType": "bytes32",
          "name": "",
          "type": "bytes32"
        }
      ],
      "name": "proposals",
      "outputs": [
        {
          "internalType": "string",
          "name": "toPerspectiveId",
          "type": "string"
        },
        {
          "internalType": "string",
          "name": "fromPerspectiveId",
          "type": "string"
        },
        {
          "internalType": "address",
          "name": "owner",
          "type": "address"
        },
        {
          "internalType": "uint256",
          "name": "nonce",
          "type": "uint256"
        },
        {
          "internalType": "uint8",
          "name": "status",
          "type": "uint8"
        },
        {
          "internalType": "uint8",
          "name": "authorized",
          "type": "uint8"
        }
      ],
      "payable": false,
      "stateMutability": "view",
      "type": "function"
    },
    {
      "constant": false,
      "inputs": [],
      "name": "renounceOwnership",
      "outputs": [],
      "payable": false,
      "stateMutability": "nonpayable",
      "type": "function"
    },
    {
      "constant": false,
      "inputs": [
        {
          "internalType": "address",
          "name": "suAddress",
          "type": "address"
        },
        {
          "internalType": "bool",
          "name": "value",
          "type": "bool"
        }
      ],
      "name": "setSuperUser",
      "outputs": [],
      "payable": false,
      "stateMutability": "nonpayable",
      "type": "function"
    },
    {
      "constant": false,
      "inputs": [
        {
          "internalType": "address payable",
          "name": "newOwner",
          "type": "address"
        }
      ],
      "name": "transferOwnership",
      "outputs": [],
      "payable": false,
      "stateMutability": "nonpayable",
      "type": "function"
    },
    {
      "constant": false,
      "inputs": [
        {
          "internalType": "contract UprtclRoot",
          "name": "_uprtclRoot",
          "type": "address"
        }
      ],
      "name": "setUprtclRoot",
      "outputs": [],
      "payable": false,
      "stateMutability": "nonpayable",
      "type": "function"
    },
    {
      "constant": true,
      "inputs": [
        {
          "internalType": "string",
          "name": "toPerspectiveId",
          "type": "string"
        },
        {
          "internalType": "string",
          "name": "fromPerspectiveId",
          "type": "string"
        },
        {
          "internalType": "uint256",
          "name": "nonce",
          "type": "uint256"
        }
      ],
      "name": "getProposalId",
      "outputs": [
        {
          "internalType": "bytes32",
          "name": "proposalId",
          "type": "bytes32"
        }
      ],
      "payable": false,
      "stateMutability": "pure",
      "type": "function"
    },
    {
      "constant": false,
      "inputs": [
        {
          "internalType": "uint256",
          "name": "_minFee",
          "type": "uint256"
        }
      ],
      "name": "setMinFee",
      "outputs": [],
      "payable": false,
      "stateMutability": "nonpayable",
      "type": "function"
    },
    {
      "constant": false,
      "inputs": [
        {
          "internalType": "uint256",
          "name": "_factor_num",
          "type": "uint256"
        }
      ],
      "name": "setFactorNum",
      "outputs": [],
      "payable": false,
      "stateMutability": "nonpayable",
      "type": "function"
    },
    {
      "constant": false,
      "inputs": [
        {
          "internalType": "uint256",
          "name": "_factor_den",
          "type": "uint256"
        }
      ],
      "name": "setFactorDen",
      "outputs": [],
      "payable": false,
      "stateMutability": "nonpayable",
      "type": "function"
    },
    {
      "constant": false,
      "inputs": [
        {
          "components": [
            {
              "internalType": "string",
              "name": "toPerspectiveId",
              "type": "string"
            },
            {
              "internalType": "string",
              "name": "fromPerspectiveId",
              "type": "string"
            },
            {
              "internalType": "address",
              "name": "owner",
              "type": "address"
            },
            {
              "internalType": "uint256",
              "name": "nonce",
              "type": "uint256"
            },
            {
              "components": [
                {
                  "internalType": "bytes32",
                  "name": "perspectiveIdHash",
                  "type": "bytes32"
                },
                {
                  "internalType": "bytes32",
                  "name": "headCid1",
                  "type": "bytes32"
                },
                {
                  "internalType": "bytes32",
                  "name": "headCid0",
                  "type": "bytes32"
                },
                {
                  "internalType": "uint8",
                  "name": "executed",
                  "type": "uint8"
                }
              ],
              "internalType": "struct UprtclProposals.HeadUpdate[]",
              "name": "headUpdates",
              "type": "tuple[]"
            },
            {
              "internalType": "address[]",
              "name": "approvedAddresses",
              "type": "address[]"
            }
          ],
          "internalType": "struct UprtclProposals.NewProposal",
          "name": "newProposal",
          "type": "tuple"
        },
        {
          "internalType": "address",
          "name": "account",
          "type": "address"
        }
      ],
      "name": "initProposal",
      "outputs": [],
      "payable": false,
      "stateMutability": "nonpayable",
      "type": "function"
    },
    {
      "constant": false,
      "inputs": [
        {
          "internalType": "bytes32",
          "name": "proposalId",
          "type": "bytes32"
        },
        {
          "components": [
            {
              "internalType": "bytes32",
              "name": "perspectiveIdHash",
              "type": "bytes32"
            },
            {
              "internalType": "bytes32",
              "name": "headCid1",
              "type": "bytes32"
            },
            {
              "internalType": "bytes32",
              "name": "headCid0",
              "type": "bytes32"
            },
            {
              "internalType": "uint8",
              "name": "executed",
              "type": "uint8"
            }
          ],
          "internalType": "struct UprtclProposals.HeadUpdate[]",
          "name": "headUpdates",
          "type": "tuple[]"
        }
      ],
      "name": "addUpdatesToProposal",
      "outputs": [],
      "payable": false,
      "stateMutability": "nonpayable",
      "type": "function"
    },
    {
      "constant": false,
      "inputs": [
        {
          "internalType": "bytes32",
          "name": "proposalId",
          "type": "bytes32"
        },
        {
          "internalType": "uint8",
          "name": "status",
          "type": "uint8"
        }
      ],
      "name": "setProposalStatus",
      "outputs": [],
      "payable": false,
      "stateMutability": "nonpayable",
      "type": "function"
    },
    {
      "constant": false,
      "inputs": [
        {
          "internalType": "bytes32",
          "name": "proposalId",
          "type": "bytes32"
        },
        {
          "internalType": "uint8",
          "name": "authorized",
          "type": "uint8"
        },
        {
          "internalType": "bool",
          "name": "execute",
          "type": "bool"
        },
        {
          "internalType": "address",
          "name": "msgSender",
          "type": "address"
        }
      ],
      "name": "authorizeProposalSuperUser",
      "outputs": [],
      "payable": false,
      "stateMutability": "nonpayable",
      "type": "function"
    },
    {
      "constant": false,
      "inputs": [
        {
          "internalType": "bytes32",
          "name": "proposalId",
          "type": "bytes32"
        },
        {
          "internalType": "uint8",
          "name": "authorized",
          "type": "uint8"
        },
        {
          "internalType": "bool",
          "name": "execute",
          "type": "bool"
        }
      ],
      "name": "authorizeProposal",
      "outputs": [],
      "payable": false,
      "stateMutability": "nonpayable",
      "type": "function"
    },
    {
      "constant": false,
      "inputs": [
        {
          "internalType": "bytes32",
          "name": "proposalId",
          "type": "bytes32"
        }
      ],
      "name": "executeProposalExternal",
      "outputs": [],
      "payable": false,
      "stateMutability": "nonpayable",
      "type": "function"
    },
    {
      "constant": false,
      "inputs": [
        {
          "internalType": "bytes32",
          "name": "proposalId",
          "type": "bytes32"
        },
        {
          "internalType": "uint256[]",
          "name": "indexes",
          "type": "uint256[]"
        }
      ],
      "name": "executeProposalPartially",
      "outputs": [],
      "payable": false,
      "stateMutability": "nonpayable",
      "type": "function"
    },
    {
      "constant": true,
      "inputs": [
        {
          "internalType": "bytes32",
          "name": "proposalId",
          "type": "bytes32"
        }
      ],
      "name": "getProposal",
      "outputs": [
        {
          "components": [
            {
              "internalType": "string",
              "name": "toPerspectiveId",
              "type": "string"
            },
            {
              "internalType": "string",
              "name": "fromPerspectiveId",
              "type": "string"
            },
            {
              "internalType": "address",
              "name": "owner",
              "type": "address"
            },
            {
              "internalType": "uint256",
              "name": "nonce",
              "type": "uint256"
            },
            {
              "components": [
                {
                  "internalType": "bytes32",
                  "name": "perspectiveIdHash",
                  "type": "bytes32"
                },
                {
                  "internalType": "bytes32",
                  "name": "headCid1",
                  "type": "bytes32"
                },
                {
                  "internalType": "bytes32",
                  "name": "headCid0",
                  "type": "bytes32"
                },
                {
                  "internalType": "uint8",
                  "name": "executed",
                  "type": "uint8"
                }
              ],
              "internalType": "struct UprtclProposals.HeadUpdate[]",
              "name": "headUpdates",
              "type": "tuple[]"
            },
            {
              "internalType": "address[]",
              "name": "approvedAddresses",
              "type": "address[]"
            },
            {
              "internalType": "uint8",
              "name": "status",
              "type": "uint8"
            },
            {
              "internalType": "uint8",
              "name": "authorized",
              "type": "uint8"
            }
          ],
          "internalType": "struct UprtclProposals.Proposal",
          "name": "proposal",
          "type": "tuple"
        }
      ],
      "payable": false,
      "stateMutability": "view",
      "type": "function"
    }
  ],
  "bytecode": "0x60806040526100156001600160e01b0361006216565b600080546001600160a01b0319166001600160a01b03928316178082556040519216917f8be0079c531659141344cd1fd0a4f28419497f9722a3daafe3b4186f6b6457e0908290a3610066565b3390565b612de4806100756000396000f3fe608060405234801561001057600080fd5b50600436106101585760003560e01c8063641591af116100c357806395f720a41161007c57806395f720a4146102c2578063971a294f146102d5578063bb61de30146102e8578063cd784d1b146102fb578063f2fde38b1461030e578063faaebd211461032157610158565b8063641591af14610257578063715018a61461026a5780637a9700e2146102725780637cce0117146102855780638da5cb5b146102985780638f32d59b146102ad57610158565b806331ac99201161011557806331ac9920146101d157806332ed5b12146101e457806339eacf3414610209578063430694cf1461021c57806345655b4e1461023c57806352f386cb1461024f57610158565b806305196b9d1461015d5780630de4cb191461017b578063158215d31461019057806324ec7590146101a357806326d50df1146101ab5780632bc3ed3a146101be575b600080fd5b610165610342565b6040516101729190612aa1565b60405180910390f35b61018e61018936600461213c565b610348565b005b61018e61019e3660046121c0565b61037a565b610165610389565b61018e6101b9366004612178565b61038f565b6101656101cc366004612304565b6107f8565b61018e6101df36600461213c565b61082e565b6101f76101f236600461213c565b610857565b60405161017296959493929190612af5565b61018e610217366004612208565b6109ba565b61022f61022a36600461213c565b610a0e565b6040516101729190612c3b565b61018e61024a366004612102565b610ca5565b610165610cf4565b61018e610265366004612238565b610cfa565b61018e610d0b565b61018e61028036600461213c565b610d79565b61018e6102933660046122e6565b610d86565b6102a0610dcc565b6040516101729190612a1f565b6102b5610ddc565b6040516101729190612a93565b61018e6102d0366004612376565b610e00565b61018e6102e336600461213c565b611307565b61018e6102f6366004612285565b611330565b6102b56103093660046120be565b611361565b61018e61031c3660046120be565b61137f565b61033461032f3660046120be565b6113ac565b604051610172929190612c4c565b60055481565b610350610ddc565b6103755760405162461bcd60e51b815260040161036c90612c1b565b60405180910390fd5b600555565b6103858282336113c5565b5050565b60045481565b6000828152600260208190526040909120908101546001600160a01b03166103c95760405162461bcd60e51b815260040161036c90612bab565b600681015460ff166103ed5760405162461bcd60e51b815260040161036c90612c2b565b60408051825460206002610100600184161581026000190190931604601f81018290049091028301610120908101909452908201818152600093610672939286928492909184918401828280156104855780601f1061045a57610100808354040283529160200191610485565b820191906000526020600020905b81548152906001019060200180831161046857829003601f168201915b50505050508152602001600182018054600181600116156101000203166002900480601f0160208091040260200160405190810160405280929190818152602001828054600181600116156101000203166002900480156105275780601f106104fc57610100808354040283529160200191610527565b820191906000526020600020905b81548152906001019060200180831161050a57829003601f168201915b505050505081526020016002820160009054906101000a90046001600160a01b03166001600160a01b03166001600160a01b031681526020016003820154815260200160048201805480602002602001604051908101604052809291908181526020016000905b828210156105e5576000848152602090819020604080516080810182526004860290920180548352600180820154848601526002820154928401929092526003015460ff166060830152908352909201910161058e565b5050505081526020016005820180548060200260200160405190810160405280929190818152602001828054801561064657602002820191906000526020600020905b81546001600160a01b03168152600190910190602001808311610628575b50505091835250506006919091015460ff808216602084015261010090910416604090910152336117a0565b60ff16116106925760405162461bcd60e51b815260040161036c90612bdb565b60005b82518160ff1610156107f2576106a9611b52565b838260ff16815181106106b857fe5b60200260200101519050806060015160ff166000146106e95760405162461bcd60e51b815260040161036c90612b7b565b60028301546007548251604051631393bbf560e01b81526001600160a01b039384169390921691631393bbf59161072291600401612aa1565b60206040518083038186803b15801561073a57600080fd5b505afa15801561074e573d6000803e3d6000fd5b505050506040513d601f19601f8201168201806040525061077291908101906120e4565b6001600160a01b0316146107985760405162461bcd60e51b815260040161036c90612b6b565b600483810180546001808201835560009283526020928390208551929094029093019081559083015181830155604083015160028201556060909201516003909201805460ff191660ff9093169290921790915501610695565b50505050565b600083838360405160200161080f939291906129e2565b6040516020818303038152906040528051906020012090509392505050565b610836610ddc565b6108525760405162461bcd60e51b815260040161036c90612c1b565b600455565b600260208181526000928352604092839020805484516001821615610100026000190190911693909304601f81018390048302840183019094528383529283918301828280156108e85780601f106108bd576101008083540402835291602001916108e8565b820191906000526020600020905b8154815290600101906020018083116108cb57829003601f168201915b505050505090806001018054600181600116156101000203166002900480601f0160208091040260200160405190810160405280929190818152602001828054600181600116156101000203166002900480156109865780601f1061095b57610100808354040283529160200191610986565b820191906000526020600020905b81548152906001019060200180831161096957829003601f168201915b505050506002830154600384015460069094015492936001600160a01b039091169290915060ff8082169161010090041686565b6000828152600260208190526040909120908101546001600160a01b031633146109f65760405162461bcd60e51b815260040161036c90612b5b565b600601805460ff191660ff9290921691909117905550565b610a16611b79565b60008281526002602081815260409283902083518154610120601f600019600184161561010090810291909101909316969096049586018590049094028201840190955293840183815290928492849190840182828015610ab85780601f10610a8d57610100808354040283529160200191610ab8565b820191906000526020600020905b815481529060010190602001808311610a9b57829003601f168201915b50505050508152602001600182018054600181600116156101000203166002900480601f016020809104026020016040519081016040528092919081815260200182805460018160011615610100020316600290048015610b5a5780601f10610b2f57610100808354040283529160200191610b5a565b820191906000526020600020905b815481529060010190602001808311610b3d57829003601f168201915b505050505081526020016002820160009054906101000a90046001600160a01b03166001600160a01b03166001600160a01b031681526020016003820154815260200160048201805480602002602001604051908101604052809291908181526020016000905b82821015610c18576000848152602090819020604080516080810182526004860290920180548352600180820154848601526002820154928401929092526003015460ff1660608301529083529092019101610bc1565b50505050815260200160058201805480602002602001604051908101604052809291908181526020018280548015610c7957602002820191906000526020600020905b81546001600160a01b03168152600190910190602001808311610c5b575b50505091835250506006919091015460ff80821660208401526101009091041660409091015292915050565b610cad610ddc565b610cc95760405162461bcd60e51b815260040161036c90612c1b565b6001600160a01b03919091166000908152600160205260409020805460ff1916911515919091179055565b60065481565b610d0683838333611823565b505050565b610d13610ddc565b610d2f5760405162461bcd60e51b815260040161036c90612c1b565b600080546040516001600160a01b03909116907f8be0079c531659141344cd1fd0a4f28419497f9722a3daafe3b4186f6b6457e0908390a3600080546001600160a01b0319169055565b610d83813361189a565b50565b610d8e610ddc565b610daa5760405162461bcd60e51b815260040161036c90612c1b565b600780546001600160a01b0319166001600160a01b0392909216919091179055565b6000546001600160a01b03165b90565b600080546001600160a01b0316610df16119a5565b6001600160a01b031614905090565b600754825160405163fc87de3960e01b81526000926001600160a01b031691631393bbf591839163fc87de3991610e3a9190600401612ae4565b60206040518083038186803b158015610e5257600080fd5b505afa158015610e66573d6000803e3d6000fd5b505050506040513d601f19601f82011682018060405250610e8a919081019061215a565b6040518263ffffffff1660e01b8152600401610ea69190612aa1565b60206040518083038186803b158015610ebe57600080fd5b505afa158015610ed2573d6000803e3d6000fd5b505050506040513d601f19601f82011682018060405250610ef691908101906120e4565b6001600160a01b03811660009081526003602052604090205490915080610f8b5760045415610f8657600754600480546040516302654acd60e51b81526001600160a01b0390931692634ca959a092610f53928892339201612a6b565b600060405180830381600087803b158015610f6d57600080fd5b505af1158015610f81573d6000803e3d6000fd5b505050505b6110cb565b6000610fb4600654610fa8600554856119a990919063ffffffff16565b9063ffffffff6119ea16565b90506000610fe5600654610fa8610fd8600554600654611a2c90919063ffffffff16565b869063ffffffff6119a916565b6004549091508290811015610ff957506004545b600754604051636556cd0560e01b81526001600160a01b0390911690636556cd059061102f90899033908a908890600401612a2d565b600060405180830381600087803b15801561104957600080fd5b505af115801561105d573d6000803e3d6000fd5b50506007546040516302654acd60e51b81526001600160a01b039091169250634ca959a0915061109590899033908690600401612a6b565b600060405180830381600087803b1580156110af57600080fd5b505af11580156110c3573d6000803e3d6000fd5b505050505050505b60006110e48560000151866020015187606001516107f8565b600081815260026020819052604090912090810154919250906001600160a01b0316156111235760405162461bcd60e51b815260040161036c90612beb565b85518051611138918391602090910190611bcd565b5060208087015180516111519260018501920190611bcd565b5060408601516002820180546001600160a01b0319166001600160a01b039092169190911790556060860151600382015560a0860151805161119d916005840191602090910190611c4b565b5060068101805461ff001960ff1990911660011716905560808601516111c490839061038f565b600754602087015160405163fc87de3960e01b815284926001600160a01b03169163fc87de39916111f89190600401612ae4565b60206040518083038186803b15801561121057600080fd5b505afa158015611224573d6000803e3d6000fd5b505050506040513d601f19601f82011682018060405250611248919081019061215a565b600754885160405163fc87de3960e01b81526001600160a01b039092169163fc87de399161127891600401612ae4565b60206040518083038186803b15801561129057600080fd5b505afa1580156112a4573d6000803e3d6000fd5b505050506040513d601f19601f820116820180604052506112c8919081019061215a565b7f7172667a4024e27a0d3a896c8ba72947ebed1a0bb37d5c6aaff808c4f6b574ef336040516112f79190612a11565b60405180910390a4505050505050565b61130f610ddc565b61132b5760405162461bcd60e51b815260040161036c90612c1b565b600655565b61133933611361565b6113555760405162461bcd60e51b815260040161036c90612bcb565b6107f284848484611823565b6001600160a01b031660009081526001602052604090205460ff1690565b611387610ddc565b6113a35760405162461bcd60e51b815260040161036c90612c1b565b610d8381611a6e565b6003602052600090815260409020805460019091015482565b60008381526002602052604090206006810154610100900460ff166113fc5760405162461bcd60e51b815260040161036c90612c0b565b60408051825460206002610100600184161581026000190190931604601f81018290049091028301610120908101909452908201818152600093611681939286928492909184918401828280156114945780601f1061146957610100808354040283529160200191611494565b820191906000526020600020905b81548152906001019060200180831161147757829003601f168201915b50505050508152602001600182018054600181600116156101000203166002900480601f0160208091040260200160405190810160405280929190818152602001828054600181600116156101000203166002900480156115365780601f1061150b57610100808354040283529160200191611536565b820191906000526020600020905b81548152906001019060200180831161151957829003601f168201915b505050505081526020016002820160009054906101000a90046001600160a01b03166001600160a01b03166001600160a01b031681526020016003820154815260200160048201805480602002602001604051908101604052809291908181526020016000905b828210156115f4576000848152602090819020604080516080810182526004860290920180548352600180820154848601526002820154928401929092526003015460ff166060830152908352909201910161159d565b5050505081526020016005820180548060200260200160405190810160405280929190818152602001828054801561165557602002820191906000526020600020905b81546001600160a01b03168152600190910190602001808311611637575b50505091835250506006919091015460ff808216602084015261010090910416604090910152846117a0565b60ff16116116a15760405162461bcd60e51b815260040161036c90612bdb565b60005b8351811015611799576000826004018583815181106116bf57fe5b6020026020010151815481106116d157fe5b60009182526020909120600490910201600381015490915060ff16156117095760405162461bcd60e51b815260040161036c90612bbb565b60038101805460ff1916600190811790915560075482549183015460028401546040516301d4f0fd60e31b81526001600160a01b0390931693630ea787e89361175a93919290600090600401612aaf565b600060405180830381600087803b15801561177457600080fd5b505af1158015611788573d6000803e3d6000fd5b5050600190930192506116a4915050565b5050505050565b60008260a0015151600014156117b85750600161181d565b60005b8360a00151518163ffffffff161015611817578360a001518163ffffffff16815181106117e457fe5b60200260200101516001600160a01b0316836001600160a01b0316141561180f57506001905061181d565b6001016117bb565b50600090505b92915050565b6000848152600260208190526040909120908101546001600160a01b038381169116146118625760405162461bcd60e51b815260040161036c90612b9b565b60ff8416156118785760068101805460ff191690555b60068101805461ff00191661010060ff87160217905582156117995761179985835b600082815260026020818152604080842081518154610100600182161581026000190190911695909504601f810185900490940281016101209081019093529384018381529094936119179390928692849290918491908401828280156114945780601f1061146957610100808354040283529160200191611494565b60ff16116119375760405162461bcd60e51b815260040161036c90612bdb565b60048101546040805182815260208084028201019091526060918015611967578160200160208202803883390190505b50905060005b6004830154811015611999578082828151811061198657fe5b602090810291909101015260010161196d565b506107f28482856113c5565b3390565b6000826119b85750600061181d565b828202828482816119c557fe5b04146119e35760405162461bcd60e51b815260040161036c90612bfb565b9392505050565b60006119e383836040518060400160405280601a81526020017f536166654d6174683a206469766973696f6e206279207a65726f000000000000815250611aef565b60006119e383836040518060400160405280601e81526020017f536166654d6174683a207375627472616374696f6e206f766572666c6f770000815250611b26565b6001600160a01b038116611a945760405162461bcd60e51b815260040161036c90612b8b565b600080546040516001600160a01b03808516939216917f8be0079c531659141344cd1fd0a4f28419497f9722a3daafe3b4186f6b6457e091a3600080546001600160a01b0319166001600160a01b0392909216919091179055565b60008183611b105760405162461bcd60e51b815260040161036c9190612ae4565b506000838581611b1c57fe5b0495945050505050565b60008184841115611b4a5760405162461bcd60e51b815260040161036c9190612ae4565b505050900390565b60408051608081018252600080825260208201819052918101829052606081019190915290565b604051806101000160405280606081526020016060815260200160006001600160a01b03168152602001600081526020016060815260200160608152602001600060ff168152602001600060ff1681525090565b828054600181600116156101000203166002900490600052602060002090601f016020900481019282601f10611c0e57805160ff1916838001178555611c3b565b82800160010185558215611c3b579182015b82811115611c3b578251825591602001919060010190611c20565b50611c47929150611cac565b5090565b828054828255906000526020600020908101928215611ca0579160200282015b82811115611ca057825182546001600160a01b0319166001600160a01b03909116178255602090920191600190910190611c6b565b50611c47929150611cc6565b610dd991905b80821115611c475760008155600101611cb2565b610dd991905b80821115611c475780546001600160a01b0319168155600101611ccc565b803561181d81612d69565b805161181d81612d69565b600082601f830112611d1157600080fd5b8135611d24611d1f82612c8e565b612c67565b91508181835260208401935060208101905083856020840282011115611d4957600080fd5b60005b83811015611d755781611d5f8882611cea565b8452506020928301929190910190600101611d4c565b5050505092915050565b600082601f830112611d9057600080fd5b8135611d9e611d1f82612c8e565b91508181835260208401935060208101905083856080840282011115611dc357600080fd5b60005b83811015611d755781611dd98882611f4e565b84525060209092019160809190910190600101611dc6565b600082601f830112611e0257600080fd5b8135611e10611d1f82612c8e565b91508181835260208401935060208101905083856080840282011115611e3557600080fd5b60005b83811015611d755781611e4b8882611f4e565b84525060209092019160809190910190600101611e38565b600082601f830112611e7457600080fd5b8135611e82611d1f82612c8e565b91508181835260208401935060208101905083856020840282011115611ea757600080fd5b60005b83811015611d755781611ebd8882611ede565b8452506020928301929190910190600101611eaa565b803561181d81612d7d565b803561181d81612d86565b805161181d81612d86565b803561181d81612d8f565b600082601f830112611f1057600080fd5b8135611f1e611d1f82612caf565b91508082526020830160208301858383011115611f3a57600080fd5b611f45838284612d27565b50505092915050565b600060808284031215611f6057600080fd5b611f6a6080612c67565b90506000611f788484611ede565b8252506020611f8984848301611ede565b6020830152506040611f9d84828501611ede565b6040830152506060611fb1848285016120b3565b60608301525092915050565b600060c08284031215611fcf57600080fd5b611fd960c0612c67565b9050813567ffffffffffffffff811115611ff257600080fd5b611ffe84828501611eff565b825250602082013567ffffffffffffffff81111561201b57600080fd5b61202784828501611eff565b602083015250604061203b84828501611cea565b604083015250606061204f84828501611ede565b606083015250608082013567ffffffffffffffff81111561206f57600080fd5b61207b84828501611d7f565b60808301525060a082013567ffffffffffffffff81111561209b57600080fd5b6120a784828501611d00565b60a08301525092915050565b803561181d81612d98565b6000602082840312156120d057600080fd5b60006120dc8484611cea565b949350505050565b6000602082840312156120f657600080fd5b60006120dc8484611cf5565b6000806040838503121561211557600080fd5b60006121218585611cea565b925050602061213285828601611ed3565b9150509250929050565b60006020828403121561214e57600080fd5b60006120dc8484611ede565b60006020828403121561216c57600080fd5b60006120dc8484611ee9565b6000806040838503121561218b57600080fd5b60006121978585611ede565b925050602083013567ffffffffffffffff8111156121b457600080fd5b61213285828601611df1565b600080604083850312156121d357600080fd5b60006121df8585611ede565b925050602083013567ffffffffffffffff8111156121fc57600080fd5b61213285828601611e63565b6000806040838503121561221b57600080fd5b60006122278585611ede565b9250506020612132858286016120b3565b60008060006060848603121561224d57600080fd5b60006122598686611ede565b935050602061226a868287016120b3565b925050604061227b86828701611ed3565b9150509250925092565b6000806000806080858703121561229b57600080fd5b60006122a78787611ede565b94505060206122b8878288016120b3565b93505060406122c987828801611ed3565b92505060606122da87828801611cea565b91505092959194509250565b6000602082840312156122f857600080fd5b60006120dc8484611ef4565b60008060006060848603121561231957600080fd5b833567ffffffffffffffff81111561233057600080fd5b61233c86828701611eff565b935050602084013567ffffffffffffffff81111561235957600080fd5b61236586828701611eff565b925050604061227b86828701611ede565b6000806040838503121561238957600080fd5b823567ffffffffffffffff8111156123a057600080fd5b6123ac85828601611fbd565b925050602061213285828601611cea565b60006123c983836123f4565b505060200190565b60006123dd83836128c1565b505060800190565b6123ee81612d1c565b82525050565b6123ee81612cef565b600061240882612cdd565b6124128185612ce1565b935061241d83612cd7565b8060005b8381101561244b57815161243588826123bd565b975061244083612cd7565b925050600101612421565b509495945050505050565b600061246182612cdd565b61246b8185612ce1565b935061247683612cd7565b8060005b8381101561244b57815161248e88826123d1565b975061249983612cd7565b92505060010161247a565b6123ee81612cfa565b6123ee81610dd9565b60006124c182612cdd565b6124cb8185612ce1565b93506124db818560208601612d33565b6124e481612d5f565b9093019392505050565b60006124f982612cdd565b6125038185612cea565b9350612513818560208601612d33565b9290920192915050565b600061252a602c83612ce1565b7f50726f706f73616c207374617475732063616e206f6e6c79206279207365742081526b313c9034ba399037bbb732b960a11b602082015260400192915050565b6000612578603783612ce1565b7f70726f706f73616c2063616e206f6e6c792073746f726520706572737065637481527f69766573206f776e656420627920697473206f776e6572000000000000000000602082015260400192915050565b60006125d7602a83612ce1565b7f68656164207570646174652065786563757465642070726f7065727479206d758152697374206265207a65726f60b01b602082015260400192915050565b6000612623602683612ce1565b7f4f776e61626c653a206e6577206f776e657220697320746865207a65726f206181526564647265737360d01b602082015260400192915050565b600061266b602c83612ce1565b7f50726f706f73616c2063616e206f6e6c7920627920617574686f72697a65642081526b313c9034ba399037bbb732b960a11b602082015260400192915050565b60006126b9601283612ce1565b711c1c9bdc1bdcd85b081b9bdd08199bdd5b9960721b815260200192915050565b60006126e7601c83612ce1565b7f686561642075706461746520616c726561647920657865637574656400000000815260200192915050565b6000612720602883612ce1565b7f486173537570657255736572733a2063616c6c6572206973206e6f74206120738152673ab832b92ab9b2b960c11b602082015260400192915050565b600061276a602283612ce1565b7f6d73672e73656e646572206e6f7420616e20617070726f766564206164647265815261737360f01b602082015260400192915050565b60006127ae601683612ce1565b751c1c9bdc1bdcd85b08185b1c9958591e48195e1a5cdd60521b815260200192915050565b60006127e0602183612ce1565b7f536166654d6174683a206d756c7469706c69636174696f6e206f766572666c6f8152607760f81b602082015260400192915050565b6000612823601783612ce1565b7f50726f706f73616c206e6f7420617574686f72697a6564000000000000000000815260200192915050565b600061285c602083612ce1565b7f4f776e61626c653a2063616c6c6572206973206e6f7420746865206f776e6572815260200192915050565b6000612895601b83612ce1565b7f70726f706f73616c207374617475732069732064697361626c65640000000000815260200192915050565b805160808301906128d284826124ad565b5060208201516128e560208501826124ad565b5060408201516128f860408501826124ad565b5060608201516107f260608501826129d9565b80516101008084526000919084019061292482826124b6565b9150506020830151848203602086015261293e82826124b6565b915050604083015161295360408601826123f4565b50606083015161296660608601826124ad565b506080830151848203608086015261297e8282612456565b91505060a083015184820360a086015261299882826123fd565b91505060c08301516129ad60c08601826129d9565b5060e08301516129c060e08601826129d9565b509392505050565b6123ee6129d482610dd9565b610dd9565b6123ee81612d16565b60006129ee82866124ee565b91506129fa82856124ee565b9150612a0682846129c8565b506020019392505050565b6020810161181d82846123e5565b6020810161181d82846123f4565b60808101612a3b82876123f4565b612a4860208301866123e5565b612a5560408301856123f4565b612a6260608301846124ad565b95945050505050565b60608101612a7982866123f4565b612a8660208301856123e5565b6120dc60408301846124ad565b6020810161181d82846124a4565b6020810161181d82846124ad565b60808101612abd82876124ad565b612aca60208301866124ad565b612ad760408301856124ad565b612a6260608301846123e5565b602080825281016119e381846124b6565b60c08082528101612b0681896124b6565b90508181036020830152612b1a81886124b6565b9050612b2960408301876123f4565b612b3660608301866124ad565b612b4360808301856129d9565b612b5060a08301846129d9565b979650505050505050565b6020808252810161181d8161251d565b6020808252810161181d8161256b565b6020808252810161181d816125ca565b6020808252810161181d81612616565b6020808252810161181d8161265e565b6020808252810161181d816126ac565b6020808252810161181d816126da565b6020808252810161181d81612713565b6020808252810161181d8161275d565b6020808252810161181d816127a1565b6020808252810161181d816127d3565b6020808252810161181d81612816565b6020808252810161181d8161284f565b6020808252810161181d81612888565b602080825281016119e3818461290b565b60408101612c5a82856124ad565b6119e360208301846124ad565b60405181810167ffffffffffffffff81118282101715612c8657600080fd5b604052919050565b600067ffffffffffffffff821115612ca557600080fd5b5060209081020190565b600067ffffffffffffffff821115612cc657600080fd5b506020601f91909101601f19160190565b60200190565b5190565b90815260200190565b919050565b600061181d82612d0a565b151590565b600061181d82612cef565b6001600160a01b031690565b60ff1690565b600061181d82612cff565b82818337506000910152565b60005b83811015612d4e578181015183820152602001612d36565b838111156107f25750506000910152565b601f01601f191690565b612d7281612cef565b8114610d8357600080fd5b612d7281612cfa565b612d7281610dd9565b612d7281612cff565b612d7281612d1656fea365627a7a72315820563e8e410f5af233fe12cba8b157ad12eac020a2f8c5abe6cfbc9fb9a58cfb436c6578706572696d656e74616cf564736f6c63430005100040",
  "source": "pragma solidity >=0.5.0 <0.6.0;\npragma experimental ABIEncoderV2;\n\nimport \"./UprtclRoot.sol\";\nimport \"./SafeMath.sol\";\nimport \"./HasSuperUsers.sol\";\n\ncontract UprtclProposals is HasSuperUsers {\n\n    using SafeMath for uint256;\n\n    struct HeadUpdate {\n        bytes32 perspectiveIdHash;\n        bytes32 headCid1;\n        bytes32 headCid0;\n        uint8 executed;\n    }\n\n    struct NewProposal {\n        string toPerspectiveId;\n        string fromPerspectiveId;\n        address owner;\n        uint256 nonce;\n        HeadUpdate[] headUpdates;\n        address[] approvedAddresses;\n    }\n\n    struct Proposal {\n        string toPerspectiveId;\n        string fromPerspectiveId;\n        address owner;\n        uint256 nonce;\n        HeadUpdate[] headUpdates;\n        address[] approvedAddresses;\n        uint8 status;\n        uint8 authorized;\n    }\n\n    struct OwnerFees {\n        uint256 fee;\n        uint256 balance;\n    }\n\n    mapping(bytes32 => Proposal) public proposals;\n    mapping(address => OwnerFees) public fees;\n    \n    uint256 public minFee;\n    uint256 public factor_num;\n    uint256 public factor_den;\n\n    UprtclRoot uprtclRoot;\n\n    event ProposalCreated(\n        bytes32 indexed toPerspectiveIdHash,\n        bytes32 indexed fromPerspectiveIdHash,\n        bytes32 indexed proposalId,\n        address creator\n    );\n\n    function setUprtclRoot(UprtclRoot _uprtclRoot) public onlyOwner {\n        uprtclRoot = _uprtclRoot;\n    }\n\n    function getProposalId(\n        string memory toPerspectiveId,\n        string memory fromPerspectiveId,\n        uint256 nonce\n    ) public pure returns (bytes32 proposalId) {\n        proposalId = keccak256(\n            abi.encodePacked(toPerspectiveId, fromPerspectiveId, nonce)\n        );\n    }\n\n    function setMinFee(uint256 _minFee) public onlyOwner {\n        minFee = _minFee;\n    }\n\n    function setFactorNum(uint256 _factor_num) public onlyOwner {\n        factor_num = _factor_num;\n    }\n\n    function setFactorDen(uint256 _factor_den) public onlyOwner {\n        factor_den = _factor_den;\n    }\n\n    function initProposal(\n        NewProposal memory newProposal,\n        address account\n    ) public {\n        \n        address perspOwner = uprtclRoot.getPerspectiveOwner(\n            uprtclRoot.getPerspectiveIdHash(newProposal.toPerspectiveId)\n        );\n        uint256 perspFee = fees[perspOwner].fee;\n\n        if (perspFee == 0) {\n            /** charge only min fee */\n            if (minFee > 0) {\n                uprtclRoot.consume(account, msg.sender, minFee);\n            }\n        } else {\n            /** charge fee and transfer to perspOwner, keep a fraction to us */\n            uint256 feeUprtcl = perspFee.mul(factor_num).div(factor_den);\n            uint256 feeOwner = perspFee.mul(factor_den.sub(factor_num)).div(factor_den);\n\n            uint256 feeUprtclActual = feeUprtcl;\n            if (feeUprtcl < minFee) {\n                feeUprtclActual = minFee;\n            }\n\n            uprtclRoot.transferTo(account, msg.sender, perspOwner, feeOwner);\n            uprtclRoot.consume(account, msg.sender, feeUprtclActual);\n        }\n\n        bytes32 proposalId = getProposalId(\n            newProposal.toPerspectiveId,\n            newProposal.fromPerspectiveId,\n            newProposal.nonce\n        );\n\n        /** make sure the proposal does not exist */\n        Proposal storage proposal = proposals[proposalId];\n        require(proposal.owner == address(0), \"proposal already exist\");\n\n        proposal.toPerspectiveId = newProposal.toPerspectiveId;\n        proposal.fromPerspectiveId = newProposal.fromPerspectiveId;\n        proposal.owner = newProposal.owner;\n        proposal.nonce = newProposal.nonce;\n        proposal.approvedAddresses = newProposal.approvedAddresses;\n        proposal.status = 1;\n        proposal.authorized = 0;\n\n        addUpdatesToProposal(proposalId, newProposal.headUpdates);\n\n        emit ProposalCreated(\n            uprtclRoot.getPerspectiveIdHash(newProposal.toPerspectiveId),\n            uprtclRoot.getPerspectiveIdHash(newProposal.fromPerspectiveId),\n            proposalId,\n            msg.sender\n        );\n    }\n\n    function isApproved(Proposal memory proposal, address value)\n        private\n        pure\n        returns (uint8 approved)\n    {\n        if (proposal.approvedAddresses.length == 0) {\n          approved = 1;\n          return approved;\n        }\n\n        for (uint32 ix = 0; ix < proposal.approvedAddresses.length; ix++) {\n            if (value == proposal.approvedAddresses[ix]) {\n                approved = 1;\n                return approved;\n            }\n        }\n        approved = 0;\n    }\n\n    /** Add one or more headUpdate elements to an existing proposal */\n    function addUpdatesToProposal(\n        bytes32 proposalId,\n        HeadUpdate[] memory headUpdates\n    ) public {\n        Proposal storage proposal = proposals[proposalId];\n\n        /** make sure the proposal is open for new elements */\n        require(proposal.owner != address(0), \"proposal not found\");\n        require(proposal.status != 0, \"proposal status is disabled\");\n        require(\n            isApproved(proposal, msg.sender) > 0,\n            \"msg.sender not an approved address\"\n        );\n\n        for (uint8 ix = 0; ix < headUpdates.length; ix++) {\n            HeadUpdate memory headUpdate = headUpdates[ix];\n            require(\n                headUpdate.executed == 0,\n                \"head update executed property must be zero\"\n            );\n            require(\n                uprtclRoot.getPerspectiveOwner(headUpdate.perspectiveIdHash) == proposal.owner,\n                \"proposal can only store perspectives owned by its owner\"\n            );\n            proposal.headUpdates.push(headUpdate);\n        }\n    }\n\n    function setProposalStatus(bytes32 proposalId, uint8 status) public {\n        Proposal storage proposal = proposals[proposalId];\n        require(\n            msg.sender == proposal.owner,\n            \"Proposal status can only by set by its owner\"\n        );\n        proposal.status = status;\n    }\n\n    function authorizeProposalSuperUser(bytes32 proposalId, uint8 authorized, bool execute, address msgSender) public onlySuperUser {\n        setProposalAuthorized(proposalId, authorized, execute, msgSender);\n    }\n\n    function authorizeProposal(bytes32 proposalId, uint8 authorized, bool execute) public {\n        setProposalAuthorized(proposalId, authorized, execute, msg.sender);\n    }\n\n    function setProposalAuthorized(bytes32 proposalId, uint8 authorized, bool execute, address msgSender) private {\n        Proposal storage proposal = proposals[proposalId];\n        require(\n            msgSender == proposal.owner,\n            \"Proposal can only by authorized by its owner\"\n        );\n        /** by default the proposal is closed once it is authorized. */\n        if (authorized > 0) proposal.status = 0;\n        proposal.authorized = authorized;\n\n        if (execute) {\n            executeProposalInternal(proposalId, msgSender);\n        }\n    }\n\n    function executeProposalInternal(bytes32 proposalId, address msgSender) private {\n        Proposal storage proposal = proposals[proposalId];\n\n        /** Check the msg.sender is an approved address */\n        require(\n            isApproved(proposal, msgSender) > 0,\n            \"msg.sender not an approved address\"\n        );\n\n        uint256[] memory indexes = new uint256[](proposal.headUpdates.length);\n        for (uint256 ix = 0; ix < proposal.headUpdates.length; ix++) {\n            indexes[ix] = ix;\n        }\n\n        executeProposalPartiallyInternal(proposalId, indexes, msgSender);\n    }\n\n\n    function executeProposalExternal(bytes32 proposalId) external {\n        executeProposalInternal(proposalId, msg.sender);\n    }\n\n    function executeProposalPartially(\n        bytes32 proposalId,\n        uint256[] memory indexes\n    ) public {\n        executeProposalPartiallyInternal(proposalId, indexes, msg.sender);\n    }\n\n    function executeProposalPartiallyInternal(\n        bytes32 proposalId,\n        uint256[] memory indexes,\n        address msgSender\n    ) private {\n        Proposal storage proposal = proposals[proposalId];\n        require(proposal.authorized != 0, \"Proposal not authorized\");\n\n        require(\n            isApproved(proposal, msgSender) > 0,\n            \"msg.sender not an approved address\"\n        );\n\n        for (uint256 ix = 0; ix < indexes.length; ix++) {\n            HeadUpdate storage headUpdate = proposal.headUpdates[indexes[ix]];\n\n            require(headUpdate.executed == 0, \"head update already executed\");\n            headUpdate.executed = 1;\n\n            uprtclRoot.updateHead(headUpdate.perspectiveIdHash, headUpdate.headCid1, headUpdate.headCid0, address(0));\n        }\n    }\n\n    function getProposal(bytes32 proposalId)\n        public\n        view\n        returns (Proposal memory proposal)\n    {\n        return (proposals[proposalId]);\n    }\n}\n",
  "sourcePath": "/home/pepo/pr/uprtcl/eth-uprtcl/contracts/UprtclProposals.sol",
  "compiler": {
    "name": "solc",
    "version": "0.5.16+commit.9c3226ce.Emscripten.clang"
  },
  "schemaVersion": "3.0.23",
  "updatedAt": "2020-04-01T08:24:29.581Z",
  "networkType": "ethereum",
  "devdoc": {
    "methods": {
      "isOwner()": {
        "details": "Returns true if the caller is the current owner."
      },
      "owner()": {
        "details": "Returns the address of the current owner."
      },
      "renounceOwnership()": {
        "details": "Leaves the contract without owner. It will not be possible to call `onlyOwner` functions anymore. Can only be called by the current owner.     * NOTE: Renouncing ownership will leave the contract without an owner, thereby removing any functionality that is only available to the owner."
      },
      "transferOwnership(address)": {
        "details": "Transfers ownership of the contract to a new account (`newOwner`). Can only be called by the current owner."
      }
    }
  },
  "userdoc": {
    "methods": {
      "addUpdatesToProposal(bytes32,(bytes32,bytes32,bytes32,uint8)[])": {
        "notice": "Add one or more headUpdate elements to an existing proposal "
      }
    }
  }
}