{
  "contractName": "UprtclRoot",
  "abi": [
    {
      "anonymous": false,
      "inputs": [
        {
          "indexed": true,
          "internalType": "address",
          "name": "previousOwner",
          "type": "address"
        },
        {
          "indexed": true,
          "internalType": "address",
          "name": "newOwner",
          "type": "address"
        }
      ],
      "name": "OwnershipTransferred",
      "type": "event"
    },
    {
      "anonymous": false,
      "inputs": [
        {
          "indexed": true,
          "internalType": "bytes32",
          "name": "perspectiveIdHash",
          "type": "bytes32"
        },
        {
          "indexed": false,
          "internalType": "string",
          "name": "perspectiveId",
          "type": "string"
        }
      ],
      "name": "PerspectiveCreated",
      "type": "event"
    },
    {
      "constant": true,
      "inputs": [],
      "name": "accounts",
      "outputs": [
        {
          "internalType": "contract UprtclAccounts",
          "name": "",
          "type": "address"
        }
      ],
      "payable": false,
      "stateMutability": "view",
      "type": "function"
    },
    {
      "constant": true,
      "inputs": [
        {
          "internalType": "uint256",
          "name": "",
          "type": "uint256"
        }
      ],
      "name": "fees",
      "outputs": [
        {
          "internalType": "uint256",
          "name": "",
          "type": "uint256"
        }
      ],
      "payable": false,
      "stateMutability": "view",
      "type": "function"
    },
    {
      "constant": true,
      "inputs": [],
      "name": "isOwner",
      "outputs": [
        {
          "internalType": "bool",
          "name": "",
          "type": "bool"
        }
      ],
      "payable": false,
      "stateMutability": "view",
      "type": "function"
    },
    {
      "constant": true,
      "inputs": [
        {
          "internalType": "address",
          "name": "suAddress",
          "type": "address"
        }
      ],
      "name": "isSuperUser",
      "outputs": [
        {
          "internalType": "bool",
          "name": "",
          "type": "bool"
        }
      ],
      "payable": false,
      "stateMutability": "view",
      "type": "function"
    },
    {
      "constant": true,
      "inputs": [],
      "name": "owner",
      "outputs": [
        {
          "internalType": "address payable",
          "name": "",
          "type": "address"
        }
      ],
      "payable": false,
      "stateMutability": "view",
      "type": "function"
    },
    {
      "constant": true,
      "inputs": [
        {
          "internalType": "bytes32",
          "name": "",
          "type": "bytes32"
        }
      ],
      "name": "perspectives",
      "outputs": [
        {
          "internalType": "address",
          "name": "owner",
          "type": "address"
        },
        {
          "internalType": "bytes32",
          "name": "headCid1",
          "type": "bytes32"
        },
        {
          "internalType": "bytes32",
          "name": "headCid0",
          "type": "bytes32"
        }
      ],
      "payable": false,
      "stateMutability": "view",
      "type": "function"
    },
    {
      "constant": false,
      "inputs": [],
      "name": "renounceOwnership",
      "outputs": [],
      "payable": false,
      "stateMutability": "nonpayable",
      "type": "function"
    },
    {
      "constant": false,
      "inputs": [
        {
          "internalType": "address",
          "name": "suAddress",
          "type": "address"
        },
        {
          "internalType": "bool",
          "name": "value",
          "type": "bool"
        }
      ],
      "name": "setSuperUser",
      "outputs": [],
      "payable": false,
      "stateMutability": "nonpayable",
      "type": "function"
    },
    {
      "constant": false,
      "inputs": [
        {
          "internalType": "address payable",
          "name": "newOwner",
          "type": "address"
        }
      ],
      "name": "transferOwnership",
      "outputs": [],
      "payable": false,
      "stateMutability": "nonpayable",
      "type": "function"
    },
    {
      "constant": false,
      "inputs": [
        {
          "internalType": "contract UprtclAccounts",
          "name": "_accounts",
          "type": "address"
        }
      ],
      "name": "setAccounts",
      "outputs": [],
      "payable": false,
      "stateMutability": "nonpayable",
      "type": "function"
    },
    {
      "constant": false,
      "inputs": [
        {
          "internalType": "uint256",
          "name": "amount",
          "type": "uint256"
        }
      ],
      "name": "withdraw",
      "outputs": [],
      "payable": false,
      "stateMutability": "nonpayable",
      "type": "function"
    },
    {
      "constant": false,
      "inputs": [
        {
          "internalType": "uint256",
          "name": "addFee",
          "type": "uint256"
        },
        {
          "internalType": "uint256",
          "name": "updateFee",
          "type": "uint256"
        }
      ],
      "name": "setFees",
      "outputs": [],
      "payable": false,
      "stateMutability": "nonpayable",
      "type": "function"
    },
    {
      "constant": true,
      "inputs": [],
      "name": "getFees",
      "outputs": [
        {
          "internalType": "uint256",
          "name": "addFee",
          "type": "uint256"
        },
        {
          "internalType": "uint256",
          "name": "updateFee",
          "type": "uint256"
        }
      ],
      "payable": false,
      "stateMutability": "view",
      "type": "function"
    },
    {
      "constant": true,
      "inputs": [],
      "name": "getAddFee",
      "outputs": [
        {
          "internalType": "uint256",
          "name": "",
          "type": "uint256"
        }
      ],
      "payable": false,
      "stateMutability": "view",
      "type": "function"
    },
    {
      "constant": true,
      "inputs": [],
      "name": "getUpdateFee",
      "outputs": [
        {
          "internalType": "uint256",
          "name": "",
          "type": "uint256"
        }
      ],
      "payable": false,
      "stateMutability": "view",
      "type": "function"
    },
    {
      "constant": false,
      "inputs": [
        {
          "internalType": "address",
          "name": "account",
          "type": "address"
        },
        {
          "internalType": "address",
          "name": "by",
          "type": "address"
        },
        {
          "internalType": "uint256",
          "name": "amount",
          "type": "uint256"
        }
      ],
      "name": "consume",
      "outputs": [],
      "payable": false,
      "stateMutability": "nonpayable",
      "type": "function"
    },
    {
      "constant": false,
      "inputs": [
        {
          "internalType": "address",
          "name": "from",
          "type": "address"
        },
        {
          "internalType": "address",
          "name": "by",
          "type": "address"
        },
        {
          "internalType": "address",
          "name": "to",
          "type": "address"
        },
        {
          "internalType": "uint256",
          "name": "amount",
          "type": "uint256"
        }
      ],
      "name": "transferTo",
      "outputs": [],
      "payable": false,
      "stateMutability": "nonpayable",
      "type": "function"
    },
    {
      "constant": false,
      "inputs": [
        {
          "internalType": "address",
          "name": "to",
          "type": "address"
        },
        {
          "internalType": "uint256",
          "name": "amount",
          "type": "uint256"
        }
      ],
      "name": "transfer",
      "outputs": [],
      "payable": false,
      "stateMutability": "nonpayable",
      "type": "function"
    },
    {
      "constant": true,
      "inputs": [
        {
          "internalType": "string",
          "name": "perspectiveId",
          "type": "string"
        }
      ],
      "name": "getPerspectiveIdHash",
      "outputs": [
        {
          "internalType": "bytes32",
          "name": "idHash",
          "type": "bytes32"
        }
      ],
      "payable": false,
      "stateMutability": "pure",
      "type": "function"
    },
    {
      "constant": false,
      "inputs": [
        {
          "components": [
            {
              "internalType": "string",
              "name": "perspectiveId",
              "type": "string"
            },
            {
              "internalType": "bytes32",
              "name": "headCid1",
              "type": "bytes32"
            },
            {
              "internalType": "bytes32",
              "name": "headCid0",
              "type": "bytes32"
            },
            {
              "internalType": "address",
              "name": "owner",
              "type": "address"
            }
          ],
          "internalType": "struct UprtclRoot.NewPerspective",
          "name": "newPerspective",
          "type": "tuple"
        },
        {
          "internalType": "address",
          "name": "account",
          "type": "address"
        }
      ],
      "name": "createPerspective",
      "outputs": [],
      "payable": false,
      "stateMutability": "nonpayable",
      "type": "function"
    },
    {
      "constant": false,
      "inputs": [
        {
          "components": [
            {
              "internalType": "string",
              "name": "perspectiveId",
              "type": "string"
            },
            {
              "internalType": "bytes32",
              "name": "headCid1",
              "type": "bytes32"
            },
            {
              "internalType": "bytes32",
              "name": "headCid0",
              "type": "bytes32"
            },
            {
              "internalType": "address",
              "name": "owner",
              "type": "address"
            }
          ],
          "internalType": "struct UprtclRoot.NewPerspective[]",
          "name": "newPerspectives",
          "type": "tuple[]"
        },
        {
          "internalType": "address",
          "name": "account",
          "type": "address"
        }
      ],
      "name": "createPerspectiveBatch",
      "outputs": [],
      "payable": false,
      "stateMutability": "nonpayable",
      "type": "function"
    },
    {
      "constant": false,
      "inputs": [
        {
          "internalType": "bytes32",
          "name": "perspectiveIdHash",
          "type": "bytes32"
        },
        {
          "internalType": "bytes32",
          "name": "newHeadCid1",
          "type": "bytes32"
        },
        {
          "internalType": "bytes32",
          "name": "newHeadCid0",
          "type": "bytes32"
        },
        {
          "internalType": "address",
          "name": "account",
          "type": "address"
        }
      ],
      "name": "updateHead",
      "outputs": [],
      "payable": false,
      "stateMutability": "nonpayable",
      "type": "function"
    },
    {
      "constant": false,
      "inputs": [
        {
          "internalType": "bytes32",
          "name": "perspectiveIdHash",
          "type": "bytes32"
        },
        {
          "internalType": "address",
          "name": "newOwner",
          "type": "address"
        }
      ],
      "name": "changePerspectiveOwner",
      "outputs": [],
      "payable": false,
      "stateMutability": "nonpayable",
      "type": "function"
    },
    {
      "constant": false,
      "inputs": [
        {
          "internalType": "bytes32",
          "name": "perspectiveIdHash",
          "type": "bytes32"
        },
        {
          "internalType": "address",
          "name": "newOwner",
          "type": "address"
        },
        {
          "internalType": "address",
          "name": "msgSender",
          "type": "address"
        }
      ],
      "name": "changePerspectiveOwnerSuperUser",
      "outputs": [],
      "payable": false,
      "stateMutability": "nonpayable",
      "type": "function"
    },
    {
      "constant": false,
      "inputs": [
        {
          "internalType": "bytes32[]",
          "name": "perspectiveIdsHashes",
          "type": "bytes32[]"
        },
        {
          "internalType": "address",
          "name": "newOwner",
          "type": "address"
        }
      ],
      "name": "changePerspectiveOwnerBatch",
      "outputs": [],
      "payable": false,
      "stateMutability": "nonpayable",
      "type": "function"
    },
    {
      "constant": true,
      "inputs": [
        {
          "internalType": "bytes32",
          "name": "perspectiveIdHash",
          "type": "bytes32"
        }
      ],
      "name": "getPerspective",
      "outputs": [
        {
          "internalType": "address",
          "name": "owner",
          "type": "address"
        },
        {
          "internalType": "bytes32",
          "name": "headCid1",
          "type": "bytes32"
        },
        {
          "internalType": "bytes32",
          "name": "headCid0",
          "type": "bytes32"
        }
      ],
      "payable": false,
      "stateMutability": "view",
      "type": "function"
    },
    {
      "constant": true,
      "inputs": [
        {
          "internalType": "bytes32",
          "name": "perspectiveIdHash",
          "type": "bytes32"
        }
      ],
      "name": "getPerspectiveOwner",
      "outputs": [
        {
          "internalType": "address",
          "name": "owner",
          "type": "address"
        }
      ],
      "payable": false,
      "stateMutability": "view",
      "type": "function"
    }
  ],
  "bytecode": "0x60806040526100156001600160e01b0361006216565b600080546001600160a01b0319166001600160a01b03928316178082556040519216917f8be0079c531659141344cd1fd0a4f28419497f9722a3daafe3b4186f6b6457e0908290a3610066565b3390565b6119ef806100756000396000f3fe608060405234801561001057600080fd5b50600436106101a95760003560e01c80636556cd05116100f9578063b7b0ccde11610097578063cd784d1b11610071578063cd784d1b1461036f578063db8d55f114610382578063f2fde38b14610398578063fc87de39146103ab576101a9565b8063b7b0ccde14610341578063b92d30dc14610349578063c886170b1461035c576101a9565b806386830d58116100d357806386830d58146103095780638da5cb5b146103115780638f32d59b14610319578063a9059cbb1461032e576101a9565b80636556cd05146102d957806368cd03f6146102ec578063715018a614610301576101a9565b80632349a4921161016657806345655b4e1161014057806345655b4e146102805780634acc79ed146102935780634ca959a0146102b35780634eee8c43146102c6576101a9565b80632349a492146102475780632e1a7d4d1461025a57806339c375941461026d576101a9565b806308274382146101ae5780630b78f9c0146101c35780630ea787e8146101d65780630eac9b0c146101e9578063133075d2146101fc5780631393bbf514610227575b600080fd5b6101c16101bc3660046113b8565b6103be565b005b6101c16101d1366004611441565b61040d565b6101c16101e4366004611363565b610484565b6101c16101f7366004611320565b61056d565b61020f61020a3660046112e3565b6105a2565b60405161021e93929190611785565b60405180910390f35b61023a6102353660046112e3565b6105f6565b60405161021e91906116f6565b6101c16102553660046112ad565b610641565b6101c16102683660046112e3565b61070f565b6101c161027b366004611301565b6107e0565b6101c161028e3660046111fc565b6107eb565b6102a66102a13660046112e3565b61083a565b60405161021e91906117c9565b6101c16102c13660046111af565b61084c565b6101c16102d4366004611266565b6108db565b6101c16102e736600461114e565b61090d565b6102f461099f565b60405161021e91906117d7565b6101c16109ae565b6102a6610a1c565b61023a610a4a565b610321610a59565b60405161021e91906117bb565b6101c161033c366004611236565b610a7d565b6102a6610b09565b61020f6103573660046112e3565b610b38565b6101c161036a36600461140b565b610b64565b61032161037d36600461110a565b610bf4565b61038a610c12565b60405161021e929190611876565b6101c16103a636600461110a565b610c64565b6102a66103b93660046113d6565b610c94565b6103c6610a59565b6103eb5760405162461bcd60e51b81526004016103e290611846565b60405180910390fd5b600480546001600160a01b0319166001600160a01b0392909216919091179055565b610415610a59565b6104315760405162461bcd60e51b81526004016103e290611846565b60036020527f3617319a054d772f909f7c479a2cebe5066e836a939412e32403c99029b92eff9190915560016000527fa15bc60c955c405d20d9149c709e2460f1c2d9a497496a7f46004d1772c3054c55565b61048d33610bf4565b61050b57600061049b610b09565b9050801561050957600480546040516302654acd60e51b81526001600160a01b0390911691634ca959a0916104d69186913391879101611704565b600060405180830381600087803b1580156104f057600080fd5b505af1158015610504573d6000803e3d6000fd5b505050505b505b600084815260026020526040902080546001600160a01b0316331480610535575061053533610bf4565b6105515760405162461bcd60e51b81526004016103e290611826565b82156105665760028101839055600181018490555b5050505050565b61057633610bf4565b6105925760405162461bcd60e51b81526004016103e290611816565b61059d838383610cc4565b505050565b60008060006105af610f02565b50505060009182525060026020818152604092839020835160608101855281546001600160a01b031680825260018301549382018490529190930154929093018290529192565b6000610600610f02565b5050600090815260026020818152604092839020835160608101855281546001600160a01b0316808252600183015493820193909352920154919092015290565b815161064c33610bf4565b6106da57600061066a8261065e610b09565b9063ffffffff610d2116565b905080156106d857600480546040516302654acd60e51b81526001600160a01b0390911691634ca959a0916106a59187913391879101611704565b600060405180830381600087803b1580156106bf57600080fd5b505af11580156106d3573d6000803e3d6000fd5b505050505b505b60005b81811015610709576107018482815181106106f457fe5b6020026020010151610d64565b6001016106dd565b50505050565b610717610a59565b6107335760405162461bcd60e51b81526004016103e290611846565b306001600160a01b0316638da5cb5b6040518163ffffffff1660e01b815260040160206040518083038186803b15801561076c57600080fd5b505afa158015610780573d6000803e3d6000fd5b505050506040513d601f19601f820116820180604052506107a49190810190611130565b6001600160a01b03166108fc829081150290604051600060405180830381858888f193505050501580156107dc573d6000803e3d6000fd5b5050565b6107dc828233610cc4565b6107f3610a59565b61080f5760405162461bcd60e51b81526004016103e290611846565b6001600160a01b03919091166000908152600160205260409020805460ff1916911515919091179055565b60036020526000908152604090205481565b61085533610bf4565b6108715760405162461bcd60e51b81526004016103e290611816565b600480546040516302654acd60e51b81526001600160a01b0390911691634ca959a0916108a4918791879187910161176a565b600060405180830381600087803b1580156108be57600080fd5b505af11580156108d2573d6000803e3d6000fd5b50505050505050565b60005b825181101561059d576109058382815181106108f657fe5b60200260200101518333610cc4565b6001016108de565b61091633610bf4565b6109325760405162461bcd60e51b81526004016103e290611816565b60048054604051636556cd0560e01b81526001600160a01b0390911691636556cd05916109679188918891889188910161172c565b600060405180830381600087803b15801561098157600080fd5b505af1158015610995573d6000803e3d6000fd5b5050505050505050565b6004546001600160a01b031681565b6109b6610a59565b6109d25760405162461bcd60e51b81526004016103e290611846565b600080546040516001600160a01b03909116907f8be0079c531659141344cd1fd0a4f28419497f9722a3daafe3b4186f6b6457e0908390a3600080546001600160a01b0319169055565b6000805260036020527f3617319a054d772f909f7c479a2cebe5066e836a939412e32403c99029b92eff5490565b6000546001600160a01b031690565b600080546001600160a01b0316610a6e610e7d565b6001600160a01b031614905090565b610a8633610bf4565b610aa25760405162461bcd60e51b81526004016103e290611816565b6004805460405163a9059cbb60e01b81526001600160a01b039091169163a9059cbb91610ad39186918691016117a0565b600060405180830381600087803b158015610aed57600080fd5b505af1158015610b01573d6000803e3d6000fd5b505050505050565b600160005260036020527fa15bc60c955c405d20d9149c709e2460f1c2d9a497496a7f46004d1772c3054c5490565b60026020819052600091825260409091208054600182015491909201546001600160a01b039092169183565b610b6d33610bf4565b610beb576000610b7b610a1c565b90508015610be957600480546040516302654acd60e51b81526001600160a01b0390911691634ca959a091610bb69186913391879101611704565b600060405180830381600087803b158015610bd057600080fd5b505af1158015610be4573d6000803e3d6000fd5b505050505b505b6107dc82610d64565b6001600160a01b031660009081526001602052604090205460ff1690565b60036020527f3617319a054d772f909f7c479a2cebe5066e836a939412e32403c99029b92eff5460016000527fa15bc60c955c405d20d9149c709e2460f1c2d9a497496a7f46004d1772c3054c549091565b610c6c610a59565b610c885760405162461bcd60e51b81526004016103e290611846565b610c9181610e81565b50565b600081604051602001610ca791906116e3565b604051602081830303815290604052805190602001209050919050565b600083815260026020526040902080546001600160a01b03838116911614610cfe5760405162461bcd60e51b81526004016103e290611856565b80546001600160a01b0319166001600160a01b0393909316929092179091555050565b600082610d3057506000610d5e565b82820282848281610d3d57fe5b0414610d5b5760405162461bcd60e51b81526004016103e290611836565b90505b92915050565b6000610d738260000151610c94565b60008181526002602052604090206060840151919250906001600160a01b0316610daf5760405162461bcd60e51b81526004016103e290611866565b80546001600160a01b031615610dd75760405162461bcd60e51b81526004016103e2906117f6565b606083015181546001600160a01b039182166001600160a01b03199182161780845560208087015160018087019182556040808a01516002808a0191825560008b81529581905294829020805490971695909716949094178555905490840155925491909201558351905183917f9096b4564a2bafa0ceef5b1e2a3726b6c688e97d8231050b488716d3c5d0632891610e7091906117e5565b60405180910390a2505050565b3390565b6001600160a01b038116610ea75760405162461bcd60e51b81526004016103e290611806565b600080546040516001600160a01b03808516939216917f8be0079c531659141344cd1fd0a4f28419497f9722a3daafe3b4186f6b6457e091a3600080546001600160a01b0319166001600160a01b0392909216919091179055565b604080516060810182526000808252602082018190529181019190915290565b8035610d5e8161197d565b8051610d5e8161197d565b600082601f830112610f4957600080fd5b8135610f5c610f57826118ab565b611884565b91508181835260208401935060208101905083856020840282011115610f8157600080fd5b60005b83811015610fad5781610f97888261101f565b8452506020928301929190910190600101610f84565b5050505092915050565b600082601f830112610fc857600080fd5b8135610fd6610f57826118ab565b81815260209384019390925082018360005b83811015610fad5781358601610ffe8882611084565b8452506020928301929190910190600101610fe8565b8035610d5e81611991565b8035610d5e8161199a565b8035610d5e816119a3565b600082601f83011261104657600080fd5b8135611054610f57826118cc565b9150808252602083016020830185838301111561107057600080fd5b61107b83828461193b565b50505092915050565b60006080828403121561109657600080fd5b6110a06080611884565b9050813567ffffffffffffffff8111156110b957600080fd5b6110c584828501611035565b82525060206110d68484830161101f565b60208301525060406110ea8482850161101f565b60408301525060606110fe84828501610f22565b60608301525092915050565b60006020828403121561111c57600080fd5b60006111288484610f22565b949350505050565b60006020828403121561114257600080fd5b60006111288484610f2d565b6000806000806080858703121561116457600080fd5b60006111708787610f22565b945050602061118187828801610f22565b935050604061119287828801610f22565b92505060606111a38782880161101f565b91505092959194509250565b6000806000606084860312156111c457600080fd5b60006111d08686610f22565b93505060206111e186828701610f22565b92505060406111f28682870161101f565b9150509250925092565b6000806040838503121561120f57600080fd5b600061121b8585610f22565b925050602061122c85828601611014565b9150509250929050565b6000806040838503121561124957600080fd5b60006112558585610f22565b925050602061122c8582860161101f565b6000806040838503121561127957600080fd5b823567ffffffffffffffff81111561129057600080fd5b61129c85828601610f38565b925050602061122c85828601610f22565b600080604083850312156112c057600080fd5b823567ffffffffffffffff8111156112d757600080fd5b61129c85828601610fb7565b6000602082840312156112f557600080fd5b6000611128848461101f565b6000806040838503121561131457600080fd5b600061129c858561101f565b60008060006060848603121561133557600080fd5b6000611341868661101f565b935050602061135286828701610f22565b92505060406111f286828701610f22565b6000806000806080858703121561137957600080fd5b6000611385878761101f565b94505060206113968782880161101f565b93505060406113a78782880161101f565b92505060606111a387828801610f22565b6000602082840312156113ca57600080fd5b6000611128848461102a565b6000602082840312156113e857600080fd5b813567ffffffffffffffff8111156113ff57600080fd5b61112884828501611035565b6000806040838503121561141e57600080fd5b823567ffffffffffffffff81111561143557600080fd5b61129c85828601611084565b6000806040838503121561145457600080fd5b6000611255858561101f565b61146981611930565b82525050565b61146981611906565b61146981611911565b61146981611916565b61146981611919565b600061149e826118f4565b6114a88185611901565b93506114b8818560208601611947565b9290920192915050565b60006114cd826118f4565b6114d781856118f8565b93506114e7818560208601611947565b6114f081611973565b9093019392505050565b60006115076014836118f8565b736578697374696e6720706572737065637469766560601b815260200192915050565b60006115376026836118f8565b7f4f776e61626c653a206e6577206f776e657220697320746865207a65726f206181526564647265737360d01b602082015260400192915050565b600061157f6028836118f8565b7f486173537570657255736572733a2063616c6c6572206973206e6f74206120738152673ab832b92ab9b2b960c11b602082015260400192915050565b60006115c96029836118f8565b7f6f6e6c7920746865206f776e65722063616e207570646174652074686520706581526872737065637469766560b81b602082015260400192915050565b60006116146021836118f8565b7f536166654d6174683a206d756c7469706c69636174696f6e206f766572666c6f8152607760f81b602082015260400192915050565b60006116576020836118f8565b7f4f776e61626c653a2063616c6c6572206973206e6f7420746865206f776e6572815260200192915050565b60006116906013836118f8565b72756e617574686f72697a65642061636365737360681b815260200192915050565b60006116bf6015836118f8565b746f776e65722063616e6e6f7420626520656d70747960581b815260200192915050565b60006116ef8284611493565b9392505050565b60208101610d5e828461146f565b60608101611712828661146f565b61171f6020830185611460565b6111286040830184611481565b6080810161173a828761146f565b611747602083018661146f565b611754604083018561146f565b6117616060830184611481565b95945050505050565b60608101611778828661146f565b61171f602083018561146f565b60608101611793828661146f565b61171f6020830185611481565b604081016117ae828561146f565b6116ef6020830184611481565b60208101610d5e8284611478565b60208101610d5e8284611481565b60208101610d5e828461148a565b602080825281016116ef81846114c2565b60208082528101610d5e816114fa565b60208082528101610d5e8161152a565b60208082528101610d5e81611572565b60208082528101610d5e816115bc565b60208082528101610d5e81611607565b60208082528101610d5e8161164a565b60208082528101610d5e81611683565b60208082528101610d5e816116b2565b604081016117ae8285611481565b60405181810167ffffffffffffffff811182821017156118a357600080fd5b604052919050565b600067ffffffffffffffff8211156118c257600080fd5b5060209081020190565b600067ffffffffffffffff8211156118e357600080fd5b506020601f91909101601f19160190565b5190565b90815260200190565b919050565b6000610d5e82611924565b151590565b90565b6000610d5e82611906565b6001600160a01b031690565b6000610d5e82611919565b82818337506000910152565b60005b8381101561196257818101518382015260200161194a565b838111156107095750506000910152565b601f01601f191690565b61198681611906565b8114610c9157600080fd5b61198681611911565b61198681611916565b6119868161191956fea365627a7a723158204bfa2e83a5ab0ce86e5232929816301baf82214474032e4a33e888829bbfadd26c6578706572696d656e74616cf564736f6c63430005100040",
  "source": "pragma solidity >=0.5.0 <0.6.0;\npragma experimental ABIEncoderV2;\n\nimport \"./Ownable.sol\";\nimport \"./SafeMath.sol\";\n\nimport \"./UprtclAccounts.sol\";\n\n/** Underscore Protocol Ethereum Service used to store the content of\n* _Prtcl perspectives */\ncontract UprtclRoot is HasSuperUsers {\n    using SafeMath for uint256;\n\n    struct Perspective {\n        address owner;\n        bytes32 headCid1;\n        bytes32 headCid0;\n    }\n\n    struct NewPerspective {\n        string perspectiveId;\n        bytes32 headCid1;\n        bytes32 headCid0;\n        address owner;\n    }\n\n    /** superUsers can update any perspective */\n    mapping(bytes32 => Perspective) public perspectives;\n\n    mapping(uint256 => uint256) public fees;\n\n    event PerspectiveCreated(\n        bytes32 indexed perspectiveIdHash,\n        string perspectiveId\n    );\n\n    UprtclAccounts public accounts;\n\n    function setAccounts(UprtclAccounts _accounts) public onlyOwner {\n        accounts = _accounts;\n    }\n\n    function withdraw(uint256 amount) public onlyOwner {\n        this.owner().transfer(amount);\n    }\n\n    function setFees(uint256 addFee, uint256 updateFee) public onlyOwner {\n        fees[0] = addFee;\n        fees[1] = updateFee;\n    }\n\n    function getFees() public view returns (uint256 addFee, uint256 updateFee) {\n        return (fees[0], fees[1]);\n    }\n\n    function getAddFee() public view returns (uint256) {\n        return fees[0];\n    }\n\n    function getUpdateFee() public view returns (uint256) {\n        return fees[1];\n    }\n\n    function consume(address account, address by, uint256 amount) public onlySuperUser {\n        accounts.consume(account, by, amount);\n    }\n\n    function transferTo(address from, address by, address to, uint256 amount) public onlySuperUser {\n        accounts.transferTo(from, by, to, amount);\n    }\n\n    function transfer(address to, uint256 amount) public onlySuperUser {\n        accounts.transfer(to, amount);\n    }\n\n    function getPerspectiveIdHash(string memory perspectiveId) public pure returns (bytes32 idHash) {\n        return keccak256(abi.encodePacked(perspectiveId));\n    }\n\n    /** Adds a new perspective to the mapping and sets the owner. The head pointer and the context. */\n    function createPerspectiveInternal(NewPerspective memory newPerspective)\n        private\n    {\n        bytes32 perspectiveIdHash = getPerspectiveIdHash(newPerspective.perspectiveId);\n\n        Perspective storage perspective = perspectives[perspectiveIdHash];\n        require(address(0) != newPerspective.owner, \"owner cannot be empty\");\n        require(address(0) == perspective.owner, \"existing perspective\");\n\n        perspective.owner = newPerspective.owner;\n        perspective.headCid1 = newPerspective.headCid1;\n        perspective.headCid0 = newPerspective.headCid0;\n\n        perspectives[perspectiveIdHash] = perspective;\n\n        emit PerspectiveCreated(\n            perspectiveIdHash,\n            newPerspective.perspectiveId\n        );\n    }\n\n    function createPerspective(NewPerspective memory newPerspective, address account)\n        public\n    {\n        if (!isSuperUser(msg.sender)) {\n            uint256 fee = getAddFee();\n            if (fee > 0) {\n                accounts.consume(account, msg.sender, fee);\n            }\n        }\n        createPerspectiveInternal(newPerspective);\n    }\n\n    function createPerspectiveBatch(NewPerspective[] memory newPerspectives, address account)\n        public\n    {\n        uint256 nPerspectives = newPerspectives.length;\n\n        if (!isSuperUser(msg.sender)) {\n            uint256 fee = getUpdateFee().mul(nPerspectives);\n\n            if (fee > 0) {\n                accounts.consume(account, msg.sender, fee);\n            }\n        }\n\n        for (uint256 ix = 0; ix < nPerspectives; ix++) {\n            createPerspectiveInternal(newPerspectives[ix]);\n        }\n    }\n\n    function updateHead(\n        bytes32 perspectiveIdHash,\n        bytes32 newHeadCid1,\n        bytes32 newHeadCid0,\n        address account\n    ) public {\n        if (!isSuperUser(msg.sender)) {\n            uint256 fee = getUpdateFee();\n            if (fee > 0) {\n                accounts.consume(account, msg.sender, fee);\n            }\n        }\n\n        Perspective storage perspective = perspectives[perspectiveIdHash];\n\n        require(\n            (perspective.owner == msg.sender) || isSuperUser(msg.sender),\n            \"only the owner can update the perspective\"\n        );\n\n        if (newHeadCid0 != bytes32(0)) {\n            perspective.headCid0 = newHeadCid0;\n            perspective.headCid1 = newHeadCid1;\n        }\n    }\n\n    function changePerspectiveOwnerInternal(\n        bytes32 perspectiveIdHash,\n        address newOwner,\n        address sender\n    ) private {\n        Perspective storage perspective = perspectives[perspectiveIdHash];\n        require(sender == perspective.owner, \"unauthorized access\");\n        \n        perspective.owner = newOwner;\n    }\n\n    /** Changes the owner of a given perspective. Available only to the current owner of that perspective. */\n    function changePerspectiveOwner(bytes32 perspectiveIdHash, address newOwner)\n        public\n    {\n        changePerspectiveOwnerInternal(perspectiveIdHash, newOwner, msg.sender);\n    }\n\n    function changePerspectiveOwnerSuperUser(bytes32 perspectiveIdHash, address newOwner, address msgSender) external onlySuperUser {\n        changePerspectiveOwnerInternal(perspectiveIdHash, newOwner, msgSender);\n    }\n\n    function changePerspectiveOwnerBatch(\n        bytes32[] memory perspectiveIdsHashes,\n        address newOwner\n    ) public {\n        for (uint256 ix = 0; ix < perspectiveIdsHashes.length; ix++) {\n            changePerspectiveOwnerInternal(\n                perspectiveIdsHashes[ix],\n                newOwner,\n                msg.sender\n            );\n        }\n    }\n\n    /** Get the perspective owner and details from its ID */\n    function getPerspective(bytes32 perspectiveIdHash)\n        public\n        view\n        returns (address owner, bytes32 headCid1, bytes32 headCid0)\n    {\n        Perspective memory perspective = perspectives[perspectiveIdHash];\n\n        return (perspective.owner, perspective.headCid1, perspective.headCid0);\n    }\n\n    /** Get the perspective owner and details from its ID */\n    function getPerspectiveOwner(bytes32 perspectiveIdHash)\n        public\n        view\n        returns (address owner)\n    {\n        Perspective memory perspective = perspectives[perspectiveIdHash];\n\n        return (perspective.owner);\n    }\n\n}\n",
  "sourcePath": "/home/pepo/pr/uprtcl/eth-uprtcl/contracts/UprtclRoot.sol",
  "compiler": {
    "name": "solc",
    "version": "0.5.16+commit.9c3226ce.Emscripten.clang"
  },
  "schemaVersion": "3.0.23",
  "updatedAt": "2020-03-24T06:30:45.835Z",
  "networkType": "ethereum",
  "devdoc": {
    "methods": {
      "isOwner()": {
        "details": "Returns true if the caller is the current owner."
      },
      "owner()": {
        "details": "Returns the address of the current owner."
      },
      "renounceOwnership()": {
        "details": "Leaves the contract without owner. It will not be possible to call `onlyOwner` functions anymore. Can only be called by the current owner.     * NOTE: Renouncing ownership will leave the contract without an owner, thereby removing any functionality that is only available to the owner."
      },
      "transferOwnership(address)": {
        "details": "Transfers ownership of the contract to a new account (`newOwner`). Can only be called by the current owner."
      }
    }
  },
  "userdoc": {
    "methods": {
      "changePerspectiveOwner(bytes32,address)": {
        "notice": "Changes the owner of a given perspective. Available only to the current owner of that perspective. "
      },
      "getPerspective(bytes32)": {
        "notice": "Get the perspective owner and details from its ID "
      },
      "getPerspectiveOwner(bytes32)": {
        "notice": "Get the perspective owner and details from its ID "
      }
    },
    "notice": "Underscore Protocol Ethereum Service used to store the content of _Prtcl perspectives "
  }
}