{
  "contractName": "UprtclDetails",
  "abi": [
    {
      "anonymous": false,
      "inputs": [
        {
          "indexed": true,
          "internalType": "address",
          "name": "previousOwner",
          "type": "address"
        },
        {
          "indexed": true,
          "internalType": "address",
          "name": "newOwner",
          "type": "address"
        }
      ],
      "name": "OwnershipTransferred",
      "type": "event"
    },
    {
      "anonymous": false,
      "inputs": [
        {
          "indexed": true,
          "internalType": "bytes32",
          "name": "perspectiveIdHash",
          "type": "bytes32"
        },
        {
          "indexed": true,
          "internalType": "bytes32",
          "name": "contextHash",
          "type": "bytes32"
        }
      ],
      "name": "PerspectiveDetailsSet",
      "type": "event"
    },
    {
      "constant": true,
      "inputs": [],
      "name": "isOwner",
      "outputs": [
        {
          "internalType": "bool",
          "name": "",
          "type": "bool"
        }
      ],
      "payable": false,
      "stateMutability": "view",
      "type": "function"
    },
    {
      "constant": true,
      "inputs": [
        {
          "internalType": "address",
          "name": "suAddress",
          "type": "address"
        }
      ],
      "name": "isSuperUser",
      "outputs": [
        {
          "internalType": "bool",
          "name": "",
          "type": "bool"
        }
      ],
      "payable": false,
      "stateMutability": "view",
      "type": "function"
    },
    {
      "constant": true,
      "inputs": [],
      "name": "owner",
      "outputs": [
        {
          "internalType": "address payable",
          "name": "",
          "type": "address"
        }
      ],
      "payable": false,
      "stateMutability": "view",
      "type": "function"
    },
    {
      "constant": true,
      "inputs": [
        {
          "internalType": "bytes32",
          "name": "",
          "type": "bytes32"
        }
      ],
      "name": "perspectivesDetails",
      "outputs": [
        {
          "internalType": "string",
          "name": "name",
          "type": "string"
        },
        {
          "internalType": "string",
          "name": "context",
          "type": "string"
        }
      ],
      "payable": false,
      "stateMutability": "view",
      "type": "function"
    },
    {
      "constant": false,
      "inputs": [],
      "name": "renounceOwnership",
      "outputs": [],
      "payable": false,
      "stateMutability": "nonpayable",
      "type": "function"
    },
    {
      "constant": false,
      "inputs": [
        {
          "internalType": "address",
          "name": "suAddress",
          "type": "address"
        },
        {
          "internalType": "bool",
          "name": "value",
          "type": "bool"
        }
      ],
      "name": "setSuperUser",
      "outputs": [],
      "payable": false,
      "stateMutability": "nonpayable",
      "type": "function"
    },
    {
      "constant": false,
      "inputs": [
        {
          "internalType": "address payable",
          "name": "newOwner",
          "type": "address"
        }
      ],
      "name": "transferOwnership",
      "outputs": [],
      "payable": false,
      "stateMutability": "nonpayable",
      "type": "function"
    },
    {
      "constant": false,
      "inputs": [
        {
          "internalType": "contract UprtclRoot",
          "name": "_uprtclRoot",
          "type": "address"
        }
      ],
      "name": "setUprtclRoot",
      "outputs": [],
      "payable": false,
      "stateMutability": "nonpayable",
      "type": "function"
    },
    {
      "constant": true,
      "inputs": [
        {
          "internalType": "string",
          "name": "context",
          "type": "string"
        }
      ],
      "name": "getContextHash",
      "outputs": [
        {
          "internalType": "bytes32",
          "name": "contextHash",
          "type": "bytes32"
        }
      ],
      "payable": false,
      "stateMutability": "pure",
      "type": "function"
    },
    {
      "constant": false,
      "inputs": [
        {
          "internalType": "bytes32",
          "name": "perspectiveIdHash",
          "type": "bytes32"
        },
        {
          "components": [
            {
              "internalType": "string",
              "name": "name",
              "type": "string"
            },
            {
              "internalType": "string",
              "name": "context",
              "type": "string"
            }
          ],
          "internalType": "struct SharedPerspectiveDetails.PerspectiveDetails",
          "name": "newDetails",
          "type": "tuple"
        }
      ],
      "name": "setPerspectiveDetails",
      "outputs": [],
      "payable": false,
      "stateMutability": "nonpayable",
      "type": "function"
    },
    {
      "constant": false,
      "inputs": [
        {
          "internalType": "bytes32",
          "name": "perspectiveIdHash",
          "type": "bytes32"
        },
        {
          "components": [
            {
              "internalType": "string",
              "name": "name",
              "type": "string"
            },
            {
              "internalType": "string",
              "name": "context",
              "type": "string"
            }
          ],
          "internalType": "struct SharedPerspectiveDetails.PerspectiveDetails",
          "name": "newDetails",
          "type": "tuple"
        },
        {
          "internalType": "address",
          "name": "msgSender",
          "type": "address"
        }
      ],
      "name": "setPerspectiveDetailsSuperUser",
      "outputs": [],
      "payable": false,
      "stateMutability": "nonpayable",
      "type": "function"
    },
    {
      "constant": true,
      "inputs": [
        {
          "internalType": "bytes32",
          "name": "perspectiveIdHash",
          "type": "bytes32"
        }
      ],
      "name": "getPerspectiveDetails",
      "outputs": [
        {
          "internalType": "string",
          "name": "name",
          "type": "string"
        },
        {
          "internalType": "string",
          "name": "context",
          "type": "string"
        }
      ],
      "payable": false,
      "stateMutability": "view",
      "type": "function"
    },
    {
      "constant": false,
      "inputs": [
        {
          "components": [
            {
              "components": [
                {
                  "internalType": "string",
                  "name": "perspectiveId",
                  "type": "string"
                },
                {
                  "internalType": "bytes32",
                  "name": "headCid1",
                  "type": "bytes32"
                },
                {
                  "internalType": "bytes32",
                  "name": "headCid0",
                  "type": "bytes32"
                },
                {
                  "internalType": "address",
                  "name": "owner",
                  "type": "address"
                }
              ],
              "internalType": "struct UprtclRoot.NewPerspective",
              "name": "perspective",
              "type": "tuple"
            },
            {
              "components": [
                {
                  "internalType": "string",
                  "name": "name",
                  "type": "string"
                },
                {
                  "internalType": "string",
                  "name": "context",
                  "type": "string"
                }
              ],
              "internalType": "struct SharedPerspectiveDetails.PerspectiveDetails",
              "name": "details",
              "type": "tuple"
            }
          ],
          "internalType": "struct UprtclDetails.InitPerspective",
          "name": "perspectiveData",
          "type": "tuple"
        },
        {
          "internalType": "address",
          "name": "account",
          "type": "address"
        }
      ],
      "name": "initPerspective",
      "outputs": [],
      "payable": false,
      "stateMutability": "nonpayable",
      "type": "function"
    },
    {
      "constant": false,
      "inputs": [
        {
          "components": [
            {
              "components": [
                {
                  "internalType": "string",
                  "name": "perspectiveId",
                  "type": "string"
                },
                {
                  "internalType": "bytes32",
                  "name": "headCid1",
                  "type": "bytes32"
                },
                {
                  "internalType": "bytes32",
                  "name": "headCid0",
                  "type": "bytes32"
                },
                {
                  "internalType": "address",
                  "name": "owner",
                  "type": "address"
                }
              ],
              "internalType": "struct UprtclRoot.NewPerspective",
              "name": "perspective",
              "type": "tuple"
            },
            {
              "components": [
                {
                  "internalType": "string",
                  "name": "name",
                  "type": "string"
                },
                {
                  "internalType": "string",
                  "name": "context",
                  "type": "string"
                }
              ],
              "internalType": "struct SharedPerspectiveDetails.PerspectiveDetails",
              "name": "details",
              "type": "tuple"
            }
          ],
          "internalType": "struct UprtclDetails.InitPerspective[]",
          "name": "perspectivesData",
          "type": "tuple[]"
        },
        {
          "internalType": "address",
          "name": "account",
          "type": "address"
        }
      ],
      "name": "initPerspectiveBatch",
      "outputs": [],
      "payable": false,
      "stateMutability": "nonpayable",
      "type": "function"
    }
  ],
  "bytecode": "0x60806040526100156001600160e01b0361006216565b600080546001600160a01b0319166001600160a01b03928316178082556040519216917f8be0079c531659141344cd1fd0a4f28419497f9722a3daafe3b4186f6b6457e0908290a3610066565b3390565b61173e806100756000396000f3fe608060405234801561001057600080fd5b50600436106100ea5760003560e01c8063c08b985d1161008c578063d44d22c811610066578063d44d22c8146101bf578063e3ada24d146101d2578063e7d07599146101e5578063f2fde38b14610205576100ea565b8063c08b985d14610186578063cd784d1b14610199578063cf29e969146101ac576100ea565b80637cce0117116100c85780637cce0117146101365780638da5cb5b146101495780638f32d59b1461015e578063b81c6b3414610173576100ea565b806345655b4e146100ef578063715018a61461010457806376914ecf1461010c575b600080fd5b6101026100fd366004611094565b610218565b005b610102610270565b61011f61011a366004611114565b6102de565b60405161012d929190611540565b60405180910390f35b6101026101443660046111fb565b610443565b610151610489565b60405161012d91906114dd565b610166610499565b60405161012d9190611513565b6101026101813660046110ce565b6104bd565b610102610194366004611150565b610601565b6101666101a7366004611050565b610610565b61011f6101ba366004611114565b61062e565b6101026101cd366004611197565b610767565b6101026101e036600461124d565b61079c565b6101f86101f3366004611219565b610892565b60405161012d9190611521565b610102610213366004611050565b6108c2565b610220610499565b6102455760405162461bcd60e51b815260040161023c906115a5565b60405180910390fd5b6001600160a01b03919091166000908152600160205260409020805460ff1916911515919091179055565b610278610499565b6102945760405162461bcd60e51b815260040161023c906115a5565b600080546040516001600160a01b03909116907f8be0079c531659141344cd1fd0a4f28419497f9722a3daafe3b4186f6b6457e0908390a3600080546001600160a01b0319169055565b6060806102e9610ccb565b600084815260026020818152604092839020835181546060601f60001961010060018516150201909216959095049081018490049093028101840185529384018281529092849284918401828280156103835780601f1061035857610100808354040283529160200191610383565b820191906000526020600020905b81548152906001019060200180831161036657829003601f168201915b50505050508152602001600182018054600181600116156101000203166002900480601f0160208091040260200160405190810160405280929190818152602001828054600181600116156101000203166002900480156104255780601f106103fa57610100808354040283529160200191610425565b820191906000526020600020905b81548152906001019060200180831161040857829003601f168201915b50505091909252505081516020909201519194509092505050915091565b61044b610499565b6104675760405162461bcd60e51b815260040161023c906115a5565b600380546001600160a01b0319166001600160a01b0392909216919091179055565b6000546001600160a01b03165b90565b600080546001600160a01b03166104ae6108f2565b6001600160a01b031614905090565b600082519050600061055b82600360009054906101000a90046001600160a01b03166001600160a01b031663b7b0ccde6040518163ffffffff1660e01b815260040160206040518083038186803b15801561051757600080fd5b505afa15801561052b573d6000803e3d6000fd5b505050506040513d601f19601f8201168201806040525061054f9190810190611132565b9063ffffffff6108f616565b905080156105ca576003546040516302654acd60e51b81526001600160a01b0390911690634ca959a090610597908690339086906004016114eb565b600060405180830381600087803b1580156105b157600080fd5b505af11580156105c5573d6000803e3d6000fd5b505050505b60005b828110156105fa576105f28582815181106105e457fe5b602002602001015185610939565b6001016105cd565b5050505050565b61060c828233610a2f565b5050565b6001600160a01b031660009081526001602052604090205460ff1690565b600260208181526000928352604092839020805484516001821615610100026000190190911693909304601f81018390048302840183019094528383529283918301828280156106bf5780601f10610694576101008083540402835291602001916106bf565b820191906000526020600020905b8154815290600101906020018083116106a257829003601f168201915b505050505090806001018054600181600116156101000203166002900480601f01602080910402602001604051908101604052809291908181526020018280546001816001161561010002031660029004801561075d5780601f106107325761010080835404028352916020019161075d565b820191906000526020600020905b81548152906001019060200180831161074057829003601f168201915b5050505050905082565b61077033610610565b61078c5760405162461bcd60e51b815260040161023c90611585565b610797838383610a2f565b505050565b600354604080516310d061ab60e31b815290516000926001600160a01b0316916386830d58916004808301926020929190829003018186803b1580156107e157600080fd5b505afa1580156107f5573d6000803e3d6000fd5b505050506040513d601f19601f820116820180604052506108199190810190611132565b90508015610888576003546040516302654acd60e51b81526001600160a01b0390911690634ca959a090610855908590339086906004016114eb565b600060405180830381600087803b15801561086f57600080fd5b505af1158015610883573d6000803e3d6000fd5b505050505b6107978383610939565b6000816040516020016108a591906114ca565b604051602081830303815290604052805190602001209050919050565b6108ca610499565b6108e65760405162461bcd60e51b815260040161023c906115a5565b6108ef81610c4a565b50565b3390565b60008261090557506000610933565b8282028284828161091257fe5b04146109305760405162461bcd60e51b815260040161023c90611595565b90505b92915050565b600354825160405163c886170b60e01b81526001600160a01b039092169163c886170b9161096b9185906004016115b5565b600060405180830381600087803b15801561098557600080fd5b505af1158015610999573d6000803e3d6000fd5b505060035484515160405163fc87de3960e01b815261060c94506001600160a01b03909216925063fc87de39916109d3919060040161152f565b60206040518083038186803b1580156109eb57600080fd5b505afa1580156109ff573d6000803e3d6000fd5b505050506040513d601f19601f82011682018060405250610a239190810190611132565b60208401518451606001515b600354604051631393bbf560e01b81526001600160a01b03808416921690631393bbf590610a61908790600401611521565b60206040518083038186803b158015610a7957600080fd5b505afa158015610a8d573d6000803e3d6000fd5b505050506040513d601f19601f82011682018060405250610ab19190810190611076565b6001600160a01b031614610ad75760405162461bcd60e51b815260040161023c90611565565b6000838152600260209081526040909120835180519192610afd92849290910190610ce5565b506020808401518051610b169260018501920190610ce5565b50600084815260026020819052604090912082548392610b489183918591600019610100600183161502011604610d63565b5060018201816001019080546001816001161561010002031660029004610b70929190610d63565b50905050610c19816001018054600181600116156101000203166002900480601f016020809104026020016040519081016040528092919081815260200182805460018160011615610100020316600290048015610c0f5780601f10610be457610100808354040283529160200191610c0f565b820191906000526020600020905b815481529060010190602001808311610bf257829003601f168201915b5050505050610892565b60405185907f54d694087b2b7af3574607f1c7957f264e43dae2cd138a793dc22d407fac002b90600090a350505050565b6001600160a01b038116610c705760405162461bcd60e51b815260040161023c90611575565b600080546040516001600160a01b03808516939216917f8be0079c531659141344cd1fd0a4f28419497f9722a3daafe3b4186f6b6457e091a3600080546001600160a01b0319166001600160a01b0392909216919091179055565b604051806040016040528060608152602001606081525090565b828054600181600116156101000203166002900490600052602060002090601f016020900481019282601f10610d2657805160ff1916838001178555610d53565b82800160010185558215610d53579182015b82811115610d53578251825591602001919060010190610d38565b50610d5f929150610dd8565b5090565b828054600181600116156101000203166002900490600052602060002090601f016020900481019282601f10610d9c5780548555610d53565b82800160010185558215610d5357600052602060002091601f016020900482015b82811115610d53578254825591600101919060010190610dbd565b61049691905b80821115610d5f5760008155600101610dde565b8035610933816116cc565b8051610933816116cc565b600082601f830112610e1957600080fd5b8135610e2c610e27826115fb565b6115d5565b81815260209384019390925082018360005b83811015610e6a5781358601610e548882610eef565b8452506020928301929190910190600101610e3e565b5050505092915050565b8035610933816116e0565b8035610933816116e9565b8051610933816116e9565b8035610933816116f2565b600082601f830112610eb157600080fd5b8135610ebf610e278261161b565b91508082526020830160208301858383011115610edb57600080fd5b610ee6838284611686565b50505092915050565b600060408284031215610f0157600080fd5b610f0b60406115d5565b905081356001600160401b03811115610f2357600080fd5b610f2f84828501610f63565b82525060208201356001600160401b03811115610f4b57600080fd5b610f5784828501610fe8565b60208301525092915050565b600060808284031215610f7557600080fd5b610f7f60806115d5565b905081356001600160401b03811115610f9757600080fd5b610fa384828501610ea0565b8252506020610fb484848301610e7f565b6020830152506040610fc884828501610e7f565b6040830152506060610fdc84828501610df2565b60608301525092915050565b600060408284031215610ffa57600080fd5b61100460406115d5565b905081356001600160401b0381111561101c57600080fd5b61102884828501610ea0565b82525060208201356001600160401b0381111561104457600080fd5b610f5784828501610ea0565b60006020828403121561106257600080fd5b600061106e8484610df2565b949350505050565b60006020828403121561108857600080fd5b600061106e8484610dfd565b600080604083850312156110a757600080fd5b60006110b38585610df2565b92505060206110c485828601610e74565b9150509250929050565b600080604083850312156110e157600080fd5b82356001600160401b038111156110f757600080fd5b61110385828601610e08565b92505060206110c485828601610df2565b60006020828403121561112657600080fd5b600061106e8484610e7f565b60006020828403121561114457600080fd5b600061106e8484610e8a565b6000806040838503121561116357600080fd5b600061116f8585610e7f565b92505060208301356001600160401b0381111561118b57600080fd5b6110c485828601610fe8565b6000806000606084860312156111ac57600080fd5b60006111b88686610e7f565b93505060208401356001600160401b038111156111d457600080fd5b6111e086828701610fe8565b92505060406111f186828701610df2565b9150509250925092565b60006020828403121561120d57600080fd5b600061106e8484610e95565b60006020828403121561122b57600080fd5b81356001600160401b0381111561124157600080fd5b61106e84828501610ea0565b6000806040838503121561126057600080fd5b82356001600160401b0381111561127657600080fd5b61110385828601610eef565b61128b8161167b565b82525050565b61128b81611654565b61128b8161165f565b61128b81610496565b60006112b782611642565b6112c18185611646565b93506112d1818560208601611692565b6112da816116c2565b9093019392505050565b60006112ef82611642565b6112f9818561164f565b9350611309818560208601611692565b9290920192915050565b6000611320602c83611646565b7f64657461696c732063616e206f6e6c792062792073657420627920706572737081526b32b1ba34bb329037bbb732b960a11b602082015260400192915050565b600061136e602683611646565b7f4f776e61626c653a206e6577206f776e657220697320746865207a65726f206181526564647265737360d01b602082015260400192915050565b60006113b6602883611646565b7f486173537570657255736572733a2063616c6c6572206973206e6f74206120738152673ab832b92ab9b2b960c11b602082015260400192915050565b6000611400602183611646565b7f536166654d6174683a206d756c7469706c69636174696f6e206f766572666c6f8152607760f81b602082015260400192915050565b6000611443602083611646565b7f4f776e61626c653a2063616c6c6572206973206e6f7420746865206f776e6572815260200192915050565b805160808084526000919084019061148782826112ac565b915050602083015161149c60208601826112a3565b5060408301516114af60408601826112a3565b5060608301516114c26060860182611291565b509392505050565b60006114d682846112e4565b9392505050565b602081016109338284611291565b606081016114f98286611291565b6115066020830185611282565b61106e60408301846112a3565b60208101610933828461129a565b6020810161093382846112a3565b602080825281016114d681846112ac565b6040808252810161155181856112ac565b9050818103602083015261106e81846112ac565b6020808252810161093381611313565b6020808252810161093381611361565b60208082528101610933816113a9565b60208082528101610933816113f3565b6020808252810161093381611436565b604080825281016115c6818561146f565b90506114d66020830184611291565b6040518181016001600160401b03811182821017156115f357600080fd5b604052919050565b60006001600160401b0382111561161157600080fd5b5060209081020190565b60006001600160401b0382111561163157600080fd5b506020601f91909101601f19160190565b5190565b90815260200190565b919050565b60006109338261166f565b151590565b600061093382611654565b6001600160a01b031690565b600061093382611664565b82818337506000910152565b60005b838110156116ad578181015183820152602001611695565b838111156116bc576000848401525b50505050565b601f01601f191690565b6116d581611654565b81146108ef57600080fd5b6116d58161165f565b6116d581610496565b6116d58161166456fea365627a7a72315820fda9748ad2ffeee15b090aeaf1d525d5cfb8037c734138c90c90063facd040a96c6578706572696d656e74616cf564736f6c63430005100040",
  "source": "pragma solidity >=0.5.0 <0.6.0;\npragma experimental ABIEncoderV2;\n\nimport \"./UprtclRoot.sol\";\nimport \"./HasSuperUsers.sol\";\nimport \"./SafeMath.sol\";\n\nlibrary SharedPerspectiveDetails {\n    struct PerspectiveDetails {\n        string name;\n        string context;\n    }\n}\n\ncontract UprtclDetails is HasSuperUsers {\n    using SafeMath for uint256;\n\n    struct InitPerspective {\n        UprtclRoot.NewPerspective perspective;\n        SharedPerspectiveDetails.PerspectiveDetails details;\n    }\n\n    event PerspectiveDetailsSet (\n        bytes32 indexed perspectiveIdHash,\n        bytes32 indexed contextHash\n    );\n\n    mapping(bytes32 => SharedPerspectiveDetails.PerspectiveDetails) public perspectivesDetails;\n\n    UprtclRoot uprtclRoot;\n\n    function setUprtclRoot(UprtclRoot _uprtclRoot) public onlyOwner {\n        uprtclRoot = _uprtclRoot;\n    }\n\n    function getContextHash(string memory context) public pure returns (bytes32 contextHash) {\n        return keccak256(abi.encodePacked(context));\n    }\n\n    /** Adds a new perspective to the mapping and sets the owner. The head pointer and the context. */\n    function setPerspectiveDetailsInternal(\n        bytes32 perspectiveIdHash,\n        SharedPerspectiveDetails.PerspectiveDetails memory newDetails,\n        address sender\n    ) private {\n        require(uprtclRoot.getPerspectiveOwner(perspectiveIdHash) == sender, \"details can only by set by perspective owner\");\n\n        SharedPerspectiveDetails.PerspectiveDetails storage details = perspectivesDetails[perspectiveIdHash];\n\n        details.name = newDetails.name;\n        details.context = newDetails.context;\n\n        perspectivesDetails[perspectiveIdHash] = details;\n\n        emit PerspectiveDetailsSet(\n            perspectiveIdHash,\n            getContextHash(details.context)\n        );\n    }\n\n    function setPerspectiveDetails(\n        bytes32 perspectiveIdHash,\n        SharedPerspectiveDetails.PerspectiveDetails memory newDetails\n    ) public {\n        setPerspectiveDetailsInternal(perspectiveIdHash, newDetails, msg.sender);\n    }\n\n    function setPerspectiveDetailsSuperUser(\n        bytes32 perspectiveIdHash,\n        SharedPerspectiveDetails.PerspectiveDetails memory newDetails,\n        address msgSender\n    ) public onlySuperUser {\n        setPerspectiveDetailsInternal(perspectiveIdHash, newDetails, msgSender);\n    }\n\n    function getPerspectiveDetails(bytes32 perspectiveIdHash) public view returns (string memory name, string memory context) {\n        SharedPerspectiveDetails.PerspectiveDetails memory details = perspectivesDetails[perspectiveIdHash];\n        return (details.name, details.context);\n    }\n\n    function initPerspectiveInternal(InitPerspective memory perspectiveData, address account) private {\n        uprtclRoot.createPerspective(perspectiveData.perspective, account);\n\n        setPerspectiveDetailsInternal(\n            uprtclRoot.getPerspectiveIdHash(perspectiveData.perspective.perspectiveId),\n            perspectiveData.details,\n            perspectiveData.perspective.owner);\n    }\n\n    function initPerspective(\n        InitPerspective memory perspectiveData,\n        address account) public {\n\n        /** collect fee here */\n        uint256 fee = uprtclRoot.getAddFee();\n        if (fee > 0) {\n            uprtclRoot.consume(account, msg.sender, fee);\n        }\n\n        initPerspectiveInternal(perspectiveData, account);\n    }\n\n    function initPerspectiveBatch(InitPerspective[] memory perspectivesData, address account)\n        public\n    {\n        uint256 nPerspectives = perspectivesData.length;\n        uint256 fee = uprtclRoot.getUpdateFee().mul(nPerspectives);\n\n        if (fee > 0) {\n            uprtclRoot.consume(account, msg.sender, fee);\n        }\n\n        for (uint256 ix = 0; ix < nPerspectives; ix++) {\n            initPerspectiveInternal(perspectivesData[ix], account);\n        }\n    }\n\n}\n",
  "sourcePath": "/home/pepo/pr/uprtcl/eth-uprtcl/contracts/UprtclDetails.sol",
  "compiler": {
    "name": "solc",
    "version": "0.5.16+commit.9c3226ce.Emscripten.clang"
  },
  "schemaVersion": "3.0.23",
  "updatedAt": "2020-04-01T08:24:29.573Z",
  "networkType": "ethereum",
  "devdoc": {
    "methods": {
      "isOwner()": {
        "details": "Returns true if the caller is the current owner."
      },
      "owner()": {
        "details": "Returns the address of the current owner."
      },
      "renounceOwnership()": {
        "details": "Leaves the contract without owner. It will not be possible to call `onlyOwner` functions anymore. Can only be called by the current owner.     * NOTE: Renouncing ownership will leave the contract without an owner, thereby removing any functionality that is only available to the owner."
      },
      "transferOwnership(address)": {
        "details": "Transfers ownership of the contract to a new account (`newOwner`). Can only be called by the current owner."
      }
    }
  },
  "userdoc": {
    "methods": {}
  }
}