{
  "contractName": "UprtclRoot",
  "abi": [
    {
      "anonymous": false,
      "inputs": [
        {
          "indexed": true,
          "internalType": "address",
          "name": "previousOwner",
          "type": "address"
        },
        {
          "indexed": true,
          "internalType": "address",
          "name": "newOwner",
          "type": "address"
        }
      ],
      "name": "OwnershipTransferred",
      "type": "event"
    },
    {
      "anonymous": false,
      "inputs": [
        {
          "indexed": true,
          "internalType": "bytes32",
          "name": "perspectiveIdHash",
          "type": "bytes32"
        },
        {
          "indexed": false,
          "internalType": "string",
          "name": "perspectiveId",
          "type": "string"
        }
      ],
      "name": "PerspectiveCreated",
      "type": "event"
    },
    {
      "anonymous": false,
      "inputs": [
        {
          "indexed": true,
          "internalType": "bytes32",
          "name": "perspectiveIdHash",
          "type": "bytes32"
        },
        {
          "indexed": false,
          "internalType": "bytes32",
          "name": "headCid1",
          "type": "bytes32"
        },
        {
          "indexed": false,
          "internalType": "bytes32",
          "name": "headCid0",
          "type": "bytes32"
        }
      ],
      "name": "PerspectiveHeadUpdated",
      "type": "event"
    },
    {
      "constant": true,
      "inputs": [],
      "name": "accounts",
      "outputs": [
        {
          "internalType": "contract UprtclAccounts",
          "name": "",
          "type": "address"
        }
      ],
      "payable": false,
      "stateMutability": "view",
      "type": "function"
    },
    {
      "constant": true,
      "inputs": [
        {
          "internalType": "uint256",
          "name": "",
          "type": "uint256"
        }
      ],
      "name": "fees",
      "outputs": [
        {
          "internalType": "uint256",
          "name": "",
          "type": "uint256"
        }
      ],
      "payable": false,
      "stateMutability": "view",
      "type": "function"
    },
    {
      "constant": true,
      "inputs": [],
      "name": "isOwner",
      "outputs": [
        {
          "internalType": "bool",
          "name": "",
          "type": "bool"
        }
      ],
      "payable": false,
      "stateMutability": "view",
      "type": "function"
    },
    {
      "constant": true,
      "inputs": [
        {
          "internalType": "address",
          "name": "suAddress",
          "type": "address"
        }
      ],
      "name": "isSuperUser",
      "outputs": [
        {
          "internalType": "bool",
          "name": "",
          "type": "bool"
        }
      ],
      "payable": false,
      "stateMutability": "view",
      "type": "function"
    },
    {
      "constant": true,
      "inputs": [],
      "name": "owner",
      "outputs": [
        {
          "internalType": "address payable",
          "name": "",
          "type": "address"
        }
      ],
      "payable": false,
      "stateMutability": "view",
      "type": "function"
    },
    {
      "constant": true,
      "inputs": [
        {
          "internalType": "bytes32",
          "name": "",
          "type": "bytes32"
        }
      ],
      "name": "perspectives",
      "outputs": [
        {
          "internalType": "address",
          "name": "owner",
          "type": "address"
        }
      ],
      "payable": false,
      "stateMutability": "view",
      "type": "function"
    },
    {
      "constant": false,
      "inputs": [],
      "name": "renounceOwnership",
      "outputs": [],
      "payable": false,
      "stateMutability": "nonpayable",
      "type": "function"
    },
    {
      "constant": false,
      "inputs": [
        {
          "internalType": "address",
          "name": "suAddress",
          "type": "address"
        },
        {
          "internalType": "bool",
          "name": "value",
          "type": "bool"
        }
      ],
      "name": "setSuperUser",
      "outputs": [],
      "payable": false,
      "stateMutability": "nonpayable",
      "type": "function"
    },
    {
      "constant": false,
      "inputs": [
        {
          "internalType": "address payable",
          "name": "newOwner",
          "type": "address"
        }
      ],
      "name": "transferOwnership",
      "outputs": [],
      "payable": false,
      "stateMutability": "nonpayable",
      "type": "function"
    },
    {
      "constant": false,
      "inputs": [
        {
          "internalType": "contract UprtclAccounts",
          "name": "_accounts",
          "type": "address"
        }
      ],
      "name": "setAccounts",
      "outputs": [],
      "payable": false,
      "stateMutability": "nonpayable",
      "type": "function"
    },
    {
      "constant": false,
      "inputs": [
        {
          "internalType": "uint256",
          "name": "amount",
          "type": "uint256"
        }
      ],
      "name": "withdraw",
      "outputs": [],
      "payable": false,
      "stateMutability": "nonpayable",
      "type": "function"
    },
    {
      "constant": false,
      "inputs": [
        {
          "internalType": "uint256",
          "name": "addFee",
          "type": "uint256"
        },
        {
          "internalType": "uint256",
          "name": "updateFee",
          "type": "uint256"
        }
      ],
      "name": "setFees",
      "outputs": [],
      "payable": false,
      "stateMutability": "nonpayable",
      "type": "function"
    },
    {
      "constant": true,
      "inputs": [],
      "name": "getFees",
      "outputs": [
        {
          "internalType": "uint256",
          "name": "addFee",
          "type": "uint256"
        },
        {
          "internalType": "uint256",
          "name": "updateFee",
          "type": "uint256"
        }
      ],
      "payable": false,
      "stateMutability": "view",
      "type": "function"
    },
    {
      "constant": true,
      "inputs": [],
      "name": "getAddFee",
      "outputs": [
        {
          "internalType": "uint256",
          "name": "",
          "type": "uint256"
        }
      ],
      "payable": false,
      "stateMutability": "view",
      "type": "function"
    },
    {
      "constant": true,
      "inputs": [],
      "name": "getUpdateFee",
      "outputs": [
        {
          "internalType": "uint256",
          "name": "",
          "type": "uint256"
        }
      ],
      "payable": false,
      "stateMutability": "view",
      "type": "function"
    },
    {
      "constant": false,
      "inputs": [
        {
          "internalType": "address",
          "name": "account",
          "type": "address"
        },
        {
          "internalType": "address",
          "name": "by",
          "type": "address"
        },
        {
          "internalType": "uint256",
          "name": "amount",
          "type": "uint256"
        }
      ],
      "name": "consume",
      "outputs": [],
      "payable": false,
      "stateMutability": "nonpayable",
      "type": "function"
    },
    {
      "constant": false,
      "inputs": [
        {
          "internalType": "address",
          "name": "from",
          "type": "address"
        },
        {
          "internalType": "address",
          "name": "by",
          "type": "address"
        },
        {
          "internalType": "address",
          "name": "to",
          "type": "address"
        },
        {
          "internalType": "uint256",
          "name": "amount",
          "type": "uint256"
        }
      ],
      "name": "transferTo",
      "outputs": [],
      "payable": false,
      "stateMutability": "nonpayable",
      "type": "function"
    },
    {
      "constant": false,
      "inputs": [
        {
          "internalType": "address",
          "name": "to",
          "type": "address"
        },
        {
          "internalType": "uint256",
          "name": "amount",
          "type": "uint256"
        }
      ],
      "name": "transfer",
      "outputs": [],
      "payable": false,
      "stateMutability": "nonpayable",
      "type": "function"
    },
    {
      "constant": true,
      "inputs": [
        {
          "internalType": "string",
          "name": "perspectiveId",
          "type": "string"
        }
      ],
      "name": "getPerspectiveIdHash",
      "outputs": [
        {
          "internalType": "bytes32",
          "name": "idHash",
          "type": "bytes32"
        }
      ],
      "payable": false,
      "stateMutability": "pure",
      "type": "function"
    },
    {
      "constant": false,
      "inputs": [
        {
          "components": [
            {
              "internalType": "string",
              "name": "perspectiveId",
              "type": "string"
            },
            {
              "internalType": "bytes32",
              "name": "headCid1",
              "type": "bytes32"
            },
            {
              "internalType": "bytes32",
              "name": "headCid0",
              "type": "bytes32"
            },
            {
              "internalType": "address",
              "name": "owner",
              "type": "address"
            }
          ],
          "internalType": "struct UprtclRoot.NewPerspective",
          "name": "newPerspective",
          "type": "tuple"
        },
        {
          "internalType": "address",
          "name": "account",
          "type": "address"
        }
      ],
      "name": "createPerspective",
      "outputs": [],
      "payable": false,
      "stateMutability": "nonpayable",
      "type": "function"
    },
    {
      "constant": false,
      "inputs": [
        {
          "components": [
            {
              "internalType": "string",
              "name": "perspectiveId",
              "type": "string"
            },
            {
              "internalType": "bytes32",
              "name": "headCid1",
              "type": "bytes32"
            },
            {
              "internalType": "bytes32",
              "name": "headCid0",
              "type": "bytes32"
            },
            {
              "internalType": "address",
              "name": "owner",
              "type": "address"
            }
          ],
          "internalType": "struct UprtclRoot.NewPerspective[]",
          "name": "newPerspectives",
          "type": "tuple[]"
        },
        {
          "internalType": "address",
          "name": "account",
          "type": "address"
        }
      ],
      "name": "createPerspectiveBatch",
      "outputs": [],
      "payable": false,
      "stateMutability": "nonpayable",
      "type": "function"
    },
    {
      "constant": false,
      "inputs": [
        {
          "internalType": "bytes32",
          "name": "perspectiveIdHash",
          "type": "bytes32"
        },
        {
          "internalType": "bytes32",
          "name": "newHeadCid1",
          "type": "bytes32"
        },
        {
          "internalType": "bytes32",
          "name": "newHeadCid0",
          "type": "bytes32"
        },
        {
          "internalType": "address",
          "name": "account",
          "type": "address"
        }
      ],
      "name": "updateHead",
      "outputs": [],
      "payable": false,
      "stateMutability": "nonpayable",
      "type": "function"
    },
    {
      "constant": false,
      "inputs": [
        {
          "internalType": "bytes32",
          "name": "perspectiveIdHash",
          "type": "bytes32"
        },
        {
          "internalType": "address",
          "name": "newOwner",
          "type": "address"
        }
      ],
      "name": "changePerspectiveOwner",
      "outputs": [],
      "payable": false,
      "stateMutability": "nonpayable",
      "type": "function"
    },
    {
      "constant": false,
      "inputs": [
        {
          "internalType": "bytes32",
          "name": "perspectiveIdHash",
          "type": "bytes32"
        },
        {
          "internalType": "address",
          "name": "newOwner",
          "type": "address"
        },
        {
          "internalType": "address",
          "name": "msgSender",
          "type": "address"
        }
      ],
      "name": "changePerspectiveOwnerSuperUser",
      "outputs": [],
      "payable": false,
      "stateMutability": "nonpayable",
      "type": "function"
    },
    {
      "constant": false,
      "inputs": [
        {
          "internalType": "bytes32[]",
          "name": "perspectiveIdsHashes",
          "type": "bytes32[]"
        },
        {
          "internalType": "address",
          "name": "newOwner",
          "type": "address"
        }
      ],
      "name": "changePerspectiveOwnerBatch",
      "outputs": [],
      "payable": false,
      "stateMutability": "nonpayable",
      "type": "function"
    },
    {
      "constant": true,
      "inputs": [
        {
          "internalType": "bytes32",
          "name": "perspectiveIdHash",
          "type": "bytes32"
        }
      ],
      "name": "getPerspectiveOwner",
      "outputs": [
        {
          "internalType": "address",
          "name": "owner",
          "type": "address"
        }
      ],
      "payable": false,
      "stateMutability": "view",
      "type": "function"
    }
  ],
  "bytecode": "0x60806040526100156001600160e01b0361006216565b600080546001600160a01b0319166001600160a01b03928316178082556040519216917f8be0079c531659141344cd1fd0a4f28419497f9722a3daafe3b4186f6b6457e0908290a3610066565b3390565b61194f806100756000396000f3fe608060405234801561001057600080fd5b506004361061018e5760003560e01c806368cd03f6116100de578063b7b0ccde11610097578063cd784d1b11610071578063cd784d1b14610332578063db8d55f114610345578063f2fde38b1461035b578063fc87de391461036e5761018e565b8063b7b0ccde14610304578063b92d30dc1461030c578063c886170b1461031f5761018e565b806368cd03f6146102af578063715018a6146102c457806386830d58146102cc5780638da5cb5b146102d45780638f32d59b146102dc578063a9059cbb146102f15761018e565b80632e1a7d4d1161014b5780634acc79ed116101255780634acc79ed146102565780634ca959a0146102765780634eee8c43146102895780636556cd051461029c5761018e565b80632e1a7d4d1461021d57806339c375941461023057806345655b4e146102435761018e565b806308274382146101935780630b78f9c0146101a85780630ea787e8146101bb5780630eac9b0c146101ce5780631393bbf5146101e15780632349a4921461020a575b600080fd5b6101a66101a1366004611333565b610381565b005b6101a66101b63660046113bc565b6103d0565b6101a66101c93660046112de565b610447565b6101a66101dc36600461129b565b610555565b6101f46101ef36600461125e565b61058a565b6040516102019190611671565b60405180910390f35b6101a6610218366004611228565b6105c2565b6101a661022b36600461125e565b610690565b6101a661023e36600461127c565b610761565b6101a6610251366004611177565b61076c565b61026961026436600461125e565b6107bb565b6040516102019190611729565b6101a661028436600461112a565b6107cd565b6101a66102973660046111e1565b61085c565b6101a66102aa3660046110c9565b61088e565b6102b7610920565b6040516102019190611745565b6101a661092f565b61026961099d565b6101f46109cb565b6102e46109da565b604051610201919061171b565b6101a66102ff3660046111b1565b6109fe565b610269610a8a565b6101f461031a36600461125e565b610ab9565b6101a661032d366004611386565b610ad4565b6102e4610340366004611085565b610b64565b61034d610b82565b604051610201929190611737565b6101a6610369366004611085565b610bd4565b61026961037c366004611351565b610c04565b6103896109da565b6103ae5760405162461bcd60e51b81526004016103a5906117b4565b60405180910390fd5b600480546001600160a01b0319166001600160a01b0392909216919091179055565b6103d86109da565b6103f45760405162461bcd60e51b81526004016103a5906117b4565b60036020527f3617319a054d772f909f7c479a2cebe5066e836a939412e32403c99029b92eff9190915560016000527fa15bc60c955c405d20d9149c709e2460f1c2d9a497496a7f46004d1772c3054c55565b61045033610b64565b6104ce57600061045e610a8a565b905080156104cc57600480546040516302654acd60e51b81526001600160a01b0390911691634ca959a091610499918691339187910161167f565b600060405180830381600087803b1580156104b357600080fd5b505af11580156104c7573d6000803e3d6000fd5b505050505b505b600084815260026020526040902080546001600160a01b03163314806104f857506104f833610b64565b6105145760405162461bcd60e51b81526004016103a590611794565b847ffb5827bd51db989dc5cb76bb9d0c88277de2389aa0d547b0a87fe23f975910118585604051610546929190611737565b60405180910390a25050505050565b61055e33610b64565b61057a5760405162461bcd60e51b81526004016103a590611784565b610585838383610c34565b505050565b6000610594610e8b565b5050600090815260026020908152604091829020825191820190925290546001600160a01b03169081905290565b81516105cd33610b64565b61065b5760006105eb826105df610a8a565b9063ffffffff610c9116565b9050801561065957600480546040516302654acd60e51b81526001600160a01b0390911691634ca959a091610626918791339187910161167f565b600060405180830381600087803b15801561064057600080fd5b505af1158015610654573d6000803e3d6000fd5b505050505b505b60005b8181101561068a5761068284828151811061067557fe5b6020026020010151610cd4565b60010161065e565b50505050565b6106986109da565b6106b45760405162461bcd60e51b81526004016103a5906117b4565b306001600160a01b0316638da5cb5b6040518163ffffffff1660e01b815260040160206040518083038186803b1580156106ed57600080fd5b505afa158015610701573d6000803e3d6000fd5b505050506040513d601f19601f8201168201806040525061072591908101906110ab565b6001600160a01b03166108fc829081150290604051600060405180830381858888f1935050505015801561075d573d6000803e3d6000fd5b5050565b61075d828233610c34565b6107746109da565b6107905760405162461bcd60e51b81526004016103a5906117b4565b6001600160a01b03919091166000908152600160205260409020805460ff1916911515919091179055565b60036020526000908152604090205481565b6107d633610b64565b6107f25760405162461bcd60e51b81526004016103a590611784565b600480546040516302654acd60e51b81526001600160a01b0390911691634ca959a09161082591879187918791016116e5565b600060405180830381600087803b15801561083f57600080fd5b505af1158015610853573d6000803e3d6000fd5b50505050505050565b60005b82518110156105855761088683828151811061087757fe5b60200260200101518333610c34565b60010161085f565b61089733610b64565b6108b35760405162461bcd60e51b81526004016103a590611784565b60048054604051636556cd0560e01b81526001600160a01b0390911691636556cd05916108e8918891889188918891016116a7565b600060405180830381600087803b15801561090257600080fd5b505af1158015610916573d6000803e3d6000fd5b5050505050505050565b6004546001600160a01b031681565b6109376109da565b6109535760405162461bcd60e51b81526004016103a5906117b4565b600080546040516001600160a01b03909116907f8be0079c531659141344cd1fd0a4f28419497f9722a3daafe3b4186f6b6457e0908390a3600080546001600160a01b0319169055565b6000805260036020527f3617319a054d772f909f7c479a2cebe5066e836a939412e32403c99029b92eff5490565b6000546001600160a01b031690565b600080546001600160a01b03166109ef610e06565b6001600160a01b031614905090565b610a0733610b64565b610a235760405162461bcd60e51b81526004016103a590611784565b6004805460405163a9059cbb60e01b81526001600160a01b039091169163a9059cbb91610a54918691869101611700565b600060405180830381600087803b158015610a6e57600080fd5b505af1158015610a82573d6000803e3d6000fd5b505050505050565b600160005260036020527fa15bc60c955c405d20d9149c709e2460f1c2d9a497496a7f46004d1772c3054c5490565b6002602052600090815260409020546001600160a01b031681565b610add33610b64565b610b5b576000610aeb61099d565b90508015610b5957600480546040516302654acd60e51b81526001600160a01b0390911691634ca959a091610b26918691339187910161167f565b600060405180830381600087803b158015610b4057600080fd5b505af1158015610b54573d6000803e3d6000fd5b505050505b505b61075d82610cd4565b6001600160a01b031660009081526001602052604090205460ff1690565b60036020527f3617319a054d772f909f7c479a2cebe5066e836a939412e32403c99029b92eff5460016000527fa15bc60c955c405d20d9149c709e2460f1c2d9a497496a7f46004d1772c3054c549091565b610bdc6109da565b610bf85760405162461bcd60e51b81526004016103a5906117b4565b610c0181610e0a565b50565b600081604051602001610c17919061165e565b604051602081830303815290604052805190602001209050919050565b600083815260026020526040902080546001600160a01b03838116911614610c6e5760405162461bcd60e51b81526004016103a5906117c4565b80546001600160a01b0319166001600160a01b0393909316929092179091555050565b600082610ca057506000610cce565b82820282848281610cad57fe5b0414610ccb5760405162461bcd60e51b81526004016103a5906117a4565b90505b92915050565b6000610ce38260000151610c04565b60008181526002602052604090206060840151919250906001600160a01b0316610d1f5760405162461bcd60e51b81526004016103a5906117d4565b80546001600160a01b031615610d475760405162461bcd60e51b81526004016103a590611764565b606083015181546001600160a01b039182166001600160a01b031991821617808455600085815260026020526040908190208054909316919093161790558351905183917f9096b4564a2bafa0ceef5b1e2a3726b6c688e97d8231050b488716d3c5d0632891610db79190611753565b60405180910390a2817ffb5827bd51db989dc5cb76bb9d0c88277de2389aa0d547b0a87fe23f9759101184602001518560400151604051610df9929190611737565b60405180910390a2505050565b3390565b6001600160a01b038116610e305760405162461bcd60e51b81526004016103a590611774565b600080546040516001600160a01b03808516939216917f8be0079c531659141344cd1fd0a4f28419497f9722a3daafe3b4186f6b6457e091a3600080546001600160a01b0319166001600160a01b0392909216919091179055565b60408051602081019091526000815290565b8035610cce816118dd565b8051610cce816118dd565b600082601f830112610ec457600080fd5b8135610ed7610ed28261180b565b6117e4565b91508181835260208401935060208101905083856020840282011115610efc57600080fd5b60005b83811015610f285781610f128882610f9a565b8452506020928301929190910190600101610eff565b5050505092915050565b600082601f830112610f4357600080fd5b8135610f51610ed28261180b565b81815260209384019390925082018360005b83811015610f285781358601610f798882610fff565b8452506020928301929190910190600101610f63565b8035610cce816118f1565b8035610cce816118fa565b8035610cce81611903565b600082601f830112610fc157600080fd5b8135610fcf610ed28261182c565b91508082526020830160208301858383011115610feb57600080fd5b610ff683828461189b565b50505092915050565b60006080828403121561101157600080fd5b61101b60806117e4565b9050813567ffffffffffffffff81111561103457600080fd5b61104084828501610fb0565b825250602061105184848301610f9a565b602083015250604061106584828501610f9a565b604083015250606061107984828501610e9d565b60608301525092915050565b60006020828403121561109757600080fd5b60006110a38484610e9d565b949350505050565b6000602082840312156110bd57600080fd5b60006110a38484610ea8565b600080600080608085870312156110df57600080fd5b60006110eb8787610e9d565b94505060206110fc87828801610e9d565b935050604061110d87828801610e9d565b925050606061111e87828801610f9a565b91505092959194509250565b60008060006060848603121561113f57600080fd5b600061114b8686610e9d565b935050602061115c86828701610e9d565b925050604061116d86828701610f9a565b9150509250925092565b6000806040838503121561118a57600080fd5b60006111968585610e9d565b92505060206111a785828601610f8f565b9150509250929050565b600080604083850312156111c457600080fd5b60006111d08585610e9d565b92505060206111a785828601610f9a565b600080604083850312156111f457600080fd5b823567ffffffffffffffff81111561120b57600080fd5b61121785828601610eb3565b92505060206111a785828601610e9d565b6000806040838503121561123b57600080fd5b823567ffffffffffffffff81111561125257600080fd5b61121785828601610f32565b60006020828403121561127057600080fd5b60006110a38484610f9a565b6000806040838503121561128f57600080fd5b60006112178585610f9a565b6000806000606084860312156112b057600080fd5b60006112bc8686610f9a565b93505060206112cd86828701610e9d565b925050604061116d86828701610e9d565b600080600080608085870312156112f457600080fd5b60006113008787610f9a565b945050602061131187828801610f9a565b935050604061132287828801610f9a565b925050606061111e87828801610e9d565b60006020828403121561134557600080fd5b60006110a38484610fa5565b60006020828403121561136357600080fd5b813567ffffffffffffffff81111561137a57600080fd5b6110a384828501610fb0565b6000806040838503121561139957600080fd5b823567ffffffffffffffff8111156113b057600080fd5b61121785828601610fff565b600080604083850312156113cf57600080fd5b60006111d08585610f9a565b6113e481611890565b82525050565b6113e481611866565b6113e481611871565b6113e481611876565b6113e481611879565b600061141982611854565b6114238185611861565b93506114338185602086016118a7565b9290920192915050565b600061144882611854565b6114528185611858565b93506114628185602086016118a7565b61146b816118d3565b9093019392505050565b6000611482601483611858565b736578697374696e6720706572737065637469766560601b815260200192915050565b60006114b2602683611858565b7f4f776e61626c653a206e6577206f776e657220697320746865207a65726f206181526564647265737360d01b602082015260400192915050565b60006114fa602883611858565b7f486173537570657255736572733a2063616c6c6572206973206e6f74206120738152673ab832b92ab9b2b960c11b602082015260400192915050565b6000611544602983611858565b7f6f6e6c7920746865206f776e65722063616e207570646174652074686520706581526872737065637469766560b81b602082015260400192915050565b600061158f602183611858565b7f536166654d6174683a206d756c7469706c69636174696f6e206f766572666c6f8152607760f81b602082015260400192915050565b60006115d2602083611858565b7f4f776e61626c653a2063616c6c6572206973206e6f7420746865206f776e6572815260200192915050565b600061160b601383611858565b72756e617574686f72697a65642061636365737360681b815260200192915050565b600061163a601583611858565b746f776e65722063616e6e6f7420626520656d70747960581b815260200192915050565b600061166a828461140e565b9392505050565b60208101610cce82846113ea565b6060810161168d82866113ea565b61169a60208301856113db565b6110a360408301846113fc565b608081016116b582876113ea565b6116c260208301866113ea565b6116cf60408301856113ea565b6116dc60608301846113fc565b95945050505050565b606081016116f382866113ea565b61169a60208301856113ea565b6040810161170e82856113ea565b61166a60208301846113fc565b60208101610cce82846113f3565b60208101610cce82846113fc565b6040810161170e82856113fc565b60208101610cce8284611405565b6020808252810161166a818461143d565b60208082528101610cce81611475565b60208082528101610cce816114a5565b60208082528101610cce816114ed565b60208082528101610cce81611537565b60208082528101610cce81611582565b60208082528101610cce816115c5565b60208082528101610cce816115fe565b60208082528101610cce8161162d565b60405181810167ffffffffffffffff8111828210171561180357600080fd5b604052919050565b600067ffffffffffffffff82111561182257600080fd5b5060209081020190565b600067ffffffffffffffff82111561184357600080fd5b506020601f91909101601f19160190565b5190565b90815260200190565b919050565b6000610cce82611884565b151590565b90565b6000610cce82611866565b6001600160a01b031690565b6000610cce82611879565b82818337506000910152565b60005b838110156118c25781810151838201526020016118aa565b8381111561068a5750506000910152565b601f01601f191690565b6118e681611866565b8114610c0157600080fd5b6118e681611871565b6118e681611876565b6118e68161187956fea365627a7a7231582026f31062451864a5369452c1c2d57c684d5c6420ff9086a55eca3de8d85669266c6578706572696d656e74616cf564736f6c63430005100040",
  "source": "pragma solidity >=0.5.0 <0.6.0;\npragma experimental ABIEncoderV2;\n\nimport \"./Ownable.sol\";\nimport \"./SafeMath.sol\";\n\nimport \"./UprtclAccounts.sol\";\n\n/** Underscore Protocol Ethereum Service used to store the content of\n* _Prtcl perspectives */\ncontract UprtclRoot is HasSuperUsers {\n    using SafeMath for uint256;\n\n    struct Perspective {\n        address owner;\n    }\n\n    struct NewPerspective {\n        string perspectiveId;\n        bytes32 headCid1;\n        bytes32 headCid0;\n        address owner;\n    }\n\n    /** superUsers can update any perspective */\n    mapping(bytes32 => Perspective) public perspectives;\n\n    mapping(uint256 => uint256) public fees;\n\n    event PerspectiveCreated(\n        bytes32 indexed perspectiveIdHash,\n        string perspectiveId\n    );\n\n    event PerspectiveHeadUpdated(\n        bytes32 indexed perspectiveIdHash,\n        bytes32 headCid1,\n        bytes32 headCid0\n    );\n\n    UprtclAccounts public accounts;\n\n    function setAccounts(UprtclAccounts _accounts) public onlyOwner {\n        accounts = _accounts;\n    }\n\n    function withdraw(uint256 amount) public onlyOwner {\n        this.owner().transfer(amount);\n    }\n\n    function setFees(uint256 addFee, uint256 updateFee) public onlyOwner {\n        fees[0] = addFee;\n        fees[1] = updateFee;\n    }\n\n    function getFees() public view returns (uint256 addFee, uint256 updateFee) {\n        return (fees[0], fees[1]);\n    }\n\n    function getAddFee() public view returns (uint256) {\n        return fees[0];\n    }\n\n    function getUpdateFee() public view returns (uint256) {\n        return fees[1];\n    }\n\n    function consume(address account, address by, uint256 amount) public onlySuperUser {\n        accounts.consume(account, by, amount);\n    }\n\n    function transferTo(address from, address by, address to, uint256 amount) public onlySuperUser {\n        accounts.transferTo(from, by, to, amount);\n    }\n\n    function transfer(address to, uint256 amount) public onlySuperUser {\n        accounts.transfer(to, amount);\n    }\n\n    function getPerspectiveIdHash(string memory perspectiveId) public pure returns (bytes32 idHash) {\n        return keccak256(abi.encodePacked(perspectiveId));\n    }\n\n    /** Adds a new perspective to the mapping and sets the owner. The head pointer and the context. */\n    function createPerspectiveInternal(NewPerspective memory newPerspective)\n        private\n    {\n        bytes32 perspectiveIdHash = getPerspectiveIdHash(newPerspective.perspectiveId);\n\n        Perspective storage perspective = perspectives[perspectiveIdHash];\n        require(address(0) != newPerspective.owner, \"owner cannot be empty\");\n        require(address(0) == perspective.owner, \"existing perspective\");\n\n        perspective.owner = newPerspective.owner;\n        perspectives[perspectiveIdHash] = perspective;\n\n        emit PerspectiveCreated(\n            perspectiveIdHash,\n            newPerspective.perspectiveId\n        );\n\n        emit PerspectiveHeadUpdated(\n            perspectiveIdHash,\n            newPerspective.headCid1,\n            newPerspective.headCid0\n        );\n    }\n\n    function createPerspective(NewPerspective memory newPerspective, address account)\n        public\n    {\n        if (!isSuperUser(msg.sender)) {\n            uint256 fee = getAddFee();\n            if (fee > 0) {\n                accounts.consume(account, msg.sender, fee);\n            }\n        }\n        createPerspectiveInternal(newPerspective);\n    }\n\n    function createPerspectiveBatch(NewPerspective[] memory newPerspectives, address account)\n        public\n    {\n        uint256 nPerspectives = newPerspectives.length;\n\n        if (!isSuperUser(msg.sender)) {\n            uint256 fee = getUpdateFee().mul(nPerspectives);\n\n            if (fee > 0) {\n                accounts.consume(account, msg.sender, fee);\n            }\n        }\n\n        for (uint256 ix = 0; ix < nPerspectives; ix++) {\n            createPerspectiveInternal(newPerspectives[ix]);\n        }\n    }\n\n    function updateHead(\n        bytes32 perspectiveIdHash,\n        bytes32 newHeadCid1,\n        bytes32 newHeadCid0,\n        address account\n    ) public {\n        if (!isSuperUser(msg.sender)) {\n            uint256 fee = getUpdateFee();\n            if (fee > 0) {\n                accounts.consume(account, msg.sender, fee);\n            }\n        }\n\n        Perspective storage perspective = perspectives[perspectiveIdHash];\n\n        require(\n            (perspective.owner == msg.sender) || isSuperUser(msg.sender),\n            \"only the owner can update the perspective\"\n        );\n\n        emit PerspectiveHeadUpdated(\n            perspectiveIdHash,\n            newHeadCid1,\n            newHeadCid0\n        );\n    }\n\n    function changePerspectiveOwnerInternal(\n        bytes32 perspectiveIdHash,\n        address newOwner,\n        address sender\n    ) private {\n        Perspective storage perspective = perspectives[perspectiveIdHash];\n        require(sender == perspective.owner, \"unauthorized access\");\n        \n        perspective.owner = newOwner;\n    }\n\n    /** Changes the owner of a given perspective. Available only to the current owner of that perspective. */\n    function changePerspectiveOwner(bytes32 perspectiveIdHash, address newOwner)\n        public\n    {\n        changePerspectiveOwnerInternal(perspectiveIdHash, newOwner, msg.sender);\n    }\n\n    function changePerspectiveOwnerSuperUser(bytes32 perspectiveIdHash, address newOwner, address msgSender) external onlySuperUser {\n        changePerspectiveOwnerInternal(perspectiveIdHash, newOwner, msgSender);\n    }\n\n    function changePerspectiveOwnerBatch(\n        bytes32[] memory perspectiveIdsHashes,\n        address newOwner\n    ) public {\n        for (uint256 ix = 0; ix < perspectiveIdsHashes.length; ix++) {\n            changePerspectiveOwnerInternal(\n                perspectiveIdsHashes[ix],\n                newOwner,\n                msg.sender\n            );\n        }\n    }\n\n    /** Get the perspective owner and details from its ID */\n    function getPerspectiveOwner(bytes32 perspectiveIdHash)\n        public\n        view\n        returns (address owner)\n    {\n        Perspective memory perspective = perspectives[perspectiveIdHash];\n\n        return (perspective.owner);\n    }\n\n}\n",
  "sourcePath": "/home/pepo/pr/uprtcl/eth-uprtcl/contracts/UprtclRoot.sol",
  "compiler": {
    "name": "solc",
    "version": "0.5.16+commit.9c3226ce.Emscripten.clang"
  },
  "schemaVersion": "3.0.23",
  "updatedAt": "2020-04-28T16:12:24.542Z",
  "networkType": "ethereum",
  "devdoc": {
    "methods": {
      "isOwner()": {
        "details": "Returns true if the caller is the current owner."
      },
      "owner()": {
        "details": "Returns the address of the current owner."
      },
      "renounceOwnership()": {
        "details": "Leaves the contract without owner. It will not be possible to call `onlyOwner` functions anymore. Can only be called by the current owner.     * NOTE: Renouncing ownership will leave the contract without an owner, thereby removing any functionality that is only available to the owner."
      },
      "transferOwnership(address)": {
        "details": "Transfers ownership of the contract to a new account (`newOwner`). Can only be called by the current owner."
      }
    }
  },
  "userdoc": {
    "methods": {
      "changePerspectiveOwner(bytes32,address)": {
        "notice": "Changes the owner of a given perspective. Available only to the current owner of that perspective. "
      },
      "getPerspectiveOwner(bytes32)": {
        "notice": "Get the perspective owner and details from its ID "
      }
    },
    "notice": "Underscore Protocol Ethereum Service used to store the content of _Prtcl perspectives "
  }
}