{
  "contractName": "UprtclHomePerspectives",
  "abi": [
    {
      "anonymous": false,
      "inputs": [
        {
          "indexed": true,
          "internalType": "address",
          "name": "previousOwner",
          "type": "address"
        },
        {
          "indexed": true,
          "internalType": "address",
          "name": "newOwner",
          "type": "address"
        }
      ],
      "name": "OwnershipTransferred",
      "type": "event"
    },
    {
      "constant": true,
      "inputs": [
        {
          "internalType": "address",
          "name": "",
          "type": "address"
        }
      ],
      "name": "homePerspectives",
      "outputs": [
        {
          "internalType": "string",
          "name": "",
          "type": "string"
        }
      ],
      "payable": false,
      "stateMutability": "view",
      "type": "function"
    },
    {
      "constant": true,
      "inputs": [],
      "name": "isOwner",
      "outputs": [
        {
          "internalType": "bool",
          "name": "",
          "type": "bool"
        }
      ],
      "payable": false,
      "stateMutability": "view",
      "type": "function"
    },
    {
      "constant": true,
      "inputs": [
        {
          "internalType": "address",
          "name": "suAddress",
          "type": "address"
        }
      ],
      "name": "isSuperUser",
      "outputs": [
        {
          "internalType": "bool",
          "name": "",
          "type": "bool"
        }
      ],
      "payable": false,
      "stateMutability": "view",
      "type": "function"
    },
    {
      "constant": true,
      "inputs": [],
      "name": "owner",
      "outputs": [
        {
          "internalType": "address payable",
          "name": "",
          "type": "address"
        }
      ],
      "payable": false,
      "stateMutability": "view",
      "type": "function"
    },
    {
      "constant": false,
      "inputs": [],
      "name": "renounceOwnership",
      "outputs": [],
      "payable": false,
      "stateMutability": "nonpayable",
      "type": "function"
    },
    {
      "constant": false,
      "inputs": [
        {
          "internalType": "address",
          "name": "suAddress",
          "type": "address"
        },
        {
          "internalType": "bool",
          "name": "value",
          "type": "bool"
        }
      ],
      "name": "setSuperUser",
      "outputs": [],
      "payable": false,
      "stateMutability": "nonpayable",
      "type": "function"
    },
    {
      "constant": false,
      "inputs": [
        {
          "internalType": "address payable",
          "name": "newOwner",
          "type": "address"
        }
      ],
      "name": "transferOwnership",
      "outputs": [],
      "payable": false,
      "stateMutability": "nonpayable",
      "type": "function"
    },
    {
      "constant": true,
      "inputs": [
        {
          "internalType": "address",
          "name": "owner",
          "type": "address"
        }
      ],
      "name": "getHomePerspective",
      "outputs": [
        {
          "internalType": "string",
          "name": "home",
          "type": "string"
        }
      ],
      "payable": false,
      "stateMutability": "view",
      "type": "function"
    },
    {
      "constant": false,
      "inputs": [
        {
          "internalType": "string",
          "name": "perspectiveId",
          "type": "string"
        },
        {
          "internalType": "address",
          "name": "msgSender",
          "type": "address"
        }
      ],
      "name": "setHomePerspectiveSuperUser",
      "outputs": [],
      "payable": false,
      "stateMutability": "nonpayable",
      "type": "function"
    },
    {
      "constant": false,
      "inputs": [
        {
          "internalType": "string",
          "name": "perspectiveId",
          "type": "string"
        }
      ],
      "name": "setHomePerspectivePublic",
      "outputs": [],
      "payable": false,
      "stateMutability": "nonpayable",
      "type": "function"
    }
  ],
  "bytecode": "0x60806040526100156001600160e01b0361006216565b600080546001600160a01b0319166001600160a01b03928316178082556040519216917f8be0079c531659141344cd1fd0a4f28419497f9722a3daafe3b4186f6b6457e0908290a3610066565b3390565b6108e8806100756000396000f3fe608060405234801561001057600080fd5b506004361061009e5760003560e01c80638f32d59b116100665780638f32d59b146101c05780639b49baf8146101dc578063b05097b514610255578063cd784d1b146102c5578063f2fde38b146102eb5761009e565b80632c7bfd76146100a357806345655b4e1461013e5780635b0410861461016e578063715018a6146101945780638da5cb5b1461019c575b600080fd5b6100c9600480360360208110156100b957600080fd5b50356001600160a01b0316610311565b6040805160208082528351818301528351919283929083019185019080838360005b838110156101035781810151838201526020016100eb565b50505050905090810190601f1680156101305780820380516001836020036101000a031916815260200191505b509250505060405180910390f35b61016c6004803603604081101561015457600080fd5b506001600160a01b03813516906020013515156103ba565b005b6100c96004803603602081101561018457600080fd5b50356001600160a01b031661043e565b61016c6104d7565b6101a461057a565b604080516001600160a01b039092168252519081900360200190f35b6101c861058a565b604080519115158252519081900360200190f35b61016c600480360360408110156101f257600080fd5b81019060208101813564010000000081111561020d57600080fd5b82018360208201111561021f57600080fd5b8035906020019184600183028401116401000000008311171561024157600080fd5b9193509150356001600160a01b03166105ae565b61016c6004803603602081101561026b57600080fd5b81019060208101813564010000000081111561028657600080fd5b82018360208201111561029857600080fd5b803590602001918460018302840111640100000000831117156102ba57600080fd5b509092509050610638565b6101c8600480360360208110156102db57600080fd5b50356001600160a01b031661067d565b61016c6004803603602081101561030157600080fd5b50356001600160a01b031661069b565b6001600160a01b038116600090815260026020818152604092839020805484516001821615610100026000190190911693909304601f810183900483028401830190945283835260609390918301828280156103ae5780601f10610383576101008083540402835291602001916103ae565b820191906000526020600020905b81548152906001019060200180831161039157829003601f168201915b50505050509050919050565b6103c261058a565b610413576040805162461bcd60e51b815260206004820181905260248201527f4f776e61626c653a2063616c6c6572206973206e6f7420746865206f776e6572604482015290519081900360640190fd5b6001600160a01b03919091166000908152600160205260409020805460ff1916911515919091179055565b600260208181526000928352604092839020805484516001821615610100026000190190911693909304601f81018390048302840183019094528383529192908301828280156104cf5780601f106104a4576101008083540402835291602001916104cf565b820191906000526020600020905b8154815290600101906020018083116104b257829003601f168201915b505050505081565b6104df61058a565b610530576040805162461bcd60e51b815260206004820181905260248201527f4f776e61626c653a2063616c6c6572206973206e6f7420746865206f776e6572604482015290519081900360640190fd5b600080546040516001600160a01b03909116907f8be0079c531659141344cd1fd0a4f28419497f9722a3daafe3b4186f6b6457e0908390a3600080546001600160a01b0319169055565b6000546001600160a01b03165b90565b600080546001600160a01b031661059f610700565b6001600160a01b031614905090565b6105b73361067d565b6105f25760405162461bcd60e51b815260040180806020018281038252602881526020018061088c6028913960400191505060405180910390fd5b61063383838080601f016020809104026020016040519081016040528093929190818152602001838380828437600092019190915250859250610704915050565b505050565b61067982828080601f016020809104026020016040519081016040528093929190818152602001838380828437600092019190915250339250610704915050565b5050565b6001600160a01b031660009081526001602052604090205460ff1690565b6106a361058a565b6106f4576040805162461bcd60e51b815260206004820181905260248201527f4f776e61626c653a2063616c6c6572206973206e6f7420746865206f776e6572604482015290519081900360640190fd5b6106fd8161072d565b50565b3390565b6001600160a01b03811660009081526002602090815260409091208351610633928501906107cd565b6001600160a01b0381166107725760405162461bcd60e51b81526004018080602001828103825260268152602001806108666026913960400191505060405180910390fd5b600080546040516001600160a01b03808516939216917f8be0079c531659141344cd1fd0a4f28419497f9722a3daafe3b4186f6b6457e091a3600080546001600160a01b0319166001600160a01b0392909216919091179055565b828054600181600116156101000203166002900490600052602060002090601f016020900481019282601f1061080e57805160ff191683800117855561083b565b8280016001018555821561083b579182015b8281111561083b578251825591602001919060010190610820565b5061084792915061084b565b5090565b61058791905b80821115610847576000815560010161085156fe4f776e61626c653a206e6577206f776e657220697320746865207a65726f2061646472657373486173537570657255736572733a2063616c6c6572206973206e6f74206120737570657255736572a265627a7a723158209ac40eaa754e3b530a621e05b8fe8e80ae2b2588f0a2865613b98dd05583ebc364736f6c63430005100032",
  "source": "pragma solidity >=0.5.0 <0.6.0;\n\nimport \"./HasSuperUsers.sol\";\n\ncontract UprtclHomePerspectives is HasSuperUsers {\n    mapping(address => string) public homePerspectives;\n\n    function getHomePerspective(address owner) external view returns (string memory home) {\n        return homePerspectives[owner];\n    }\n\n    function setHomePerspectiveInternal(string memory perspectiveId, address msgSender) private {\n        homePerspectives[msgSender] = perspectiveId;\n    }\n\n    function setHomePerspectiveSuperUser(string calldata perspectiveId, address msgSender) external onlySuperUser {\n        setHomePerspectiveInternal(perspectiveId, msgSender);\n    }\n\n    function setHomePerspectivePublic(string calldata perspectiveId) external {\n        setHomePerspectiveInternal(perspectiveId, msg.sender);\n    }\n}",
  "sourcePath": "/home/pepo/pr/uprtcl/eth-uprtcl/contracts/UprtclHomePerspectives.sol",
  "compiler": {
    "name": "solc",
    "version": "0.5.16+commit.9c3226ce.Emscripten.clang"
  },
  "schemaVersion": "3.0.11",
  "updatedAt": "2020-04-19T13:53:28.769Z",
  "devdoc": {
    "methods": {
      "isOwner()": {
        "details": "Returns true if the caller is the current owner."
      },
      "owner()": {
        "details": "Returns the address of the current owner."
      },
      "renounceOwnership()": {
        "details": "Leaves the contract without owner. It will not be possible to call `onlyOwner` functions anymore. Can only be called by the current owner.     * NOTE: Renouncing ownership will leave the contract without an owner, thereby removing any functionality that is only available to the owner."
      },
      "transferOwnership(address)": {
        "details": "Transfers ownership of the contract to a new account (`newOwner`). Can only be called by the current owner."
      }
    }
  },
  "userdoc": {
    "methods": {}
  }
}