{
  "contractName": "UprtclDetails",
  "abi": [
    {
      "constant": false,
      "inputs": [],
      "name": "renounceOwnership",
      "outputs": [],
      "payable": false,
      "stateMutability": "nonpayable",
      "type": "function"
    },
    {
      "constant": true,
      "inputs": [],
      "name": "owner",
      "outputs": [
        {
          "name": "",
          "type": "address"
        }
      ],
      "payable": false,
      "stateMutability": "view",
      "type": "function"
    },
    {
      "constant": true,
      "inputs": [],
      "name": "isOwner",
      "outputs": [
        {
          "name": "",
          "type": "bool"
        }
      ],
      "payable": false,
      "stateMutability": "view",
      "type": "function"
    },
    {
      "constant": true,
      "inputs": [
        {
          "name": "",
          "type": "bytes32"
        }
      ],
      "name": "perspectivesDetails",
      "outputs": [
        {
          "name": "name",
          "type": "string"
        },
        {
          "name": "context",
          "type": "string"
        }
      ],
      "payable": false,
      "stateMutability": "view",
      "type": "function"
    },
    {
      "constant": false,
      "inputs": [
        {
          "name": "newOwner",
          "type": "address"
        }
      ],
      "name": "transferOwnership",
      "outputs": [],
      "payable": false,
      "stateMutability": "nonpayable",
      "type": "function"
    },
    {
      "anonymous": false,
      "inputs": [
        {
          "indexed": true,
          "name": "perspectiveIdHash",
          "type": "bytes32"
        },
        {
          "indexed": true,
          "name": "contextHash",
          "type": "bytes32"
        }
      ],
      "name": "PerspectiveDetailsSet",
      "type": "event"
    },
    {
      "anonymous": false,
      "inputs": [
        {
          "indexed": true,
          "name": "previousOwner",
          "type": "address"
        },
        {
          "indexed": true,
          "name": "newOwner",
          "type": "address"
        }
      ],
      "name": "OwnershipTransferred",
      "type": "event"
    },
    {
      "constant": false,
      "inputs": [
        {
          "name": "_uprtclRoot",
          "type": "address"
        }
      ],
      "name": "setUprtclRoot",
      "outputs": [],
      "payable": false,
      "stateMutability": "nonpayable",
      "type": "function"
    },
    {
      "constant": false,
      "inputs": [
        {
          "name": "perspectiveIdHash",
          "type": "bytes32"
        },
        {
          "components": [
            {
              "name": "name",
              "type": "string"
            },
            {
              "name": "context",
              "type": "string"
            }
          ],
          "name": "newDetails",
          "type": "tuple"
        }
      ],
      "name": "setPerspectiveDetails",
      "outputs": [],
      "payable": false,
      "stateMutability": "nonpayable",
      "type": "function"
    },
    {
      "constant": true,
      "inputs": [
        {
          "name": "perspectiveIdHash",
          "type": "bytes32"
        }
      ],
      "name": "getPerspectiveDetails",
      "outputs": [
        {
          "name": "name",
          "type": "string"
        },
        {
          "name": "context",
          "type": "string"
        }
      ],
      "payable": false,
      "stateMutability": "view",
      "type": "function"
    },
    {
      "constant": false,
      "inputs": [
        {
          "components": [
            {
              "name": "perspectiveIdHash",
              "type": "bytes32"
            },
            {
              "name": "headCid1",
              "type": "bytes32"
            },
            {
              "name": "headCid0",
              "type": "bytes32"
            },
            {
              "name": "owner",
              "type": "address"
            }
          ],
          "name": "newPerspective",
          "type": "tuple"
        },
        {
          "components": [
            {
              "name": "name",
              "type": "string"
            },
            {
              "name": "context",
              "type": "string"
            }
          ],
          "name": "newDetails",
          "type": "tuple"
        },
        {
          "name": "account",
          "type": "address"
        }
      ],
      "name": "initPerspective",
      "outputs": [],
      "payable": false,
      "stateMutability": "nonpayable",
      "type": "function"
    }
  ],
  "bytecode": "0x608060405261001261005f60201b60201c565b600080546001600160a01b0319166001600160a01b03928316178082556040519216917f8be0079c531659141344cd1fd0a4f28419497f9722a3daafe3b4186f6b6457e0908290a3610063565b3390565b6110fa806100726000396000f3fe608060405234801561001057600080fd5b50600436106100935760003560e01c80638f32d59b116100665780638f32d59b146100f4578063a5503f3714610109578063c08b985d1461011c578063cf29e9691461012f578063f2fde38b1461014257610093565b8063715018a61461009857806376914ecf146100a25780637cce0117146100cc5780638da5cb5b146100df575b600080fd5b6100a0610155565b005b6100b56100b0366004610bbd565b6101cf565b6040516100c3929190610f49565b60405180910390f35b6100a06100da366004610c2d565b610338565b6100e7610381565b6040516100c39190610ef7565b6100fc610391565b6040516100c39190610f2d565b6100a0610117366004610c4b565b6103b5565b6100a061012a366004610bdb565b610527565b6100b561013d366004610bbd565b610536565b6100a0610150366004610b9f565b610670565b61015d610391565b61018557604051600160e51b62461bcd02815260040161017c90610f8e565b60405180910390fd5b600080546040516001600160a01b03909116907f8be0079c531659141344cd1fd0a4f28419497f9722a3daafe3b4186f6b6457e0908390a3600080546001600160a01b0319169055565b6060806101da6108dc565b6000848152600160208181526040928390208351815460029481161561010002600019011693909304601f810183900490920283016060908101855293830182815292939092849290918491908401828280156102785780601f1061024d57610100808354040283529160200191610278565b820191906000526020600020905b81548152906001019060200180831161025b57829003601f168201915b50505050508152602001600182018054600181600116156101000203166002900480601f01602080910402602001604051908101604052809291908181526020018280546001816001161561010002031660029004801561031a5780601f106102ef5761010080835404028352916020019161031a565b820191906000526020600020905b8154815290600101906020018083116102fd57829003601f168201915b50505091909252505081516020909201519194509092505050915091565b610340610391565b61035f57604051600160e51b62461bcd02815260040161017c90610f8e565b600280546001600160a01b0319166001600160a01b0392909216919091179055565b6000546001600160a01b03165b90565b600080546001600160a01b03166103a66106a3565b6001600160a01b031614905090565b60025460408051600160e31b6310d061ab02815290516000926001600160a01b0316916386830d58916004808301926020929190829003018186803b1580156103fd57600080fd5b505afa158015610411573d6000803e3d6000fd5b505050506040513d601f19601f820116820180604052506104359190810190610cb0565b905080156104a757600254604051600160e51b6302654acd0281526001600160a01b0390911690634ca959a09061047490859033908690600401610f05565b600060405180830381600087803b15801561048e57600080fd5b505af11580156104a2573d6000803e3d6000fd5b505050505b600254604051600160e01b6372d50cc50281526001600160a01b03909116906372d50cc5906104dc9087908690600401610f9e565b600060405180830381600087803b1580156104f657600080fd5b505af115801561050a573d6000803e3d6000fd5b5050505061052184600001518486606001516106a7565b50505050565b6105328282336106a7565b5050565b60016020818152600092835260409283902080548451600294821615610100026000190190911693909304601f81018390048302840183019094528383529283918301828280156105c85780601f1061059d576101008083540402835291602001916105c8565b820191906000526020600020905b8154815290600101906020018083116105ab57829003601f168201915b505050505090806001018054600181600116156101000203166002900480601f0160208091040260200160405190810160405280929190818152602001828054600181600116156101000203166002900480156106665780601f1061063b57610100808354040283529160200191610666565b820191906000526020600020905b81548152906001019060200180831161064957829003601f168201915b5050505050905082565b610678610391565b61069757604051600160e51b62461bcd02815260040161017c90610f8e565b6106a081610858565b50565b3390565b600254604051600160e01b631393bbf50281526001600160a01b03808416921690631393bbf5906106dc908790600401610f3b565b60206040518083038186803b1580156106f457600080fd5b505afa158015610708573d6000803e3d6000fd5b505050506040513d601f19601f8201168201806040525061072c9190810190610b79565b6001600160a01b03161461075557604051600160e51b62461bcd02815260040161017c90610f6e565b600083815260016020908152604090912083518051919261077b928492909101906108f6565b50602080840151805161079492600185019201906108f6565b508060016000868152602001908152602001600020600082018160000190805460018160011615610100020316600290046107d0929190610974565b50600182018160010190805460018160011615610100020316600290046107f8929190610974565b505060405161080f91506001830190602001610ee4565b60405160208183030381529060405280519060200120847f54d694087b2b7af3574607f1c7957f264e43dae2cd138a793dc22d407fac002b60405160405180910390a350505050565b6001600160a01b03811661088157604051600160e51b62461bcd02815260040161017c90610f7e565b600080546040516001600160a01b03808516939216917f8be0079c531659141344cd1fd0a4f28419497f9722a3daafe3b4186f6b6457e091a3600080546001600160a01b0319166001600160a01b0392909216919091179055565b604051806040016040528060608152602001606081525090565b828054600181600116156101000203166002900490600052602060002090601f016020900481019282601f1061093757805160ff1916838001178555610964565b82800160010185558215610964579182015b82811115610964578251825591602001919060010190610949565b506109709291506109e9565b5090565b828054600181600116156101000203166002900490600052602060002090601f016020900481019282601f106109ad5780548555610964565b8280016001018555821561096457600052602060002091601f016020900482015b828111156109645782548255916001019190600101906109ce565b61038e91905b8082111561097057600081556001016109ef565b8035610a0e8161109a565b92915050565b8051610a0e8161109a565b8035610a0e816110ae565b8035610a0e816110b7565b600082601f830112610a4657600080fd5b8135610a59610a5482610fe0565b610fb9565b91508082526020830160208301858383011115610a7557600080fd5b610a80838284611058565b50505092915050565b600060808284031215610a9b57600080fd5b610aa56080610fb9565b90506000610ab38484610a1f565b8252506020610ac484848301610a1f565b6020830152506040610ad884828501610a1f565b6040830152506060610aec84828501610a03565b60608301525092915050565b600060408284031215610b0a57600080fd5b610b146040610fb9565b9050813567ffffffffffffffff811115610b2d57600080fd5b610b3984828501610a35565b825250602082013567ffffffffffffffff811115610b5657600080fd5b610b6284828501610a35565b60208301525092915050565b8051610a0e816110ae565b600060208284031215610b8b57600080fd5b6000610b978484610a14565b949350505050565b600060208284031215610bb157600080fd5b6000610b978484610a03565b600060208284031215610bcf57600080fd5b6000610b978484610a1f565b60008060408385031215610bee57600080fd5b6000610bfa8585610a1f565b925050602083013567ffffffffffffffff811115610c1757600080fd5b610c2385828601610af8565b9150509250929050565b600060208284031215610c3f57600080fd5b6000610b978484610a2a565b600080600060c08486031215610c6057600080fd5b6000610c6c8686610a89565b935050608084013567ffffffffffffffff811115610c8957600080fd5b610c9586828701610af8565b92505060a0610ca686828701610a03565b9150509250925092565b600060208284031215610cc257600080fd5b6000610b978484610b6e565b610cd78161104d565b82525050565b610cd781611026565b610cd781611031565b610cd78161038e565b6000610d0382611014565b610d0d8185611018565b9350610d1d818560208601611064565b610d2681611090565b9093019392505050565b600081546001811660008114610d4d5760018114610d7057610daf565b607f6002830416610d5e8187611021565b60ff1984168152955085019250610daf565b60028204610d7e8187611021565b9550610d8985611008565b60005b82811015610da857815488820152600190910190602001610d8c565b5050850192505b505092915050565b6000610dc4602c83611018565b7f64657461696c732063616e206f6e6c792062792073657420627920706572737081527f656374697665206f776e65720000000000000000000000000000000000000000602082015260400192915050565b6000610e23602683611018565b7f4f776e61626c653a206e6577206f776e657220697320746865207a65726f20618152600160d01b6564647265737302602082015260400192915050565b6000610e6e602083611018565b7f4f776e61626c653a2063616c6c6572206973206e6f7420746865206f776e6572815260200192915050565b80516080830190610eab8482610cef565b506020820151610ebe6020850182610cef565b506040820151610ed16040850182610cef565b5060608201516105216060850182610cdd565b6000610ef08284610d30565b9392505050565b60208101610a0e8284610cdd565b60608101610f138286610cdd565b610f206020830185610cce565b610b976040830184610cef565b60208101610a0e8284610ce6565b60208101610a0e8284610cef565b60408082528101610f5a8185610cf8565b90508181036020830152610b978184610cf8565b60208082528101610a0e81610db7565b60208082528101610a0e81610e16565b60208082528101610a0e81610e61565b60a08101610fac8285610e9a565b610ef06080830184610cdd565b60405181810167ffffffffffffffff81118282101715610fd857600080fd5b604052919050565b600067ffffffffffffffff821115610ff757600080fd5b506020601f91909101601f19160190565b60009081526020902090565b5190565b90815260200190565b919050565b6000610a0e82611041565b151590565b6000610a0e82611026565b6001600160a01b031690565b6000610a0e82611036565b82818337506000910152565b60005b8381101561107f578181015183820152602001611067565b838111156105215750506000910152565b601f01601f191690565b6110a381611026565b81146106a057600080fd5b6110a38161038e565b6110a38161103656fea265627a7a723058206d65ad7b6a4e676a0e4e49a76d5f8814c221a854ac10e90403ca05c889181fd96c6578706572696d656e74616cf50037",
  "source": "pragma solidity >=0.5.0 <0.6.0;\npragma experimental ABIEncoderV2;\n\nimport \"./UprtclRoot.sol\";\nimport \"./Ownable.sol\";\n\ncontract UprtclDetails is Ownable {\n\n    struct PerspectiveDetails {\n        string name;\n        string context;\n    }\n\n    event PerspectiveDetailsSet (\n        bytes32 indexed perspectiveIdHash,\n        bytes32 indexed contextHash\n    );\n\n    mapping(bytes32 => PerspectiveDetails) public perspectivesDetails;\n\n    UprtclRoot uprtclRoot;\n\n    function setUprtclRoot(UprtclRoot _uprtclRoot) public onlyOwner {\n        uprtclRoot = _uprtclRoot;\n    }\n\n    /** Adds a new perspective to the mapping and sets the owner. The head pointer and the context. */\n    function setPerspectiveDetailsInternal(\n        bytes32 perspectiveIdHash,\n        PerspectiveDetails memory newDetails,\n        address sender\n    ) private {\n        require(uprtclRoot.getPerspectiveOwner(perspectiveIdHash) == sender, \"details can only by set by perspective owner\");\n\n        PerspectiveDetails storage details = perspectivesDetails[perspectiveIdHash];\n\n        details.name = newDetails.name;\n        details.context = newDetails.context;\n\n        perspectivesDetails[perspectiveIdHash] = details;\n\n        emit PerspectiveDetailsSet(\n            perspectiveIdHash,\n            keccak256(abi.encodePacked(details.context))\n        );\n    }\n\n    function setPerspectiveDetails(\n        bytes32 perspectiveIdHash,\n        PerspectiveDetails memory newDetails\n    ) public {\n        setPerspectiveDetailsInternal(perspectiveIdHash, newDetails, msg.sender);\n    }\n\n    function getPerspectiveDetails(bytes32 perspectiveIdHash) public view returns (string memory name, string memory context) {\n        PerspectiveDetails memory details = perspectivesDetails[perspectiveIdHash];\n        return (details.name, details.context);\n    }\n\n    function initPerspective(\n        UprtclRoot.NewPerspective memory newPerspective,\n        PerspectiveDetails memory newDetails,\n        address account) public {\n\n        /** collect fee here */\n        uint256 fee = uprtclRoot.getAddFee();\n        if (fee > 0) {\n            uprtclRoot.consume(account, msg.sender, fee);\n        }\n\n        uprtclRoot.addPerspective(newPerspective, account);\n        setPerspectiveDetailsInternal(newPerspective.perspectiveIdHash, newDetails, newPerspective.owner);\n    }\n\n}\n",
  "sourcePath": "/home/pepo/pr/uprtcl/eth-uprtcl/contracts/UprtclDetails.sol",
  "compiler": {
    "name": "solc",
    "version": "0.5.8+commit.23d335f2.Emscripten.clang"
  },
  "schemaVersion": "3.0.11",
  "updatedAt": "2020-02-27T12:07:58.776Z",
  "devdoc": {
    "methods": {
      "isOwner()": {
        "details": "Returns true if the caller is the current owner."
      },
      "owner()": {
        "details": "Returns the address of the current owner."
      },
      "renounceOwnership()": {
        "details": "Leaves the contract without owner. It will not be possible to call `onlyOwner` functions anymore. Can only be called by the current owner.     * NOTE: Renouncing ownership will leave the contract without an owner, thereby removing any functionality that is only available to the owner."
      },
      "transferOwnership(address)": {
        "details": "Transfers ownership of the contract to a new account (`newOwner`). Can only be called by the current owner."
      }
    }
  },
  "userdoc": {
    "methods": {}
  }
}