{
  "contractName": "UprtclDetails",
  "abi": [
    {
      "constant": false,
      "inputs": [
        {
          "name": "suAddress",
          "type": "address"
        },
        {
          "name": "value",
          "type": "bool"
        }
      ],
      "name": "setSuperUser",
      "outputs": [],
      "payable": false,
      "stateMutability": "nonpayable",
      "type": "function"
    },
    {
      "constant": false,
      "inputs": [],
      "name": "renounceOwnership",
      "outputs": [],
      "payable": false,
      "stateMutability": "nonpayable",
      "type": "function"
    },
    {
      "constant": true,
      "inputs": [],
      "name": "owner",
      "outputs": [
        {
          "name": "",
          "type": "address"
        }
      ],
      "payable": false,
      "stateMutability": "view",
      "type": "function"
    },
    {
      "constant": true,
      "inputs": [],
      "name": "isOwner",
      "outputs": [
        {
          "name": "",
          "type": "bool"
        }
      ],
      "payable": false,
      "stateMutability": "view",
      "type": "function"
    },
    {
      "constant": true,
      "inputs": [
        {
          "name": "suAddress",
          "type": "address"
        }
      ],
      "name": "isSuperUser",
      "outputs": [
        {
          "name": "",
          "type": "bool"
        }
      ],
      "payable": false,
      "stateMutability": "view",
      "type": "function"
    },
    {
      "constant": false,
      "inputs": [
        {
          "name": "newOwner",
          "type": "address"
        }
      ],
      "name": "transferOwnership",
      "outputs": [],
      "payable": false,
      "stateMutability": "nonpayable",
      "type": "function"
    },
    {
      "anonymous": false,
      "inputs": [
        {
          "indexed": true,
          "name": "perspectiveIdHash",
          "type": "bytes32"
        },
        {
          "indexed": true,
          "name": "contextHash",
          "type": "bytes32"
        },
        {
          "indexed": false,
          "name": "context",
          "type": "string"
        }
      ],
      "name": "PerspectiveDetailsSet",
      "type": "event"
    },
    {
      "anonymous": false,
      "inputs": [
        {
          "indexed": true,
          "name": "previousOwner",
          "type": "address"
        },
        {
          "indexed": true,
          "name": "newOwner",
          "type": "address"
        }
      ],
      "name": "OwnershipTransferred",
      "type": "event"
    },
    {
      "constant": false,
      "inputs": [
        {
          "name": "_uprtclRoot",
          "type": "address"
        }
      ],
      "name": "setUprtclRoot",
      "outputs": [],
      "payable": false,
      "stateMutability": "nonpayable",
      "type": "function"
    },
    {
      "constant": true,
      "inputs": [
        {
          "name": "context",
          "type": "string"
        }
      ],
      "name": "getContextHash",
      "outputs": [
        {
          "name": "contextHash",
          "type": "bytes32"
        }
      ],
      "payable": false,
      "stateMutability": "pure",
      "type": "function"
    },
    {
      "constant": false,
      "inputs": [
        {
          "name": "perspectiveIdHash",
          "type": "bytes32"
        },
        {
          "name": "context",
          "type": "string"
        }
      ],
      "name": "setPerspectiveDetails",
      "outputs": [],
      "payable": false,
      "stateMutability": "nonpayable",
      "type": "function"
    },
    {
      "constant": false,
      "inputs": [
        {
          "name": "perspectiveIdHash",
          "type": "bytes32"
        },
        {
          "name": "context",
          "type": "string"
        },
        {
          "name": "msgSender",
          "type": "address"
        }
      ],
      "name": "setPerspectiveDetailsSuperUser",
      "outputs": [],
      "payable": false,
      "stateMutability": "nonpayable",
      "type": "function"
    },
    {
      "constant": false,
      "inputs": [
        {
          "components": [
            {
              "components": [
                {
                  "name": "perspectiveId",
                  "type": "string"
                },
                {
                  "name": "headCid1",
                  "type": "bytes32"
                },
                {
                  "name": "headCid0",
                  "type": "bytes32"
                },
                {
                  "name": "owner",
                  "type": "address"
                }
              ],
              "name": "perspective",
              "type": "tuple"
            },
            {
              "name": "context",
              "type": "string"
            }
          ],
          "name": "perspectiveData",
          "type": "tuple"
        },
        {
          "name": "account",
          "type": "address"
        }
      ],
      "name": "initPerspective",
      "outputs": [],
      "payable": false,
      "stateMutability": "nonpayable",
      "type": "function"
    },
    {
      "constant": false,
      "inputs": [
        {
          "components": [
            {
              "components": [
                {
                  "name": "perspectiveId",
                  "type": "string"
                },
                {
                  "name": "headCid1",
                  "type": "bytes32"
                },
                {
                  "name": "headCid0",
                  "type": "bytes32"
                },
                {
                  "name": "owner",
                  "type": "address"
                }
              ],
              "name": "perspective",
              "type": "tuple"
            },
            {
              "name": "context",
              "type": "string"
            }
          ],
          "name": "perspectivesData",
          "type": "tuple[]"
        },
        {
          "name": "account",
          "type": "address"
        }
      ],
      "name": "initPerspectiveBatch",
      "outputs": [],
      "payable": false,
      "stateMutability": "nonpayable",
      "type": "function"
    }
  ],
  "bytecode": "0x608060405261001261005f60201b60201c565b600080546001600160a01b0319166001600160a01b03928316178082556040519216917f8be0079c531659141344cd1fd0a4f28419497f9722a3daafe3b4186f6b6457e0908290a3610063565b3390565b611183806100726000396000f3fe608060405234801561001057600080fd5b50600436106100b45760003560e01c8063a0c9eca311610071578063a0c9eca31461012f578063a931154714610142578063cd784d1b14610155578063cf886bab14610168578063e7d075991461017b578063f2fde38b1461019b576100b4565b806326d5ec01146100b957806345655b4e146100ce578063715018a6146100e15780637cce0117146100e95780638da5cb5b146100fc5780638f32d59b1461011a575b600080fd5b6100cc6100c7366004610be7565b6101ae565b005b6100cc6100dc366004610b00565b6101ef565b6100cc610241565b6100cc6100f7366004610c4c565b6102b2565b6101046102fb565b6040516101119190610f4a565b60405180910390f35b61012261030a565b6040516101119190610f80565b6100cc61013d366004610c9f565b61032e565b6100cc610150366004610b9f565b61042a565b610122610163366004610abc565b610439565b6100cc610176366004610b3a565b610457565b61018e610189366004610c6a565b61059e565b6040516101119190610f8e565b6100cc6101a9366004610abc565b6105ce565b6101b733610439565b6101df57604051600160e51b62461bcd0281526004016101d690610fcd565b60405180910390fd5b6101ea838383610601565b505050565b6101f761030a565b61021657604051600160e51b62461bcd0281526004016101d690610fed565b6001600160a01b03919091166000908152600160205260409020805460ff1916911515919091179055565b61024961030a565b61026857604051600160e51b62461bcd0281526004016101d690610fed565b600080546040516001600160a01b03909116907f8be0079c531659141344cd1fd0a4f28419497f9722a3daafe3b4186f6b6457e0908390a3600080546001600160a01b0319169055565b6102ba61030a565b6102d957604051600160e51b62461bcd0281526004016101d690610fed565b600280546001600160a01b0319166001600160a01b0392909216919091179055565b6000546001600160a01b031690565b600080546001600160a01b031661031f6106f5565b6001600160a01b031614905090565b60025460408051600160e31b6310d061ab02815290516000926001600160a01b0316916386830d58916004808301926020929190829003018186803b15801561037657600080fd5b505afa15801561038a573d6000803e3d6000fd5b505050506040513d601f19601f820116820180604052506103ae9190810190610b81565b9050801561042057600254604051600160e51b6302654acd0281526001600160a01b0390911690634ca959a0906103ed90859033908690600401610f58565b600060405180830381600087803b15801561040757600080fd5b505af115801561041b573d6000803e3d6000fd5b505050505b6101ea83836106f9565b610435828233610601565b5050565b6001600160a01b031660009081526001602052604090205460ff1690565b60008251905060006104f582600260009054906101000a90046001600160a01b03166001600160a01b031663b7b0ccde6040518163ffffffff1660e01b815260040160206040518083038186803b1580156104b157600080fd5b505afa1580156104c5573d6000803e3d6000fd5b505050506040513d601f19601f820116820180604052506104e99190810190610b81565b9063ffffffff6107f916565b9050801561056757600254604051600160e51b6302654acd0281526001600160a01b0390911690634ca959a09061053490869033908690600401610f58565b600060405180830381600087803b15801561054e57600080fd5b505af1158015610562573d6000803e3d6000fd5b505050505b60005b828110156105975761058f85828151811061058157fe5b6020026020010151856106f9565b60010161056a565b5050505050565b6000816040516020016105b19190610f37565b604051602081830303815290604052805190602001209050919050565b6105d661030a565b6105f557604051600160e51b62461bcd0281526004016101d690610fed565b6105fe8161083f565b50565b600254604051600160e01b631393bbf50281526001600160a01b03808416921690631393bbf590610636908790600401610f8e565b60206040518083038186803b15801561064e57600080fd5b505afa158015610662573d6000803e3d6000fd5b505050506040513d601f19601f820116820180604052506106869190810190610ae2565b6001600160a01b0316146106af57604051600160e51b62461bcd0281526004016101d690610fad565b6106b88261059e565b837f6c9aea0d74ee0825117310c02b08c081cb33d88db58edef5517d54b9cfabaacf846040516106e89190610f9c565b60405180910390a3505050565b3390565b6002548251604051600160e01b63c886170b0281526001600160a01b039092169163c886170b9161072e918590600401610ffd565b600060405180830381600087803b15801561074857600080fd5b505af115801561075c573d6000803e3d6000fd5b5050600254845151604051600160e01b63fc87de3902815261043594506001600160a01b03909216925063fc87de39916107999190600401610f9c565b60206040518083038186803b1580156107b157600080fd5b505afa1580156107c5573d6000803e3d6000fd5b505050506040513d601f19601f820116820180604052506107e99190810190610b81565b6020840151845160600151610601565b60008261080857506000610839565b8282028284828161081557fe5b041461083657604051600160e51b62461bcd0281526004016101d690610fdd565b90505b92915050565b6001600160a01b03811661086857604051600160e51b62461bcd0281526004016101d690610fbd565b600080546040516001600160a01b03808516939216917f8be0079c531659141344cd1fd0a4f28419497f9722a3daafe3b4186f6b6457e091a3600080546001600160a01b0319166001600160a01b0392909216919091179055565b80356108398161111a565b80516108398161111a565b600082601f8301126108ea57600080fd5b81356108fd6108f882611044565b61101d565b81815260209384019390925082018360005b8381101561093b578135860161092588826109c0565b845250602092830192919091019060010161090f565b5050505092915050565b80356108398161112e565b803561083981611137565b805161083981611137565b803561083981611140565b600082601f83011261098257600080fd5b81356109906108f882611065565b915080825260208301602083018583830111156109ac57600080fd5b6109b78382846110d4565b50505092915050565b6000604082840312156109d257600080fd5b6109dc604061101d565b9050813567ffffffffffffffff8111156109f557600080fd5b610a0184828501610a36565b825250602082013567ffffffffffffffff811115610a1e57600080fd5b610a2a84828501610971565b60208301525092915050565b600060808284031215610a4857600080fd5b610a52608061101d565b9050813567ffffffffffffffff811115610a6b57600080fd5b610a7784828501610971565b8252506020610a8884848301610950565b6020830152506040610a9c84828501610950565b6040830152506060610ab0848285016108c3565b60608301525092915050565b600060208284031215610ace57600080fd5b6000610ada84846108c3565b949350505050565b600060208284031215610af457600080fd5b6000610ada84846108ce565b60008060408385031215610b1357600080fd5b6000610b1f85856108c3565b9250506020610b3085828601610945565b9150509250929050565b60008060408385031215610b4d57600080fd5b823567ffffffffffffffff811115610b6457600080fd5b610b70858286016108d9565b9250506020610b30858286016108c3565b600060208284031215610b9357600080fd5b6000610ada848461095b565b60008060408385031215610bb257600080fd5b6000610bbe8585610950565b925050602083013567ffffffffffffffff811115610bdb57600080fd5b610b3085828601610971565b600080600060608486031215610bfc57600080fd5b6000610c088686610950565b935050602084013567ffffffffffffffff811115610c2557600080fd5b610c3186828701610971565b9250506040610c42868287016108c3565b9150509250925092565b600060208284031215610c5e57600080fd5b6000610ada8484610966565b600060208284031215610c7c57600080fd5b813567ffffffffffffffff811115610c9357600080fd5b610ada84828501610971565b60008060408385031215610cb257600080fd5b823567ffffffffffffffff811115610cc957600080fd5b610b70858286016109c0565b610cde816110c9565b82525050565b610cde8161109f565b610cde816110aa565b610cde816110af565b6000610d0a8261108d565b610d148185611091565b9350610d248185602086016110e0565b610d2d81611110565b9093019392505050565b6000610d428261108d565b610d4c818561109a565b9350610d5c8185602086016110e0565b9290920192915050565b6000610d73602c83611091565b7f64657461696c732063616e206f6e6c792062792073657420627920706572737081527f656374697665206f776e65720000000000000000000000000000000000000000602082015260400192915050565b6000610dd2602683611091565b7f4f776e61626c653a206e6577206f776e657220697320746865207a65726f20618152600160d01b6564647265737302602082015260400192915050565b6000610e1d602883611091565b7f486173537570657255736572733a2063616c6c6572206973206e6f74206120738152600160c11b673ab832b92ab9b2b902602082015260400192915050565b6000610e6a602183611091565b7f536166654d6174683a206d756c7469706c69636174696f6e206f766572666c6f8152600160f81b607702602082015260400192915050565b6000610eb0602083611091565b7f4f776e61626c653a2063616c6c6572206973206e6f7420746865206f776e6572815260200192915050565b8051608080845260009190840190610ef48282610cff565b9150506020830151610f096020860182610cf6565b506040830151610f1c6040860182610cf6565b506060830151610f2f6060860182610ce4565b509392505050565b6000610f438284610d37565b9392505050565b602081016108398284610ce4565b60608101610f668286610ce4565b610f736020830185610cd5565b610ada6040830184610cf6565b602081016108398284610ced565b602081016108398284610cf6565b60208082528101610f438184610cff565b6020808252810161083981610d66565b6020808252810161083981610dc5565b6020808252810161083981610e10565b6020808252810161083981610e5d565b6020808252810161083981610ea3565b6040808252810161100e8185610edc565b9050610f436020830184610ce4565b60405181810167ffffffffffffffff8111828210171561103c57600080fd5b604052919050565b600067ffffffffffffffff82111561105b57600080fd5b5060209081020190565b600067ffffffffffffffff82111561107c57600080fd5b506020601f91909101601f19160190565b5190565b90815260200190565b919050565b6000610839826110bd565b151590565b90565b60006108398261109f565b6001600160a01b031690565b6000610839826110b2565b82818337506000910152565b60005b838110156110fb5781810151838201526020016110e3565b8381111561110a576000848401525b50505050565b601f01601f191690565b6111238161109f565b81146105fe57600080fd5b611123816110aa565b611123816110af565b611123816110b256fea265627a7a72305820cb3eca385942e4f4ccfef1eef44d58654ff326e49cd06fe9c69bec78de621fcb6c6578706572696d656e74616cf50037",
  "source": "pragma solidity >=0.5.0 <0.6.0;\npragma experimental ABIEncoderV2;\n\nimport \"./UprtclRoot.sol\";\nimport \"./HasSuperUsers.sol\";\nimport \"./SafeMath.sol\";\n\ncontract UprtclDetails is HasSuperUsers {\n    using SafeMath for uint256;\n\n    struct InitPerspective {\n        UprtclRoot.NewPerspective perspective;\n        string context;\n    }\n\n    event PerspectiveDetailsSet (\n        bytes32 indexed perspectiveIdHash,\n        bytes32 indexed contextHash,\n        string context\n    );\n\n    UprtclRoot uprtclRoot;\n\n    function setUprtclRoot(UprtclRoot _uprtclRoot) public onlyOwner {\n        uprtclRoot = _uprtclRoot;\n    }\n\n    function getContextHash(string memory context) public pure returns (bytes32 contextHash) {\n        return keccak256(abi.encodePacked(context));\n    }\n\n    /** Adds a new perspective to the mapping and sets the owner. The head pointer and the context. */\n    function setPerspectiveDetailsInternal(\n        bytes32 perspectiveIdHash,\n        string memory context,\n        address sender\n    ) private {\n        require(uprtclRoot.getPerspectiveOwner(perspectiveIdHash) == sender, \"details can only by set by perspective owner\");\n\n        emit PerspectiveDetailsSet(\n            perspectiveIdHash,\n            getContextHash(context),\n            context\n        );\n    }\n\n    function setPerspectiveDetails(\n        bytes32 perspectiveIdHash,\n        string memory context\n    ) public {\n        setPerspectiveDetailsInternal(perspectiveIdHash, context, msg.sender);\n    }\n\n    function setPerspectiveDetailsSuperUser(\n        bytes32 perspectiveIdHash,\n        string memory context,\n        address msgSender\n    ) public onlySuperUser {\n        setPerspectiveDetailsInternal(perspectiveIdHash, context, msgSender);\n    }\n\n    function initPerspectiveInternal(InitPerspective memory perspectiveData, address account) private {\n        uprtclRoot.createPerspective(perspectiveData.perspective, account);\n\n        setPerspectiveDetailsInternal(\n            uprtclRoot.getPerspectiveIdHash(perspectiveData.perspective.perspectiveId),\n            perspectiveData.context,\n            perspectiveData.perspective.owner);\n    }\n\n    function initPerspective(\n        InitPerspective memory perspectiveData,\n        address account) public {\n\n        /** collect fee here */\n        uint256 fee = uprtclRoot.getAddFee();\n        if (fee > 0) {\n            uprtclRoot.consume(account, msg.sender, fee);\n        }\n\n        initPerspectiveInternal(perspectiveData, account);\n    }\n\n    function initPerspectiveBatch(InitPerspective[] memory perspectivesData, address account)\n        public\n    {\n        uint256 nPerspectives = perspectivesData.length;\n        uint256 fee = uprtclRoot.getUpdateFee().mul(nPerspectives);\n\n        if (fee > 0) {\n            uprtclRoot.consume(account, msg.sender, fee);\n        }\n\n        for (uint256 ix = 0; ix < nPerspectives; ix++) {\n            initPerspectiveInternal(perspectivesData[ix], account);\n        }\n    }\n\n}\n",
  "sourcePath": "/home/pepo/pr/uprtcl/eth-uprtcl/contracts/UprtclDetails.sol",
  "compiler": {
    "name": "solc",
    "version": "0.5.8+commit.23d335f2.Emscripten.clang"
  },
  "schemaVersion": "3.0.11",
  "updatedAt": "2020-04-19T13:53:28.733Z",
  "devdoc": {
    "methods": {
      "isOwner()": {
        "details": "Returns true if the caller is the current owner."
      },
      "owner()": {
        "details": "Returns the address of the current owner."
      },
      "renounceOwnership()": {
        "details": "Leaves the contract without owner. It will not be possible to call `onlyOwner` functions anymore. Can only be called by the current owner.     * NOTE: Renouncing ownership will leave the contract without an owner, thereby removing any functionality that is only available to the owner."
      },
      "transferOwnership(address)": {
        "details": "Transfers ownership of the contract to a new account (`newOwner`). Can only be called by the current owner."
      }
    }
  },
  "userdoc": {
    "methods": {}
  }
}