{
  "contractName": "UprtclProposals",
  "abi": [
    {
      "constant": true,
      "inputs": [],
      "name": "factor_num",
      "outputs": [
        {
          "name": "",
          "type": "uint256"
        }
      ],
      "payable": false,
      "stateMutability": "view",
      "type": "function"
    },
    {
      "constant": true,
      "inputs": [],
      "name": "minFee",
      "outputs": [
        {
          "name": "",
          "type": "uint256"
        }
      ],
      "payable": false,
      "stateMutability": "view",
      "type": "function"
    },
    {
      "constant": true,
      "inputs": [
        {
          "name": "",
          "type": "bytes32"
        }
      ],
      "name": "proposals",
      "outputs": [
        {
          "name": "toPerspectiveIdHash",
          "type": "bytes32"
        },
        {
          "name": "fromPerspectiveIdHash",
          "type": "bytes32"
        },
        {
          "name": "owner",
          "type": "address"
        },
        {
          "name": "status",
          "type": "uint8"
        },
        {
          "name": "authorized",
          "type": "uint8"
        }
      ],
      "payable": false,
      "stateMutability": "view",
      "type": "function"
    },
    {
      "constant": true,
      "inputs": [],
      "name": "factor_den",
      "outputs": [
        {
          "name": "",
          "type": "uint256"
        }
      ],
      "payable": false,
      "stateMutability": "view",
      "type": "function"
    },
    {
      "constant": false,
      "inputs": [],
      "name": "renounceOwnership",
      "outputs": [],
      "payable": false,
      "stateMutability": "nonpayable",
      "type": "function"
    },
    {
      "constant": true,
      "inputs": [],
      "name": "owner",
      "outputs": [
        {
          "name": "",
          "type": "address"
        }
      ],
      "payable": false,
      "stateMutability": "view",
      "type": "function"
    },
    {
      "constant": true,
      "inputs": [],
      "name": "isOwner",
      "outputs": [
        {
          "name": "",
          "type": "bool"
        }
      ],
      "payable": false,
      "stateMutability": "view",
      "type": "function"
    },
    {
      "constant": false,
      "inputs": [
        {
          "name": "newOwner",
          "type": "address"
        }
      ],
      "name": "transferOwnership",
      "outputs": [],
      "payable": false,
      "stateMutability": "nonpayable",
      "type": "function"
    },
    {
      "constant": true,
      "inputs": [
        {
          "name": "",
          "type": "address"
        }
      ],
      "name": "fees",
      "outputs": [
        {
          "name": "fee",
          "type": "uint256"
        },
        {
          "name": "balance",
          "type": "uint256"
        }
      ],
      "payable": false,
      "stateMutability": "view",
      "type": "function"
    },
    {
      "anonymous": false,
      "inputs": [
        {
          "indexed": true,
          "name": "toPerspectiveIdHash",
          "type": "bytes32"
        },
        {
          "indexed": true,
          "name": "fromPerspectiveIdHash",
          "type": "bytes32"
        },
        {
          "indexed": false,
          "name": "nonce",
          "type": "uint32"
        },
        {
          "indexed": true,
          "name": "proposalId",
          "type": "bytes32"
        }
      ],
      "name": "ProposalCreated",
      "type": "event"
    },
    {
      "anonymous": false,
      "inputs": [
        {
          "indexed": true,
          "name": "previousOwner",
          "type": "address"
        },
        {
          "indexed": true,
          "name": "newOwner",
          "type": "address"
        }
      ],
      "name": "OwnershipTransferred",
      "type": "event"
    },
    {
      "constant": false,
      "inputs": [
        {
          "name": "_uprtclRoot",
          "type": "address"
        }
      ],
      "name": "setUprtclRoot",
      "outputs": [],
      "payable": false,
      "stateMutability": "nonpayable",
      "type": "function"
    },
    {
      "constant": true,
      "inputs": [
        {
          "name": "toPerspectiveIdHash",
          "type": "bytes32"
        },
        {
          "name": "fromPerspectiveIdHash",
          "type": "bytes32"
        },
        {
          "name": "nonce",
          "type": "uint32"
        }
      ],
      "name": "getProposalId",
      "outputs": [
        {
          "name": "proposalId",
          "type": "bytes32"
        }
      ],
      "payable": false,
      "stateMutability": "pure",
      "type": "function"
    },
    {
      "constant": false,
      "inputs": [
        {
          "name": "_minFee",
          "type": "uint256"
        }
      ],
      "name": "setMinFee",
      "outputs": [],
      "payable": false,
      "stateMutability": "nonpayable",
      "type": "function"
    },
    {
      "constant": false,
      "inputs": [
        {
          "name": "_factor_num",
          "type": "uint256"
        }
      ],
      "name": "setFactorNum",
      "outputs": [],
      "payable": false,
      "stateMutability": "nonpayable",
      "type": "function"
    },
    {
      "constant": false,
      "inputs": [
        {
          "name": "_factor_den",
          "type": "uint256"
        }
      ],
      "name": "setFactorDen",
      "outputs": [],
      "payable": false,
      "stateMutability": "nonpayable",
      "type": "function"
    },
    {
      "constant": false,
      "inputs": [
        {
          "name": "toPerspectiveIdHash",
          "type": "bytes32"
        },
        {
          "name": "fromPerspectiveIdHash",
          "type": "bytes32"
        },
        {
          "name": "owner",
          "type": "address"
        },
        {
          "name": "nonce",
          "type": "uint32"
        },
        {
          "components": [
            {
              "name": "perspectiveIdHash",
              "type": "bytes32"
            },
            {
              "name": "headCid0",
              "type": "bytes32"
            },
            {
              "name": "headCid1",
              "type": "bytes32"
            },
            {
              "name": "executed",
              "type": "uint8"
            }
          ],
          "name": "headUpdates",
          "type": "tuple[]"
        },
        {
          "name": "approvedAddresses",
          "type": "address[]"
        },
        {
          "name": "account",
          "type": "address"
        }
      ],
      "name": "initProposal",
      "outputs": [],
      "payable": false,
      "stateMutability": "nonpayable",
      "type": "function"
    },
    {
      "constant": false,
      "inputs": [
        {
          "name": "proposalId",
          "type": "bytes32"
        },
        {
          "components": [
            {
              "name": "perspectiveIdHash",
              "type": "bytes32"
            },
            {
              "name": "headCid0",
              "type": "bytes32"
            },
            {
              "name": "headCid1",
              "type": "bytes32"
            },
            {
              "name": "executed",
              "type": "uint8"
            }
          ],
          "name": "headUpdates",
          "type": "tuple[]"
        }
      ],
      "name": "addUpdatesToProposal",
      "outputs": [],
      "payable": false,
      "stateMutability": "nonpayable",
      "type": "function"
    },
    {
      "constant": false,
      "inputs": [
        {
          "name": "proposalId",
          "type": "bytes32"
        },
        {
          "name": "status",
          "type": "uint8"
        }
      ],
      "name": "setProposalStatus",
      "outputs": [],
      "payable": false,
      "stateMutability": "nonpayable",
      "type": "function"
    },
    {
      "constant": false,
      "inputs": [
        {
          "name": "proposalId",
          "type": "bytes32"
        },
        {
          "name": "authorized",
          "type": "uint8"
        }
      ],
      "name": "setProposalAuthorized",
      "outputs": [],
      "payable": false,
      "stateMutability": "nonpayable",
      "type": "function"
    },
    {
      "constant": false,
      "inputs": [
        {
          "name": "proposalId",
          "type": "bytes32"
        },
        {
          "name": "account",
          "type": "address"
        }
      ],
      "name": "executeProposal",
      "outputs": [],
      "payable": false,
      "stateMutability": "nonpayable",
      "type": "function"
    },
    {
      "constant": false,
      "inputs": [
        {
          "name": "proposalId",
          "type": "bytes32"
        },
        {
          "name": "indexes",
          "type": "uint256[]"
        },
        {
          "name": "account",
          "type": "address"
        }
      ],
      "name": "executeProposalPartially",
      "outputs": [],
      "payable": false,
      "stateMutability": "nonpayable",
      "type": "function"
    },
    {
      "constant": true,
      "inputs": [
        {
          "name": "proposalId",
          "type": "bytes32"
        }
      ],
      "name": "getProposal",
      "outputs": [
        {
          "components": [
            {
              "name": "toPerspectiveIdHash",
              "type": "bytes32"
            },
            {
              "name": "fromPerspectiveIdHash",
              "type": "bytes32"
            },
            {
              "name": "owner",
              "type": "address"
            },
            {
              "components": [
                {
                  "name": "perspectiveIdHash",
                  "type": "bytes32"
                },
                {
                  "name": "headCid0",
                  "type": "bytes32"
                },
                {
                  "name": "headCid1",
                  "type": "bytes32"
                },
                {
                  "name": "executed",
                  "type": "uint8"
                }
              ],
              "name": "headUpdates",
              "type": "tuple[]"
            },
            {
              "name": "approvedAddresses",
              "type": "address[]"
            },
            {
              "name": "status",
              "type": "uint8"
            },
            {
              "name": "authorized",
              "type": "uint8"
            }
          ],
          "name": "proposal",
          "type": "tuple"
        }
      ],
      "payable": false,
      "stateMutability": "view",
      "type": "function"
    }
  ],
  "bytecode": "0x608060405261001261005f60201b60201c565b600080546001600160a01b0319166001600160a01b03928316178082556040519216917f8be0079c531659141344cd1fd0a4f28419497f9722a3daafe3b4186f6b6457e0908290a3610063565b3390565b612318806100726000396000f3fe608060405234801561001057600080fd5b50600436106101375760003560e01c8063715018a6116100b8578063971a294f1161007c578063971a294f146102675780639eb788c51461027a578063f18251f11461028d578063f2fde38b146102a0578063faaebd21146102b3578063ff3433d4146102d457610137565b8063715018a61461020f5780637cce0117146102175780638517f68a1461022a5780638da5cb5b1461023d5780638f32d59b1461025257610137565b806331ac9920116100ff57806331ac99201461019d57806332ed5b12146101b057806339eacf34146101d4578063430694cf146101e757806352f386cb1461020757610137565b806305196b9d1461013c5780630de4cb191461015a57806314a3d07e1461016f57806324ec75901461018257806326d50df11461018a575b600080fd5b6101446102e7565b6040516101519190612019565b60405180910390f35b61016d610168366004611735565b6102ed565b005b61016d61017d36600461183a565b610322565b61014461066f565b61016d61019836600461178d565b610675565b61016d6101ab366004611735565b6109a4565b6101c36101be366004611735565b6109d0565b604051610151959493929190612027565b61016d6101e2366004611949565b610a0d565b6101fa6101f5366004611735565b610a62565b6040516101519190612189565b610144610baa565b61016d610bb0565b61016d610225366004611979565b610c21565b61016d6102383660046117d5565b610c6a565b610245610c7b565b6040516101519190611f97565b61025a610c8b565b604051610151919061200b565b61016d610275366004611735565b610caf565b61016d610288366004611753565b610cdb565b61016d61029b366004611949565b610e24565b61016d6102ae3660046116f1565b610e95565b6102c66102c13660046116f1565b610ec8565b60405161015192919061219a565b6101446102e2366004611906565b610ee1565b60045481565b6102f5610c8b565b61031d57604051600160e51b62461bcd02815260040161031490612169565b60405180910390fd5b600455565b600654604051600160e01b631393bbf50281526000916001600160a01b031690631393bbf590610356908b90600401612019565b60206040518083038186803b15801561036e57600080fd5b505afa158015610382573d6000803e3d6000fd5b505050506040513d601f19601f820116820180604052506103a69190810190611717565b6001600160a01b0381166000908152600260205260409020549091508061043f576003541561043a57600654600354604051600160e51b6302654acd0281526001600160a01b0390921691634ca959a0916104079187913391600401611fe3565b600060405180830381600087803b15801561042157600080fd5b505af1158015610435573d6000803e3d6000fd5b505050505b610585565b600061046860055461045c60045485610f1790919063ffffffff16565b9063ffffffff610f5d16565b9050600061049960055461045c61048c600454600554610f9f90919063ffffffff16565b869063ffffffff610f1716565b60035490915082908110156104ad57506003545b600654604051600160e01b636556cd050281526001600160a01b0390911690636556cd05906104e690899033908a908890600401611fa5565b600060405180830381600087803b15801561050057600080fd5b505af1158015610514573d6000803e3d6000fd5b5050600654604051600160e51b6302654acd0281526001600160a01b039091169250634ca959a0915061054f90899033908690600401611fe3565b600060405180830381600087803b15801561056957600080fd5b505af115801561057d573d6000803e3d6000fd5b505050505050505b60006105928a8a89610ee1565b60008181526001602052604090206002810154919250906001600160a01b0316156105d257604051600160e51b62461bcd02815260040161031490612139565b8a8155600181018a90556002810180546001600160a01b0319166001600160a01b038b16179055855161060e90600483019060208901906113f4565b5060058101805460ff191660011790556106288288610675565b818a8c7f4e4f243275b3821e2e3408990d60d6fc7d067a530f86ae67627a25ec835b01ec8b60405161065a91906121b5565b60405180910390a45050505050505050505050565b60035481565b600082815260016020526040902060028101546001600160a01b03166106b057604051600160e51b62461bcd02815260040161031490612109565b600581015460ff166106d757604051600160e51b62461bcd02815260040161031490612179565b6040805160e08101825282548152600183015460208083019190915260028401546001600160a01b0316828401526003840180548451818402810184019095528085526000946108149493879360608601939091889084015b82821015610787576000848152602090819020604080516080810182526004860290920180548352600180820154848601526002820154928401929092526003015460ff1660608301529083529092019101610730565b505050508152602001600482018054806020026020016040519081016040528092919081815260200182805480156107e857602002820191906000526020600020905b81546001600160a01b031681526001909101906020018083116107ca575b50505091835250506005919091015460ff80821660208401526101009091041660409091015233610fe1565b60ff161161083757604051600160e51b62461bcd02815260040161031490612129565b60005b82518160ff16101561099e5761084e611459565b838260ff168151811061085d57fe5b60200260200101519050806060015160ff1660001461089157604051600160e51b62461bcd028152600401610314906120d9565b60028301546006548251604051600160e01b631393bbf50281526001600160a01b039384169390921691631393bbf5916108cd91600401612019565b60206040518083038186803b1580156108e557600080fd5b505afa1580156108f9573d6000803e3d6000fd5b505050506040513d601f19601f8201168201806040525061091d9190810190611717565b6001600160a01b03161461094657604051600160e51b62461bcd028152600401610314906120c9565b60038381018054600180820183556000928352602092839020855160049093020191825591840151818301556040840151600282015560609093015192909101805460ff191660ff909316929092179091550161083a565b50505050565b6109ac610c8b565b6109cb57604051600160e51b62461bcd02815260040161031490612169565b600355565b6001602081905260009182526040909120805491810154600282015460059092015490916001600160a01b03169060ff8082169161010090041685565b600082815260016020526040902060028101546001600160a01b03163314610a4a57604051600160e51b62461bcd028152600401610314906120b9565b600501805460ff191660ff9290921691909117905550565b610a6a611480565b6000828152600160208181526040808420815160e08101835281548152938101548484015260028101546001600160a01b0316848301526003810180548351818602810186019094528084529495919460608701949192909184015b82821015610b1d576000848152602090819020604080516080810182526004860290920180548352600180820154848601526002820154928401929092526003015460ff1660608301529083529092019101610ac6565b50505050815260200160048201805480602002602001604051908101604052809291908181526020018280548015610b7e57602002820191906000526020600020905b81546001600160a01b03168152600190910190602001808311610b60575b50505091835250506005919091015460ff80821660208401526101009091041660409091015292915050565b60055481565b610bb8610c8b565b610bd757604051600160e51b62461bcd02815260040161031490612169565b600080546040516001600160a01b03909116907f8be0079c531659141344cd1fd0a4f28419497f9722a3daafe3b4186f6b6457e0908390a3600080546001600160a01b0319169055565b610c29610c8b565b610c4857604051600160e51b62461bcd02815260040161031490612169565b600680546001600160a01b0319166001600160a01b0392909216919091179055565b610c7683833384611062565b505050565b6000546001600160a01b03165b90565b600080546001600160a01b0316610ca0611301565b6001600160a01b031614905090565b610cb7610c8b565b610cd657604051600160e51b62461bcd02815260040161031490612169565b600555565b6000828152600160208181526040808420815160e08101835281548152938101548484015260028101546001600160a01b031684830152600381018054835181860281018601909452808452919594610d92949093879360608601939192889084018215610787576000848152602090819020604080516080810182526004860290920180548352600180820154848601526002820154928401929092526003015460ff1660608301529083529092019101610730565b60ff1611610db557604051600160e51b62461bcd02815260040161031490612129565b60038101546040805182815260208084028201019091526060918015610de5578160200160208202803883390190505b50905060005b6003830154811015610e175780828281518110610e0457fe5b6020908102919091010152600101610deb565b5061099e84823386611062565b600082815260016020526040902060028101546001600160a01b03163314610e6157604051600160e51b62461bcd028152600401610314906120f9565b60ff821615610e775760058101805460ff191690555b600501805460ff9092166101000261ff001990921691909117905550565b610e9d610c8b565b610ebc57604051600160e51b62461bcd02815260040161031490612169565b610ec581611305565b50565b6002602052600090815260409020805460019091015482565b6000838383604051602001610ef893929190611f60565b6040516020818303038152906040528051906020012090509392505050565b600082610f2657506000610f57565b82820282848281610f3357fe5b0414610f5457604051600160e51b62461bcd02815260040161031490612149565b90505b92915050565b6000610f5483836040518060400160405280601a81526020017f536166654d6174683a206469766973696f6e206279207a65726f000000000000815250611389565b6000610f5483836040518060400160405280601e81526020017f536166654d6174683a207375627472616374696f6e206f766572666c6f7700008152506113c5565b600082608001515160001415610ff957506001610f57565b60005b8360800151518163ffffffff1610156110585783608001518163ffffffff168151811061102557fe5b60200260200101516001600160a01b0316836001600160a01b03161415611050575060019050610f57565b600101610ffc565b5060009392505050565b60008481526001602052604090206005810154610100900460ff1661109c57604051600160e51b62461bcd02815260040161031490612159565b6040805160e08101825282548152600183015460208083019190915260028401546001600160a01b0316828401526003840180548451818402810184019095528085526000946111d99493879360608601939091889084015b8282101561114c576000848152602090819020604080516080810182526004860290920180548352600180820154848601526002820154928401929092526003015460ff16606083015290835290920191016110f5565b505050508152602001600482018054806020026020016040519081016040528092919081815260200182805480156111ad57602002820191906000526020600020905b81546001600160a01b0316815260019091019060200180831161118f575b50505091835250506005919091015460ff80821660208401526101009091041660409091015285610fe1565b60ff16116111fc57604051600160e51b62461bcd02815260040161031490612129565b60005b84518110156112f95760008260030186838151811061121a57fe5b60200260200101518154811061122c57fe5b60009182526020909120600490910201600381015490915060ff161561126757604051600160e51b62461bcd02815260040161031490612119565b60038101805460ff191660019081179091556006548254918301546002840154604051600160e31b6301d4f0fd0281526001600160a01b0390931693630ea787e8936112ba939192908a90600401612073565b600060405180830381600087803b1580156112d457600080fd5b505af11580156112e8573d6000803e3d6000fd5b5050600190930192506111ff915050565b505050505050565b3390565b6001600160a01b03811661132e57604051600160e51b62461bcd028152600401610314906120e9565b600080546040516001600160a01b03808516939216917f8be0079c531659141344cd1fd0a4f28419497f9722a3daafe3b4186f6b6457e091a3600080546001600160a01b0319166001600160a01b0392909216919091179055565b600081836113ad57604051600160e51b62461bcd02815260040161031491906120a8565b5060008385816113b957fe5b049150505b9392505050565b600081848411156113ec57604051600160e51b62461bcd02815260040161031491906120a8565b505050900390565b828054828255906000526020600020908101928215611449579160200282015b8281111561144957825182546001600160a01b0319166001600160a01b03909116178255602090920191600190910190611414565b506114559291506114bb565b5090565b60408051608081018252600080825260208201819052918101829052606081019190915290565b6040805160e0810182526000808252602082018190529181018290526060808201819052608082015260a0810182905260c081019190915290565b610c8891905b808211156114555780546001600160a01b03191681556001016114c1565b8035610f57816122a6565b8051610f57816122a6565b600082601f83011261150657600080fd5b8135611519611514826121ea565b6121c3565b9150818183526020840193506020810190508385602084028201111561153e57600080fd5b60005b8381101561156a578161155488826114df565b8452506020928301929190910190600101611541565b5050505092915050565b600082601f83011261158557600080fd5b8135611593611514826121ea565b915081818352602084019350602081019050838560808402820111156115b857600080fd5b60005b8381101561156a57816115ce888261166c565b845250602090920191608091909101906001016115bb565b600082601f8301126115f757600080fd5b8135611605611514826121ea565b9150818183526020840193506020810190508385602084028201111561162a57600080fd5b60005b8381101561156a57816116408882611656565b845250602092830192919091019060010161162d565b8035610f57816122ba565b8035610f57816122c3565b60006080828403121561167e57600080fd5b61168860806121c3565b905060006116968484611656565b82525060206116a784848301611656565b60208301525060406116bb84828501611656565b60408301525060606116cf848285016116e6565b60608301525092915050565b8035610f57816122cc565b8035610f57816122d5565b60006020828403121561170357600080fd5b600061170f84846114df565b949350505050565b60006020828403121561172957600080fd5b600061170f84846114ea565b60006020828403121561174757600080fd5b600061170f8484611656565b6000806040838503121561176657600080fd5b60006117728585611656565b9250506020611783858286016114df565b9150509250929050565b600080604083850312156117a057600080fd5b60006117ac8585611656565b925050602083013567ffffffffffffffff8111156117c957600080fd5b61178385828601611574565b6000806000606084860312156117ea57600080fd5b60006117f68686611656565b935050602084013567ffffffffffffffff81111561181357600080fd5b61181f868287016115e6565b9250506040611830868287016114df565b9150509250925092565b600080600080600080600060e0888a03121561185557600080fd5b60006118618a8a611656565b97505060206118728a828b01611656565b96505060406118838a828b016114df565b95505060606118948a828b016116db565b945050608088013567ffffffffffffffff8111156118b157600080fd5b6118bd8a828b01611574565b93505060a088013567ffffffffffffffff8111156118da57600080fd5b6118e68a828b016114f5565b92505060c06118f78a828b016114df565b91505092959891949750929550565b60008060006060848603121561191b57600080fd5b60006119278686611656565b935050602061193886828701611656565b9250506040611830868287016116db565b6000806040838503121561195c57600080fd5b60006119688585611656565b9250506020611783858286016116e6565b60006020828403121561198b57600080fd5b600061170f8484611661565b60006119a383836119ce565b505060200190565b60006119b78383611e57565b505060800190565b6119c881612254565b82525050565b6119c88161221e565b60006119e282612211565b6119ec8185612215565b93506119f78361220b565b8060005b83811015611a25578151611a0f8882611997565b9750611a1a8361220b565b9250506001016119fb565b509495945050505050565b6000611a3b82612211565b611a458185612215565b9350611a508361220b565b8060005b83811015611a25578151611a6888826119ab565b9750611a738361220b565b925050600101611a54565b6119c881612229565b6119c881610c88565b6119c8611a9c82610c88565b610c88565b6000611aac82612211565b611ab68185612215565b9350611ac681856020860161225f565b611acf81612296565b9093019392505050565b6000611ae6602c83612215565b7f50726f706f73616c207374617475732063616e206f6e6c7920627920736574208152600160a11b6b313c9034ba399037bbb732b902602082015260400192915050565b6000611b37603783612215565b7f70726f706f73616c2063616e206f6e6c792073746f726520706572737065637481527f69766573206f776e656420627920697473206f776e6572000000000000000000602082015260400192915050565b6000611b96602a83612215565b7f68656164207570646174652065786563757465642070726f7065727479206d758152600160b01b697374206265207a65726f02602082015260400192915050565b6000611be5602683612215565b7f4f776e61626c653a206e6577206f776e657220697320746865207a65726f20618152600160d01b6564647265737302602082015260400192915050565b6000611c30602c83612215565b7f50726f706f73616c2063616e206f6e6c7920627920617574686f72697a6564208152600160a11b6b313c9034ba399037bbb732b902602082015260400192915050565b6000611c81601283612215565b7f70726f706f73616c206e6f7420666f756e640000000000000000000000000000815260200192915050565b6000611cba601c83612215565b7f686561642075706461746520616c726561647920657865637574656400000000815260200192915050565b6000611cf3602283612215565b7f6d73672e73656e646572206e6f7420616e20617070726f7665642061646472658152600160f01b61737302602082015260400192915050565b6000611d3a601683612215565b7f70726f706f73616c20616c726561647920657869737400000000000000000000815260200192915050565b6000611d73602183612215565b7f536166654d6174683a206d756c7469706c69636174696f6e206f766572666c6f8152600160f81b607702602082015260400192915050565b6000611db9601783612215565b7f50726f706f73616c206e6f7420617574686f72697a6564000000000000000000815260200192915050565b6000611df2602083612215565b7f4f776e61626c653a2063616c6c6572206973206e6f7420746865206f776e6572815260200192915050565b6000611e2b601b83612215565b7f70726f706f73616c207374617475732069732064697361626c65640000000000815260200192915050565b80516080830190611e688482611a87565b506020820151611e7b6020850182611a87565b506040820151611e8e6040850182611a87565b50606082015161099e6060850182611f57565b805160009060e0840190611eb58582611a87565b506020830151611ec86020860182611a87565b506040830151611edb60408601826119ce565b5060608301518482036060860152611ef38282611a30565b91505060808301518482036080860152611f0d82826119d7565b91505060a0830151611f2260a0860182611f57565b5060c0830151611f3560c0860182611f57565b509392505050565b6119c881612245565b6119c8611f5282612245565b61228b565b6119c88161224e565b6000611f6c8286611a90565b602082019150611f7c8285611a90565b602082019150611f8c8284611f46565b506004019392505050565b60208101610f5782846119ce565b60808101611fb382876119ce565b611fc060208301866119bf565b611fcd60408301856119ce565b611fda6060830184611a87565b95945050505050565b60608101611ff182866119ce565b611ffe60208301856119bf565b61170f6040830184611a87565b60208101610f578284611a7e565b60208101610f578284611a87565b60a081016120358288611a87565b6120426020830187611a87565b61204f60408301866119ce565b61205c6060830185611f57565b6120696080830184611f57565b9695505050505050565b608081016120818287611a87565b61208e6020830186611a87565b61209b6040830185611a87565b611fda60608301846119ce565b60208082528101610f548184611aa1565b60208082528101610f5781611ad9565b60208082528101610f5781611b2a565b60208082528101610f5781611b89565b60208082528101610f5781611bd8565b60208082528101610f5781611c23565b60208082528101610f5781611c74565b60208082528101610f5781611cad565b60208082528101610f5781611ce6565b60208082528101610f5781611d2d565b60208082528101610f5781611d66565b60208082528101610f5781611dac565b60208082528101610f5781611de5565b60208082528101610f5781611e1e565b60208082528101610f548184611ea1565b604081016121a88285611a87565b6113be6020830184611a87565b60208101610f578284611f3d565b60405181810167ffffffffffffffff811182821017156121e257600080fd5b604052919050565b600067ffffffffffffffff82111561220157600080fd5b5060209081020190565b60200190565b5190565b90815260200190565b6000610f5782612239565b151590565b6000610f578261221e565b6001600160a01b031690565b63ffffffff1690565b60ff1690565b6000610f578261222e565b60005b8381101561227a578181015183820152602001612262565b8381111561099e5750506000910152565b6000610f57826122a0565b601f01601f191690565b60e01b90565b6122af8161221e565b8114610ec557600080fd5b6122af81610c88565b6122af8161222e565b6122af81612245565b6122af8161224e56fea265627a7a72305820aea7ef8e8d81dc16aa0f353157d609d379850cb8940c685c32780ce716ae82fb6c6578706572696d656e74616cf50037",
  "source": "pragma solidity >=0.5.0 <0.6.0;\npragma experimental ABIEncoderV2;\n\nimport \"./UprtclRoot.sol\";\nimport \"./SafeMath.sol\";\n\ncontract UprtclProposals is Ownable {\n\n    using SafeMath for uint256;\n\n    struct HeadUpdate {\n        bytes32 perspectiveIdHash;\n        bytes32 headCid0;\n        bytes32 headCid1;\n        uint8 executed;\n    }\n\n    struct Proposal {\n        bytes32 toPerspectiveIdHash;\n        bytes32 fromPerspectiveIdHash;\n        address owner;\n        HeadUpdate[] headUpdates;\n        address[] approvedAddresses;\n        uint8 status;\n        uint8 authorized;\n    }\n\n    struct OwnerFees {\n        uint256 fee;\n        uint256 balance;\n    }\n\n    mapping(bytes32 => Proposal) public proposals;\n    mapping(address => OwnerFees) public fees;\n    \n    uint256 public minFee;\n    uint256 public factor_num;\n    uint256 public factor_den;\n\n    UprtclRoot uprtclRoot;\n\n    event ProposalCreated(\n        bytes32 indexed toPerspectiveIdHash,\n        bytes32 indexed fromPerspectiveIdHash,\n        uint32 nonce,\n        bytes32 indexed proposalId\n    );\n\n    function setUprtclRoot(UprtclRoot _uprtclRoot) public onlyOwner {\n        uprtclRoot = _uprtclRoot;\n    }\n\n    function getProposalId(\n        bytes32 toPerspectiveIdHash,\n        bytes32 fromPerspectiveIdHash,\n        uint32 nonce\n    ) public pure returns (bytes32 proposalId) {\n        proposalId = keccak256(\n            abi.encodePacked(toPerspectiveIdHash, fromPerspectiveIdHash, nonce)\n        );\n    }\n\n    function setMinFee(uint256 _minFee) public onlyOwner {\n        minFee = _minFee;\n    }\n\n    function setFactorNum(uint256 _factor_num) public onlyOwner {\n        factor_num = _factor_num;\n    }\n\n    function setFactorDen(uint256 _factor_den) public onlyOwner {\n        factor_den = _factor_den;\n    }\n\n    function initProposal(\n        bytes32 toPerspectiveIdHash,\n        bytes32 fromPerspectiveIdHash,\n        address owner,\n        uint32 nonce,\n        HeadUpdate[] memory headUpdates,\n        address[] memory approvedAddresses,\n        address account\n    ) public {\n        \n        address perspOwner = uprtclRoot.getPerspectiveOwner(toPerspectiveIdHash);\n        uint256 perspFee = fees[perspOwner].fee;\n\n        if (perspFee == 0) {\n            /** charge only min fee */\n            if (minFee > 0) {\n                uprtclRoot.consume(account, msg.sender, minFee);\n            }\n        } else {\n            /** charge fee and transfer to perspOwner, keep a fraction to us */\n            uint256 feeUprtcl = perspFee.mul(factor_num).div(factor_den);\n            uint256 feeOwner = perspFee.mul(factor_den.sub(factor_num)).div(factor_den);\n\n            uint256 feeUprtclActual = feeUprtcl;\n            if (feeUprtcl < minFee) {\n                feeUprtclActual = minFee;\n            }\n\n            uprtclRoot.transferTo(account, msg.sender, perspOwner, feeOwner);\n            uprtclRoot.consume(account, msg.sender, feeUprtclActual);\n        }\n\n        bytes32 proposalId = getProposalId(\n            toPerspectiveIdHash,\n            fromPerspectiveIdHash,\n            nonce\n        );\n\n        /** make sure the proposal does not exist */\n        Proposal storage proposal = proposals[proposalId];\n        require(proposal.owner == address(0), \"proposal already exist\");\n\n        proposal.toPerspectiveIdHash = toPerspectiveIdHash;\n        proposal.fromPerspectiveIdHash = fromPerspectiveIdHash;\n        proposal.owner = owner;\n        proposal.approvedAddresses = approvedAddresses;\n        proposal.status = 1;\n\n        addUpdatesToProposal(proposalId, headUpdates);\n\n        emit ProposalCreated(\n            toPerspectiveIdHash,\n            fromPerspectiveIdHash,\n            nonce,\n            proposalId\n        );\n    }\n\n    function isApproved(Proposal memory proposal, address value)\n        private\n        pure\n        returns (uint8 approved)\n    {\n\t\tif (proposal.approvedAddresses.length == 0) {\n\t\t\tapproved = 1;\n\t\t\treturn approved;\n\t\t}\n\n        for (uint32 ix = 0; ix < proposal.approvedAddresses.length; ix++) {\n            if (value == proposal.approvedAddresses[ix]) {\n                approved = 1;\n                return approved;\n            }\n        }\n        approved = 0;\n    }\n\n    /** Add one or more headUpdate elements to an existing proposal */\n    function addUpdatesToProposal(\n        bytes32 proposalId,\n        HeadUpdate[] memory headUpdates\n    ) public {\n        Proposal storage proposal = proposals[proposalId];\n\n        /** make sure the proposal is open for new elements */\n        require(proposal.owner != address(0), \"proposal not found\");\n        require(proposal.status != 0, \"proposal status is disabled\");\n        require(\n            isApproved(proposal, msg.sender) > 0,\n            \"msg.sender not an approved address\"\n        );\n\n        for (uint8 ix = 0; ix < headUpdates.length; ix++) {\n            HeadUpdate memory headUpdate = headUpdates[ix];\n            require(\n                headUpdate.executed == 0,\n                \"head update executed property must be zero\"\n            );\n            require(\n                uprtclRoot.getPerspectiveOwner(headUpdate.perspectiveIdHash) == proposal.owner,\n                \"proposal can only store perspectives owned by its owner\"\n            );\n            proposal.headUpdates.push(headUpdate);\n        }\n    }\n\n    function setProposalStatus(bytes32 proposalId, uint8 status) public {\n        Proposal storage proposal = proposals[proposalId];\n        require(\n            msg.sender == proposal.owner,\n            \"Proposal status can only by set by its owner\"\n        );\n        proposal.status = status;\n    }\n\n    function setProposalAuthorized(bytes32 proposalId, uint8 authorized) public {\n        Proposal storage proposal = proposals[proposalId];\n        require(\n            msg.sender == proposal.owner,\n            \"Proposal can only by authorized by its owner\"\n        );\n        /** by default the proposal is closed once it is authorized. */\n        if (authorized > 0) proposal.status = 0;\n        proposal.authorized = authorized;\n    }\n\n    function executeProposal(bytes32 proposalId, address account) public {\n        Proposal storage proposal = proposals[proposalId];\n\n        /** Check the msg.sender is an approved address */\n        require(\n            isApproved(proposal, msg.sender) > 0,\n            \"msg.sender not an approved address\"\n        );\n\n        uint256[] memory indexes = new uint256[](proposal.headUpdates.length);\n        for (uint256 ix = 0; ix < proposal.headUpdates.length; ix++) {\n            indexes[ix] = ix;\n        }\n\n        executeProposalPartiallyInternal(proposalId, indexes, msg.sender, account);\n    }\n\n    function executeProposalPartially(\n        bytes32 proposalId,\n        uint256[] memory indexes,\n        address account\n    ) public {\n        executeProposalPartiallyInternal(proposalId, indexes, msg.sender, account);\n    }\n\n    function executeProposalPartiallyInternal(\n        bytes32 proposalId,\n        uint256[] memory indexes,\n        address msgSender,\n        address account\n    ) private {\n        Proposal storage proposal = proposals[proposalId];\n        require(proposal.authorized != 0, \"Proposal not authorized\");\n\n        require(\n            isApproved(proposal, msgSender) > 0,\n            \"msg.sender not an approved address\"\n        );\n\n        for (uint256 ix = 0; ix < indexes.length; ix++) {\n            HeadUpdate storage headUpdate = proposal.headUpdates[indexes[ix]];\n\n            require(headUpdate.executed == 0, \"head update already executed\");\n            headUpdate.executed = 1;\n\n            uprtclRoot.updateHead(headUpdate.perspectiveIdHash, headUpdate.headCid0, headUpdate.headCid1, account);\n        }\n    }\n\n    function getProposal(bytes32 proposalId)\n        public\n        view\n        returns (Proposal memory proposal)\n    {\n        return (proposals[proposalId]);\n    }\n}\n",
  "sourcePath": "/home/pepo/pr/uprtcl/eth-uprtcl/contracts/UprtclProposals.sol",
  "compiler": {
    "name": "solc",
    "version": "0.5.8+commit.23d335f2.Emscripten.clang"
  },
  "schemaVersion": "3.0.11",
  "updatedAt": "2020-02-27T12:07:58.781Z",
  "devdoc": {
    "methods": {
      "isOwner()": {
        "details": "Returns true if the caller is the current owner."
      },
      "owner()": {
        "details": "Returns the address of the current owner."
      },
      "renounceOwnership()": {
        "details": "Leaves the contract without owner. It will not be possible to call `onlyOwner` functions anymore. Can only be called by the current owner.     * NOTE: Renouncing ownership will leave the contract without an owner, thereby removing any functionality that is only available to the owner."
      },
      "transferOwnership(address)": {
        "details": "Transfers ownership of the contract to a new account (`newOwner`). Can only be called by the current owner."
      }
    }
  },
  "userdoc": {
    "methods": {
      "addUpdatesToProposal(bytes32,(bytes32,bytes32,bytes32,uint8)[])": {
        "notice": "Add one or more headUpdate elements to an existing proposal "
      }
    }
  }
}