{
  "contractName": "UprtclDetails",
  "abi": [
    {
      "anonymous": false,
      "inputs": [
        {
          "indexed": true,
          "internalType": "address",
          "name": "previousOwner",
          "type": "address"
        },
        {
          "indexed": true,
          "internalType": "address",
          "name": "newOwner",
          "type": "address"
        }
      ],
      "name": "OwnershipTransferred",
      "type": "event"
    },
    {
      "anonymous": false,
      "inputs": [
        {
          "indexed": true,
          "internalType": "bytes32",
          "name": "perspectiveIdHash",
          "type": "bytes32"
        },
        {
          "indexed": true,
          "internalType": "bytes32",
          "name": "contextHash",
          "type": "bytes32"
        }
      ],
      "name": "PerspectiveDetailsSet",
      "type": "event"
    },
    {
      "constant": true,
      "inputs": [],
      "name": "isOwner",
      "outputs": [
        {
          "internalType": "bool",
          "name": "",
          "type": "bool"
        }
      ],
      "payable": false,
      "stateMutability": "view",
      "type": "function"
    },
    {
      "constant": true,
      "inputs": [],
      "name": "owner",
      "outputs": [
        {
          "internalType": "address payable",
          "name": "",
          "type": "address"
        }
      ],
      "payable": false,
      "stateMutability": "view",
      "type": "function"
    },
    {
      "constant": true,
      "inputs": [
        {
          "internalType": "bytes32",
          "name": "",
          "type": "bytes32"
        }
      ],
      "name": "perspectivesDetails",
      "outputs": [
        {
          "internalType": "string",
          "name": "name",
          "type": "string"
        },
        {
          "internalType": "string",
          "name": "context",
          "type": "string"
        }
      ],
      "payable": false,
      "stateMutability": "view",
      "type": "function"
    },
    {
      "constant": false,
      "inputs": [],
      "name": "renounceOwnership",
      "outputs": [],
      "payable": false,
      "stateMutability": "nonpayable",
      "type": "function"
    },
    {
      "constant": false,
      "inputs": [
        {
          "internalType": "address payable",
          "name": "newOwner",
          "type": "address"
        }
      ],
      "name": "transferOwnership",
      "outputs": [],
      "payable": false,
      "stateMutability": "nonpayable",
      "type": "function"
    },
    {
      "constant": false,
      "inputs": [
        {
          "internalType": "contract UprtclRoot",
          "name": "_uprtclRoot",
          "type": "address"
        }
      ],
      "name": "setUprtclRoot",
      "outputs": [],
      "payable": false,
      "stateMutability": "nonpayable",
      "type": "function"
    },
    {
      "constant": false,
      "inputs": [
        {
          "internalType": "bytes32",
          "name": "perspectiveIdHash",
          "type": "bytes32"
        },
        {
          "components": [
            {
              "internalType": "string",
              "name": "name",
              "type": "string"
            },
            {
              "internalType": "string",
              "name": "context",
              "type": "string"
            }
          ],
          "internalType": "struct UprtclDetails.PerspectiveDetails",
          "name": "newDetails",
          "type": "tuple"
        }
      ],
      "name": "setPerspectiveDetails",
      "outputs": [],
      "payable": false,
      "stateMutability": "nonpayable",
      "type": "function"
    },
    {
      "constant": true,
      "inputs": [
        {
          "internalType": "bytes32",
          "name": "perspectiveIdHash",
          "type": "bytes32"
        }
      ],
      "name": "getPerspectiveDetails",
      "outputs": [
        {
          "internalType": "string",
          "name": "name",
          "type": "string"
        },
        {
          "internalType": "string",
          "name": "context",
          "type": "string"
        }
      ],
      "payable": false,
      "stateMutability": "view",
      "type": "function"
    },
    {
      "constant": false,
      "inputs": [
        {
          "components": [
            {
              "internalType": "string",
              "name": "perspectiveId",
              "type": "string"
            },
            {
              "internalType": "bytes32",
              "name": "headCid1",
              "type": "bytes32"
            },
            {
              "internalType": "bytes32",
              "name": "headCid0",
              "type": "bytes32"
            },
            {
              "internalType": "address",
              "name": "owner",
              "type": "address"
            }
          ],
          "internalType": "struct UprtclRoot.NewPerspective",
          "name": "newPerspective",
          "type": "tuple"
        },
        {
          "components": [
            {
              "internalType": "string",
              "name": "name",
              "type": "string"
            },
            {
              "internalType": "string",
              "name": "context",
              "type": "string"
            }
          ],
          "internalType": "struct UprtclDetails.PerspectiveDetails",
          "name": "newDetails",
          "type": "tuple"
        },
        {
          "internalType": "address",
          "name": "account",
          "type": "address"
        }
      ],
      "name": "initPerspective",
      "outputs": [],
      "payable": false,
      "stateMutability": "nonpayable",
      "type": "function"
    }
  ],
  "bytecode": "0x60806040526100156001600160e01b0361006216565b600080546001600160a01b0319166001600160a01b03928316178082556040519216917f8be0079c531659141344cd1fd0a4f28419497f9722a3daafe3b4186f6b6457e0908290a3610066565b3390565b6111a6806100756000396000f3fe608060405234801561001057600080fd5b50600436106100935760003560e01c80638da5cb5b116100665780638da5cb5b146100f25780638f32d59b14610107578063c08b985d1461011c578063cf29e9691461012f578063f2fde38b1461014257610093565b8063172e3b4714610098578063715018a6146100ad57806376914ecf146100b55780637cce0117146100df575b600080fd5b6100ab6100a6366004610ce2565b610155565b005b6100ab61033b565b6100c86100c3366004610c36565b6103b2565b6040516100d6929190610fe7565b60405180910390f35b6100ab6100ed366004610cc4565b61051b565b6100fa610561565b6040516100d69190610f84565b61010f610571565b6040516100d69190610fba565b6100ab61012a366004610c72565b610595565b6100c861013d366004610c36565b6105a4565b6100ab610150366004610c18565b6106de565b600254604080516310d061ab60e31b815290516000926001600160a01b0316916386830d58916004808301926020929190829003018186803b15801561019a57600080fd5b505afa1580156101ae573d6000803e3d6000fd5b505050506040513d601f19601f820116820180604052506101d29190810190610c54565b90508015610241576002546040516302654acd60e51b81526001600160a01b0390911690634ca959a09061020e90859033908690600401610f92565b600060405180830381600087803b15801561022857600080fd5b505af115801561023c573d6000803e3d6000fd5b505050505b60025460405163c886170b60e01b81526001600160a01b039091169063c886170b90610273908790869060040161103c565b600060405180830381600087803b15801561028d57600080fd5b505af11580156102a1573d6000803e3d6000fd5b5050600254865160405163fc87de3960e01b815261033594506001600160a01b03909216925063fc87de39916102da9190600401610fd6565b60206040518083038186803b1580156102f257600080fd5b505afa158015610306573d6000803e3d6000fd5b505050506040513d601f19601f8201168201806040525061032a9190810190610c54565b84866060015161070e565b50505050565b610343610571565b6103685760405162461bcd60e51b815260040161035f9061102c565b60405180910390fd5b600080546040516001600160a01b03909116907f8be0079c531659141344cd1fd0a4f28419497f9722a3daafe3b4186f6b6457e0908390a3600080546001600160a01b0319169055565b6060806103bd61093e565b6000848152600160208181526040928390208351815460029481161561010002600019011693909304601f8101839004909202830160609081018552938301828152929390928492909184919084018282801561045b5780601f106104305761010080835404028352916020019161045b565b820191906000526020600020905b81548152906001019060200180831161043e57829003601f168201915b50505050508152602001600182018054600181600116156101000203166002900480601f0160208091040260200160405190810160405280929190818152602001828054600181600116156101000203166002900480156104fd5780601f106104d2576101008083540402835291602001916104fd565b820191906000526020600020905b8154815290600101906020018083116104e057829003601f168201915b50505091909252505081516020909201519194509092505050915091565b610523610571565b61053f5760405162461bcd60e51b815260040161035f9061102c565b600280546001600160a01b0319166001600160a01b0392909216919091179055565b6000546001600160a01b03165b90565b600080546001600160a01b03166105866108b9565b6001600160a01b031614905090565b6105a082823361070e565b5050565b60016020818152600092835260409283902080548451600294821615610100026000190190911693909304601f81018390048302840183019094528383529283918301828280156106365780601f1061060b57610100808354040283529160200191610636565b820191906000526020600020905b81548152906001019060200180831161061957829003601f168201915b505050505090806001018054600181600116156101000203166002900480601f0160208091040260200160405190810160405280929190818152602001828054600181600116156101000203166002900480156106d45780601f106106a9576101008083540402835291602001916106d4565b820191906000526020600020905b8154815290600101906020018083116106b757829003601f168201915b5050505050905082565b6106e6610571565b6107025760405162461bcd60e51b815260040161035f9061102c565b61070b816108bd565b50565b600254604051631393bbf560e01b81526001600160a01b03808416921690631393bbf590610740908790600401610fc8565b60206040518083038186803b15801561075857600080fd5b505afa15801561076c573d6000803e3d6000fd5b505050506040513d601f19601f820116820180604052506107909190810190610bf2565b6001600160a01b0316146107b65760405162461bcd60e51b815260040161035f9061100c565b60008381526001602090815260409091208351805191926107dc92849290910190610958565b5060208084015180516107f59260018501920190610958565b508060016000868152602001908152602001600020600082018160000190805460018160011615610100020316600290046108319291906109d6565b50600182018160010190805460018160011615610100020316600290046108599291906109d6565b505060405161087091506001830190602001610f71565b60405160208183030381529060405280519060200120847f54d694087b2b7af3574607f1c7957f264e43dae2cd138a793dc22d407fac002b60405160405180910390a350505050565b3390565b6001600160a01b0381166108e35760405162461bcd60e51b815260040161035f9061101c565b600080546040516001600160a01b03808516939216917f8be0079c531659141344cd1fd0a4f28419497f9722a3daafe3b4186f6b6457e091a3600080546001600160a01b0319166001600160a01b0392909216919091179055565b604051806040016040528060608152602001606081525090565b828054600181600116156101000203166002900490600052602060002090601f016020900481019282601f1061099957805160ff19168380011785556109c6565b828001600101855582156109c6579182015b828111156109c65782518255916020019190600101906109ab565b506109d2929150610a4b565b5090565b828054600181600116156101000203166002900490600052602060002090601f016020900481019282601f10610a0f57805485556109c6565b828001600101855582156109c657600052602060002091601f016020900482015b828111156109c6578254825591600101919060010190610a30565b61056e91905b808211156109d25760008155600101610a51565b8035610a708161113d565b92915050565b8051610a708161113d565b8035610a7081611151565b8051610a7081611151565b8035610a708161115a565b600082601f830112610ab357600080fd5b8135610ac6610ac182611083565b61105c565b91508082526020830160208301858383011115610ae257600080fd5b610aed8382846110fb565b50505092915050565b600060808284031215610b0857600080fd5b610b12608061105c565b9050813567ffffffffffffffff811115610b2b57600080fd5b610b3784828501610aa2565b8252506020610b4884848301610a81565b6020830152506040610b5c84828501610a81565b6040830152506060610b7084828501610a65565b60608301525092915050565b600060408284031215610b8e57600080fd5b610b98604061105c565b9050813567ffffffffffffffff811115610bb157600080fd5b610bbd84828501610aa2565b825250602082013567ffffffffffffffff811115610bda57600080fd5b610be684828501610aa2565b60208301525092915050565b600060208284031215610c0457600080fd5b6000610c108484610a76565b949350505050565b600060208284031215610c2a57600080fd5b6000610c108484610a65565b600060208284031215610c4857600080fd5b6000610c108484610a81565b600060208284031215610c6657600080fd5b6000610c108484610a8c565b60008060408385031215610c8557600080fd5b6000610c918585610a81565b925050602083013567ffffffffffffffff811115610cae57600080fd5b610cba85828601610b7c565b9150509250929050565b600060208284031215610cd657600080fd5b6000610c108484610a97565b600080600060608486031215610cf757600080fd5b833567ffffffffffffffff811115610d0e57600080fd5b610d1a86828701610af6565b935050602084013567ffffffffffffffff811115610d3757600080fd5b610d4386828701610b7c565b9250506040610d5486828701610a65565b9150509250925092565b610d67816110f0565b82525050565b610d67816110c9565b610d67816110d4565b610d678161056e565b6000610d93826110b7565b610d9d81856110bb565b9350610dad818560208601611107565b610db681611133565b9093019392505050565b600081546001811660008114610ddd5760018114610e0057610e3f565b607f6002830416610dee81876110c4565b60ff1984168152955085019250610e3f565b60028204610e0e81876110c4565b9550610e19856110ab565b60005b82811015610e3857815488820152600190910190602001610e1c565b5050850192505b505092915050565b6000610e54602c836110bb565b7f64657461696c732063616e206f6e6c792062792073657420627920706572737081526b32b1ba34bb329037bbb732b960a11b602082015260400192915050565b6000610ea26026836110bb565b7f4f776e61626c653a206e6577206f776e657220697320746865207a65726f206181526564647265737360d01b602082015260400192915050565b6000610eea6020836110bb565b7f4f776e61626c653a2063616c6c6572206973206e6f7420746865206f776e6572815260200192915050565b8051608080845260009190840190610f2e8282610d88565b9150506020830151610f436020860182610d7f565b506040830151610f566040860182610d7f565b506060830151610f696060860182610d6d565b509392505050565b6000610f7d8284610dc0565b9392505050565b60208101610a708284610d6d565b60608101610fa08286610d6d565b610fad6020830185610d5e565b610c106040830184610d7f565b60208101610a708284610d76565b60208101610a708284610d7f565b60208082528101610f7d8184610d88565b60408082528101610ff88185610d88565b90508181036020830152610c108184610d88565b60208082528101610a7081610e47565b60208082528101610a7081610e95565b60208082528101610a7081610edd565b6040808252810161104d8185610f16565b9050610f7d6020830184610d6d565b60405181810167ffffffffffffffff8111828210171561107b57600080fd5b604052919050565b600067ffffffffffffffff82111561109a57600080fd5b506020601f91909101601f19160190565b60009081526020902090565b5190565b90815260200190565b919050565b6000610a70826110e4565b151590565b6000610a70826110c9565b6001600160a01b031690565b6000610a70826110d9565b82818337506000910152565b60005b8381101561112257818101518382015260200161110a565b838111156103355750506000910152565b601f01601f191690565b611146816110c9565b811461070b57600080fd5b6111468161056e565b611146816110d956fea365627a7a72315820131875d1d15e28159c5a7f0204ab1c16ddcbe873690840da4a858460bb6991ca6c6578706572696d656e74616cf564736f6c63430005100040",
  "source": "pragma solidity >=0.5.0 <0.6.0;\npragma experimental ABIEncoderV2;\n\nimport \"./UprtclRoot.sol\";\nimport \"./Ownable.sol\";\n\ncontract UprtclDetails is Ownable {\n\n    struct PerspectiveDetails {\n        string name;\n        string context;\n    }\n\n    event PerspectiveDetailsSet (\n        bytes32 indexed perspectiveIdHash,\n        bytes32 indexed contextHash\n    );\n\n    mapping(bytes32 => PerspectiveDetails) public perspectivesDetails;\n\n    UprtclRoot uprtclRoot;\n\n    function setUprtclRoot(UprtclRoot _uprtclRoot) public onlyOwner {\n        uprtclRoot = _uprtclRoot;\n    }\n\n    /** Adds a new perspective to the mapping and sets the owner. The head pointer and the context. */\n    function setPerspectiveDetailsInternal(\n        bytes32 perspectiveIdHash,\n        PerspectiveDetails memory newDetails,\n        address sender\n    ) private {\n        require(uprtclRoot.getPerspectiveOwner(perspectiveIdHash) == sender, \"details can only by set by perspective owner\");\n\n        PerspectiveDetails storage details = perspectivesDetails[perspectiveIdHash];\n\n        details.name = newDetails.name;\n        details.context = newDetails.context;\n\n        perspectivesDetails[perspectiveIdHash] = details;\n\n        emit PerspectiveDetailsSet(\n            perspectiveIdHash,\n            keccak256(abi.encodePacked(details.context))\n        );\n    }\n\n    function setPerspectiveDetails(\n        bytes32 perspectiveIdHash,\n        PerspectiveDetails memory newDetails\n    ) public {\n        setPerspectiveDetailsInternal(perspectiveIdHash, newDetails, msg.sender);\n    }\n\n    function getPerspectiveDetails(bytes32 perspectiveIdHash) public view returns (string memory name, string memory context) {\n        PerspectiveDetails memory details = perspectivesDetails[perspectiveIdHash];\n        return (details.name, details.context);\n    }\n\n    function initPerspective(\n        UprtclRoot.NewPerspective memory newPerspective,\n        PerspectiveDetails memory newDetails,\n        address account) public {\n\n        /** collect fee here */\n        uint256 fee = uprtclRoot.getAddFee();\n        if (fee > 0) {\n            uprtclRoot.consume(account, msg.sender, fee);\n        }\n\n        uprtclRoot.createPerspective(newPerspective, account);\n        \n        setPerspectiveDetailsInternal(\n            uprtclRoot.getPerspectiveIdHash(newPerspective.perspectiveId),\n            newDetails,\n            newPerspective.owner);\n    }\n\n}\n",
  "sourcePath": "/home/pepo/pr/uprtcl/eth-uprtcl/contracts/UprtclDetails.sol",
  "compiler": {
    "name": "solc",
    "version": "0.5.16+commit.9c3226ce.Emscripten.clang"
  },
  "schemaVersion": "3.0.11",
  "updatedAt": "2020-02-27T17:32:37.367Z",
  "devdoc": {
    "methods": {
      "isOwner()": {
        "details": "Returns true if the caller is the current owner."
      },
      "owner()": {
        "details": "Returns the address of the current owner."
      },
      "renounceOwnership()": {
        "details": "Leaves the contract without owner. It will not be possible to call `onlyOwner` functions anymore. Can only be called by the current owner.     * NOTE: Renouncing ownership will leave the contract without an owner, thereby removing any functionality that is only available to the owner."
      },
      "transferOwnership(address)": {
        "details": "Transfers ownership of the contract to a new account (`newOwner`). Can only be called by the current owner."
      }
    }
  },
  "userdoc": {
    "methods": {}
  }
}