{
  "contractName": "UprtclProposals",
  "abi": [
    {
      "constant": true,
      "inputs": [],
      "name": "factor_num",
      "outputs": [
        {
          "name": "",
          "type": "uint256"
        }
      ],
      "payable": false,
      "stateMutability": "view",
      "type": "function"
    },
    {
      "constant": true,
      "inputs": [],
      "name": "minFee",
      "outputs": [
        {
          "name": "",
          "type": "uint256"
        }
      ],
      "payable": false,
      "stateMutability": "view",
      "type": "function"
    },
    {
      "constant": true,
      "inputs": [
        {
          "name": "",
          "type": "bytes32"
        }
      ],
      "name": "proposals",
      "outputs": [
        {
          "name": "toPerspectiveId",
          "type": "string"
        },
        {
          "name": "fromPerspectiveId",
          "type": "string"
        },
        {
          "name": "owner",
          "type": "address"
        },
        {
          "name": "nonce",
          "type": "uint256"
        },
        {
          "name": "status",
          "type": "uint8"
        },
        {
          "name": "authorized",
          "type": "uint8"
        }
      ],
      "payable": false,
      "stateMutability": "view",
      "type": "function"
    },
    {
      "constant": false,
      "inputs": [
        {
          "name": "suAddress",
          "type": "address"
        },
        {
          "name": "value",
          "type": "bool"
        }
      ],
      "name": "setSuperUser",
      "outputs": [],
      "payable": false,
      "stateMutability": "nonpayable",
      "type": "function"
    },
    {
      "constant": true,
      "inputs": [],
      "name": "factor_den",
      "outputs": [
        {
          "name": "",
          "type": "uint256"
        }
      ],
      "payable": false,
      "stateMutability": "view",
      "type": "function"
    },
    {
      "constant": false,
      "inputs": [],
      "name": "renounceOwnership",
      "outputs": [],
      "payable": false,
      "stateMutability": "nonpayable",
      "type": "function"
    },
    {
      "constant": true,
      "inputs": [],
      "name": "owner",
      "outputs": [
        {
          "name": "",
          "type": "address"
        }
      ],
      "payable": false,
      "stateMutability": "view",
      "type": "function"
    },
    {
      "constant": true,
      "inputs": [],
      "name": "isOwner",
      "outputs": [
        {
          "name": "",
          "type": "bool"
        }
      ],
      "payable": false,
      "stateMutability": "view",
      "type": "function"
    },
    {
      "constant": true,
      "inputs": [
        {
          "name": "suAddress",
          "type": "address"
        }
      ],
      "name": "isSuperUser",
      "outputs": [
        {
          "name": "",
          "type": "bool"
        }
      ],
      "payable": false,
      "stateMutability": "view",
      "type": "function"
    },
    {
      "constant": false,
      "inputs": [
        {
          "name": "newOwner",
          "type": "address"
        }
      ],
      "name": "transferOwnership",
      "outputs": [],
      "payable": false,
      "stateMutability": "nonpayable",
      "type": "function"
    },
    {
      "constant": true,
      "inputs": [
        {
          "name": "",
          "type": "address"
        }
      ],
      "name": "fees",
      "outputs": [
        {
          "name": "fee",
          "type": "uint256"
        },
        {
          "name": "balance",
          "type": "uint256"
        }
      ],
      "payable": false,
      "stateMutability": "view",
      "type": "function"
    },
    {
      "anonymous": false,
      "inputs": [
        {
          "indexed": true,
          "name": "toPerspectiveIdHash",
          "type": "bytes32"
        },
        {
          "indexed": true,
          "name": "fromPerspectiveIdHash",
          "type": "bytes32"
        },
        {
          "indexed": true,
          "name": "proposalId",
          "type": "bytes32"
        },
        {
          "indexed": false,
          "name": "creator",
          "type": "address"
        }
      ],
      "name": "ProposalCreated",
      "type": "event"
    },
    {
      "anonymous": false,
      "inputs": [
        {
          "indexed": true,
          "name": "previousOwner",
          "type": "address"
        },
        {
          "indexed": true,
          "name": "newOwner",
          "type": "address"
        }
      ],
      "name": "OwnershipTransferred",
      "type": "event"
    },
    {
      "constant": false,
      "inputs": [
        {
          "name": "_uprtclRoot",
          "type": "address"
        }
      ],
      "name": "setUprtclRoot",
      "outputs": [],
      "payable": false,
      "stateMutability": "nonpayable",
      "type": "function"
    },
    {
      "constant": true,
      "inputs": [
        {
          "name": "toPerspectiveId",
          "type": "string"
        },
        {
          "name": "fromPerspectiveId",
          "type": "string"
        },
        {
          "name": "nonce",
          "type": "uint256"
        }
      ],
      "name": "getProposalId",
      "outputs": [
        {
          "name": "proposalId",
          "type": "bytes32"
        }
      ],
      "payable": false,
      "stateMutability": "pure",
      "type": "function"
    },
    {
      "constant": false,
      "inputs": [
        {
          "name": "_minFee",
          "type": "uint256"
        }
      ],
      "name": "setMinFee",
      "outputs": [],
      "payable": false,
      "stateMutability": "nonpayable",
      "type": "function"
    },
    {
      "constant": false,
      "inputs": [
        {
          "name": "_factor_num",
          "type": "uint256"
        }
      ],
      "name": "setFactorNum",
      "outputs": [],
      "payable": false,
      "stateMutability": "nonpayable",
      "type": "function"
    },
    {
      "constant": false,
      "inputs": [
        {
          "name": "_factor_den",
          "type": "uint256"
        }
      ],
      "name": "setFactorDen",
      "outputs": [],
      "payable": false,
      "stateMutability": "nonpayable",
      "type": "function"
    },
    {
      "constant": false,
      "inputs": [
        {
          "components": [
            {
              "name": "toPerspectiveId",
              "type": "string"
            },
            {
              "name": "fromPerspectiveId",
              "type": "string"
            },
            {
              "name": "owner",
              "type": "address"
            },
            {
              "name": "nonce",
              "type": "uint256"
            },
            {
              "components": [
                {
                  "name": "perspectiveIdHash",
                  "type": "bytes32"
                },
                {
                  "name": "headCid1",
                  "type": "bytes32"
                },
                {
                  "name": "headCid0",
                  "type": "bytes32"
                },
                {
                  "name": "executed",
                  "type": "uint8"
                }
              ],
              "name": "headUpdates",
              "type": "tuple[]"
            },
            {
              "name": "approvedAddresses",
              "type": "address[]"
            }
          ],
          "name": "newProposal",
          "type": "tuple"
        },
        {
          "name": "account",
          "type": "address"
        }
      ],
      "name": "initProposal",
      "outputs": [],
      "payable": false,
      "stateMutability": "nonpayable",
      "type": "function"
    },
    {
      "constant": false,
      "inputs": [
        {
          "name": "proposalId",
          "type": "bytes32"
        },
        {
          "components": [
            {
              "name": "perspectiveIdHash",
              "type": "bytes32"
            },
            {
              "name": "headCid1",
              "type": "bytes32"
            },
            {
              "name": "headCid0",
              "type": "bytes32"
            },
            {
              "name": "executed",
              "type": "uint8"
            }
          ],
          "name": "headUpdates",
          "type": "tuple[]"
        }
      ],
      "name": "addUpdatesToProposal",
      "outputs": [],
      "payable": false,
      "stateMutability": "nonpayable",
      "type": "function"
    },
    {
      "constant": false,
      "inputs": [
        {
          "name": "proposalId",
          "type": "bytes32"
        },
        {
          "name": "status",
          "type": "uint8"
        }
      ],
      "name": "setProposalStatus",
      "outputs": [],
      "payable": false,
      "stateMutability": "nonpayable",
      "type": "function"
    },
    {
      "constant": false,
      "inputs": [
        {
          "name": "proposalId",
          "type": "bytes32"
        },
        {
          "name": "authorized",
          "type": "uint8"
        },
        {
          "name": "execute",
          "type": "bool"
        },
        {
          "name": "msgSender",
          "type": "address"
        }
      ],
      "name": "authorizeProposalSuperUser",
      "outputs": [],
      "payable": false,
      "stateMutability": "nonpayable",
      "type": "function"
    },
    {
      "constant": false,
      "inputs": [
        {
          "name": "proposalId",
          "type": "bytes32"
        },
        {
          "name": "authorized",
          "type": "uint8"
        },
        {
          "name": "execute",
          "type": "bool"
        }
      ],
      "name": "authorizeProposal",
      "outputs": [],
      "payable": false,
      "stateMutability": "nonpayable",
      "type": "function"
    },
    {
      "constant": false,
      "inputs": [
        {
          "name": "proposalId",
          "type": "bytes32"
        }
      ],
      "name": "executeProposalExternal",
      "outputs": [],
      "payable": false,
      "stateMutability": "nonpayable",
      "type": "function"
    },
    {
      "constant": false,
      "inputs": [
        {
          "name": "proposalId",
          "type": "bytes32"
        },
        {
          "name": "indexes",
          "type": "uint256[]"
        }
      ],
      "name": "executeProposalPartially",
      "outputs": [],
      "payable": false,
      "stateMutability": "nonpayable",
      "type": "function"
    },
    {
      "constant": true,
      "inputs": [
        {
          "name": "proposalId",
          "type": "bytes32"
        }
      ],
      "name": "getProposal",
      "outputs": [
        {
          "components": [
            {
              "name": "toPerspectiveId",
              "type": "string"
            },
            {
              "name": "fromPerspectiveId",
              "type": "string"
            },
            {
              "name": "owner",
              "type": "address"
            },
            {
              "name": "nonce",
              "type": "uint256"
            },
            {
              "components": [
                {
                  "name": "perspectiveIdHash",
                  "type": "bytes32"
                },
                {
                  "name": "headCid1",
                  "type": "bytes32"
                },
                {
                  "name": "headCid0",
                  "type": "bytes32"
                },
                {
                  "name": "executed",
                  "type": "uint8"
                }
              ],
              "name": "headUpdates",
              "type": "tuple[]"
            },
            {
              "name": "approvedAddresses",
              "type": "address[]"
            },
            {
              "name": "status",
              "type": "uint8"
            },
            {
              "name": "authorized",
              "type": "uint8"
            }
          ],
          "name": "proposal",
          "type": "tuple"
        }
      ],
      "payable": false,
      "stateMutability": "view",
      "type": "function"
    }
  ],
  "bytecode": "0x608060405261001261005f60201b60201c565b600080546001600160a01b0319166001600160a01b03928316178082556040519216917f8be0079c531659141344cd1fd0a4f28419497f9722a3daafe3b4186f6b6457e0908290a3610063565b3390565b612e62806100726000396000f3fe608060405234801561001057600080fd5b50600436106101585760003560e01c8063641591af116100c357806395f720a41161007c57806395f720a4146102c2578063971a294f146102d5578063bb61de30146102e8578063cd784d1b146102fb578063f2fde38b1461030e578063faaebd211461032157610158565b8063641591af14610257578063715018a61461026a5780637a9700e2146102725780637cce0117146102855780638da5cb5b146102985780638f32d59b146102ad57610158565b806331ac99201161011557806331ac9920146101d157806332ed5b12146101e457806339eacf3414610209578063430694cf1461021c57806345655b4e1461023c57806352f386cb1461024f57610158565b806305196b9d1461015d5780630de4cb191461017b578063158215d31461019057806324ec7590146101a357806326d50df1146101ab5780632bc3ed3a146101be575b600080fd5b610165610342565b6040516101729190612b28565b60405180910390f35b61018e61018936600461219c565b610348565b005b61018e61019e366004612220565b61037d565b61016561038c565b61018e6101b93660046121d8565b610392565b6101656101cc366004612364565b61080d565b61018e6101df36600461219c565b610843565b6101f76101f236600461219c565b61086f565b60405161017296959493929190612b7c565b61018e610217366004612268565b6109d2565b61022f61022a36600461219c565b610a29565b6040516101729190612cc2565b61018e61024a366004612162565b610cc0565b610165610d12565b61018e610265366004612298565b610d18565b61018e610d29565b61018e61028036600461219c565b610d9a565b61018e610293366004612346565b610da7565b6102a0610df0565b6040516101729190612aa6565b6102b5610e00565b6040516101729190612b1a565b61018e6102d03660046123d6565b610e24565b61018e6102e336600461219c565b611340565b61018e6102f63660046122e5565b61136c565b6102b561030936600461211e565b6113a0565b61018e61031c36600461211e565b6113be565b61033461032f36600461211e565b6113ee565b604051610172929190612cd3565b60055481565b610350610e00565b61037857604051600160e51b62461bcd02815260040161036f90612ca2565b60405180910390fd5b600555565b610388828233611407565b5050565b60045481565b6000828152600260208190526040909120908101546001600160a01b03166103cf57604051600160e51b62461bcd02815260040161036f90612c32565b600681015460ff166103f657604051600160e51b62461bcd02815260040161036f90612cb2565b60408051825460206002610100600184161581026000190190931604601f8101829004909102830161012090810190945290820181815260009361067b9392869284929091849184018282801561048e5780601f106104635761010080835404028352916020019161048e565b820191906000526020600020905b81548152906001019060200180831161047157829003601f168201915b50505050508152602001600182018054600181600116156101000203166002900480601f0160208091040260200160405190810160405280929190818152602001828054600181600116156101000203166002900480156105305780601f1061050557610100808354040283529160200191610530565b820191906000526020600020905b81548152906001019060200180831161051357829003601f168201915b505050505081526020016002820160009054906101000a90046001600160a01b03166001600160a01b03166001600160a01b031681526020016003820154815260200160048201805480602002602001604051908101604052809291908181526020016000905b828210156105ee576000848152602090819020604080516080810182526004860290920180548352600180820154848601526002820154928401929092526003015460ff1660608301529083529092019101610597565b5050505081526020016005820180548060200260200160405190810160405280929190818152602001828054801561064f57602002820191906000526020600020905b81546001600160a01b03168152600190910190602001808311610631575b50505091835250506006919091015460ff808216602084015261010090910416604090910152336117ee565b60ff161161069e57604051600160e51b62461bcd02815260040161036f90612c62565b60005b82518160ff161015610807576106b5611bb2565b838260ff16815181106106c457fe5b60200260200101519050806060015160ff166000146106f857604051600160e51b62461bcd02815260040161036f90612c02565b60028301546007548251604051600160e01b631393bbf50281526001600160a01b039384169390921691631393bbf59161073491600401612b28565b60206040518083038186803b15801561074c57600080fd5b505afa158015610760573d6000803e3d6000fd5b505050506040513d601f19601f820116820180604052506107849190810190612144565b6001600160a01b0316146107ad57604051600160e51b62461bcd02815260040161036f90612bf2565b600483810180546001808201835560009283526020928390208551929094029093019081559083015181830155604083015160028201556060909201516003909201805460ff191660ff90931692909217909155016106a1565b50505050565b600083838360405160200161082493929190612a69565b6040516020818303038152906040528051906020012090509392505050565b61084b610e00565b61086a57604051600160e51b62461bcd02815260040161036f90612ca2565b600455565b600260208181526000928352604092839020805484516001821615610100026000190190911693909304601f81018390048302840183019094528383529283918301828280156109005780601f106108d557610100808354040283529160200191610900565b820191906000526020600020905b8154815290600101906020018083116108e357829003601f168201915b505050505090806001018054600181600116156101000203166002900480601f01602080910402602001604051908101604052809291908181526020018280546001816001161561010002031660029004801561099e5780601f106109735761010080835404028352916020019161099e565b820191906000526020600020905b81548152906001019060200180831161098157829003601f168201915b505050506002830154600384015460069094015492936001600160a01b039091169290915060ff8082169161010090041686565b6000828152600260208190526040909120908101546001600160a01b03163314610a1157604051600160e51b62461bcd02815260040161036f90612be2565b600601805460ff191660ff9290921691909117905550565b610a31611bd9565b60008281526002602081815260409283902083518154610120601f600019600184161561010090810291909101909316969096049586018590049094028201840190955293840183815290928492849190840182828015610ad35780601f10610aa857610100808354040283529160200191610ad3565b820191906000526020600020905b815481529060010190602001808311610ab657829003601f168201915b50505050508152602001600182018054600181600116156101000203166002900480601f016020809104026020016040519081016040528092919081815260200182805460018160011615610100020316600290048015610b755780601f10610b4a57610100808354040283529160200191610b75565b820191906000526020600020905b815481529060010190602001808311610b5857829003601f168201915b505050505081526020016002820160009054906101000a90046001600160a01b03166001600160a01b03166001600160a01b031681526020016003820154815260200160048201805480602002602001604051908101604052809291908181526020016000905b82821015610c33576000848152602090819020604080516080810182526004860290920180548352600180820154848601526002820154928401929092526003015460ff1660608301529083529092019101610bdc565b50505050815260200160058201805480602002602001604051908101604052809291908181526020018280548015610c9457602002820191906000526020600020905b81546001600160a01b03168152600190910190602001808311610c76575b50505091835250506006919091015460ff80821660208401526101009091041660409091015292915050565b610cc8610e00565b610ce757604051600160e51b62461bcd02815260040161036f90612ca2565b6001600160a01b03919091166000908152600160205260409020805460ff1916911515919091179055565b60065481565b610d2483838333611871565b505050565b610d31610e00565b610d5057604051600160e51b62461bcd02815260040161036f90612ca2565b600080546040516001600160a01b03909116907f8be0079c531659141344cd1fd0a4f28419497f9722a3daafe3b4186f6b6457e0908390a3600080546001600160a01b0319169055565b610da481336118eb565b50565b610daf610e00565b610dce57604051600160e51b62461bcd02815260040161036f90612ca2565b600780546001600160a01b0319166001600160a01b0392909216919091179055565b6000546001600160a01b03165b90565b600080546001600160a01b0316610e156119f9565b6001600160a01b031614905090565b6007548251604051600160e01b63fc87de390281526000926001600160a01b031691631393bbf591839163fc87de3991610e619190600401612b6b565b60206040518083038186803b158015610e7957600080fd5b505afa158015610e8d573d6000803e3d6000fd5b505050506040513d601f19601f82011682018060405250610eb191908101906121ba565b6040518263ffffffff1660e01b8152600401610ecd9190612b28565b60206040518083038186803b158015610ee557600080fd5b505afa158015610ef9573d6000803e3d6000fd5b505050506040513d601f19601f82011682018060405250610f1d9190810190612144565b6001600160a01b03811660009081526003602052604090205490915080610fb55760045415610fb05760075460048054604051600160e51b6302654acd0281526001600160a01b0390931692634ca959a092610f7d928892339201612af2565b600060405180830381600087803b158015610f9757600080fd5b505af1158015610fab573d6000803e3d6000fd5b505050505b6110fb565b6000610fde600654610fd2600554856119fd90919063ffffffff16565b9063ffffffff611a4116565b9050600061100f600654610fd2611002600554600654611a8390919063ffffffff16565b869063ffffffff6119fd16565b600454909150829081101561102357506004545b600754604051600160e01b636556cd050281526001600160a01b0390911690636556cd059061105c90899033908a908890600401612ab4565b600060405180830381600087803b15801561107657600080fd5b505af115801561108a573d6000803e3d6000fd5b5050600754604051600160e51b6302654acd0281526001600160a01b039091169250634ca959a091506110c590899033908690600401612af2565b600060405180830381600087803b1580156110df57600080fd5b505af11580156110f3573d6000803e3d6000fd5b505050505050505b600061111485600001518660200151876060015161080d565b600081815260026020819052604090912090810154919250906001600160a01b03161561115657604051600160e51b62461bcd02815260040161036f90612c72565b8551805161116b918391602090910190611c2d565b5060208087015180516111849260018501920190611c2d565b5060408601516002820180546001600160a01b0319166001600160a01b039092169190911790556060860151600382015560a086015180516111d0916005840191602090910190611cab565b5060068101805461ff001960ff1990911660011716905560808601516111f7908390610392565b6007546020870151604051600160e01b63fc87de3902815284926001600160a01b03169163fc87de399161122e9190600401612b6b565b60206040518083038186803b15801561124657600080fd5b505afa15801561125a573d6000803e3d6000fd5b505050506040513d601f19601f8201168201806040525061127e91908101906121ba565b6007548851604051600160e01b63fc87de390281526001600160a01b039092169163fc87de39916112b191600401612b6b565b60206040518083038186803b1580156112c957600080fd5b505afa1580156112dd573d6000803e3d6000fd5b505050506040513d601f19601f8201168201806040525061130191908101906121ba565b7f7172667a4024e27a0d3a896c8ba72947ebed1a0bb37d5c6aaff808c4f6b574ef336040516113309190612a98565b60405180910390a4505050505050565b611348610e00565b61136757604051600160e51b62461bcd02815260040161036f90612ca2565b600655565b611375336113a0565b61139457604051600160e51b62461bcd02815260040161036f90612c52565b61080784848484611871565b6001600160a01b031660009081526001602052604090205460ff1690565b6113c6610e00565b6113e557604051600160e51b62461bcd02815260040161036f90612ca2565b610da481611ac5565b6003602052600090815260409020805460019091015482565b60008381526002602052604090206006810154610100900460ff1661144157604051600160e51b62461bcd02815260040161036f90612c92565b60408051825460206002610100600184161581026000190190931604601f810182900490910283016101209081019094529082018181526000936116c6939286928492909184918401828280156114d95780601f106114ae576101008083540402835291602001916114d9565b820191906000526020600020905b8154815290600101906020018083116114bc57829003601f168201915b50505050508152602001600182018054600181600116156101000203166002900480601f01602080910402602001604051908101604052809291908181526020018280546001816001161561010002031660029004801561157b5780601f106115505761010080835404028352916020019161157b565b820191906000526020600020905b81548152906001019060200180831161155e57829003601f168201915b505050505081526020016002820160009054906101000a90046001600160a01b03166001600160a01b03166001600160a01b031681526020016003820154815260200160048201805480602002602001604051908101604052809291908181526020016000905b82821015611639576000848152602090819020604080516080810182526004860290920180548352600180820154848601526002820154928401929092526003015460ff16606083015290835290920191016115e2565b5050505081526020016005820180548060200260200160405190810160405280929190818152602001828054801561169a57602002820191906000526020600020905b81546001600160a01b0316815260019091019060200180831161167c575b50505091835250506006919091015460ff808216602084015261010090910416604090910152846117ee565b60ff16116116e957604051600160e51b62461bcd02815260040161036f90612c62565b60005b83518110156117e75760008260040185838151811061170757fe5b60200260200101518154811061171957fe5b60009182526020909120600490910201600381015490915060ff161561175457604051600160e51b62461bcd02815260040161036f90612c42565b60038101805460ff191660019081179091556007548254918301546002840154604051600160e31b6301d4f0fd0281526001600160a01b0390931693630ea787e8936117a893919290600090600401612b36565b600060405180830381600087803b1580156117c257600080fd5b505af11580156117d6573d6000803e3d6000fd5b5050600190930192506116ec915050565b5050505050565b60008260a0015151600014156118065750600161186b565b60005b8360a00151518163ffffffff161015611865578360a001518163ffffffff168151811061183257fe5b60200260200101516001600160a01b0316836001600160a01b0316141561185d57506001905061186b565b600101611809565b50600090505b92915050565b6000848152600260208190526040909120908101546001600160a01b038381169116146118b357604051600160e51b62461bcd02815260040161036f90612c22565b60ff8416156118c95760068101805460ff191690555b60068101805461ff00191661010060ff87160217905582156117e7576117e785835b600082815260026020818152604080842081518154610100600182161581026000190190911695909504601f810185900490940281016101209081019093529384018381529094936119689390928692849290918491908401828280156114d95780601f106114ae576101008083540402835291602001916114d9565b60ff161161198b57604051600160e51b62461bcd02815260040161036f90612c62565b600481015460408051828152602080840282010190915260609180156119bb578160200160208202803883390190505b50905060005b60048301548110156119ed57808282815181106119da57fe5b60209081029190910101526001016119c1565b50610807848285611407565b3390565b600082611a0c5750600061186b565b82820282848281611a1957fe5b0414611a3a57604051600160e51b62461bcd02815260040161036f90612c82565b9392505050565b6000611a3a83836040518060400160405280601a81526020017f536166654d6174683a206469766973696f6e206279207a65726f000000000000815250611b49565b6000611a3a83836040518060400160405280601e81526020017f536166654d6174683a207375627472616374696f6e206f766572666c6f770000815250611b83565b6001600160a01b038116611aee57604051600160e51b62461bcd02815260040161036f90612c12565b600080546040516001600160a01b03808516939216917f8be0079c531659141344cd1fd0a4f28419497f9722a3daafe3b4186f6b6457e091a3600080546001600160a01b0319166001600160a01b0392909216919091179055565b60008183611b6d57604051600160e51b62461bcd02815260040161036f9190612b6b565b506000838581611b7957fe5b0495945050505050565b60008184841115611baa57604051600160e51b62461bcd02815260040161036f9190612b6b565b505050900390565b60408051608081018252600080825260208201819052918101829052606081019190915290565b604051806101000160405280606081526020016060815260200160006001600160a01b03168152602001600081526020016060815260200160608152602001600060ff168152602001600060ff1681525090565b828054600181600116156101000203166002900490600052602060002090601f016020900481019282601f10611c6e57805160ff1916838001178555611c9b565b82800160010185558215611c9b579182015b82811115611c9b578251825591602001919060010190611c80565b50611ca7929150611d0c565b5090565b828054828255906000526020600020908101928215611d00579160200282015b82811115611d0057825182546001600160a01b0319166001600160a01b03909116178255602090920191600190910190611ccb565b50611ca7929150611d26565b610dfd91905b80821115611ca75760008155600101611d12565b610dfd91905b80821115611ca75780546001600160a01b0319168155600101611d2c565b803561186b81612df0565b805161186b81612df0565b600082601f830112611d7157600080fd5b8135611d84611d7f82612d15565b612cee565b91508181835260208401935060208101905083856020840282011115611da957600080fd5b60005b83811015611dd55781611dbf8882611d4a565b8452506020928301929190910190600101611dac565b5050505092915050565b600082601f830112611df057600080fd5b8135611dfe611d7f82612d15565b91508181835260208401935060208101905083856080840282011115611e2357600080fd5b60005b83811015611dd55781611e398882611fae565b84525060209092019160809190910190600101611e26565b600082601f830112611e6257600080fd5b8135611e70611d7f82612d15565b91508181835260208401935060208101905083856080840282011115611e9557600080fd5b60005b83811015611dd55781611eab8882611fae565b84525060209092019160809190910190600101611e98565b600082601f830112611ed457600080fd5b8135611ee2611d7f82612d15565b91508181835260208401935060208101905083856020840282011115611f0757600080fd5b60005b83811015611dd55781611f1d8882611f3e565b8452506020928301929190910190600101611f0a565b803561186b81612e04565b803561186b81612e0d565b805161186b81612e0d565b803561186b81612e16565b600082601f830112611f7057600080fd5b8135611f7e611d7f82612d36565b91508082526020830160208301858383011115611f9a57600080fd5b611fa5838284612dae565b50505092915050565b600060808284031215611fc057600080fd5b611fca6080612cee565b90506000611fd88484611f3e565b8252506020611fe984848301611f3e565b6020830152506040611ffd84828501611f3e565b604083015250606061201184828501612113565b60608301525092915050565b600060c0828403121561202f57600080fd5b61203960c0612cee565b9050813567ffffffffffffffff81111561205257600080fd5b61205e84828501611f5f565b825250602082013567ffffffffffffffff81111561207b57600080fd5b61208784828501611f5f565b602083015250604061209b84828501611d4a565b60408301525060606120af84828501611f3e565b606083015250608082013567ffffffffffffffff8111156120cf57600080fd5b6120db84828501611ddf565b60808301525060a082013567ffffffffffffffff8111156120fb57600080fd5b61210784828501611d60565b60a08301525092915050565b803561186b81612e1f565b60006020828403121561213057600080fd5b600061213c8484611d4a565b949350505050565b60006020828403121561215657600080fd5b600061213c8484611d55565b6000806040838503121561217557600080fd5b60006121818585611d4a565b925050602061219285828601611f33565b9150509250929050565b6000602082840312156121ae57600080fd5b600061213c8484611f3e565b6000602082840312156121cc57600080fd5b600061213c8484611f49565b600080604083850312156121eb57600080fd5b60006121f78585611f3e565b925050602083013567ffffffffffffffff81111561221457600080fd5b61219285828601611e51565b6000806040838503121561223357600080fd5b600061223f8585611f3e565b925050602083013567ffffffffffffffff81111561225c57600080fd5b61219285828601611ec3565b6000806040838503121561227b57600080fd5b60006122878585611f3e565b925050602061219285828601612113565b6000806000606084860312156122ad57600080fd5b60006122b98686611f3e565b93505060206122ca86828701612113565b92505060406122db86828701611f33565b9150509250925092565b600080600080608085870312156122fb57600080fd5b60006123078787611f3e565b945050602061231887828801612113565b935050604061232987828801611f33565b925050606061233a87828801611d4a565b91505092959194509250565b60006020828403121561235857600080fd5b600061213c8484611f54565b60008060006060848603121561237957600080fd5b833567ffffffffffffffff81111561239057600080fd5b61239c86828701611f5f565b935050602084013567ffffffffffffffff8111156123b957600080fd5b6123c586828701611f5f565b92505060406122db86828701611f3e565b600080604083850312156123e957600080fd5b823567ffffffffffffffff81111561240057600080fd5b61240c8582860161201d565b925050602061219285828601611d4a565b60006124298383612454565b505060200190565b600061243d8383612948565b505060800190565b61244e81612da3565b82525050565b61244e81612d76565b600061246882612d64565b6124728185612d68565b935061247d83612d5e565b8060005b838110156124ab578151612495888261241d565b97506124a083612d5e565b925050600101612481565b509495945050505050565b60006124c182612d64565b6124cb8185612d68565b93506124d683612d5e565b8060005b838110156124ab5781516124ee8882612431565b97506124f983612d5e565b9250506001016124da565b61244e81612d81565b61244e81610dfd565b600061252182612d64565b61252b8185612d68565b935061253b818560208601612dba565b61254481612de6565b9093019392505050565b600061255982612d64565b6125638185612d71565b9350612573818560208601612dba565b9290920192915050565b600061258a602c83612d68565b7f50726f706f73616c207374617475732063616e206f6e6c7920627920736574208152600160a11b6b313c9034ba399037bbb732b902602082015260400192915050565b60006125db603783612d68565b7f70726f706f73616c2063616e206f6e6c792073746f726520706572737065637481527f69766573206f776e656420627920697473206f776e6572000000000000000000602082015260400192915050565b600061263a602a83612d68565b7f68656164207570646174652065786563757465642070726f7065727479206d758152600160b01b697374206265207a65726f02602082015260400192915050565b6000612689602683612d68565b7f4f776e61626c653a206e6577206f776e657220697320746865207a65726f20618152600160d01b6564647265737302602082015260400192915050565b60006126d4602c83612d68565b7f50726f706f73616c2063616e206f6e6c7920627920617574686f72697a6564208152600160a11b6b313c9034ba399037bbb732b902602082015260400192915050565b6000612725601283612d68565b7f70726f706f73616c206e6f7420666f756e640000000000000000000000000000815260200192915050565b600061275e601c83612d68565b7f686561642075706461746520616c726561647920657865637574656400000000815260200192915050565b6000612797602883612d68565b7f486173537570657255736572733a2063616c6c6572206973206e6f74206120738152600160c11b673ab832b92ab9b2b902602082015260400192915050565b60006127e4602283612d68565b7f6d73672e73656e646572206e6f7420616e20617070726f7665642061646472658152600160f01b61737302602082015260400192915050565b600061282b601683612d68565b7f70726f706f73616c20616c726561647920657869737400000000000000000000815260200192915050565b6000612864602183612d68565b7f536166654d6174683a206d756c7469706c69636174696f6e206f766572666c6f8152600160f81b607702602082015260400192915050565b60006128aa601783612d68565b7f50726f706f73616c206e6f7420617574686f72697a6564000000000000000000815260200192915050565b60006128e3602083612d68565b7f4f776e61626c653a2063616c6c6572206973206e6f7420746865206f776e6572815260200192915050565b600061291c601b83612d68565b7f70726f706f73616c207374617475732069732064697361626c65640000000000815260200192915050565b80516080830190612959848261250d565b50602082015161296c602085018261250d565b50604082015161297f604085018261250d565b5060608201516108076060850182612a60565b8051610100808452600091908401906129ab8282612516565b915050602083015184820360208601526129c58282612516565b91505060408301516129da6040860182612454565b5060608301516129ed606086018261250d565b5060808301518482036080860152612a0582826124b6565b91505060a083015184820360a0860152612a1f828261245d565b91505060c0830151612a3460c0860182612a60565b5060e0830151612a4760e0860182612a60565b509392505050565b61244e612a5b82610dfd565b610dfd565b61244e81612d9d565b6000612a75828661254e565b9150612a81828561254e565b9150612a8d8284612a4f565b506020019392505050565b6020810161186b8284612445565b6020810161186b8284612454565b60808101612ac28287612454565b612acf6020830186612445565b612adc6040830185612454565b612ae9606083018461250d565b95945050505050565b60608101612b008286612454565b612b0d6020830185612445565b61213c604083018461250d565b6020810161186b8284612504565b6020810161186b828461250d565b60808101612b44828761250d565b612b51602083018661250d565b612b5e604083018561250d565b612ae96060830184612445565b60208082528101611a3a8184612516565b60c08082528101612b8d8189612516565b90508181036020830152612ba18188612516565b9050612bb06040830187612454565b612bbd606083018661250d565b612bca6080830185612a60565b612bd760a0830184612a60565b979650505050505050565b6020808252810161186b8161257d565b6020808252810161186b816125ce565b6020808252810161186b8161262d565b6020808252810161186b8161267c565b6020808252810161186b816126c7565b6020808252810161186b81612718565b6020808252810161186b81612751565b6020808252810161186b8161278a565b6020808252810161186b816127d7565b6020808252810161186b8161281e565b6020808252810161186b81612857565b6020808252810161186b8161289d565b6020808252810161186b816128d6565b6020808252810161186b8161290f565b60208082528101611a3a8184612992565b60408101612ce1828561250d565b611a3a602083018461250d565b60405181810167ffffffffffffffff81118282101715612d0d57600080fd5b604052919050565b600067ffffffffffffffff821115612d2c57600080fd5b5060209081020190565b600067ffffffffffffffff821115612d4d57600080fd5b506020601f91909101601f19160190565b60200190565b5190565b90815260200190565b919050565b600061186b82612d91565b151590565b600061186b82612d76565b6001600160a01b031690565b60ff1690565b600061186b82612d86565b82818337506000910152565b60005b83811015612dd5578181015183820152602001612dbd565b838111156108075750506000910152565b601f01601f191690565b612df981612d76565b8114610da457600080fd5b612df981612d81565b612df981610dfd565b612df981612d86565b612df981612d9d56fea265627a7a723058202b93238cc083e6b96ceea444314cfe207a4eceb5aba71243896d4ff72b956dad6c6578706572696d656e74616cf50037",
  "source": "pragma solidity >=0.5.0 <0.6.0;\npragma experimental ABIEncoderV2;\n\nimport \"./UprtclRoot.sol\";\nimport \"./SafeMath.sol\";\nimport \"./HasSuperUsers.sol\";\n\ncontract UprtclProposals is HasSuperUsers {\n\n    using SafeMath for uint256;\n\n    struct HeadUpdate {\n        bytes32 perspectiveIdHash;\n        bytes32 headCid1;\n        bytes32 headCid0;\n        uint8 executed;\n    }\n\n    struct NewProposal {\n        string toPerspectiveId;\n        string fromPerspectiveId;\n        address owner;\n        uint256 nonce;\n        HeadUpdate[] headUpdates;\n        address[] approvedAddresses;\n    }\n\n    struct Proposal {\n        string toPerspectiveId;\n        string fromPerspectiveId;\n        address owner;\n        uint256 nonce;\n        HeadUpdate[] headUpdates;\n        address[] approvedAddresses;\n        uint8 status;\n        uint8 authorized;\n    }\n\n    struct OwnerFees {\n        uint256 fee;\n        uint256 balance;\n    }\n\n    mapping(bytes32 => Proposal) public proposals;\n    mapping(address => OwnerFees) public fees;\n    \n    uint256 public minFee;\n    uint256 public factor_num;\n    uint256 public factor_den;\n\n    UprtclRoot uprtclRoot;\n\n    event ProposalCreated(\n        bytes32 indexed toPerspectiveIdHash,\n        bytes32 indexed fromPerspectiveIdHash,\n        bytes32 indexed proposalId,\n        address creator\n    );\n\n    function setUprtclRoot(UprtclRoot _uprtclRoot) public onlyOwner {\n        uprtclRoot = _uprtclRoot;\n    }\n\n    function getProposalId(\n        string memory toPerspectiveId,\n        string memory fromPerspectiveId,\n        uint256 nonce\n    ) public pure returns (bytes32 proposalId) {\n        proposalId = keccak256(\n            abi.encodePacked(toPerspectiveId, fromPerspectiveId, nonce)\n        );\n    }\n\n    function setMinFee(uint256 _minFee) public onlyOwner {\n        minFee = _minFee;\n    }\n\n    function setFactorNum(uint256 _factor_num) public onlyOwner {\n        factor_num = _factor_num;\n    }\n\n    function setFactorDen(uint256 _factor_den) public onlyOwner {\n        factor_den = _factor_den;\n    }\n\n    function initProposal(\n        NewProposal memory newProposal,\n        address account\n    ) public {\n        \n        address perspOwner = uprtclRoot.getPerspectiveOwner(\n            uprtclRoot.getPerspectiveIdHash(newProposal.toPerspectiveId)\n        );\n        uint256 perspFee = fees[perspOwner].fee;\n\n        if (perspFee == 0) {\n            /** charge only min fee */\n            if (minFee > 0) {\n                uprtclRoot.consume(account, msg.sender, minFee);\n            }\n        } else {\n            /** charge fee and transfer to perspOwner, keep a fraction to us */\n            uint256 feeUprtcl = perspFee.mul(factor_num).div(factor_den);\n            uint256 feeOwner = perspFee.mul(factor_den.sub(factor_num)).div(factor_den);\n\n            uint256 feeUprtclActual = feeUprtcl;\n            if (feeUprtcl < minFee) {\n                feeUprtclActual = minFee;\n            }\n\n            uprtclRoot.transferTo(account, msg.sender, perspOwner, feeOwner);\n            uprtclRoot.consume(account, msg.sender, feeUprtclActual);\n        }\n\n        bytes32 proposalId = getProposalId(\n            newProposal.toPerspectiveId,\n            newProposal.fromPerspectiveId,\n            newProposal.nonce\n        );\n\n        /** make sure the proposal does not exist */\n        Proposal storage proposal = proposals[proposalId];\n        require(proposal.owner == address(0), \"proposal already exist\");\n\n        proposal.toPerspectiveId = newProposal.toPerspectiveId;\n        proposal.fromPerspectiveId = newProposal.fromPerspectiveId;\n        proposal.owner = newProposal.owner;\n        proposal.nonce = newProposal.nonce;\n        proposal.approvedAddresses = newProposal.approvedAddresses;\n        proposal.status = 1;\n        proposal.authorized = 0;\n\n        addUpdatesToProposal(proposalId, newProposal.headUpdates);\n\n        emit ProposalCreated(\n            uprtclRoot.getPerspectiveIdHash(newProposal.toPerspectiveId),\n            uprtclRoot.getPerspectiveIdHash(newProposal.fromPerspectiveId),\n            proposalId,\n            msg.sender\n        );\n    }\n\n    function isApproved(Proposal memory proposal, address value)\n        private\n        pure\n        returns (uint8 approved)\n    {\n        if (proposal.approvedAddresses.length == 0) {\n          approved = 1;\n          return approved;\n        }\n\n        for (uint32 ix = 0; ix < proposal.approvedAddresses.length; ix++) {\n            if (value == proposal.approvedAddresses[ix]) {\n                approved = 1;\n                return approved;\n            }\n        }\n        approved = 0;\n    }\n\n    /** Add one or more headUpdate elements to an existing proposal */\n    function addUpdatesToProposal(\n        bytes32 proposalId,\n        HeadUpdate[] memory headUpdates\n    ) public {\n        Proposal storage proposal = proposals[proposalId];\n\n        /** make sure the proposal is open for new elements */\n        require(proposal.owner != address(0), \"proposal not found\");\n        require(proposal.status != 0, \"proposal status is disabled\");\n        require(\n            isApproved(proposal, msg.sender) > 0,\n            \"msg.sender not an approved address\"\n        );\n\n        for (uint8 ix = 0; ix < headUpdates.length; ix++) {\n            HeadUpdate memory headUpdate = headUpdates[ix];\n            require(\n                headUpdate.executed == 0,\n                \"head update executed property must be zero\"\n            );\n            require(\n                uprtclRoot.getPerspectiveOwner(headUpdate.perspectiveIdHash) == proposal.owner,\n                \"proposal can only store perspectives owned by its owner\"\n            );\n            proposal.headUpdates.push(headUpdate);\n        }\n    }\n\n    function setProposalStatus(bytes32 proposalId, uint8 status) public {\n        Proposal storage proposal = proposals[proposalId];\n        require(\n            msg.sender == proposal.owner,\n            \"Proposal status can only by set by its owner\"\n        );\n        proposal.status = status;\n    }\n\n    function authorizeProposalSuperUser(bytes32 proposalId, uint8 authorized, bool execute, address msgSender) public onlySuperUser {\n        setProposalAuthorized(proposalId, authorized, execute, msgSender);\n    }\n\n    function authorizeProposal(bytes32 proposalId, uint8 authorized, bool execute) public {\n        setProposalAuthorized(proposalId, authorized, execute, msg.sender);\n    }\n\n    function setProposalAuthorized(bytes32 proposalId, uint8 authorized, bool execute, address msgSender) private {\n        Proposal storage proposal = proposals[proposalId];\n        require(\n            msgSender == proposal.owner,\n            \"Proposal can only by authorized by its owner\"\n        );\n        /** by default the proposal is closed once it is authorized. */\n        if (authorized > 0) proposal.status = 0;\n        proposal.authorized = authorized;\n\n        if (execute) {\n            executeProposalInternal(proposalId, msgSender);\n        }\n    }\n\n    function executeProposalInternal(bytes32 proposalId, address msgSender) private {\n        Proposal storage proposal = proposals[proposalId];\n\n        /** Check the msg.sender is an approved address */\n        require(\n            isApproved(proposal, msgSender) > 0,\n            \"msg.sender not an approved address\"\n        );\n\n        uint256[] memory indexes = new uint256[](proposal.headUpdates.length);\n        for (uint256 ix = 0; ix < proposal.headUpdates.length; ix++) {\n            indexes[ix] = ix;\n        }\n\n        executeProposalPartiallyInternal(proposalId, indexes, msgSender);\n    }\n\n\n    function executeProposalExternal(bytes32 proposalId) external {\n        executeProposalInternal(proposalId, msg.sender);\n    }\n\n    function executeProposalPartially(\n        bytes32 proposalId,\n        uint256[] memory indexes\n    ) public {\n        executeProposalPartiallyInternal(proposalId, indexes, msg.sender);\n    }\n\n    function executeProposalPartiallyInternal(\n        bytes32 proposalId,\n        uint256[] memory indexes,\n        address msgSender\n    ) private {\n        Proposal storage proposal = proposals[proposalId];\n        require(proposal.authorized != 0, \"Proposal not authorized\");\n\n        require(\n            isApproved(proposal, msgSender) > 0,\n            \"msg.sender not an approved address\"\n        );\n\n        for (uint256 ix = 0; ix < indexes.length; ix++) {\n            HeadUpdate storage headUpdate = proposal.headUpdates[indexes[ix]];\n\n            require(headUpdate.executed == 0, \"head update already executed\");\n            headUpdate.executed = 1;\n\n            uprtclRoot.updateHead(headUpdate.perspectiveIdHash, headUpdate.headCid1, headUpdate.headCid0, address(0));\n        }\n    }\n\n    function getProposal(bytes32 proposalId)\n        public\n        view\n        returns (Proposal memory proposal)\n    {\n        return (proposals[proposalId]);\n    }\n}\n",
  "sourcePath": "/home/pepo/pr/uprtcl/eth-uprtcl/contracts/UprtclProposals.sol",
  "compiler": {
    "name": "solc",
    "version": "0.5.8+commit.23d335f2.Emscripten.clang"
  },
  "schemaVersion": "3.0.11",
  "updatedAt": "2020-03-23T20:40:10.054Z",
  "devdoc": {
    "methods": {
      "isOwner()": {
        "details": "Returns true if the caller is the current owner."
      },
      "owner()": {
        "details": "Returns the address of the current owner."
      },
      "renounceOwnership()": {
        "details": "Leaves the contract without owner. It will not be possible to call `onlyOwner` functions anymore. Can only be called by the current owner.     * NOTE: Renouncing ownership will leave the contract without an owner, thereby removing any functionality that is only available to the owner."
      },
      "transferOwnership(address)": {
        "details": "Transfers ownership of the contract to a new account (`newOwner`). Can only be called by the current owner."
      }
    }
  },
  "userdoc": {
    "methods": {
      "addUpdatesToProposal(bytes32,(bytes32,bytes32,bytes32,uint8)[])": {
        "notice": "Add one or more headUpdate elements to an existing proposal "
      }
    }
  }
}