{
  "contractName": "UprtclProposals",
  "abi": [
    {
      "constant": true,
      "inputs": [],
      "name": "factor_num",
      "outputs": [
        {
          "name": "",
          "type": "uint256"
        }
      ],
      "payable": false,
      "stateMutability": "view",
      "type": "function"
    },
    {
      "constant": true,
      "inputs": [],
      "name": "minFee",
      "outputs": [
        {
          "name": "",
          "type": "uint256"
        }
      ],
      "payable": false,
      "stateMutability": "view",
      "type": "function"
    },
    {
      "constant": true,
      "inputs": [
        {
          "name": "",
          "type": "bytes32"
        }
      ],
      "name": "proposals",
      "outputs": [
        {
          "name": "toPerspectiveIdHash",
          "type": "bytes32"
        },
        {
          "name": "fromPerspectiveIdHash",
          "type": "bytes32"
        },
        {
          "name": "owner",
          "type": "address"
        },
        {
          "name": "nonce",
          "type": "uint256"
        },
        {
          "name": "status",
          "type": "uint8"
        },
        {
          "name": "authorized",
          "type": "uint8"
        }
      ],
      "payable": false,
      "stateMutability": "view",
      "type": "function"
    },
    {
      "constant": true,
      "inputs": [],
      "name": "factor_den",
      "outputs": [
        {
          "name": "",
          "type": "uint256"
        }
      ],
      "payable": false,
      "stateMutability": "view",
      "type": "function"
    },
    {
      "constant": false,
      "inputs": [],
      "name": "renounceOwnership",
      "outputs": [],
      "payable": false,
      "stateMutability": "nonpayable",
      "type": "function"
    },
    {
      "constant": true,
      "inputs": [],
      "name": "owner",
      "outputs": [
        {
          "name": "",
          "type": "address"
        }
      ],
      "payable": false,
      "stateMutability": "view",
      "type": "function"
    },
    {
      "constant": true,
      "inputs": [],
      "name": "isOwner",
      "outputs": [
        {
          "name": "",
          "type": "bool"
        }
      ],
      "payable": false,
      "stateMutability": "view",
      "type": "function"
    },
    {
      "constant": false,
      "inputs": [
        {
          "name": "newOwner",
          "type": "address"
        }
      ],
      "name": "transferOwnership",
      "outputs": [],
      "payable": false,
      "stateMutability": "nonpayable",
      "type": "function"
    },
    {
      "constant": true,
      "inputs": [
        {
          "name": "",
          "type": "address"
        }
      ],
      "name": "fees",
      "outputs": [
        {
          "name": "fee",
          "type": "uint256"
        },
        {
          "name": "balance",
          "type": "uint256"
        }
      ],
      "payable": false,
      "stateMutability": "view",
      "type": "function"
    },
    {
      "anonymous": false,
      "inputs": [
        {
          "indexed": true,
          "name": "toPerspectiveIdHash",
          "type": "bytes32"
        },
        {
          "indexed": true,
          "name": "fromPerspectiveIdHash",
          "type": "bytes32"
        },
        {
          "indexed": true,
          "name": "proposalId",
          "type": "bytes32"
        }
      ],
      "name": "ProposalCreated",
      "type": "event"
    },
    {
      "anonymous": false,
      "inputs": [
        {
          "indexed": true,
          "name": "previousOwner",
          "type": "address"
        },
        {
          "indexed": true,
          "name": "newOwner",
          "type": "address"
        }
      ],
      "name": "OwnershipTransferred",
      "type": "event"
    },
    {
      "constant": false,
      "inputs": [
        {
          "name": "_uprtclRoot",
          "type": "address"
        }
      ],
      "name": "setUprtclRoot",
      "outputs": [],
      "payable": false,
      "stateMutability": "nonpayable",
      "type": "function"
    },
    {
      "constant": true,
      "inputs": [
        {
          "name": "toPerspectiveIdHash",
          "type": "bytes32"
        },
        {
          "name": "fromPerspectiveIdHash",
          "type": "bytes32"
        },
        {
          "name": "nonce",
          "type": "uint256"
        }
      ],
      "name": "getProposalId",
      "outputs": [
        {
          "name": "proposalId",
          "type": "bytes32"
        }
      ],
      "payable": false,
      "stateMutability": "pure",
      "type": "function"
    },
    {
      "constant": false,
      "inputs": [
        {
          "name": "_minFee",
          "type": "uint256"
        }
      ],
      "name": "setMinFee",
      "outputs": [],
      "payable": false,
      "stateMutability": "nonpayable",
      "type": "function"
    },
    {
      "constant": false,
      "inputs": [
        {
          "name": "_factor_num",
          "type": "uint256"
        }
      ],
      "name": "setFactorNum",
      "outputs": [],
      "payable": false,
      "stateMutability": "nonpayable",
      "type": "function"
    },
    {
      "constant": false,
      "inputs": [
        {
          "name": "_factor_den",
          "type": "uint256"
        }
      ],
      "name": "setFactorDen",
      "outputs": [],
      "payable": false,
      "stateMutability": "nonpayable",
      "type": "function"
    },
    {
      "constant": false,
      "inputs": [
        {
          "components": [
            {
              "name": "toPerspectiveIdHash",
              "type": "bytes32"
            },
            {
              "name": "fromPerspectiveIdHash",
              "type": "bytes32"
            },
            {
              "name": "owner",
              "type": "address"
            },
            {
              "name": "nonce",
              "type": "uint256"
            },
            {
              "components": [
                {
                  "name": "perspectiveIdHash",
                  "type": "bytes32"
                },
                {
                  "name": "headCid0",
                  "type": "bytes32"
                },
                {
                  "name": "headCid1",
                  "type": "bytes32"
                },
                {
                  "name": "executed",
                  "type": "uint8"
                }
              ],
              "name": "headUpdates",
              "type": "tuple[]"
            },
            {
              "name": "approvedAddresses",
              "type": "address[]"
            }
          ],
          "name": "newProposal",
          "type": "tuple"
        },
        {
          "name": "account",
          "type": "address"
        }
      ],
      "name": "initProposal",
      "outputs": [],
      "payable": false,
      "stateMutability": "nonpayable",
      "type": "function"
    },
    {
      "constant": false,
      "inputs": [
        {
          "name": "proposalId",
          "type": "bytes32"
        },
        {
          "components": [
            {
              "name": "perspectiveIdHash",
              "type": "bytes32"
            },
            {
              "name": "headCid0",
              "type": "bytes32"
            },
            {
              "name": "headCid1",
              "type": "bytes32"
            },
            {
              "name": "executed",
              "type": "uint8"
            }
          ],
          "name": "headUpdates",
          "type": "tuple[]"
        }
      ],
      "name": "addUpdatesToProposal",
      "outputs": [],
      "payable": false,
      "stateMutability": "nonpayable",
      "type": "function"
    },
    {
      "constant": false,
      "inputs": [
        {
          "name": "proposalId",
          "type": "bytes32"
        },
        {
          "name": "status",
          "type": "uint8"
        }
      ],
      "name": "setProposalStatus",
      "outputs": [],
      "payable": false,
      "stateMutability": "nonpayable",
      "type": "function"
    },
    {
      "constant": false,
      "inputs": [
        {
          "name": "proposalId",
          "type": "bytes32"
        },
        {
          "name": "authorized",
          "type": "uint8"
        }
      ],
      "name": "setProposalAuthorized",
      "outputs": [],
      "payable": false,
      "stateMutability": "nonpayable",
      "type": "function"
    },
    {
      "constant": false,
      "inputs": [
        {
          "name": "proposalId",
          "type": "bytes32"
        },
        {
          "name": "account",
          "type": "address"
        }
      ],
      "name": "executeProposal",
      "outputs": [],
      "payable": false,
      "stateMutability": "nonpayable",
      "type": "function"
    },
    {
      "constant": false,
      "inputs": [
        {
          "name": "proposalId",
          "type": "bytes32"
        },
        {
          "name": "indexes",
          "type": "uint256[]"
        },
        {
          "name": "account",
          "type": "address"
        }
      ],
      "name": "executeProposalPartially",
      "outputs": [],
      "payable": false,
      "stateMutability": "nonpayable",
      "type": "function"
    },
    {
      "constant": true,
      "inputs": [
        {
          "name": "proposalId",
          "type": "bytes32"
        }
      ],
      "name": "getProposal",
      "outputs": [
        {
          "components": [
            {
              "name": "toPerspectiveIdHash",
              "type": "bytes32"
            },
            {
              "name": "fromPerspectiveIdHash",
              "type": "bytes32"
            },
            {
              "name": "owner",
              "type": "address"
            },
            {
              "name": "nonce",
              "type": "uint256"
            },
            {
              "components": [
                {
                  "name": "perspectiveIdHash",
                  "type": "bytes32"
                },
                {
                  "name": "headCid0",
                  "type": "bytes32"
                },
                {
                  "name": "headCid1",
                  "type": "bytes32"
                },
                {
                  "name": "executed",
                  "type": "uint8"
                }
              ],
              "name": "headUpdates",
              "type": "tuple[]"
            },
            {
              "name": "approvedAddresses",
              "type": "address[]"
            },
            {
              "name": "status",
              "type": "uint8"
            },
            {
              "name": "authorized",
              "type": "uint8"
            }
          ],
          "name": "proposal",
          "type": "tuple"
        }
      ],
      "payable": false,
      "stateMutability": "view",
      "type": "function"
    }
  ],
  "bytecode": "0x608060405261001261005f60201b60201c565b600080546001600160a01b0319166001600160a01b03928316178082556040519216917f8be0079c531659141344cd1fd0a4f28419497f9722a3daafe3b4186f6b6457e0908290a3610063565b3390565b6123ec806100726000396000f3fe608060405234801561001057600080fd5b50600436106101375760003560e01c8063715018a6116100b8578063971a294f1161007c578063971a294f146102685780639eb788c51461027b578063b80d3bdc1461028e578063f18251f1146102a1578063f2fde38b146102b4578063faaebd21146102c757610137565b8063715018a6146102105780637cce0117146102185780638517f68a1461022b5780638da5cb5b1461023e5780638f32d59b1461025357610137565b806332e31af0116100ff57806332e31af01461019d57806332ed5b12146101b057806339eacf34146101d5578063430694cf146101e857806352f386cb1461020857610137565b806305196b9d1461013c5780630de4cb191461015a57806324ec75901461016f57806326d50df11461017757806331ac99201461018a575b600080fd5b6101446102e8565b6040516101519190612110565b60405180910390f35b61016d6101683660046118c8565b6102ee565b005b610144610323565b61016d610185366004611920565b610329565b61016d6101983660046118c8565b610665565b61016d6101ab366004611a5e565b610691565b6101c36101be3660046118c8565b610a07565b6040516101519695949392919061211e565b61016d6101e3366004611a10565b610a4b565b6101fb6101f63660046118c8565b610aa0565b604051610151919061228e565b610144610bf3565b61016d610bf9565b61016d610226366004611a40565b610c6a565b61016d610239366004611968565b610cb3565b610246610cc4565b604051610151919061208e565b61025b610cd4565b6040516101519190612102565b61016d6102763660046118c8565b610cf8565b61016d6102893660046118e6565b610d24565b61014461029c3660046119cd565b610e78565b61016d6102af366004611a10565b610eae565b61016d6102c2366004611884565b610f1f565b6102da6102d5366004611884565b610f52565b60405161015192919061229f565b60045481565b6102f6610cd4565b61031e57604051600160e51b62461bcd0281526004016103159061226e565b60405180910390fd5b600455565b60035481565b600082815260016020526040902060028101546001600160a01b031661036457604051600160e51b62461bcd0281526004016103159061220e565b600681015460ff1661038b57604051600160e51b62461bcd0281526004016103159061227e565b604080516101008101825282548152600183015460208083019190915260028401546001600160a01b031682840152600384015460608301526004840180548451818402810184019095528085526000946104d39493879360808601939091889084015b82821015610446576000848152602090819020604080516080810182526004860290920180548352600180820154848601526002820154928401929092526003015460ff16606083015290835290920191016103ef565b505050508152602001600582018054806020026020016040519081016040528092919081815260200182805480156104a757602002820191906000526020600020905b81546001600160a01b03168152600190910190602001808311610489575b50505091835250506006919091015460ff80821660208401526101009091041660409091015233610f6b565b60ff16116104f657604051600160e51b62461bcd0281526004016103159061222e565b60005b82518160ff16101561065f5761050d611451565b838260ff168151811061051c57fe5b60200260200101519050806060015160ff1660001461055057604051600160e51b62461bcd028152600401610315906121de565b60028301546006548251604051600160e01b631393bbf50281526001600160a01b039384169390921691631393bbf59161058c91600401612110565b60206040518083038186803b1580156105a457600080fd5b505afa1580156105b8573d6000803e3d6000fd5b505050506040513d601f19601f820116820180604052506105dc91908101906118aa565b6001600160a01b03161461060557604051600160e51b62461bcd028152600401610315906121ce565b600483810180546001808201835560009283526020928390208551929094029093019081559083015181830155604083015160028201556060909201516003909201805460ff191660ff90931692909217909155016104f9565b50505050565b61066d610cd4565b61068c57604051600160e51b62461bcd0281526004016103159061226e565b600355565b6006548251604051600160e01b631393bbf50281526000926001600160a01b031691631393bbf5916106c69190600401612110565b60206040518083038186803b1580156106de57600080fd5b505afa1580156106f2573d6000803e3d6000fd5b505050506040513d601f19601f8201168201806040525061071691908101906118aa565b6001600160a01b038116600090815260026020526040902054909150806107af57600354156107aa57600654600354604051600160e51b6302654acd0281526001600160a01b0390921691634ca959a09161077791879133916004016120da565b600060405180830381600087803b15801561079157600080fd5b505af11580156107a5573d6000803e3d6000fd5b505050505b6108f5565b60006107d86005546107cc60045485610fee90919063ffffffff16565b9063ffffffff61103216565b905060006108096005546107cc6107fc60045460055461107490919063ffffffff16565b869063ffffffff610fee16565b600354909150829081101561081d57506003545b600654604051600160e01b636556cd050281526001600160a01b0390911690636556cd059061085690899033908a90889060040161209c565b600060405180830381600087803b15801561087057600080fd5b505af1158015610884573d6000803e3d6000fd5b5050600654604051600160e51b6302654acd0281526001600160a01b039091169250634ca959a091506108bf908990339086906004016120da565b600060405180830381600087803b1580156108d957600080fd5b505af11580156108ed573d6000803e3d6000fd5b505050505050505b600061090e856000015186602001518760600151610e78565b60008181526001602052604090206002810154919250906001600160a01b03161561094e57604051600160e51b62461bcd0281526004016103159061223e565b85518155602080870151600183015560408701516002830180546001600160a01b0319166001600160a01b039092169190911790556060870151600383015560a087015180516109a49260058501920190611478565b5060068101805461ff001960ff1990911660011716905560808601516109cb908390610329565b60208601518651604051849291907fce71c3ab622a29b5fdfec848c59fcdb091cad2d180d8babba5c659726e56816690600090a4505050505050565b60016020819052600091825260409091208054918101546002820154600383015460069093015491926001600160a01b039091169160ff8082169161010090041686565b600082815260016020526040902060028101546001600160a01b03163314610a8857604051600160e51b62461bcd028152600401610315906121be565b600601805460ff191660ff9290921691909117905550565b610aa86114dd565b600082815260016020818152604080842081516101008101835281548152938101548484015260028101546001600160a01b031684830152600381015460608501526004810180548351818602810186019094528084529495919460808701949192909184015b82821015610b66576000848152602090819020604080516080810182526004860290920180548352600180820154848601526002820154928401929092526003015460ff1660608301529083529092019101610b0f565b50505050815260200160058201805480602002602001604051908101604052809291908181526020018280548015610bc757602002820191906000526020600020905b81546001600160a01b03168152600190910190602001808311610ba9575b50505091835250506006919091015460ff80821660208401526101009091041660409091015292915050565b60055481565b610c01610cd4565b610c2057604051600160e51b62461bcd0281526004016103159061226e565b600080546040516001600160a01b03909116907f8be0079c531659141344cd1fd0a4f28419497f9722a3daafe3b4186f6b6457e0908390a3600080546001600160a01b0319169055565b610c72610cd4565b610c9157604051600160e51b62461bcd0281526004016103159061226e565b600680546001600160a01b0319166001600160a01b0392909216919091179055565b610cbf838333846110b6565b505050565b6000546001600160a01b03165b90565b600080546001600160a01b0316610ce9611360565b6001600160a01b031614905090565b610d00610cd4565b610d1f57604051600160e51b62461bcd0281526004016103159061226e565b600555565b600082815260016020818152604080842081516101008101835281548152938101548484015260028101546001600160a01b03168483015260038101546060850152600481018054835181860281018601909452808452919594610de6949093879360808601939192889084018215610446576000848152602090819020604080516080810182526004860290920180548352600180820154848601526002820154928401929092526003015460ff16606083015290835290920191016103ef565b60ff1611610e0957604051600160e51b62461bcd0281526004016103159061222e565b60048101546040805182815260208084028201019091526060918015610e39578160200160208202803883390190505b50905060005b6004830154811015610e6b5780828281518110610e5857fe5b6020908102919091010152600101610e3f565b5061065f848233866110b6565b6000838383604051602001610e8f93929190612057565b6040516020818303038152906040528051906020012090509392505050565b600082815260016020526040902060028101546001600160a01b03163314610eeb57604051600160e51b62461bcd028152600401610315906121fe565b60ff821615610f015760068101805460ff191690555b600601805460ff9092166101000261ff001990921691909117905550565b610f27610cd4565b610f4657604051600160e51b62461bcd0281526004016103159061226e565b610f4f81611364565b50565b6002602052600090815260409020805460019091015482565b60008260a001515160001415610f8357506001610fe8565b60005b8360a00151518163ffffffff161015610fe2578360a001518163ffffffff1681518110610faf57fe5b60200260200101516001600160a01b0316836001600160a01b03161415610fda575060019050610fe8565b600101610f86565b50600090505b92915050565b600082610ffd57506000610fe8565b8282028284828161100a57fe5b041461102b57604051600160e51b62461bcd0281526004016103159061224e565b9392505050565b600061102b83836040518060400160405280601a81526020017f536166654d6174683a206469766973696f6e206279207a65726f0000000000008152506113e8565b600061102b83836040518060400160405280601e81526020017f536166654d6174683a207375627472616374696f6e206f766572666c6f770000815250611422565b60008481526001602052604090206006810154610100900460ff166110f057604051600160e51b62461bcd0281526004016103159061225e565b604080516101008101825282548152600183015460208083019190915260028401546001600160a01b031682840152600384015460608301526004840180548451818402810184019095528085526000946112389493879360808601939091889084015b828210156111ab576000848152602090819020604080516080810182526004860290920180548352600180820154848601526002820154928401929092526003015460ff1660608301529083529092019101611154565b5050505081526020016005820180548060200260200160405190810160405280929190818152602001828054801561120c57602002820191906000526020600020905b81546001600160a01b031681526001909101906020018083116111ee575b50505091835250506006919091015460ff80821660208401526101009091041660409091015285610f6b565b60ff161161125b57604051600160e51b62461bcd0281526004016103159061222e565b60005b84518110156113585760008260040186838151811061127957fe5b60200260200101518154811061128b57fe5b60009182526020909120600490910201600381015490915060ff16156112c657604051600160e51b62461bcd0281526004016103159061221e565b60038101805460ff191660019081179091556006548254918301546002840154604051600160e31b6301d4f0fd0281526001600160a01b0390931693630ea787e893611319939192908a90600401612178565b600060405180830381600087803b15801561133357600080fd5b505af1158015611347573d6000803e3d6000fd5b50506001909301925061125e915050565b505050505050565b3390565b6001600160a01b03811661138d57604051600160e51b62461bcd028152600401610315906121ee565b600080546040516001600160a01b03808516939216917f8be0079c531659141344cd1fd0a4f28419497f9722a3daafe3b4186f6b6457e091a3600080546001600160a01b0319166001600160a01b0392909216919091179055565b6000818361140c57604051600160e51b62461bcd02815260040161031591906121ad565b50600083858161141857fe5b0495945050505050565b6000818484111561144957604051600160e51b62461bcd02815260040161031591906121ad565b505050900390565b60408051608081018252600080825260208201819052918101829052606081019190915290565b8280548282559060005260206000209081019282156114cd579160200282015b828111156114cd57825182546001600160a01b0319166001600160a01b03909116178255602090920191600190910190611498565b506114d9929150611520565b5090565b604080516101008101825260008082526020820181905291810182905260608082018390526080820181905260a082015260c0810182905260e081019190915290565b610cd191905b808211156114d95780546001600160a01b0319168155600101611526565b8035610fe881612383565b8051610fe881612383565b600082601f83011261156b57600080fd5b813561157e611579826122e1565b6122ba565b915081818352602084019350602081019050838560208402820111156115a357600080fd5b60005b838110156115cf57816115b98882611544565b84525060209283019291909101906001016115a6565b5050505092915050565b600082601f8301126115ea57600080fd5b81356115f8611579826122e1565b9150818183526020840193506020810190508385608084028201111561161d57600080fd5b60005b838110156115cf57816116338882611743565b84525060209092019160809190910190600101611620565b600082601f83011261165c57600080fd5b813561166a611579826122e1565b9150818183526020840193506020810190508385608084028201111561168f57600080fd5b60005b838110156115cf57816116a58882611743565b84525060209092019160809190910190600101611692565b600082601f8301126116ce57600080fd5b81356116dc611579826122e1565b9150818183526020840193506020810190508385602084028201111561170157600080fd5b60005b838110156115cf5781611717888261172d565b8452506020928301929190910190600101611704565b8035610fe881612397565b8035610fe8816123a0565b60006080828403121561175557600080fd5b61175f60806122ba565b9050600061176d848461172d565b825250602061177e8484830161172d565b60208301525060406117928482850161172d565b60408301525060606117a684828501611879565b60608301525092915050565b600060c082840312156117c457600080fd5b6117ce60c06122ba565b905060006117dc848461172d565b82525060206117ed8484830161172d565b602083015250604061180184828501611544565b60408301525060606118158482850161172d565b606083015250608082013567ffffffffffffffff81111561183557600080fd5b611841848285016115d9565b60808301525060a082013567ffffffffffffffff81111561186157600080fd5b61186d8482850161155a565b60a08301525092915050565b8035610fe8816123a9565b60006020828403121561189657600080fd5b60006118a28484611544565b949350505050565b6000602082840312156118bc57600080fd5b60006118a2848461154f565b6000602082840312156118da57600080fd5b60006118a2848461172d565b600080604083850312156118f957600080fd5b6000611905858561172d565b925050602061191685828601611544565b9150509250929050565b6000806040838503121561193357600080fd5b600061193f858561172d565b925050602083013567ffffffffffffffff81111561195c57600080fd5b6119168582860161164b565b60008060006060848603121561197d57600080fd5b6000611989868661172d565b935050602084013567ffffffffffffffff8111156119a657600080fd5b6119b2868287016116bd565b92505060406119c386828701611544565b9150509250925092565b6000806000606084860312156119e257600080fd5b60006119ee868661172d565b93505060206119ff8682870161172d565b92505060406119c38682870161172d565b60008060408385031215611a2357600080fd5b6000611a2f858561172d565b925050602061191685828601611879565b600060208284031215611a5257600080fd5b60006118a28484611738565b60008060408385031215611a7157600080fd5b823567ffffffffffffffff811115611a8857600080fd5b611905858286016117b2565b6000611aa08383611acb565b505060200190565b6000611ab48383611f54565b505060800190565b611ac581612342565b82525050565b611ac581612315565b6000611adf82612308565b611ae9818561230c565b9350611af483612302565b8060005b83811015611b22578151611b0c8882611a94565b9750611b1783612302565b925050600101611af8565b509495945050505050565b6000611b3882612308565b611b42818561230c565b9350611b4d83612302565b8060005b83811015611b22578151611b658882611aa8565b9750611b7083612302565b925050600101611b51565b611ac581612320565b611ac581610cd1565b611ac5611b9982610cd1565b610cd1565b6000611ba982612308565b611bb3818561230c565b9350611bc381856020860161234d565b611bcc81612379565b9093019392505050565b6000611be3602c8361230c565b7f50726f706f73616c207374617475732063616e206f6e6c7920627920736574208152600160a11b6b313c9034ba399037bbb732b902602082015260400192915050565b6000611c3460378361230c565b7f70726f706f73616c2063616e206f6e6c792073746f726520706572737065637481527f69766573206f776e656420627920697473206f776e6572000000000000000000602082015260400192915050565b6000611c93602a8361230c565b7f68656164207570646174652065786563757465642070726f7065727479206d758152600160b01b697374206265207a65726f02602082015260400192915050565b6000611ce260268361230c565b7f4f776e61626c653a206e6577206f776e657220697320746865207a65726f20618152600160d01b6564647265737302602082015260400192915050565b6000611d2d602c8361230c565b7f50726f706f73616c2063616e206f6e6c7920627920617574686f72697a6564208152600160a11b6b313c9034ba399037bbb732b902602082015260400192915050565b6000611d7e60128361230c565b7f70726f706f73616c206e6f7420666f756e640000000000000000000000000000815260200192915050565b6000611db7601c8361230c565b7f686561642075706461746520616c726561647920657865637574656400000000815260200192915050565b6000611df060228361230c565b7f6d73672e73656e646572206e6f7420616e20617070726f7665642061646472658152600160f01b61737302602082015260400192915050565b6000611e3760168361230c565b7f70726f706f73616c20616c726561647920657869737400000000000000000000815260200192915050565b6000611e7060218361230c565b7f536166654d6174683a206d756c7469706c69636174696f6e206f766572666c6f8152600160f81b607702602082015260400192915050565b6000611eb660178361230c565b7f50726f706f73616c206e6f7420617574686f72697a6564000000000000000000815260200192915050565b6000611eef60208361230c565b7f4f776e61626c653a2063616c6c6572206973206e6f7420746865206f776e6572815260200192915050565b6000611f28601b8361230c565b7f70726f706f73616c207374617475732069732064697361626c65640000000000815260200192915050565b80516080830190611f658482611b84565b506020820151611f786020850182611b84565b506040820151611f8b6040850182611b84565b50606082015161065f606085018261204e565b8051600090610100840190611fb38582611b84565b506020830151611fc66020860182611b84565b506040830151611fd96040860182611acb565b506060830151611fec6060860182611b84565b50608083015184820360808601526120048282611b2d565b91505060a083015184820360a086015261201e8282611ad4565b91505060c083015161203360c086018261204e565b5060e083015161204660e086018261204e565b509392505050565b611ac58161233c565b60006120638286611b8d565b6020820191506120738285611b8d565b6020820191506120838284611b8d565b506020019392505050565b60208101610fe88284611acb565b608081016120aa8287611acb565b6120b76020830186611abc565b6120c46040830185611acb565b6120d16060830184611b84565b95945050505050565b606081016120e88286611acb565b6120f56020830185611abc565b6118a26040830184611b84565b60208101610fe88284611b7b565b60208101610fe88284611b84565b60c0810161212c8289611b84565b6121396020830188611b84565b6121466040830187611acb565b6121536060830186611b84565b612160608083018561204e565b61216d60a083018461204e565b979650505050505050565b608081016121868287611b84565b6121936020830186611b84565b6121a06040830185611b84565b6120d16060830184611acb565b6020808252810161102b8184611b9e565b60208082528101610fe881611bd6565b60208082528101610fe881611c27565b60208082528101610fe881611c86565b60208082528101610fe881611cd5565b60208082528101610fe881611d20565b60208082528101610fe881611d71565b60208082528101610fe881611daa565b60208082528101610fe881611de3565b60208082528101610fe881611e2a565b60208082528101610fe881611e63565b60208082528101610fe881611ea9565b60208082528101610fe881611ee2565b60208082528101610fe881611f1b565b6020808252810161102b8184611f9e565b604081016122ad8285611b84565b61102b6020830184611b84565b60405181810167ffffffffffffffff811182821017156122d957600080fd5b604052919050565b600067ffffffffffffffff8211156122f857600080fd5b5060209081020190565b60200190565b5190565b90815260200190565b6000610fe882612330565b151590565b6000610fe882612315565b6001600160a01b031690565b60ff1690565b6000610fe882612325565b60005b83811015612368578181015183820152602001612350565b8381111561065f5750506000910152565b601f01601f191690565b61238c81612315565b8114610f4f57600080fd5b61238c81610cd1565b61238c81612325565b61238c8161233c56fea265627a7a72305820df31156399813deede1bc0664d5475e2e00e46fe43f14e24c1c1d6fc71d136206c6578706572696d656e74616cf50037",
  "source": "pragma solidity >=0.5.0 <0.6.0;\npragma experimental ABIEncoderV2;\n\nimport \"./UprtclRoot.sol\";\nimport \"./SafeMath.sol\";\n\ncontract UprtclProposals is Ownable {\n\n    using SafeMath for uint256;\n\n    struct HeadUpdate {\n        bytes32 perspectiveIdHash;\n        bytes32 headCid0;\n        bytes32 headCid1;\n        uint8 executed;\n    }\n\n    struct NewProposal {\n        bytes32 toPerspectiveIdHash;\n        bytes32 fromPerspectiveIdHash;\n        address owner;\n        uint256 nonce;\n        HeadUpdate[] headUpdates;\n        address[] approvedAddresses;\n    }\n\n    struct Proposal {\n        bytes32 toPerspectiveIdHash;\n        bytes32 fromPerspectiveIdHash;\n        address owner;\n        uint256 nonce;\n        HeadUpdate[] headUpdates;\n        address[] approvedAddresses;\n        uint8 status;\n        uint8 authorized;\n    }\n\n    struct OwnerFees {\n        uint256 fee;\n        uint256 balance;\n    }\n\n    mapping(bytes32 => Proposal) public proposals;\n    mapping(address => OwnerFees) public fees;\n    \n    uint256 public minFee;\n    uint256 public factor_num;\n    uint256 public factor_den;\n\n    UprtclRoot uprtclRoot;\n\n    event ProposalCreated(\n        bytes32 indexed toPerspectiveIdHash,\n        bytes32 indexed fromPerspectiveIdHash,\n        bytes32 indexed proposalId\n    );\n\n    function setUprtclRoot(UprtclRoot _uprtclRoot) public onlyOwner {\n        uprtclRoot = _uprtclRoot;\n    }\n\n    function getProposalId(\n        bytes32 toPerspectiveIdHash,\n        bytes32 fromPerspectiveIdHash,\n        uint256 nonce\n    ) public pure returns (bytes32 proposalId) {\n        proposalId = keccak256(\n            abi.encodePacked(toPerspectiveIdHash, fromPerspectiveIdHash, nonce)\n        );\n    }\n\n    function setMinFee(uint256 _minFee) public onlyOwner {\n        minFee = _minFee;\n    }\n\n    function setFactorNum(uint256 _factor_num) public onlyOwner {\n        factor_num = _factor_num;\n    }\n\n    function setFactorDen(uint256 _factor_den) public onlyOwner {\n        factor_den = _factor_den;\n    }\n\n    function initProposal(\n        NewProposal memory newProposal,\n        address account\n    ) public {\n        \n        address perspOwner = uprtclRoot.getPerspectiveOwner(newProposal.toPerspectiveIdHash);\n        uint256 perspFee = fees[perspOwner].fee;\n\n        if (perspFee == 0) {\n            /** charge only min fee */\n            if (minFee > 0) {\n                uprtclRoot.consume(account, msg.sender, minFee);\n            }\n        } else {\n            /** charge fee and transfer to perspOwner, keep a fraction to us */\n            uint256 feeUprtcl = perspFee.mul(factor_num).div(factor_den);\n            uint256 feeOwner = perspFee.mul(factor_den.sub(factor_num)).div(factor_den);\n\n            uint256 feeUprtclActual = feeUprtcl;\n            if (feeUprtcl < minFee) {\n                feeUprtclActual = minFee;\n            }\n\n            uprtclRoot.transferTo(account, msg.sender, perspOwner, feeOwner);\n            uprtclRoot.consume(account, msg.sender, feeUprtclActual);\n        }\n\n        bytes32 proposalId = getProposalId(\n            newProposal.toPerspectiveIdHash,\n            newProposal.fromPerspectiveIdHash,\n            newProposal.nonce\n        );\n\n        /** make sure the proposal does not exist */\n        Proposal storage proposal = proposals[proposalId];\n        require(proposal.owner == address(0), \"proposal already exist\");\n\n        proposal.toPerspectiveIdHash = newProposal.toPerspectiveIdHash;\n        proposal.fromPerspectiveIdHash = newProposal.fromPerspectiveIdHash;\n        proposal.owner = newProposal.owner;\n        proposal.nonce = newProposal.nonce;\n        proposal.approvedAddresses = newProposal.approvedAddresses;\n        proposal.status = 1;\n        proposal.authorized = 0;\n\n        addUpdatesToProposal(proposalId, newProposal.headUpdates);\n\n        emit ProposalCreated(\n            newProposal.toPerspectiveIdHash,\n            newProposal.fromPerspectiveIdHash,\n            proposalId\n        );\n    }\n\n    function isApproved(Proposal memory proposal, address value)\n        private\n        pure\n        returns (uint8 approved)\n    {\n\t\tif (proposal.approvedAddresses.length == 0) {\n\t\t\tapproved = 1;\n\t\t\treturn approved;\n\t\t}\n\n        for (uint32 ix = 0; ix < proposal.approvedAddresses.length; ix++) {\n            if (value == proposal.approvedAddresses[ix]) {\n                approved = 1;\n                return approved;\n            }\n        }\n        approved = 0;\n    }\n\n    /** Add one or more headUpdate elements to an existing proposal */\n    function addUpdatesToProposal(\n        bytes32 proposalId,\n        HeadUpdate[] memory headUpdates\n    ) public {\n        Proposal storage proposal = proposals[proposalId];\n\n        /** make sure the proposal is open for new elements */\n        require(proposal.owner != address(0), \"proposal not found\");\n        require(proposal.status != 0, \"proposal status is disabled\");\n        require(\n            isApproved(proposal, msg.sender) > 0,\n            \"msg.sender not an approved address\"\n        );\n\n        for (uint8 ix = 0; ix < headUpdates.length; ix++) {\n            HeadUpdate memory headUpdate = headUpdates[ix];\n            require(\n                headUpdate.executed == 0,\n                \"head update executed property must be zero\"\n            );\n            require(\n                uprtclRoot.getPerspectiveOwner(headUpdate.perspectiveIdHash) == proposal.owner,\n                \"proposal can only store perspectives owned by its owner\"\n            );\n            proposal.headUpdates.push(headUpdate);\n        }\n    }\n\n    function setProposalStatus(bytes32 proposalId, uint8 status) public {\n        Proposal storage proposal = proposals[proposalId];\n        require(\n            msg.sender == proposal.owner,\n            \"Proposal status can only by set by its owner\"\n        );\n        proposal.status = status;\n    }\n\n    function setProposalAuthorized(bytes32 proposalId, uint8 authorized) public {\n        Proposal storage proposal = proposals[proposalId];\n        require(\n            msg.sender == proposal.owner,\n            \"Proposal can only by authorized by its owner\"\n        );\n        /** by default the proposal is closed once it is authorized. */\n        if (authorized > 0) proposal.status = 0;\n        proposal.authorized = authorized;\n    }\n\n    function executeProposal(bytes32 proposalId, address account) public {\n        Proposal storage proposal = proposals[proposalId];\n\n        /** Check the msg.sender is an approved address */\n        require(\n            isApproved(proposal, msg.sender) > 0,\n            \"msg.sender not an approved address\"\n        );\n\n        uint256[] memory indexes = new uint256[](proposal.headUpdates.length);\n        for (uint256 ix = 0; ix < proposal.headUpdates.length; ix++) {\n            indexes[ix] = ix;\n        }\n\n        executeProposalPartiallyInternal(proposalId, indexes, msg.sender, account);\n    }\n\n    function executeProposalPartially(\n        bytes32 proposalId,\n        uint256[] memory indexes,\n        address account\n    ) public {\n        executeProposalPartiallyInternal(proposalId, indexes, msg.sender, account);\n    }\n\n    function executeProposalPartiallyInternal(\n        bytes32 proposalId,\n        uint256[] memory indexes,\n        address msgSender,\n        address account\n    ) private {\n        Proposal storage proposal = proposals[proposalId];\n        require(proposal.authorized != 0, \"Proposal not authorized\");\n\n        require(\n            isApproved(proposal, msgSender) > 0,\n            \"msg.sender not an approved address\"\n        );\n\n        for (uint256 ix = 0; ix < indexes.length; ix++) {\n            HeadUpdate storage headUpdate = proposal.headUpdates[indexes[ix]];\n\n            require(headUpdate.executed == 0, \"head update already executed\");\n            headUpdate.executed = 1;\n\n            uprtclRoot.updateHead(headUpdate.perspectiveIdHash, headUpdate.headCid0, headUpdate.headCid1, account);\n        }\n    }\n\n    function getProposal(bytes32 proposalId)\n        public\n        view\n        returns (Proposal memory proposal)\n    {\n        return (proposals[proposalId]);\n    }\n}\n",
  "sourcePath": "/home/pepo/pr/uprtcl/eth-uprtcl/contracts/UprtclProposals.sol",
  "compiler": {
    "name": "solc",
    "version": "0.5.8+commit.23d335f2.Emscripten.clang"
  },
  "schemaVersion": "3.0.11",
  "updatedAt": "2020-02-27T17:32:37.374Z",
  "devdoc": {
    "methods": {
      "isOwner()": {
        "details": "Returns true if the caller is the current owner."
      },
      "owner()": {
        "details": "Returns the address of the current owner."
      },
      "renounceOwnership()": {
        "details": "Leaves the contract without owner. It will not be possible to call `onlyOwner` functions anymore. Can only be called by the current owner.     * NOTE: Renouncing ownership will leave the contract without an owner, thereby removing any functionality that is only available to the owner."
      },
      "transferOwnership(address)": {
        "details": "Transfers ownership of the contract to a new account (`newOwner`). Can only be called by the current owner."
      }
    }
  },
  "userdoc": {
    "methods": {
      "addUpdatesToProposal(bytes32,(bytes32,bytes32,bytes32,uint8)[])": {
        "notice": "Add one or more headUpdate elements to an existing proposal "
      }
    }
  }
}