{
  "contractName": "UprtclRoot",
  "abi": [
    {
      "constant": false,
      "inputs": [
        {
          "name": "suAddress",
          "type": "address"
        },
        {
          "name": "value",
          "type": "bool"
        }
      ],
      "name": "setSuperUser",
      "outputs": [],
      "payable": false,
      "stateMutability": "nonpayable",
      "type": "function"
    },
    {
      "constant": true,
      "inputs": [
        {
          "name": "",
          "type": "uint256"
        }
      ],
      "name": "fees",
      "outputs": [
        {
          "name": "",
          "type": "uint256"
        }
      ],
      "payable": false,
      "stateMutability": "view",
      "type": "function"
    },
    {
      "constant": true,
      "inputs": [],
      "name": "accounts",
      "outputs": [
        {
          "name": "",
          "type": "address"
        }
      ],
      "payable": false,
      "stateMutability": "view",
      "type": "function"
    },
    {
      "constant": false,
      "inputs": [],
      "name": "renounceOwnership",
      "outputs": [],
      "payable": false,
      "stateMutability": "nonpayable",
      "type": "function"
    },
    {
      "constant": true,
      "inputs": [],
      "name": "owner",
      "outputs": [
        {
          "name": "",
          "type": "address"
        }
      ],
      "payable": false,
      "stateMutability": "view",
      "type": "function"
    },
    {
      "constant": true,
      "inputs": [],
      "name": "isOwner",
      "outputs": [
        {
          "name": "",
          "type": "bool"
        }
      ],
      "payable": false,
      "stateMutability": "view",
      "type": "function"
    },
    {
      "constant": true,
      "inputs": [
        {
          "name": "",
          "type": "bytes32"
        }
      ],
      "name": "perspectives",
      "outputs": [
        {
          "name": "owner",
          "type": "address"
        },
        {
          "name": "headCid1",
          "type": "bytes32"
        },
        {
          "name": "headCid0",
          "type": "bytes32"
        }
      ],
      "payable": false,
      "stateMutability": "view",
      "type": "function"
    },
    {
      "constant": true,
      "inputs": [
        {
          "name": "suAddress",
          "type": "address"
        }
      ],
      "name": "isSuperUser",
      "outputs": [
        {
          "name": "",
          "type": "bool"
        }
      ],
      "payable": false,
      "stateMutability": "view",
      "type": "function"
    },
    {
      "constant": false,
      "inputs": [
        {
          "name": "newOwner",
          "type": "address"
        }
      ],
      "name": "transferOwnership",
      "outputs": [],
      "payable": false,
      "stateMutability": "nonpayable",
      "type": "function"
    },
    {
      "anonymous": false,
      "inputs": [
        {
          "indexed": true,
          "name": "perspectiveIdHash",
          "type": "bytes32"
        },
        {
          "indexed": false,
          "name": "perspectiveId",
          "type": "string"
        }
      ],
      "name": "PerspectiveCreated",
      "type": "event"
    },
    {
      "anonymous": false,
      "inputs": [
        {
          "indexed": true,
          "name": "previousOwner",
          "type": "address"
        },
        {
          "indexed": true,
          "name": "newOwner",
          "type": "address"
        }
      ],
      "name": "OwnershipTransferred",
      "type": "event"
    },
    {
      "constant": false,
      "inputs": [
        {
          "name": "_accounts",
          "type": "address"
        }
      ],
      "name": "setAccounts",
      "outputs": [],
      "payable": false,
      "stateMutability": "nonpayable",
      "type": "function"
    },
    {
      "constant": false,
      "inputs": [
        {
          "name": "amount",
          "type": "uint256"
        }
      ],
      "name": "withdraw",
      "outputs": [],
      "payable": false,
      "stateMutability": "nonpayable",
      "type": "function"
    },
    {
      "constant": false,
      "inputs": [
        {
          "name": "addFee",
          "type": "uint256"
        },
        {
          "name": "updateFee",
          "type": "uint256"
        }
      ],
      "name": "setFees",
      "outputs": [],
      "payable": false,
      "stateMutability": "nonpayable",
      "type": "function"
    },
    {
      "constant": true,
      "inputs": [],
      "name": "getFees",
      "outputs": [
        {
          "name": "addFee",
          "type": "uint256"
        },
        {
          "name": "updateFee",
          "type": "uint256"
        }
      ],
      "payable": false,
      "stateMutability": "view",
      "type": "function"
    },
    {
      "constant": true,
      "inputs": [],
      "name": "getAddFee",
      "outputs": [
        {
          "name": "",
          "type": "uint256"
        }
      ],
      "payable": false,
      "stateMutability": "view",
      "type": "function"
    },
    {
      "constant": true,
      "inputs": [],
      "name": "getUpdateFee",
      "outputs": [
        {
          "name": "",
          "type": "uint256"
        }
      ],
      "payable": false,
      "stateMutability": "view",
      "type": "function"
    },
    {
      "constant": false,
      "inputs": [
        {
          "name": "account",
          "type": "address"
        },
        {
          "name": "by",
          "type": "address"
        },
        {
          "name": "amount",
          "type": "uint256"
        }
      ],
      "name": "consume",
      "outputs": [],
      "payable": false,
      "stateMutability": "nonpayable",
      "type": "function"
    },
    {
      "constant": false,
      "inputs": [
        {
          "name": "from",
          "type": "address"
        },
        {
          "name": "by",
          "type": "address"
        },
        {
          "name": "to",
          "type": "address"
        },
        {
          "name": "amount",
          "type": "uint256"
        }
      ],
      "name": "transferTo",
      "outputs": [],
      "payable": false,
      "stateMutability": "nonpayable",
      "type": "function"
    },
    {
      "constant": false,
      "inputs": [
        {
          "name": "to",
          "type": "address"
        },
        {
          "name": "amount",
          "type": "uint256"
        }
      ],
      "name": "transfer",
      "outputs": [],
      "payable": false,
      "stateMutability": "nonpayable",
      "type": "function"
    },
    {
      "constant": true,
      "inputs": [
        {
          "name": "perspectiveId",
          "type": "string"
        }
      ],
      "name": "getPerspectiveIdHash",
      "outputs": [
        {
          "name": "idHash",
          "type": "bytes32"
        }
      ],
      "payable": false,
      "stateMutability": "pure",
      "type": "function"
    },
    {
      "constant": false,
      "inputs": [
        {
          "components": [
            {
              "name": "perspectiveId",
              "type": "string"
            },
            {
              "name": "headCid1",
              "type": "bytes32"
            },
            {
              "name": "headCid0",
              "type": "bytes32"
            },
            {
              "name": "owner",
              "type": "address"
            }
          ],
          "name": "newPerspective",
          "type": "tuple"
        },
        {
          "name": "account",
          "type": "address"
        }
      ],
      "name": "createPerspective",
      "outputs": [],
      "payable": false,
      "stateMutability": "nonpayable",
      "type": "function"
    },
    {
      "constant": false,
      "inputs": [
        {
          "components": [
            {
              "name": "perspectiveId",
              "type": "string"
            },
            {
              "name": "headCid1",
              "type": "bytes32"
            },
            {
              "name": "headCid0",
              "type": "bytes32"
            },
            {
              "name": "owner",
              "type": "address"
            }
          ],
          "name": "newPerspectives",
          "type": "tuple[]"
        },
        {
          "name": "account",
          "type": "address"
        }
      ],
      "name": "createPerspectiveBatch",
      "outputs": [],
      "payable": false,
      "stateMutability": "nonpayable",
      "type": "function"
    },
    {
      "constant": false,
      "inputs": [
        {
          "name": "perspectiveIdHash",
          "type": "bytes32"
        },
        {
          "name": "newHeadCid1",
          "type": "bytes32"
        },
        {
          "name": "newHeadCid0",
          "type": "bytes32"
        },
        {
          "name": "account",
          "type": "address"
        }
      ],
      "name": "updateHead",
      "outputs": [],
      "payable": false,
      "stateMutability": "nonpayable",
      "type": "function"
    },
    {
      "constant": false,
      "inputs": [
        {
          "name": "perspectiveIdHash",
          "type": "bytes32"
        },
        {
          "name": "newOwner",
          "type": "address"
        }
      ],
      "name": "changePerspectiveOwner",
      "outputs": [],
      "payable": false,
      "stateMutability": "nonpayable",
      "type": "function"
    },
    {
      "constant": false,
      "inputs": [
        {
          "name": "perspectiveIdHash",
          "type": "bytes32"
        },
        {
          "name": "newOwner",
          "type": "address"
        },
        {
          "name": "msgSender",
          "type": "address"
        }
      ],
      "name": "changePerspectiveOwnerSuperUser",
      "outputs": [],
      "payable": false,
      "stateMutability": "nonpayable",
      "type": "function"
    },
    {
      "constant": false,
      "inputs": [
        {
          "name": "perspectiveIdsHashes",
          "type": "bytes32[]"
        },
        {
          "name": "newOwner",
          "type": "address"
        }
      ],
      "name": "changePerspectiveOwnerBatch",
      "outputs": [],
      "payable": false,
      "stateMutability": "nonpayable",
      "type": "function"
    },
    {
      "constant": true,
      "inputs": [
        {
          "name": "perspectiveIdHash",
          "type": "bytes32"
        }
      ],
      "name": "getPerspective",
      "outputs": [
        {
          "name": "owner",
          "type": "address"
        },
        {
          "name": "headCid1",
          "type": "bytes32"
        },
        {
          "name": "headCid0",
          "type": "bytes32"
        }
      ],
      "payable": false,
      "stateMutability": "view",
      "type": "function"
    },
    {
      "constant": true,
      "inputs": [
        {
          "name": "perspectiveIdHash",
          "type": "bytes32"
        }
      ],
      "name": "getPerspectiveOwner",
      "outputs": [
        {
          "name": "owner",
          "type": "address"
        }
      ],
      "payable": false,
      "stateMutability": "view",
      "type": "function"
    }
  ],
  "bytecode": "0x608060405261001261005f60201b60201c565b600080546001600160a01b0319166001600160a01b03928316178082556040519216917f8be0079c531659141344cd1fd0a4f28419497f9722a3daafe3b4186f6b6457e0908290a3610063565b3390565b611a4f806100726000396000f3fe608060405234801561001057600080fd5b50600436106101a95760003560e01c80636556cd05116100f9578063b7b0ccde11610097578063cd784d1b11610071578063cd784d1b1461036f578063db8d55f114610382578063f2fde38b14610398578063fc87de39146103ab576101a9565b8063b7b0ccde14610341578063b92d30dc14610349578063c886170b1461035c576101a9565b806386830d58116100d357806386830d58146103095780638da5cb5b146103115780638f32d59b14610319578063a9059cbb1461032e576101a9565b80636556cd05146102d957806368cd03f6146102ec578063715018a614610301576101a9565b80632349a4921161016657806345655b4e1161014057806345655b4e146102805780634acc79ed146102935780634ca959a0146102b35780634eee8c43146102c6576101a9565b80632349a492146102475780632e1a7d4d1461025a57806339c375941461026d576101a9565b806308274382146101ae5780630b78f9c0146101c35780630ea787e8146101d65780630eac9b0c146101e9578063133075d2146101fc5780631393bbf514610227575b600080fd5b6101c16101bc3660046113fa565b6103be565b005b6101c16101d1366004611483565b610410565b6101c16101e43660046113a5565b61048a565b6101c16101f7366004611362565b610579565b61020f61020a366004611325565b6105b1565b60405161021e939291906117ee565b60405180910390f35b61023a610235366004611325565b610605565b60405161021e919061175f565b6101c16102553660046112ef565b610650565b6101c1610268366004611325565b610721565b6101c161027b366004611343565b6107f5565b6101c161028e36600461123e565b610800565b6102a66102a1366004611325565b610852565b60405161021e9190611832565b6101c16102c13660046111f1565b610864565b6101c16102d43660046112a8565b6108f9565b6101c16102e7366004611190565b61092b565b6102f46109c3565b60405161021e9190611840565b6101c16109d2565b6102a6610a43565b61023a610a71565b610321610a80565b60405161021e9190611824565b6101c161033c366004611278565b610aa4565b6102a6610b36565b61020f610357366004611325565b610b65565b6101c161036a36600461144d565b610b91565b61032161037d36600461114c565b610c24565b61038a610c42565b60405161021e9291906118df565b6101c16103a636600461114c565b610c94565b6102a66103b9366004611418565b610cc7565b6103c6610a80565b6103ee57604051600160e51b62461bcd0281526004016103e5906118af565b60405180910390fd5b600480546001600160a01b0319166001600160a01b0392909216919091179055565b610418610a80565b61043757604051600160e51b62461bcd0281526004016103e5906118af565b60036020527f3617319a054d772f909f7c479a2cebe5066e836a939412e32403c99029b92eff9190915560016000527fa15bc60c955c405d20d9149c709e2460f1c2d9a497496a7f46004d1772c3054c55565b61049333610c24565b6105145760006104a1610b36565b905080156105125760048054604051600160e51b6302654acd0281526001600160a01b0390911691634ca959a0916104df918691339187910161176d565b600060405180830381600087803b1580156104f957600080fd5b505af115801561050d573d6000803e3d6000fd5b505050505b505b600084815260026020526040902080546001600160a01b031633148061053e575061053e33610c24565b61055d57604051600160e51b62461bcd0281526004016103e59061188f565b82156105725760028101839055600181018490555b5050505050565b61058233610c24565b6105a157604051600160e51b62461bcd0281526004016103e59061187f565b6105ac838383610cf7565b505050565b60008060006105be610f44565b50505060009182525060026020818152604092839020835160608101855281546001600160a01b031680825260018301549382018490529190930154929093018290529192565b600061060f610f44565b5050600090815260026020818152604092839020835160608101855281546001600160a01b0316808252600183015493820193909352920154919092015290565b815161065b33610c24565b6106ec5760006106798261066d610b36565b9063ffffffff610d5716565b905080156106ea5760048054604051600160e51b6302654acd0281526001600160a01b0390911691634ca959a0916106b7918791339187910161176d565b600060405180830381600087803b1580156106d157600080fd5b505af11580156106e5573d6000803e3d6000fd5b505050505b505b60005b8181101561071b5761071384828151811061070657fe5b6020026020010151610d9d565b6001016106ef565b50505050565b610729610a80565b61074857604051600160e51b62461bcd0281526004016103e5906118af565b306001600160a01b0316638da5cb5b6040518163ffffffff1660e01b815260040160206040518083038186803b15801561078157600080fd5b505afa158015610795573d6000803e3d6000fd5b505050506040513d601f19601f820116820180604052506107b99190810190611172565b6001600160a01b03166108fc829081150290604051600060405180830381858888f193505050501580156107f1573d6000803e3d6000fd5b5050565b6107f1828233610cf7565b610808610a80565b61082757604051600160e51b62461bcd0281526004016103e5906118af565b6001600160a01b03919091166000908152600160205260409020805460ff1916911515919091179055565b60036020526000908152604090205481565b61086d33610c24565b61088c57604051600160e51b62461bcd0281526004016103e59061187f565b60048054604051600160e51b6302654acd0281526001600160a01b0390911691634ca959a0916108c291879187918791016117d3565b600060405180830381600087803b1580156108dc57600080fd5b505af11580156108f0573d6000803e3d6000fd5b50505050505050565b60005b82518110156105ac5761092383828151811061091457fe5b60200260200101518333610cf7565b6001016108fc565b61093433610c24565b61095357604051600160e51b62461bcd0281526004016103e59061187f565b60048054604051600160e01b636556cd050281526001600160a01b0390911691636556cd059161098b91889188918891889101611795565b600060405180830381600087803b1580156109a557600080fd5b505af11580156109b9573d6000803e3d6000fd5b5050505050505050565b6004546001600160a01b031681565b6109da610a80565b6109f957604051600160e51b62461bcd0281526004016103e5906118af565b600080546040516001600160a01b03909116907f8be0079c531659141344cd1fd0a4f28419497f9722a3daafe3b4186f6b6457e0908390a3600080546001600160a01b0319169055565b6000805260036020527f3617319a054d772f909f7c479a2cebe5066e836a939412e32403c99029b92eff5490565b6000546001600160a01b031690565b600080546001600160a01b0316610a95610ebc565b6001600160a01b031614905090565b610aad33610c24565b610acc57604051600160e51b62461bcd0281526004016103e59061187f565b60048054604051600160e01b63a9059cbb0281526001600160a01b039091169163a9059cbb91610b00918691869101611809565b600060405180830381600087803b158015610b1a57600080fd5b505af1158015610b2e573d6000803e3d6000fd5b505050505050565b600160005260036020527fa15bc60c955c405d20d9149c709e2460f1c2d9a497496a7f46004d1772c3054c5490565b60026020819052600091825260409091208054600182015491909201546001600160a01b039092169183565b610b9a33610c24565b610c1b576000610ba8610a43565b90508015610c195760048054604051600160e51b6302654acd0281526001600160a01b0390911691634ca959a091610be6918691339187910161176d565b600060405180830381600087803b158015610c0057600080fd5b505af1158015610c14573d6000803e3d6000fd5b505050505b505b6107f182610d9d565b6001600160a01b031660009081526001602052604090205460ff1690565b60036020527f3617319a054d772f909f7c479a2cebe5066e836a939412e32403c99029b92eff5460016000527fa15bc60c955c405d20d9149c709e2460f1c2d9a497496a7f46004d1772c3054c549091565b610c9c610a80565b610cbb57604051600160e51b62461bcd0281526004016103e5906118af565b610cc481610ec0565b50565b600081604051602001610cda919061174c565b604051602081830303815290604052805190602001209050919050565b600083815260026020526040902080546001600160a01b03838116911614610d3457604051600160e51b62461bcd0281526004016103e5906118bf565b80546001600160a01b0319166001600160a01b0393909316929092179091555050565b600082610d6657506000610d97565b82820282848281610d7357fe5b0414610d9457604051600160e51b62461bcd0281526004016103e59061189f565b90505b92915050565b6000610dac8260000151610cc7565b60008181526002602052604090206060840151919250906001600160a01b0316610deb57604051600160e51b62461bcd0281526004016103e5906118cf565b80546001600160a01b031615610e1657604051600160e51b62461bcd0281526004016103e59061185f565b606083015181546001600160a01b039182166001600160a01b03199182161780845560208087015160018087019182556040808a01516002808a0191825560008b81529581905294829020805490971695909716949094178555905490840155925491909201558351905183917f9096b4564a2bafa0ceef5b1e2a3726b6c688e97d8231050b488716d3c5d0632891610eaf919061184e565b60405180910390a2505050565b3390565b6001600160a01b038116610ee957604051600160e51b62461bcd0281526004016103e59061186f565b600080546040516001600160a01b03808516939216917f8be0079c531659141344cd1fd0a4f28419497f9722a3daafe3b4186f6b6457e091a3600080546001600160a01b0319166001600160a01b0392909216919091179055565b604080516060810182526000808252602082018190529181019190915290565b8035610d97816119e6565b8051610d97816119e6565b600082601f830112610f8b57600080fd5b8135610f9e610f9982611914565b6118ed565b91508181835260208401935060208101905083856020840282011115610fc357600080fd5b60005b83811015610fef5781610fd98882611061565b8452506020928301929190910190600101610fc6565b5050505092915050565b600082601f83011261100a57600080fd5b8135611018610f9982611914565b81815260209384019390925082018360005b83811015610fef578135860161104088826110c6565b845250602092830192919091019060010161102a565b8035610d97816119fa565b8035610d9781611a03565b8035610d9781611a0c565b600082601f83011261108857600080fd5b8135611096610f9982611935565b915080825260208301602083018583830111156110b257600080fd5b6110bd8382846119a4565b50505092915050565b6000608082840312156110d857600080fd5b6110e260806118ed565b9050813567ffffffffffffffff8111156110fb57600080fd5b61110784828501611077565b825250602061111884848301611061565b602083015250604061112c84828501611061565b604083015250606061114084828501610f64565b60608301525092915050565b60006020828403121561115e57600080fd5b600061116a8484610f64565b949350505050565b60006020828403121561118457600080fd5b600061116a8484610f6f565b600080600080608085870312156111a657600080fd5b60006111b28787610f64565b94505060206111c387828801610f64565b93505060406111d487828801610f64565b92505060606111e587828801611061565b91505092959194509250565b60008060006060848603121561120657600080fd5b60006112128686610f64565b935050602061122386828701610f64565b925050604061123486828701611061565b9150509250925092565b6000806040838503121561125157600080fd5b600061125d8585610f64565b925050602061126e85828601611056565b9150509250929050565b6000806040838503121561128b57600080fd5b60006112978585610f64565b925050602061126e85828601611061565b600080604083850312156112bb57600080fd5b823567ffffffffffffffff8111156112d257600080fd5b6112de85828601610f7a565b925050602061126e85828601610f64565b6000806040838503121561130257600080fd5b823567ffffffffffffffff81111561131957600080fd5b6112de85828601610ff9565b60006020828403121561133757600080fd5b600061116a8484611061565b6000806040838503121561135657600080fd5b60006112de8585611061565b60008060006060848603121561137757600080fd5b60006113838686611061565b935050602061139486828701610f64565b925050604061123486828701610f64565b600080600080608085870312156113bb57600080fd5b60006113c78787611061565b94505060206113d887828801611061565b93505060406113e987828801611061565b92505060606111e587828801610f64565b60006020828403121561140c57600080fd5b600061116a848461106c565b60006020828403121561142a57600080fd5b813567ffffffffffffffff81111561144157600080fd5b61116a84828501611077565b6000806040838503121561146057600080fd5b823567ffffffffffffffff81111561147757600080fd5b6112de858286016110c6565b6000806040838503121561149657600080fd5b60006112978585611061565b6114ab81611999565b82525050565b6114ab8161196f565b6114ab8161197a565b6114ab8161197f565b6114ab81611982565b60006114e08261195d565b6114ea818561196a565b93506114fa8185602086016119b0565b9290920192915050565b600061150f8261195d565b6115198185611961565b93506115298185602086016119b0565b611532816119dc565b9093019392505050565b6000611549601483611961565b7f6578697374696e67207065727370656374697665000000000000000000000000815260200192915050565b6000611582602683611961565b7f4f776e61626c653a206e6577206f776e657220697320746865207a65726f20618152600160d01b6564647265737302602082015260400192915050565b60006115cd602883611961565b7f486173537570657255736572733a2063616c6c6572206973206e6f74206120738152600160c11b673ab832b92ab9b2b902602082015260400192915050565b600061161a602983611961565b7f6f6e6c7920746865206f776e65722063616e20757064617465207468652070658152600160b81b6872737065637469766502602082015260400192915050565b6000611668602183611961565b7f536166654d6174683a206d756c7469706c69636174696f6e206f766572666c6f8152600160f81b607702602082015260400192915050565b60006116ae602083611961565b7f4f776e61626c653a2063616c6c6572206973206e6f7420746865206f776e6572815260200192915050565b60006116e7601383611961565b7f756e617574686f72697a65642061636365737300000000000000000000000000815260200192915050565b6000611720601583611961565b7f6f776e65722063616e6e6f7420626520656d7074790000000000000000000000815260200192915050565b600061175882846114d5565b9392505050565b60208101610d9782846114b1565b6060810161177b82866114b1565b61178860208301856114a2565b61116a60408301846114c3565b608081016117a382876114b1565b6117b060208301866114b1565b6117bd60408301856114b1565b6117ca60608301846114c3565b95945050505050565b606081016117e182866114b1565b61178860208301856114b1565b606081016117fc82866114b1565b61178860208301856114c3565b6040810161181782856114b1565b61175860208301846114c3565b60208101610d9782846114ba565b60208101610d9782846114c3565b60208101610d9782846114cc565b602080825281016117588184611504565b60208082528101610d978161153c565b60208082528101610d9781611575565b60208082528101610d97816115c0565b60208082528101610d978161160d565b60208082528101610d978161165b565b60208082528101610d97816116a1565b60208082528101610d97816116da565b60208082528101610d9781611713565b6040810161181782856114c3565b60405181810167ffffffffffffffff8111828210171561190c57600080fd5b604052919050565b600067ffffffffffffffff82111561192b57600080fd5b5060209081020190565b600067ffffffffffffffff82111561194c57600080fd5b506020601f91909101601f19160190565b5190565b90815260200190565b919050565b6000610d978261198d565b151590565b90565b6000610d978261196f565b6001600160a01b031690565b6000610d9782611982565b82818337506000910152565b60005b838110156119cb5781810151838201526020016119b3565b8381111561071b5750506000910152565b601f01601f191690565b6119ef8161196f565b8114610cc457600080fd5b6119ef8161197a565b6119ef8161197f565b6119ef8161198256fea265627a7a72305820c06355f397e87ef98f0a68f7b887a0f86fab1fa7fcfc12cf0c55724ed67540cb6c6578706572696d656e74616cf50037",
  "source": "pragma solidity >=0.5.0 <0.6.0;\npragma experimental ABIEncoderV2;\n\nimport \"./Ownable.sol\";\nimport \"./SafeMath.sol\";\n\nimport \"./UprtclAccounts.sol\";\n\n/** Underscore Protocol Ethereum Service used to store the content of\n* _Prtcl perspectives */\ncontract UprtclRoot is HasSuperUsers {\n    using SafeMath for uint256;\n\n    struct Perspective {\n        address owner;\n        bytes32 headCid1;\n        bytes32 headCid0;\n    }\n\n    struct NewPerspective {\n        string perspectiveId;\n        bytes32 headCid1;\n        bytes32 headCid0;\n        address owner;\n    }\n\n    /** superUsers can update any perspective */\n    mapping(bytes32 => Perspective) public perspectives;\n\n    mapping(uint256 => uint256) public fees;\n\n    event PerspectiveCreated(\n        bytes32 indexed perspectiveIdHash,\n        string perspectiveId\n    );\n\n    UprtclAccounts public accounts;\n\n    function setAccounts(UprtclAccounts _accounts) public onlyOwner {\n        accounts = _accounts;\n    }\n\n    function withdraw(uint256 amount) public onlyOwner {\n        this.owner().transfer(amount);\n    }\n\n    function setFees(uint256 addFee, uint256 updateFee) public onlyOwner {\n        fees[0] = addFee;\n        fees[1] = updateFee;\n    }\n\n    function getFees() public view returns (uint256 addFee, uint256 updateFee) {\n        return (fees[0], fees[1]);\n    }\n\n    function getAddFee() public view returns (uint256) {\n        return fees[0];\n    }\n\n    function getUpdateFee() public view returns (uint256) {\n        return fees[1];\n    }\n\n    function consume(address account, address by, uint256 amount) public onlySuperUser {\n        accounts.consume(account, by, amount);\n    }\n\n    function transferTo(address from, address by, address to, uint256 amount) public onlySuperUser {\n        accounts.transferTo(from, by, to, amount);\n    }\n\n    function transfer(address to, uint256 amount) public onlySuperUser {\n        accounts.transfer(to, amount);\n    }\n\n    function getPerspectiveIdHash(string memory perspectiveId) public pure returns (bytes32 idHash) {\n        return keccak256(abi.encodePacked(perspectiveId));\n    }\n\n    /** Adds a new perspective to the mapping and sets the owner. The head pointer and the context. */\n    function createPerspectiveInternal(NewPerspective memory newPerspective)\n        private\n    {\n        bytes32 perspectiveIdHash = getPerspectiveIdHash(newPerspective.perspectiveId);\n\n        Perspective storage perspective = perspectives[perspectiveIdHash];\n        require(address(0) != newPerspective.owner, \"owner cannot be empty\");\n        require(address(0) == perspective.owner, \"existing perspective\");\n\n        perspective.owner = newPerspective.owner;\n        perspective.headCid1 = newPerspective.headCid1;\n        perspective.headCid0 = newPerspective.headCid0;\n\n        perspectives[perspectiveIdHash] = perspective;\n\n        emit PerspectiveCreated(\n            perspectiveIdHash,\n            newPerspective.perspectiveId\n        );\n    }\n\n    function createPerspective(NewPerspective memory newPerspective, address account)\n        public\n    {\n        if (!isSuperUser(msg.sender)) {\n            uint256 fee = getAddFee();\n            if (fee > 0) {\n                accounts.consume(account, msg.sender, fee);\n            }\n        }\n        createPerspectiveInternal(newPerspective);\n    }\n\n    function createPerspectiveBatch(NewPerspective[] memory newPerspectives, address account)\n        public\n    {\n        uint256 nPerspectives = newPerspectives.length;\n\n        if (!isSuperUser(msg.sender)) {\n            uint256 fee = getUpdateFee().mul(nPerspectives);\n\n            if (fee > 0) {\n                accounts.consume(account, msg.sender, fee);\n            }\n        }\n\n        for (uint256 ix = 0; ix < nPerspectives; ix++) {\n            createPerspectiveInternal(newPerspectives[ix]);\n        }\n    }\n\n    function updateHead(\n        bytes32 perspectiveIdHash,\n        bytes32 newHeadCid1,\n        bytes32 newHeadCid0,\n        address account\n    ) public {\n        if (!isSuperUser(msg.sender)) {\n            uint256 fee = getUpdateFee();\n            if (fee > 0) {\n                accounts.consume(account, msg.sender, fee);\n            }\n        }\n\n        Perspective storage perspective = perspectives[perspectiveIdHash];\n\n        require(\n            (perspective.owner == msg.sender) || isSuperUser(msg.sender),\n            \"only the owner can update the perspective\"\n        );\n\n        if (newHeadCid0 != bytes32(0)) {\n            perspective.headCid0 = newHeadCid0;\n            perspective.headCid1 = newHeadCid1;\n        }\n    }\n\n    function changePerspectiveOwnerInternal(\n        bytes32 perspectiveIdHash,\n        address newOwner,\n        address sender\n    ) private {\n        Perspective storage perspective = perspectives[perspectiveIdHash];\n        require(sender == perspective.owner, \"unauthorized access\");\n        \n        perspective.owner = newOwner;\n    }\n\n    /** Changes the owner of a given perspective. Available only to the current owner of that perspective. */\n    function changePerspectiveOwner(bytes32 perspectiveIdHash, address newOwner)\n        public\n    {\n        changePerspectiveOwnerInternal(perspectiveIdHash, newOwner, msg.sender);\n    }\n\n    function changePerspectiveOwnerSuperUser(bytes32 perspectiveIdHash, address newOwner, address msgSender) external onlySuperUser {\n        changePerspectiveOwnerInternal(perspectiveIdHash, newOwner, msgSender);\n    }\n\n    function changePerspectiveOwnerBatch(\n        bytes32[] memory perspectiveIdsHashes,\n        address newOwner\n    ) public {\n        for (uint256 ix = 0; ix < perspectiveIdsHashes.length; ix++) {\n            changePerspectiveOwnerInternal(\n                perspectiveIdsHashes[ix],\n                newOwner,\n                msg.sender\n            );\n        }\n    }\n\n    /** Get the perspective owner and details from its ID */\n    function getPerspective(bytes32 perspectiveIdHash)\n        public\n        view\n        returns (address owner, bytes32 headCid1, bytes32 headCid0)\n    {\n        Perspective memory perspective = perspectives[perspectiveIdHash];\n\n        return (perspective.owner, perspective.headCid1, perspective.headCid0);\n    }\n\n    /** Get the perspective owner and details from its ID */\n    function getPerspectiveOwner(bytes32 perspectiveIdHash)\n        public\n        view\n        returns (address owner)\n    {\n        Perspective memory perspective = perspectives[perspectiveIdHash];\n\n        return (perspective.owner);\n    }\n\n}\n",
  "sourcePath": "/home/pepo/pr/uprtcl/eth-uprtcl/contracts/UprtclRoot.sol",
  "compiler": {
    "name": "solc",
    "version": "0.5.8+commit.23d335f2.Emscripten.clang"
  },
  "schemaVersion": "3.0.11",
  "updatedAt": "2020-03-23T20:40:10.042Z",
  "devdoc": {
    "methods": {
      "isOwner()": {
        "details": "Returns true if the caller is the current owner."
      },
      "owner()": {
        "details": "Returns the address of the current owner."
      },
      "renounceOwnership()": {
        "details": "Leaves the contract without owner. It will not be possible to call `onlyOwner` functions anymore. Can only be called by the current owner.     * NOTE: Renouncing ownership will leave the contract without an owner, thereby removing any functionality that is only available to the owner."
      },
      "transferOwnership(address)": {
        "details": "Transfers ownership of the contract to a new account (`newOwner`). Can only be called by the current owner."
      }
    }
  },
  "userdoc": {
    "methods": {
      "changePerspectiveOwner(bytes32,address)": {
        "notice": "Changes the owner of a given perspective. Available only to the current owner of that perspective. "
      },
      "getPerspective(bytes32)": {
        "notice": "Get the perspective owner and details from its ID "
      },
      "getPerspectiveOwner(bytes32)": {
        "notice": "Get the perspective owner and details from its ID "
      }
    },
    "notice": "Underscore Protocol Ethereum Service used to store the content of _Prtcl perspectives "
  }
}