{
  "contractName": "UprtclRoot",
  "abi": [
    {
      "constant": false,
      "inputs": [
        {
          "name": "suAddress",
          "type": "address"
        },
        {
          "name": "value",
          "type": "bool"
        }
      ],
      "name": "setSuperUser",
      "outputs": [],
      "payable": false,
      "stateMutability": "nonpayable",
      "type": "function"
    },
    {
      "constant": true,
      "inputs": [
        {
          "name": "",
          "type": "uint256"
        }
      ],
      "name": "fees",
      "outputs": [
        {
          "name": "",
          "type": "uint256"
        }
      ],
      "payable": false,
      "stateMutability": "view",
      "type": "function"
    },
    {
      "constant": true,
      "inputs": [],
      "name": "accounts",
      "outputs": [
        {
          "name": "",
          "type": "address"
        }
      ],
      "payable": false,
      "stateMutability": "view",
      "type": "function"
    },
    {
      "constant": false,
      "inputs": [],
      "name": "renounceOwnership",
      "outputs": [],
      "payable": false,
      "stateMutability": "nonpayable",
      "type": "function"
    },
    {
      "constant": true,
      "inputs": [],
      "name": "owner",
      "outputs": [
        {
          "name": "",
          "type": "address"
        }
      ],
      "payable": false,
      "stateMutability": "view",
      "type": "function"
    },
    {
      "constant": true,
      "inputs": [],
      "name": "isOwner",
      "outputs": [
        {
          "name": "",
          "type": "bool"
        }
      ],
      "payable": false,
      "stateMutability": "view",
      "type": "function"
    },
    {
      "constant": true,
      "inputs": [
        {
          "name": "",
          "type": "bytes32"
        }
      ],
      "name": "perspectives",
      "outputs": [
        {
          "name": "owner",
          "type": "address"
        }
      ],
      "payable": false,
      "stateMutability": "view",
      "type": "function"
    },
    {
      "constant": true,
      "inputs": [
        {
          "name": "suAddress",
          "type": "address"
        }
      ],
      "name": "isSuperUser",
      "outputs": [
        {
          "name": "",
          "type": "bool"
        }
      ],
      "payable": false,
      "stateMutability": "view",
      "type": "function"
    },
    {
      "constant": false,
      "inputs": [
        {
          "name": "newOwner",
          "type": "address"
        }
      ],
      "name": "transferOwnership",
      "outputs": [],
      "payable": false,
      "stateMutability": "nonpayable",
      "type": "function"
    },
    {
      "anonymous": false,
      "inputs": [
        {
          "indexed": true,
          "name": "perspectiveIdHash",
          "type": "bytes32"
        },
        {
          "indexed": false,
          "name": "perspectiveId",
          "type": "string"
        }
      ],
      "name": "PerspectiveCreated",
      "type": "event"
    },
    {
      "anonymous": false,
      "inputs": [
        {
          "indexed": true,
          "name": "perspectiveIdHash",
          "type": "bytes32"
        },
        {
          "indexed": false,
          "name": "headCid1",
          "type": "bytes32"
        },
        {
          "indexed": false,
          "name": "headCid0",
          "type": "bytes32"
        }
      ],
      "name": "PerspectiveHeadUpdated",
      "type": "event"
    },
    {
      "anonymous": false,
      "inputs": [
        {
          "indexed": true,
          "name": "previousOwner",
          "type": "address"
        },
        {
          "indexed": true,
          "name": "newOwner",
          "type": "address"
        }
      ],
      "name": "OwnershipTransferred",
      "type": "event"
    },
    {
      "constant": false,
      "inputs": [
        {
          "name": "_accounts",
          "type": "address"
        }
      ],
      "name": "setAccounts",
      "outputs": [],
      "payable": false,
      "stateMutability": "nonpayable",
      "type": "function"
    },
    {
      "constant": false,
      "inputs": [
        {
          "name": "amount",
          "type": "uint256"
        }
      ],
      "name": "withdraw",
      "outputs": [],
      "payable": false,
      "stateMutability": "nonpayable",
      "type": "function"
    },
    {
      "constant": false,
      "inputs": [
        {
          "name": "addFee",
          "type": "uint256"
        },
        {
          "name": "updateFee",
          "type": "uint256"
        }
      ],
      "name": "setFees",
      "outputs": [],
      "payable": false,
      "stateMutability": "nonpayable",
      "type": "function"
    },
    {
      "constant": true,
      "inputs": [],
      "name": "getFees",
      "outputs": [
        {
          "name": "addFee",
          "type": "uint256"
        },
        {
          "name": "updateFee",
          "type": "uint256"
        }
      ],
      "payable": false,
      "stateMutability": "view",
      "type": "function"
    },
    {
      "constant": true,
      "inputs": [],
      "name": "getAddFee",
      "outputs": [
        {
          "name": "",
          "type": "uint256"
        }
      ],
      "payable": false,
      "stateMutability": "view",
      "type": "function"
    },
    {
      "constant": true,
      "inputs": [],
      "name": "getUpdateFee",
      "outputs": [
        {
          "name": "",
          "type": "uint256"
        }
      ],
      "payable": false,
      "stateMutability": "view",
      "type": "function"
    },
    {
      "constant": false,
      "inputs": [
        {
          "name": "account",
          "type": "address"
        },
        {
          "name": "by",
          "type": "address"
        },
        {
          "name": "amount",
          "type": "uint256"
        }
      ],
      "name": "consume",
      "outputs": [],
      "payable": false,
      "stateMutability": "nonpayable",
      "type": "function"
    },
    {
      "constant": false,
      "inputs": [
        {
          "name": "from",
          "type": "address"
        },
        {
          "name": "by",
          "type": "address"
        },
        {
          "name": "to",
          "type": "address"
        },
        {
          "name": "amount",
          "type": "uint256"
        }
      ],
      "name": "transferTo",
      "outputs": [],
      "payable": false,
      "stateMutability": "nonpayable",
      "type": "function"
    },
    {
      "constant": false,
      "inputs": [
        {
          "name": "to",
          "type": "address"
        },
        {
          "name": "amount",
          "type": "uint256"
        }
      ],
      "name": "transfer",
      "outputs": [],
      "payable": false,
      "stateMutability": "nonpayable",
      "type": "function"
    },
    {
      "constant": true,
      "inputs": [
        {
          "name": "perspectiveId",
          "type": "string"
        }
      ],
      "name": "getPerspectiveIdHash",
      "outputs": [
        {
          "name": "idHash",
          "type": "bytes32"
        }
      ],
      "payable": false,
      "stateMutability": "pure",
      "type": "function"
    },
    {
      "constant": false,
      "inputs": [
        {
          "components": [
            {
              "name": "perspectiveId",
              "type": "string"
            },
            {
              "name": "headCid1",
              "type": "bytes32"
            },
            {
              "name": "headCid0",
              "type": "bytes32"
            },
            {
              "name": "owner",
              "type": "address"
            }
          ],
          "name": "newPerspective",
          "type": "tuple"
        },
        {
          "name": "account",
          "type": "address"
        }
      ],
      "name": "createPerspective",
      "outputs": [],
      "payable": false,
      "stateMutability": "nonpayable",
      "type": "function"
    },
    {
      "constant": false,
      "inputs": [
        {
          "components": [
            {
              "name": "perspectiveId",
              "type": "string"
            },
            {
              "name": "headCid1",
              "type": "bytes32"
            },
            {
              "name": "headCid0",
              "type": "bytes32"
            },
            {
              "name": "owner",
              "type": "address"
            }
          ],
          "name": "newPerspectives",
          "type": "tuple[]"
        },
        {
          "name": "account",
          "type": "address"
        }
      ],
      "name": "createPerspectiveBatch",
      "outputs": [],
      "payable": false,
      "stateMutability": "nonpayable",
      "type": "function"
    },
    {
      "constant": false,
      "inputs": [
        {
          "name": "perspectiveIdHash",
          "type": "bytes32"
        },
        {
          "name": "newHeadCid1",
          "type": "bytes32"
        },
        {
          "name": "newHeadCid0",
          "type": "bytes32"
        },
        {
          "name": "account",
          "type": "address"
        }
      ],
      "name": "updateHead",
      "outputs": [],
      "payable": false,
      "stateMutability": "nonpayable",
      "type": "function"
    },
    {
      "constant": false,
      "inputs": [
        {
          "name": "perspectiveIdHash",
          "type": "bytes32"
        },
        {
          "name": "newOwner",
          "type": "address"
        }
      ],
      "name": "changePerspectiveOwner",
      "outputs": [],
      "payable": false,
      "stateMutability": "nonpayable",
      "type": "function"
    },
    {
      "constant": false,
      "inputs": [
        {
          "name": "perspectiveIdHash",
          "type": "bytes32"
        },
        {
          "name": "newOwner",
          "type": "address"
        },
        {
          "name": "msgSender",
          "type": "address"
        }
      ],
      "name": "changePerspectiveOwnerSuperUser",
      "outputs": [],
      "payable": false,
      "stateMutability": "nonpayable",
      "type": "function"
    },
    {
      "constant": false,
      "inputs": [
        {
          "name": "perspectiveIdsHashes",
          "type": "bytes32[]"
        },
        {
          "name": "newOwner",
          "type": "address"
        }
      ],
      "name": "changePerspectiveOwnerBatch",
      "outputs": [],
      "payable": false,
      "stateMutability": "nonpayable",
      "type": "function"
    },
    {
      "constant": true,
      "inputs": [
        {
          "name": "perspectiveIdHash",
          "type": "bytes32"
        }
      ],
      "name": "getPerspectiveOwner",
      "outputs": [
        {
          "name": "owner",
          "type": "address"
        }
      ],
      "payable": false,
      "stateMutability": "view",
      "type": "function"
    }
  ],
  "bytecode": "0x608060405261001261005f60201b60201c565b600080546001600160a01b0319166001600160a01b03928316178082556040519216917f8be0079c531659141344cd1fd0a4f28419497f9722a3daafe3b4186f6b6457e0908290a3610063565b3390565b6119af806100726000396000f3fe608060405234801561001057600080fd5b506004361061018e5760003560e01c806368cd03f6116100de578063b7b0ccde11610097578063cd784d1b11610071578063cd784d1b14610332578063db8d55f114610345578063f2fde38b1461035b578063fc87de391461036e5761018e565b8063b7b0ccde14610304578063b92d30dc1461030c578063c886170b1461031f5761018e565b806368cd03f6146102af578063715018a6146102c457806386830d58146102cc5780638da5cb5b146102d45780638f32d59b146102dc578063a9059cbb146102f15761018e565b80632e1a7d4d1161014b5780634acc79ed116101255780634acc79ed146102565780634ca959a0146102765780634eee8c43146102895780636556cd051461029c5761018e565b80632e1a7d4d1461021d57806339c375941461023057806345655b4e146102435761018e565b806308274382146101935780630b78f9c0146101a85780630ea787e8146101bb5780630eac9b0c146101ce5780631393bbf5146101e15780632349a4921461020a575b600080fd5b6101a66101a1366004611375565b610381565b005b6101a66101b63660046113fe565b6103d3565b6101a66101c9366004611320565b61044d565b6101a66101dc3660046112dd565b610561565b6101f46101ef3660046112a0565b610599565b60405161020191906116da565b60405180910390f35b6101a661021836600461126a565b6105d1565b6101a661022b3660046112a0565b6106a2565b6101a661023e3660046112be565b610776565b6101a66102513660046111b9565b610781565b6102696102643660046112a0565b6107d3565b6040516102019190611792565b6101a661028436600461116c565b6107e5565b6101a6610297366004611223565b61087a565b6101a66102aa36600461110b565b6108ac565b6102b7610944565b60405161020191906117ae565b6101a6610953565b6102696109c4565b6101f46109f2565b6102e4610a01565b6040516102019190611784565b6101a66102ff3660046111f3565b610a25565b610269610ab7565b6101f461031a3660046112a0565b610ae6565b6101a661032d3660046113c8565b610b01565b6102e46103403660046110c7565b610b94565b61034d610bb2565b6040516102019291906117a0565b6101a66103693660046110c7565b610c04565b61026961037c366004611393565b610c37565b610389610a01565b6103b157604051600160e51b62461bcd0281526004016103a89061181d565b60405180910390fd5b600480546001600160a01b0319166001600160a01b0392909216919091179055565b6103db610a01565b6103fa57604051600160e51b62461bcd0281526004016103a89061181d565b60036020527f3617319a054d772f909f7c479a2cebe5066e836a939412e32403c99029b92eff9190915560016000527fa15bc60c955c405d20d9149c709e2460f1c2d9a497496a7f46004d1772c3054c55565b61045633610b94565b6104d7576000610464610ab7565b905080156104d55760048054604051600160e51b6302654acd0281526001600160a01b0390911691634ca959a0916104a291869133918791016116e8565b600060405180830381600087803b1580156104bc57600080fd5b505af11580156104d0573d6000803e3d6000fd5b505050505b505b600084815260026020526040902080546001600160a01b0316331480610501575061050133610b94565b61052057604051600160e51b62461bcd0281526004016103a8906117fd565b847ffb5827bd51db989dc5cb76bb9d0c88277de2389aa0d547b0a87fe23f9759101185856040516105529291906117a0565b60405180910390a25050505050565b61056a33610b94565b61058957604051600160e51b62461bcd0281526004016103a8906117ed565b610594838383610c67565b505050565b60006105a3610ecd565b5050600090815260026020908152604091829020825191820190925290546001600160a01b03169081905290565b81516105dc33610b94565b61066d5760006105fa826105ee610ab7565b9063ffffffff610cc716565b9050801561066b5760048054604051600160e51b6302654acd0281526001600160a01b0390911691634ca959a09161063891879133918791016116e8565b600060405180830381600087803b15801561065257600080fd5b505af1158015610666573d6000803e3d6000fd5b505050505b505b60005b8181101561069c5761069484828151811061068757fe5b6020026020010151610d0d565b600101610670565b50505050565b6106aa610a01565b6106c957604051600160e51b62461bcd0281526004016103a89061181d565b306001600160a01b0316638da5cb5b6040518163ffffffff1660e01b815260040160206040518083038186803b15801561070257600080fd5b505afa158015610716573d6000803e3d6000fd5b505050506040513d601f19601f8201168201806040525061073a91908101906110ed565b6001600160a01b03166108fc829081150290604051600060405180830381858888f19350505050158015610772573d6000803e3d6000fd5b5050565b610772828233610c67565b610789610a01565b6107a857604051600160e51b62461bcd0281526004016103a89061181d565b6001600160a01b03919091166000908152600160205260409020805460ff1916911515919091179055565b60036020526000908152604090205481565b6107ee33610b94565b61080d57604051600160e51b62461bcd0281526004016103a8906117ed565b60048054604051600160e51b6302654acd0281526001600160a01b0390911691634ca959a091610843918791879187910161174e565b600060405180830381600087803b15801561085d57600080fd5b505af1158015610871573d6000803e3d6000fd5b50505050505050565b60005b8251811015610594576108a483828151811061089557fe5b60200260200101518333610c67565b60010161087d565b6108b533610b94565b6108d457604051600160e51b62461bcd0281526004016103a8906117ed565b60048054604051600160e01b636556cd050281526001600160a01b0390911691636556cd059161090c91889188918891889101611710565b600060405180830381600087803b15801561092657600080fd5b505af115801561093a573d6000803e3d6000fd5b5050505050505050565b6004546001600160a01b031681565b61095b610a01565b61097a57604051600160e51b62461bcd0281526004016103a89061181d565b600080546040516001600160a01b03909116907f8be0079c531659141344cd1fd0a4f28419497f9722a3daafe3b4186f6b6457e0908390a3600080546001600160a01b0319169055565b6000805260036020527f3617319a054d772f909f7c479a2cebe5066e836a939412e32403c99029b92eff5490565b6000546001600160a01b031690565b600080546001600160a01b0316610a16610e45565b6001600160a01b031614905090565b610a2e33610b94565b610a4d57604051600160e51b62461bcd0281526004016103a8906117ed565b60048054604051600160e01b63a9059cbb0281526001600160a01b039091169163a9059cbb91610a81918691869101611769565b600060405180830381600087803b158015610a9b57600080fd5b505af1158015610aaf573d6000803e3d6000fd5b505050505050565b600160005260036020527fa15bc60c955c405d20d9149c709e2460f1c2d9a497496a7f46004d1772c3054c5490565b6002602052600090815260409020546001600160a01b031681565b610b0a33610b94565b610b8b576000610b186109c4565b90508015610b895760048054604051600160e51b6302654acd0281526001600160a01b0390911691634ca959a091610b5691869133918791016116e8565b600060405180830381600087803b158015610b7057600080fd5b505af1158015610b84573d6000803e3d6000fd5b505050505b505b61077282610d0d565b6001600160a01b031660009081526001602052604090205460ff1690565b60036020527f3617319a054d772f909f7c479a2cebe5066e836a939412e32403c99029b92eff5460016000527fa15bc60c955c405d20d9149c709e2460f1c2d9a497496a7f46004d1772c3054c549091565b610c0c610a01565b610c2b57604051600160e51b62461bcd0281526004016103a89061181d565b610c3481610e49565b50565b600081604051602001610c4a91906116c7565b604051602081830303815290604052805190602001209050919050565b600083815260026020526040902080546001600160a01b03838116911614610ca457604051600160e51b62461bcd0281526004016103a89061182d565b80546001600160a01b0319166001600160a01b0393909316929092179091555050565b600082610cd657506000610d07565b82820282848281610ce357fe5b0414610d0457604051600160e51b62461bcd0281526004016103a89061180d565b90505b92915050565b6000610d1c8260000151610c37565b60008181526002602052604090206060840151919250906001600160a01b0316610d5b57604051600160e51b62461bcd0281526004016103a89061183d565b80546001600160a01b031615610d8657604051600160e51b62461bcd0281526004016103a8906117cd565b606083015181546001600160a01b039182166001600160a01b031991821617808455600085815260026020526040908190208054909316919093161790558351905183917f9096b4564a2bafa0ceef5b1e2a3726b6c688e97d8231050b488716d3c5d0632891610df691906117bc565b60405180910390a2817ffb5827bd51db989dc5cb76bb9d0c88277de2389aa0d547b0a87fe23f9759101184602001518560400151604051610e389291906117a0565b60405180910390a2505050565b3390565b6001600160a01b038116610e7257604051600160e51b62461bcd0281526004016103a8906117dd565b600080546040516001600160a01b03808516939216917f8be0079c531659141344cd1fd0a4f28419497f9722a3daafe3b4186f6b6457e091a3600080546001600160a01b0319166001600160a01b0392909216919091179055565b60408051602081019091526000815290565b8035610d0781611946565b8051610d0781611946565b600082601f830112610f0657600080fd5b8135610f19610f1482611874565b61184d565b91508181835260208401935060208101905083856020840282011115610f3e57600080fd5b60005b83811015610f6a5781610f548882610fdc565b8452506020928301929190910190600101610f41565b5050505092915050565b600082601f830112610f8557600080fd5b8135610f93610f1482611874565b81815260209384019390925082018360005b83811015610f6a5781358601610fbb8882611041565b8452506020928301929190910190600101610fa5565b8035610d078161195a565b8035610d0781611963565b8035610d078161196c565b600082601f83011261100357600080fd5b8135611011610f1482611895565b9150808252602083016020830185838301111561102d57600080fd5b611038838284611904565b50505092915050565b60006080828403121561105357600080fd5b61105d608061184d565b9050813567ffffffffffffffff81111561107657600080fd5b61108284828501610ff2565b825250602061109384848301610fdc565b60208301525060406110a784828501610fdc565b60408301525060606110bb84828501610edf565b60608301525092915050565b6000602082840312156110d957600080fd5b60006110e58484610edf565b949350505050565b6000602082840312156110ff57600080fd5b60006110e58484610eea565b6000806000806080858703121561112157600080fd5b600061112d8787610edf565b945050602061113e87828801610edf565b935050604061114f87828801610edf565b925050606061116087828801610fdc565b91505092959194509250565b60008060006060848603121561118157600080fd5b600061118d8686610edf565b935050602061119e86828701610edf565b92505060406111af86828701610fdc565b9150509250925092565b600080604083850312156111cc57600080fd5b60006111d88585610edf565b92505060206111e985828601610fd1565b9150509250929050565b6000806040838503121561120657600080fd5b60006112128585610edf565b92505060206111e985828601610fdc565b6000806040838503121561123657600080fd5b823567ffffffffffffffff81111561124d57600080fd5b61125985828601610ef5565b92505060206111e985828601610edf565b6000806040838503121561127d57600080fd5b823567ffffffffffffffff81111561129457600080fd5b61125985828601610f74565b6000602082840312156112b257600080fd5b60006110e58484610fdc565b600080604083850312156112d157600080fd5b60006112598585610fdc565b6000806000606084860312156112f257600080fd5b60006112fe8686610fdc565b935050602061130f86828701610edf565b92505060406111af86828701610edf565b6000806000806080858703121561133657600080fd5b60006113428787610fdc565b945050602061135387828801610fdc565b935050604061136487828801610fdc565b925050606061116087828801610edf565b60006020828403121561138757600080fd5b60006110e58484610fe7565b6000602082840312156113a557600080fd5b813567ffffffffffffffff8111156113bc57600080fd5b6110e584828501610ff2565b600080604083850312156113db57600080fd5b823567ffffffffffffffff8111156113f257600080fd5b61125985828601611041565b6000806040838503121561141157600080fd5b60006112128585610fdc565b611426816118f9565b82525050565b611426816118cf565b611426816118da565b611426816118df565b611426816118e2565b600061145b826118bd565b61146581856118ca565b9350611475818560208601611910565b9290920192915050565b600061148a826118bd565b61149481856118c1565b93506114a4818560208601611910565b6114ad8161193c565b9093019392505050565b60006114c46014836118c1565b7f6578697374696e67207065727370656374697665000000000000000000000000815260200192915050565b60006114fd6026836118c1565b7f4f776e61626c653a206e6577206f776e657220697320746865207a65726f20618152600160d01b6564647265737302602082015260400192915050565b60006115486028836118c1565b7f486173537570657255736572733a2063616c6c6572206973206e6f74206120738152600160c11b673ab832b92ab9b2b902602082015260400192915050565b60006115956029836118c1565b7f6f6e6c7920746865206f776e65722063616e20757064617465207468652070658152600160b81b6872737065637469766502602082015260400192915050565b60006115e36021836118c1565b7f536166654d6174683a206d756c7469706c69636174696f6e206f766572666c6f8152600160f81b607702602082015260400192915050565b60006116296020836118c1565b7f4f776e61626c653a2063616c6c6572206973206e6f7420746865206f776e6572815260200192915050565b60006116626013836118c1565b7f756e617574686f72697a65642061636365737300000000000000000000000000815260200192915050565b600061169b6015836118c1565b7f6f776e65722063616e6e6f7420626520656d7074790000000000000000000000815260200192915050565b60006116d38284611450565b9392505050565b60208101610d07828461142c565b606081016116f6828661142c565b611703602083018561141d565b6110e5604083018461143e565b6080810161171e828761142c565b61172b602083018661142c565b611738604083018561142c565b611745606083018461143e565b95945050505050565b6060810161175c828661142c565b611703602083018561142c565b60408101611777828561142c565b6116d3602083018461143e565b60208101610d078284611435565b60208101610d07828461143e565b60408101611777828561143e565b60208101610d078284611447565b602080825281016116d3818461147f565b60208082528101610d07816114b7565b60208082528101610d07816114f0565b60208082528101610d078161153b565b60208082528101610d0781611588565b60208082528101610d07816115d6565b60208082528101610d078161161c565b60208082528101610d0781611655565b60208082528101610d078161168e565b60405181810167ffffffffffffffff8111828210171561186c57600080fd5b604052919050565b600067ffffffffffffffff82111561188b57600080fd5b5060209081020190565b600067ffffffffffffffff8211156118ac57600080fd5b506020601f91909101601f19160190565b5190565b90815260200190565b919050565b6000610d07826118ed565b151590565b90565b6000610d07826118cf565b6001600160a01b031690565b6000610d07826118e2565b82818337506000910152565b60005b8381101561192b578181015183820152602001611913565b8381111561069c5750506000910152565b601f01601f191690565b61194f816118cf565b8114610c3457600080fd5b61194f816118da565b61194f816118df565b61194f816118e256fea265627a7a7230582001538c9b6089c7f36c1a484832987ec6692fd62771ca7bfa48db00c9e45115e66c6578706572696d656e74616cf50037",
  "source": "pragma solidity >=0.5.0 <0.6.0;\npragma experimental ABIEncoderV2;\n\nimport \"./Ownable.sol\";\nimport \"./SafeMath.sol\";\n\nimport \"./UprtclAccounts.sol\";\n\n/** Underscore Protocol Ethereum Service used to store the content of\n* _Prtcl perspectives */\ncontract UprtclRoot is HasSuperUsers {\n    using SafeMath for uint256;\n\n    struct Perspective {\n        address owner;\n    }\n\n    struct NewPerspective {\n        string perspectiveId;\n        bytes32 headCid1;\n        bytes32 headCid0;\n        address owner;\n    }\n\n    /** superUsers can update any perspective */\n    mapping(bytes32 => Perspective) public perspectives;\n\n    mapping(uint256 => uint256) public fees;\n\n    event PerspectiveCreated(\n        bytes32 indexed perspectiveIdHash,\n        string perspectiveId\n    );\n\n    event PerspectiveHeadUpdated(\n        bytes32 indexed perspectiveIdHash,\n        bytes32 headCid1,\n        bytes32 headCid0\n    );\n\n    UprtclAccounts public accounts;\n\n    function setAccounts(UprtclAccounts _accounts) public onlyOwner {\n        accounts = _accounts;\n    }\n\n    function withdraw(uint256 amount) public onlyOwner {\n        this.owner().transfer(amount);\n    }\n\n    function setFees(uint256 addFee, uint256 updateFee) public onlyOwner {\n        fees[0] = addFee;\n        fees[1] = updateFee;\n    }\n\n    function getFees() public view returns (uint256 addFee, uint256 updateFee) {\n        return (fees[0], fees[1]);\n    }\n\n    function getAddFee() public view returns (uint256) {\n        return fees[0];\n    }\n\n    function getUpdateFee() public view returns (uint256) {\n        return fees[1];\n    }\n\n    function consume(address account, address by, uint256 amount) public onlySuperUser {\n        accounts.consume(account, by, amount);\n    }\n\n    function transferTo(address from, address by, address to, uint256 amount) public onlySuperUser {\n        accounts.transferTo(from, by, to, amount);\n    }\n\n    function transfer(address to, uint256 amount) public onlySuperUser {\n        accounts.transfer(to, amount);\n    }\n\n    function getPerspectiveIdHash(string memory perspectiveId) public pure returns (bytes32 idHash) {\n        return keccak256(abi.encodePacked(perspectiveId));\n    }\n\n    /** Adds a new perspective to the mapping and sets the owner. The head pointer and the context. */\n    function createPerspectiveInternal(NewPerspective memory newPerspective)\n        private\n    {\n        bytes32 perspectiveIdHash = getPerspectiveIdHash(newPerspective.perspectiveId);\n\n        Perspective storage perspective = perspectives[perspectiveIdHash];\n        require(address(0) != newPerspective.owner, \"owner cannot be empty\");\n        require(address(0) == perspective.owner, \"existing perspective\");\n\n        perspective.owner = newPerspective.owner;\n        perspectives[perspectiveIdHash] = perspective;\n\n        emit PerspectiveCreated(\n            perspectiveIdHash,\n            newPerspective.perspectiveId\n        );\n\n        emit PerspectiveHeadUpdated(\n            perspectiveIdHash,\n            newPerspective.headCid1,\n            newPerspective.headCid0\n        );\n    }\n\n    function createPerspective(NewPerspective memory newPerspective, address account)\n        public\n    {\n        if (!isSuperUser(msg.sender)) {\n            uint256 fee = getAddFee();\n            if (fee > 0) {\n                accounts.consume(account, msg.sender, fee);\n            }\n        }\n        createPerspectiveInternal(newPerspective);\n    }\n\n    function createPerspectiveBatch(NewPerspective[] memory newPerspectives, address account)\n        public\n    {\n        uint256 nPerspectives = newPerspectives.length;\n\n        if (!isSuperUser(msg.sender)) {\n            uint256 fee = getUpdateFee().mul(nPerspectives);\n\n            if (fee > 0) {\n                accounts.consume(account, msg.sender, fee);\n            }\n        }\n\n        for (uint256 ix = 0; ix < nPerspectives; ix++) {\n            createPerspectiveInternal(newPerspectives[ix]);\n        }\n    }\n\n    function updateHead(\n        bytes32 perspectiveIdHash,\n        bytes32 newHeadCid1,\n        bytes32 newHeadCid0,\n        address account\n    ) public {\n        if (!isSuperUser(msg.sender)) {\n            uint256 fee = getUpdateFee();\n            if (fee > 0) {\n                accounts.consume(account, msg.sender, fee);\n            }\n        }\n\n        Perspective storage perspective = perspectives[perspectiveIdHash];\n\n        require(\n            (perspective.owner == msg.sender) || isSuperUser(msg.sender),\n            \"only the owner can update the perspective\"\n        );\n\n        emit PerspectiveHeadUpdated(\n            perspectiveIdHash,\n            newHeadCid1,\n            newHeadCid0\n        );\n    }\n\n    function changePerspectiveOwnerInternal(\n        bytes32 perspectiveIdHash,\n        address newOwner,\n        address sender\n    ) private {\n        Perspective storage perspective = perspectives[perspectiveIdHash];\n        require(sender == perspective.owner, \"unauthorized access\");\n        \n        perspective.owner = newOwner;\n    }\n\n    /** Changes the owner of a given perspective. Available only to the current owner of that perspective. */\n    function changePerspectiveOwner(bytes32 perspectiveIdHash, address newOwner)\n        public\n    {\n        changePerspectiveOwnerInternal(perspectiveIdHash, newOwner, msg.sender);\n    }\n\n    function changePerspectiveOwnerSuperUser(bytes32 perspectiveIdHash, address newOwner, address msgSender) external onlySuperUser {\n        changePerspectiveOwnerInternal(perspectiveIdHash, newOwner, msgSender);\n    }\n\n    function changePerspectiveOwnerBatch(\n        bytes32[] memory perspectiveIdsHashes,\n        address newOwner\n    ) public {\n        for (uint256 ix = 0; ix < perspectiveIdsHashes.length; ix++) {\n            changePerspectiveOwnerInternal(\n                perspectiveIdsHashes[ix],\n                newOwner,\n                msg.sender\n            );\n        }\n    }\n\n    /** Get the perspective owner and details from its ID */\n    function getPerspectiveOwner(bytes32 perspectiveIdHash)\n        public\n        view\n        returns (address owner)\n    {\n        Perspective memory perspective = perspectives[perspectiveIdHash];\n\n        return (perspective.owner);\n    }\n\n}\n",
  "sourcePath": "/home/pepo/pr/uprtcl/eth-uprtcl/contracts/UprtclRoot.sol",
  "compiler": {
    "name": "solc",
    "version": "0.5.8+commit.23d335f2.Emscripten.clang"
  },
  "schemaVersion": "3.0.11",
  "updatedAt": "2020-04-19T13:53:28.727Z",
  "devdoc": {
    "methods": {
      "isOwner()": {
        "details": "Returns true if the caller is the current owner."
      },
      "owner()": {
        "details": "Returns the address of the current owner."
      },
      "renounceOwnership()": {
        "details": "Leaves the contract without owner. It will not be possible to call `onlyOwner` functions anymore. Can only be called by the current owner.     * NOTE: Renouncing ownership will leave the contract without an owner, thereby removing any functionality that is only available to the owner."
      },
      "transferOwnership(address)": {
        "details": "Transfers ownership of the contract to a new account (`newOwner`). Can only be called by the current owner."
      }
    }
  },
  "userdoc": {
    "methods": {
      "changePerspectiveOwner(bytes32,address)": {
        "notice": "Changes the owner of a given perspective. Available only to the current owner of that perspective. "
      },
      "getPerspectiveOwner(bytes32)": {
        "notice": "Get the perspective owner and details from its ID "
      }
    },
    "notice": "Underscore Protocol Ethereum Service used to store the content of _Prtcl perspectives "
  }
}