{
  "contractName": "UprtclDetails",
  "abi": [
    {
      "anonymous": false,
      "inputs": [
        {
          "indexed": true,
          "internalType": "address",
          "name": "previousOwner",
          "type": "address"
        },
        {
          "indexed": true,
          "internalType": "address",
          "name": "newOwner",
          "type": "address"
        }
      ],
      "name": "OwnershipTransferred",
      "type": "event"
    },
    {
      "anonymous": false,
      "inputs": [
        {
          "indexed": true,
          "internalType": "bytes32",
          "name": "perspectiveIdHash",
          "type": "bytes32"
        },
        {
          "indexed": true,
          "internalType": "bytes32",
          "name": "contextHash",
          "type": "bytes32"
        },
        {
          "indexed": false,
          "internalType": "string",
          "name": "context",
          "type": "string"
        }
      ],
      "name": "PerspectiveDetailsSet",
      "type": "event"
    },
    {
      "constant": true,
      "inputs": [],
      "name": "isOwner",
      "outputs": [
        {
          "internalType": "bool",
          "name": "",
          "type": "bool"
        }
      ],
      "payable": false,
      "stateMutability": "view",
      "type": "function"
    },
    {
      "constant": true,
      "inputs": [
        {
          "internalType": "address",
          "name": "suAddress",
          "type": "address"
        }
      ],
      "name": "isSuperUser",
      "outputs": [
        {
          "internalType": "bool",
          "name": "",
          "type": "bool"
        }
      ],
      "payable": false,
      "stateMutability": "view",
      "type": "function"
    },
    {
      "constant": true,
      "inputs": [],
      "name": "owner",
      "outputs": [
        {
          "internalType": "address payable",
          "name": "",
          "type": "address"
        }
      ],
      "payable": false,
      "stateMutability": "view",
      "type": "function"
    },
    {
      "constant": false,
      "inputs": [],
      "name": "renounceOwnership",
      "outputs": [],
      "payable": false,
      "stateMutability": "nonpayable",
      "type": "function"
    },
    {
      "constant": false,
      "inputs": [
        {
          "internalType": "address",
          "name": "suAddress",
          "type": "address"
        },
        {
          "internalType": "bool",
          "name": "value",
          "type": "bool"
        }
      ],
      "name": "setSuperUser",
      "outputs": [],
      "payable": false,
      "stateMutability": "nonpayable",
      "type": "function"
    },
    {
      "constant": false,
      "inputs": [
        {
          "internalType": "address payable",
          "name": "newOwner",
          "type": "address"
        }
      ],
      "name": "transferOwnership",
      "outputs": [],
      "payable": false,
      "stateMutability": "nonpayable",
      "type": "function"
    },
    {
      "constant": false,
      "inputs": [
        {
          "internalType": "contract UprtclRoot",
          "name": "_uprtclRoot",
          "type": "address"
        }
      ],
      "name": "setUprtclRoot",
      "outputs": [],
      "payable": false,
      "stateMutability": "nonpayable",
      "type": "function"
    },
    {
      "constant": true,
      "inputs": [
        {
          "internalType": "string",
          "name": "context",
          "type": "string"
        }
      ],
      "name": "getContextHash",
      "outputs": [
        {
          "internalType": "bytes32",
          "name": "contextHash",
          "type": "bytes32"
        }
      ],
      "payable": false,
      "stateMutability": "pure",
      "type": "function"
    },
    {
      "constant": false,
      "inputs": [
        {
          "internalType": "bytes32",
          "name": "perspectiveIdHash",
          "type": "bytes32"
        },
        {
          "internalType": "string",
          "name": "context",
          "type": "string"
        }
      ],
      "name": "setPerspectiveDetails",
      "outputs": [],
      "payable": false,
      "stateMutability": "nonpayable",
      "type": "function"
    },
    {
      "constant": false,
      "inputs": [
        {
          "internalType": "bytes32",
          "name": "perspectiveIdHash",
          "type": "bytes32"
        },
        {
          "internalType": "string",
          "name": "context",
          "type": "string"
        },
        {
          "internalType": "address",
          "name": "msgSender",
          "type": "address"
        }
      ],
      "name": "setPerspectiveDetailsSuperUser",
      "outputs": [],
      "payable": false,
      "stateMutability": "nonpayable",
      "type": "function"
    },
    {
      "constant": false,
      "inputs": [
        {
          "components": [
            {
              "components": [
                {
                  "internalType": "string",
                  "name": "perspectiveId",
                  "type": "string"
                },
                {
                  "internalType": "bytes32",
                  "name": "headCid1",
                  "type": "bytes32"
                },
                {
                  "internalType": "bytes32",
                  "name": "headCid0",
                  "type": "bytes32"
                },
                {
                  "internalType": "address",
                  "name": "owner",
                  "type": "address"
                }
              ],
              "internalType": "struct UprtclRoot.NewPerspective",
              "name": "perspective",
              "type": "tuple"
            },
            {
              "internalType": "string",
              "name": "context",
              "type": "string"
            }
          ],
          "internalType": "struct UprtclDetails.InitPerspective",
          "name": "perspectiveData",
          "type": "tuple"
        },
        {
          "internalType": "address",
          "name": "account",
          "type": "address"
        }
      ],
      "name": "initPerspective",
      "outputs": [],
      "payable": false,
      "stateMutability": "nonpayable",
      "type": "function"
    },
    {
      "constant": false,
      "inputs": [
        {
          "components": [
            {
              "components": [
                {
                  "internalType": "string",
                  "name": "perspectiveId",
                  "type": "string"
                },
                {
                  "internalType": "bytes32",
                  "name": "headCid1",
                  "type": "bytes32"
                },
                {
                  "internalType": "bytes32",
                  "name": "headCid0",
                  "type": "bytes32"
                },
                {
                  "internalType": "address",
                  "name": "owner",
                  "type": "address"
                }
              ],
              "internalType": "struct UprtclRoot.NewPerspective",
              "name": "perspective",
              "type": "tuple"
            },
            {
              "internalType": "string",
              "name": "context",
              "type": "string"
            }
          ],
          "internalType": "struct UprtclDetails.InitPerspective[]",
          "name": "perspectivesData",
          "type": "tuple[]"
        },
        {
          "internalType": "address",
          "name": "account",
          "type": "address"
        }
      ],
      "name": "initPerspectiveBatch",
      "outputs": [],
      "payable": false,
      "stateMutability": "nonpayable",
      "type": "function"
    }
  ],
  "bytecode": "0x60806040526100156001600160e01b0361006216565b600080546001600160a01b0319166001600160a01b03928316178082556040519216917f8be0079c531659141344cd1fd0a4f28419497f9722a3daafe3b4186f6b6457e0908290a3610066565b3390565b611148806100756000396000f3fe608060405234801561001057600080fd5b50600436106100b45760003560e01c8063a0c9eca311610071578063a0c9eca31461012f578063a931154714610142578063cd784d1b14610155578063cf886bab14610168578063e7d075991461017b578063f2fde38b1461019b576100b4565b806326d5ec01146100b957806345655b4e146100ce578063715018a6146100e15780637cce0117146100e95780638da5cb5b146100fc5780638f32d59b1461011a575b600080fd5b6100cc6100c7366004610bbd565b6101ae565b005b6100cc6100dc366004610ad6565b6101ec565b6100cc61023b565b6100cc6100f7366004610c22565b6102a9565b6101046102ef565b6040516101119190610f06565b60405180910390f35b6101226102fe565b6040516101119190610f3c565b6100cc61013d366004610c75565b610322565b6100cc610150366004610b75565b610418565b610122610163366004610a92565b610427565b6100cc610176366004610b10565b610445565b61018e610189366004610c40565b610589565b6040516101119190610f4a565b6100cc6101a9366004610a92565b6105b9565b6101b733610427565b6101dc5760405162461bcd60e51b81526004016101d390610f89565b60405180910390fd5b6101e78383836105e9565b505050565b6101f46102fe565b6102105760405162461bcd60e51b81526004016101d390610fa9565b6001600160a01b03919091166000908152600160205260409020805460ff1916911515919091179055565b6102436102fe565b61025f5760405162461bcd60e51b81526004016101d390610fa9565b600080546040516001600160a01b03909116907f8be0079c531659141344cd1fd0a4f28419497f9722a3daafe3b4186f6b6457e0908390a3600080546001600160a01b0319169055565b6102b16102fe565b6102cd5760405162461bcd60e51b81526004016101d390610fa9565b600280546001600160a01b0319166001600160a01b0392909216919091179055565b6000546001600160a01b031690565b600080546001600160a01b03166103136106d7565b6001600160a01b031614905090565b600254604080516310d061ab60e31b815290516000926001600160a01b0316916386830d58916004808301926020929190829003018186803b15801561036757600080fd5b505afa15801561037b573d6000803e3d6000fd5b505050506040513d601f19601f8201168201806040525061039f9190810190610b57565b9050801561040e576002546040516302654acd60e51b81526001600160a01b0390911690634ca959a0906103db90859033908690600401610f14565b600060405180830381600087803b1580156103f557600080fd5b505af1158015610409573d6000803e3d6000fd5b505050505b6101e783836106db565b6104238282336105e9565b5050565b6001600160a01b031660009081526001602052604090205460ff1690565b60008251905060006104e382600260009054906101000a90046001600160a01b03166001600160a01b031663b7b0ccde6040518163ffffffff1660e01b815260040160206040518083038186803b15801561049f57600080fd5b505afa1580156104b3573d6000803e3d6000fd5b505050506040513d601f19601f820116820180604052506104d79190810190610b57565b9063ffffffff6107d516565b90508015610552576002546040516302654acd60e51b81526001600160a01b0390911690634ca959a09061051f90869033908690600401610f14565b600060405180830381600087803b15801561053957600080fd5b505af115801561054d573d6000803e3d6000fd5b505050505b60005b828110156105825761057a85828151811061056c57fe5b6020026020010151856106db565b600101610555565b5050505050565b60008160405160200161059c9190610ef3565b604051602081830303815290604052805190602001209050919050565b6105c16102fe565b6105dd5760405162461bcd60e51b81526004016101d390610fa9565b6105e681610818565b50565b600254604051631393bbf560e01b81526001600160a01b03808416921690631393bbf59061061b908790600401610f4a565b60206040518083038186803b15801561063357600080fd5b505afa158015610647573d6000803e3d6000fd5b505050506040513d601f19601f8201168201806040525061066b9190810190610ab8565b6001600160a01b0316146106915760405162461bcd60e51b81526004016101d390610f69565b61069a82610589565b837f6c9aea0d74ee0825117310c02b08c081cb33d88db58edef5517d54b9cfabaacf846040516106ca9190610f58565b60405180910390a3505050565b3390565b600254825160405163c886170b60e01b81526001600160a01b039092169163c886170b9161070d918590600401610fb9565b600060405180830381600087803b15801561072757600080fd5b505af115801561073b573d6000803e3d6000fd5b505060025484515160405163fc87de3960e01b815261042394506001600160a01b03909216925063fc87de39916107759190600401610f58565b60206040518083038186803b15801561078d57600080fd5b505afa1580156107a1573d6000803e3d6000fd5b505050506040513d601f19601f820116820180604052506107c59190810190610b57565b60208401518451606001516105e9565b6000826107e457506000610812565b828202828482816107f157fe5b041461080f5760405162461bcd60e51b81526004016101d390610f99565b90505b92915050565b6001600160a01b03811661083e5760405162461bcd60e51b81526004016101d390610f79565b600080546040516001600160a01b03808516939216917f8be0079c531659141344cd1fd0a4f28419497f9722a3daafe3b4186f6b6457e091a3600080546001600160a01b0319166001600160a01b0392909216919091179055565b8035610812816110d6565b8051610812816110d6565b600082601f8301126108c057600080fd5b81356108d36108ce82611000565b610fd9565b81815260209384019390925082018360005b8381101561091157813586016108fb8882610996565b84525060209283019291909101906001016108e5565b5050505092915050565b8035610812816110ea565b8035610812816110f3565b8051610812816110f3565b8035610812816110fc565b600082601f83011261095857600080fd5b81356109666108ce82611021565b9150808252602083016020830185838301111561098257600080fd5b61098d838284611090565b50505092915050565b6000604082840312156109a857600080fd5b6109b26040610fd9565b9050813567ffffffffffffffff8111156109cb57600080fd5b6109d784828501610a0c565b825250602082013567ffffffffffffffff8111156109f457600080fd5b610a0084828501610947565b60208301525092915050565b600060808284031215610a1e57600080fd5b610a286080610fd9565b9050813567ffffffffffffffff811115610a4157600080fd5b610a4d84828501610947565b8252506020610a5e84848301610926565b6020830152506040610a7284828501610926565b6040830152506060610a8684828501610899565b60608301525092915050565b600060208284031215610aa457600080fd5b6000610ab08484610899565b949350505050565b600060208284031215610aca57600080fd5b6000610ab084846108a4565b60008060408385031215610ae957600080fd5b6000610af58585610899565b9250506020610b068582860161091b565b9150509250929050565b60008060408385031215610b2357600080fd5b823567ffffffffffffffff811115610b3a57600080fd5b610b46858286016108af565b9250506020610b0685828601610899565b600060208284031215610b6957600080fd5b6000610ab08484610931565b60008060408385031215610b8857600080fd5b6000610b948585610926565b925050602083013567ffffffffffffffff811115610bb157600080fd5b610b0685828601610947565b600080600060608486031215610bd257600080fd5b6000610bde8686610926565b935050602084013567ffffffffffffffff811115610bfb57600080fd5b610c0786828701610947565b9250506040610c1886828701610899565b9150509250925092565b600060208284031215610c3457600080fd5b6000610ab0848461093c565b600060208284031215610c5257600080fd5b813567ffffffffffffffff811115610c6957600080fd5b610ab084828501610947565b60008060408385031215610c8857600080fd5b823567ffffffffffffffff811115610c9f57600080fd5b610b4685828601610996565b610cb481611085565b82525050565b610cb48161105b565b610cb481611066565b610cb48161106b565b6000610ce082611049565b610cea818561104d565b9350610cfa81856020860161109c565b610d03816110cc565b9093019392505050565b6000610d1882611049565b610d228185611056565b9350610d3281856020860161109c565b9290920192915050565b6000610d49602c8361104d565b7f64657461696c732063616e206f6e6c792062792073657420627920706572737081526b32b1ba34bb329037bbb732b960a11b602082015260400192915050565b6000610d9760268361104d565b7f4f776e61626c653a206e6577206f776e657220697320746865207a65726f206181526564647265737360d01b602082015260400192915050565b6000610ddf60288361104d565b7f486173537570657255736572733a2063616c6c6572206973206e6f74206120738152673ab832b92ab9b2b960c11b602082015260400192915050565b6000610e2960218361104d565b7f536166654d6174683a206d756c7469706c69636174696f6e206f766572666c6f8152607760f81b602082015260400192915050565b6000610e6c60208361104d565b7f4f776e61626c653a2063616c6c6572206973206e6f7420746865206f776e6572815260200192915050565b8051608080845260009190840190610eb08282610cd5565b9150506020830151610ec56020860182610ccc565b506040830151610ed86040860182610ccc565b506060830151610eeb6060860182610cba565b509392505050565b6000610eff8284610d0d565b9392505050565b602081016108128284610cba565b60608101610f228286610cba565b610f2f6020830185610cab565b610ab06040830184610ccc565b602081016108128284610cc3565b602081016108128284610ccc565b60208082528101610eff8184610cd5565b6020808252810161081281610d3c565b6020808252810161081281610d8a565b6020808252810161081281610dd2565b6020808252810161081281610e1c565b6020808252810161081281610e5f565b60408082528101610fca8185610e98565b9050610eff6020830184610cba565b60405181810167ffffffffffffffff81118282101715610ff857600080fd5b604052919050565b600067ffffffffffffffff82111561101757600080fd5b5060209081020190565b600067ffffffffffffffff82111561103857600080fd5b506020601f91909101601f19160190565b5190565b90815260200190565b919050565b600061081282611079565b151590565b90565b60006108128261105b565b6001600160a01b031690565b60006108128261106e565b82818337506000910152565b60005b838110156110b757818101518382015260200161109f565b838111156110c6576000848401525b50505050565b601f01601f191690565b6110df8161105b565b81146105e657600080fd5b6110df81611066565b6110df8161106b565b6110df8161106e56fea365627a7a7231582064264b14ad7074f1493a0fc01699692ea035fdda2e1cd1b9abf9eeeff0b5a7356c6578706572696d656e74616cf564736f6c63430005100040",
  "source": "pragma solidity >=0.5.0 <0.6.0;\npragma experimental ABIEncoderV2;\n\nimport \"./UprtclRoot.sol\";\nimport \"./HasSuperUsers.sol\";\nimport \"./SafeMath.sol\";\n\ncontract UprtclDetails is HasSuperUsers {\n    using SafeMath for uint256;\n\n    struct InitPerspective {\n        UprtclRoot.NewPerspective perspective;\n        string context;\n    }\n\n    event PerspectiveDetailsSet (\n        bytes32 indexed perspectiveIdHash,\n        bytes32 indexed contextHash,\n        string context\n    );\n\n    UprtclRoot uprtclRoot;\n\n    function setUprtclRoot(UprtclRoot _uprtclRoot) public onlyOwner {\n        uprtclRoot = _uprtclRoot;\n    }\n\n    function getContextHash(string memory context) public pure returns (bytes32 contextHash) {\n        return keccak256(abi.encodePacked(context));\n    }\n\n    /** Adds a new perspective to the mapping and sets the owner. The head pointer and the context. */\n    function setPerspectiveDetailsInternal(\n        bytes32 perspectiveIdHash,\n        string memory context,\n        address sender\n    ) private {\n        require(uprtclRoot.getPerspectiveOwner(perspectiveIdHash) == sender, \"details can only by set by perspective owner\");\n\n        emit PerspectiveDetailsSet(\n            perspectiveIdHash,\n            getContextHash(context),\n            context\n        );\n    }\n\n    function setPerspectiveDetails(\n        bytes32 perspectiveIdHash,\n        string memory context\n    ) public {\n        setPerspectiveDetailsInternal(perspectiveIdHash, context, msg.sender);\n    }\n\n    function setPerspectiveDetailsSuperUser(\n        bytes32 perspectiveIdHash,\n        string memory context,\n        address msgSender\n    ) public onlySuperUser {\n        setPerspectiveDetailsInternal(perspectiveIdHash, context, msgSender);\n    }\n\n    function initPerspectiveInternal(InitPerspective memory perspectiveData, address account) private {\n        uprtclRoot.createPerspective(perspectiveData.perspective, account);\n\n        setPerspectiveDetailsInternal(\n            uprtclRoot.getPerspectiveIdHash(perspectiveData.perspective.perspectiveId),\n            perspectiveData.context,\n            perspectiveData.perspective.owner);\n    }\n\n    function initPerspective(\n        InitPerspective memory perspectiveData,\n        address account) public {\n\n        /** collect fee here */\n        uint256 fee = uprtclRoot.getAddFee();\n        if (fee > 0) {\n            uprtclRoot.consume(account, msg.sender, fee);\n        }\n\n        initPerspectiveInternal(perspectiveData, account);\n    }\n\n    function initPerspectiveBatch(InitPerspective[] memory perspectivesData, address account)\n        public\n    {\n        uint256 nPerspectives = perspectivesData.length;\n        uint256 fee = uprtclRoot.getUpdateFee().mul(nPerspectives);\n\n        if (fee > 0) {\n            uprtclRoot.consume(account, msg.sender, fee);\n        }\n\n        for (uint256 ix = 0; ix < nPerspectives; ix++) {\n            initPerspectiveInternal(perspectivesData[ix], account);\n        }\n    }\n\n}\n",
  "sourcePath": "/home/pepo/pr/uprtcl/eth-uprtcl/contracts/UprtclDetails.sol",
  "compiler": {
    "name": "solc",
    "version": "0.5.16+commit.9c3226ce.Emscripten.clang"
  },
  "schemaVersion": "3.0.23",
  "updatedAt": "2020-04-22T13:38:40.634Z",
  "devdoc": {
    "methods": {
      "isOwner()": {
        "details": "Returns true if the caller is the current owner."
      },
      "owner()": {
        "details": "Returns the address of the current owner."
      },
      "renounceOwnership()": {
        "details": "Leaves the contract without owner. It will not be possible to call `onlyOwner` functions anymore. Can only be called by the current owner.     * NOTE: Renouncing ownership will leave the contract without an owner, thereby removing any functionality that is only available to the owner."
      },
      "transferOwnership(address)": {
        "details": "Transfers ownership of the contract to a new account (`newOwner`). Can only be called by the current owner."
      }
    }
  },
  "userdoc": {
    "methods": {}
  }
}