{
  "contractName": "UprtclRoot",
  "abi": [
    {
      "anonymous": false,
      "inputs": [
        {
          "indexed": true,
          "internalType": "address",
          "name": "previousOwner",
          "type": "address"
        },
        {
          "indexed": true,
          "internalType": "address",
          "name": "newOwner",
          "type": "address"
        }
      ],
      "name": "OwnershipTransferred",
      "type": "event"
    },
    {
      "anonymous": false,
      "inputs": [
        {
          "indexed": true,
          "internalType": "bytes32",
          "name": "perspectiveIdHash",
          "type": "bytes32"
        },
        {
          "indexed": false,
          "internalType": "string",
          "name": "perspectiveId",
          "type": "string"
        }
      ],
      "name": "PerspectiveCreated",
      "type": "event"
    },
    {
      "constant": true,
      "inputs": [],
      "name": "accounts",
      "outputs": [
        {
          "internalType": "contract UprtclAccounts",
          "name": "",
          "type": "address"
        }
      ],
      "payable": false,
      "stateMutability": "view",
      "type": "function"
    },
    {
      "constant": true,
      "inputs": [
        {
          "internalType": "uint256",
          "name": "",
          "type": "uint256"
        }
      ],
      "name": "fees",
      "outputs": [
        {
          "internalType": "uint256",
          "name": "",
          "type": "uint256"
        }
      ],
      "payable": false,
      "stateMutability": "view",
      "type": "function"
    },
    {
      "constant": true,
      "inputs": [],
      "name": "isOwner",
      "outputs": [
        {
          "internalType": "bool",
          "name": "",
          "type": "bool"
        }
      ],
      "payable": false,
      "stateMutability": "view",
      "type": "function"
    },
    {
      "constant": true,
      "inputs": [
        {
          "internalType": "address",
          "name": "suAddress",
          "type": "address"
        }
      ],
      "name": "isSuperUser",
      "outputs": [
        {
          "internalType": "bool",
          "name": "",
          "type": "bool"
        }
      ],
      "payable": false,
      "stateMutability": "view",
      "type": "function"
    },
    {
      "constant": true,
      "inputs": [],
      "name": "owner",
      "outputs": [
        {
          "internalType": "address payable",
          "name": "",
          "type": "address"
        }
      ],
      "payable": false,
      "stateMutability": "view",
      "type": "function"
    },
    {
      "constant": true,
      "inputs": [
        {
          "internalType": "bytes32",
          "name": "",
          "type": "bytes32"
        }
      ],
      "name": "perspectives",
      "outputs": [
        {
          "internalType": "address",
          "name": "owner",
          "type": "address"
        },
        {
          "internalType": "bytes32",
          "name": "headCid1",
          "type": "bytes32"
        },
        {
          "internalType": "bytes32",
          "name": "headCid0",
          "type": "bytes32"
        }
      ],
      "payable": false,
      "stateMutability": "view",
      "type": "function"
    },
    {
      "constant": false,
      "inputs": [],
      "name": "renounceOwnership",
      "outputs": [],
      "payable": false,
      "stateMutability": "nonpayable",
      "type": "function"
    },
    {
      "constant": false,
      "inputs": [
        {
          "internalType": "address",
          "name": "suAddress",
          "type": "address"
        },
        {
          "internalType": "bool",
          "name": "value",
          "type": "bool"
        }
      ],
      "name": "setSuperUser",
      "outputs": [],
      "payable": false,
      "stateMutability": "nonpayable",
      "type": "function"
    },
    {
      "constant": false,
      "inputs": [
        {
          "internalType": "address payable",
          "name": "newOwner",
          "type": "address"
        }
      ],
      "name": "transferOwnership",
      "outputs": [],
      "payable": false,
      "stateMutability": "nonpayable",
      "type": "function"
    },
    {
      "constant": false,
      "inputs": [
        {
          "internalType": "contract UprtclAccounts",
          "name": "_accounts",
          "type": "address"
        }
      ],
      "name": "setAccounts",
      "outputs": [],
      "payable": false,
      "stateMutability": "nonpayable",
      "type": "function"
    },
    {
      "constant": false,
      "inputs": [
        {
          "internalType": "uint256",
          "name": "amount",
          "type": "uint256"
        }
      ],
      "name": "withdraw",
      "outputs": [],
      "payable": false,
      "stateMutability": "nonpayable",
      "type": "function"
    },
    {
      "constant": false,
      "inputs": [
        {
          "internalType": "uint256",
          "name": "addFee",
          "type": "uint256"
        },
        {
          "internalType": "uint256",
          "name": "updateFee",
          "type": "uint256"
        }
      ],
      "name": "setFees",
      "outputs": [],
      "payable": false,
      "stateMutability": "nonpayable",
      "type": "function"
    },
    {
      "constant": true,
      "inputs": [],
      "name": "getFees",
      "outputs": [
        {
          "internalType": "uint256",
          "name": "addFee",
          "type": "uint256"
        },
        {
          "internalType": "uint256",
          "name": "updateFee",
          "type": "uint256"
        }
      ],
      "payable": false,
      "stateMutability": "view",
      "type": "function"
    },
    {
      "constant": true,
      "inputs": [],
      "name": "getAddFee",
      "outputs": [
        {
          "internalType": "uint256",
          "name": "",
          "type": "uint256"
        }
      ],
      "payable": false,
      "stateMutability": "view",
      "type": "function"
    },
    {
      "constant": true,
      "inputs": [],
      "name": "getUpdateFee",
      "outputs": [
        {
          "internalType": "uint256",
          "name": "",
          "type": "uint256"
        }
      ],
      "payable": false,
      "stateMutability": "view",
      "type": "function"
    },
    {
      "constant": false,
      "inputs": [
        {
          "internalType": "address",
          "name": "account",
          "type": "address"
        },
        {
          "internalType": "address",
          "name": "by",
          "type": "address"
        },
        {
          "internalType": "uint256",
          "name": "amount",
          "type": "uint256"
        }
      ],
      "name": "consume",
      "outputs": [],
      "payable": false,
      "stateMutability": "nonpayable",
      "type": "function"
    },
    {
      "constant": false,
      "inputs": [
        {
          "internalType": "address",
          "name": "from",
          "type": "address"
        },
        {
          "internalType": "address",
          "name": "by",
          "type": "address"
        },
        {
          "internalType": "address",
          "name": "to",
          "type": "address"
        },
        {
          "internalType": "uint256",
          "name": "amount",
          "type": "uint256"
        }
      ],
      "name": "transferTo",
      "outputs": [],
      "payable": false,
      "stateMutability": "nonpayable",
      "type": "function"
    },
    {
      "constant": false,
      "inputs": [
        {
          "internalType": "address",
          "name": "to",
          "type": "address"
        },
        {
          "internalType": "uint256",
          "name": "amount",
          "type": "uint256"
        }
      ],
      "name": "transfer",
      "outputs": [],
      "payable": false,
      "stateMutability": "nonpayable",
      "type": "function"
    },
    {
      "constant": true,
      "inputs": [
        {
          "internalType": "string",
          "name": "perspectiveId",
          "type": "string"
        }
      ],
      "name": "getPerspectiveIdHash",
      "outputs": [
        {
          "internalType": "bytes32",
          "name": "idHash",
          "type": "bytes32"
        }
      ],
      "payable": false,
      "stateMutability": "pure",
      "type": "function"
    },
    {
      "constant": false,
      "inputs": [
        {
          "components": [
            {
              "internalType": "string",
              "name": "perspectiveId",
              "type": "string"
            },
            {
              "internalType": "bytes32",
              "name": "headCid1",
              "type": "bytes32"
            },
            {
              "internalType": "bytes32",
              "name": "headCid0",
              "type": "bytes32"
            },
            {
              "internalType": "address",
              "name": "owner",
              "type": "address"
            }
          ],
          "internalType": "struct UprtclRoot.NewPerspective",
          "name": "newPerspective",
          "type": "tuple"
        },
        {
          "internalType": "address",
          "name": "account",
          "type": "address"
        }
      ],
      "name": "createPerspective",
      "outputs": [],
      "payable": false,
      "stateMutability": "nonpayable",
      "type": "function"
    },
    {
      "constant": false,
      "inputs": [
        {
          "components": [
            {
              "internalType": "string",
              "name": "perspectiveId",
              "type": "string"
            },
            {
              "internalType": "bytes32",
              "name": "headCid1",
              "type": "bytes32"
            },
            {
              "internalType": "bytes32",
              "name": "headCid0",
              "type": "bytes32"
            },
            {
              "internalType": "address",
              "name": "owner",
              "type": "address"
            }
          ],
          "internalType": "struct UprtclRoot.NewPerspective[]",
          "name": "newPerspectives",
          "type": "tuple[]"
        },
        {
          "internalType": "address",
          "name": "account",
          "type": "address"
        }
      ],
      "name": "createPerspectiveBatch",
      "outputs": [],
      "payable": false,
      "stateMutability": "nonpayable",
      "type": "function"
    },
    {
      "constant": false,
      "inputs": [
        {
          "internalType": "bytes32",
          "name": "perspectiveIdHash",
          "type": "bytes32"
        },
        {
          "internalType": "bytes32",
          "name": "newHeadCid1",
          "type": "bytes32"
        },
        {
          "internalType": "bytes32",
          "name": "newHeadCid0",
          "type": "bytes32"
        },
        {
          "internalType": "address",
          "name": "account",
          "type": "address"
        }
      ],
      "name": "updateHead",
      "outputs": [],
      "payable": false,
      "stateMutability": "nonpayable",
      "type": "function"
    },
    {
      "constant": false,
      "inputs": [
        {
          "internalType": "bytes32",
          "name": "perspectiveIdHash",
          "type": "bytes32"
        },
        {
          "internalType": "address",
          "name": "newOwner",
          "type": "address"
        }
      ],
      "name": "changePerspectiveOwner",
      "outputs": [],
      "payable": false,
      "stateMutability": "nonpayable",
      "type": "function"
    },
    {
      "constant": false,
      "inputs": [
        {
          "internalType": "bytes32[]",
          "name": "perspectiveIdsHashes",
          "type": "bytes32[]"
        },
        {
          "internalType": "address",
          "name": "newOwner",
          "type": "address"
        }
      ],
      "name": "changePerspectiveOwnerBatch",
      "outputs": [],
      "payable": false,
      "stateMutability": "nonpayable",
      "type": "function"
    },
    {
      "constant": true,
      "inputs": [
        {
          "internalType": "bytes32",
          "name": "perspectiveIdHash",
          "type": "bytes32"
        }
      ],
      "name": "getPerspective",
      "outputs": [
        {
          "internalType": "address",
          "name": "owner",
          "type": "address"
        },
        {
          "internalType": "bytes32",
          "name": "headCid1",
          "type": "bytes32"
        },
        {
          "internalType": "bytes32",
          "name": "headCid0",
          "type": "bytes32"
        }
      ],
      "payable": false,
      "stateMutability": "view",
      "type": "function"
    },
    {
      "constant": true,
      "inputs": [
        {
          "internalType": "bytes32",
          "name": "perspectiveIdHash",
          "type": "bytes32"
        }
      ],
      "name": "getPerspectiveOwner",
      "outputs": [
        {
          "internalType": "address",
          "name": "owner",
          "type": "address"
        }
      ],
      "payable": false,
      "stateMutability": "view",
      "type": "function"
    }
  ],
  "bytecode": "0x60806040526100156001600160e01b0361006216565b600080546001600160a01b0319166001600160a01b03928316178082556040519216917f8be0079c531659141344cd1fd0a4f28419497f9722a3daafe3b4186f6b6457e0908290a3610066565b3390565b61194e806100756000396000f3fe608060405234801561001057600080fd5b506004361061018e5760003560e01c806368cd03f6116100de578063b7b0ccde11610097578063cd784d1b11610071578063cd784d1b14610341578063db8d55f114610354578063f2fde38b1461036a578063fc87de391461037d5761018e565b8063b7b0ccde14610313578063b92d30dc1461031b578063c886170b1461032e5761018e565b806368cd03f6146102be578063715018a6146102d357806386830d58146102db5780638da5cb5b146102e35780638f32d59b146102eb578063a9059cbb146103005761018e565b80632e1a7d4d1161014b5780634acc79ed116101255780634acc79ed146102655780634ca959a0146102855780634eee8c43146102985780636556cd05146102ab5761018e565b80632e1a7d4d1461022c57806339c375941461023f57806345655b4e146102525761018e565b806308274382146101935780630b78f9c0146101a85780630ea787e8146101bb578063133075d2146101ce5780631393bbf5146101f95780632349a49214610219575b600080fd5b6101a66101a1366004611317565b610390565b005b6101a66101b63660046113a0565b6103df565b6101a66101c93660046112c2565b610456565b6101e16101dc366004611285565b61053f565b6040516101f0939291906116e4565b60405180910390f35b61020c610207366004611285565b610593565b6040516101f09190611655565b6101a661022736600461124f565b6105de565b6101a661023a366004611285565b6106ac565b6101a661024d3660046112a3565b61077d565b6101a661026036600461119e565b610788565b610278610273366004611285565b6107d7565b6040516101f09190611728565b6101a6610293366004611151565b6107e9565b6101a66102a6366004611208565b610878565b6101a66102b93660046110f0565b6108af565b6102c6610941565b6040516101f09190611736565b6101a6610950565b6102786109be565b61020c6109ec565b6102f36109fb565b6040516101f0919061171a565b6101a661030e3660046111d8565b610a1f565b610278610aab565b6101e1610329366004611285565b610ada565b6101a661033c36600461136a565b610b06565b6102f361034f3660046110ac565b610b96565b61035c610bb4565b6040516101f09291906117d5565b6101a66103783660046110ac565b610c06565b61027861038b366004611335565b610c36565b6103986109fb565b6103bd5760405162461bcd60e51b81526004016103b4906117a5565b60405180910390fd5b600480546001600160a01b0319166001600160a01b0392909216919091179055565b6103e76109fb565b6104035760405162461bcd60e51b81526004016103b4906117a5565b60036020527f3617319a054d772f909f7c479a2cebe5066e836a939412e32403c99029b92eff9190915560016000527fa15bc60c955c405d20d9149c709e2460f1c2d9a497496a7f46004d1772c3054c55565b61045f33610b96565b6104dd57600061046d610aab565b905080156104db57600480546040516302654acd60e51b81526001600160a01b0390911691634ca959a0916104a89186913391879101611663565b600060405180830381600087803b1580156104c257600080fd5b505af11580156104d6573d6000803e3d6000fd5b505050505b505b600084815260026020526040902080546001600160a01b0316331480610507575061050733610b96565b6105235760405162461bcd60e51b81526004016103b490611785565b82156105385760028101839055600181018490555b5050505050565b600080600061054c610ea4565b50505060009182525060026020818152604092839020835160608101855281546001600160a01b031680825260018301549382018490529190930154929093018290529192565b600061059d610ea4565b5050600090815260026020818152604092839020835160608101855281546001600160a01b0316808252600183015493820193909352920154919092015290565b81516105e933610b96565b610677576000610607826105fb610aab565b9063ffffffff610c6616565b9050801561067557600480546040516302654acd60e51b81526001600160a01b0390911691634ca959a0916106429187913391879101611663565b600060405180830381600087803b15801561065c57600080fd5b505af1158015610670573d6000803e3d6000fd5b505050505b505b60005b818110156106a65761069e84828151811061069157fe5b6020026020010151610ca9565b60010161067a565b50505050565b6106b46109fb565b6106d05760405162461bcd60e51b81526004016103b4906117a5565b306001600160a01b0316638da5cb5b6040518163ffffffff1660e01b815260040160206040518083038186803b15801561070957600080fd5b505afa15801561071d573d6000803e3d6000fd5b505050506040513d601f19601f8201168201806040525061074191908101906110d2565b6001600160a01b03166108fc829081150290604051600060405180830381858888f19350505050158015610779573d6000803e3d6000fd5b5050565b610779828233610dc2565b6107906109fb565b6107ac5760405162461bcd60e51b81526004016103b4906117a5565b6001600160a01b03919091166000908152600160205260409020805460ff1916911515919091179055565b60036020526000908152604090205481565b6107f233610b96565b61080e5760405162461bcd60e51b81526004016103b490611775565b600480546040516302654acd60e51b81526001600160a01b0390911691634ca959a09161084191879187918791016116c9565b600060405180830381600087803b15801561085b57600080fd5b505af115801561086f573d6000803e3d6000fd5b50505050505050565b60005b82518110156108aa576108a283828151811061089357fe5b60200260200101518333610dc2565b60010161087b565b505050565b6108b833610b96565b6108d45760405162461bcd60e51b81526004016103b490611775565b60048054604051636556cd0560e01b81526001600160a01b0390911691636556cd05916109099188918891889188910161168b565b600060405180830381600087803b15801561092357600080fd5b505af1158015610937573d6000803e3d6000fd5b5050505050505050565b6004546001600160a01b031681565b6109586109fb565b6109745760405162461bcd60e51b81526004016103b4906117a5565b600080546040516001600160a01b03909116907f8be0079c531659141344cd1fd0a4f28419497f9722a3daafe3b4186f6b6457e0908390a3600080546001600160a01b0319169055565b6000805260036020527f3617319a054d772f909f7c479a2cebe5066e836a939412e32403c99029b92eff5490565b6000546001600160a01b031690565b600080546001600160a01b0316610a10610e1f565b6001600160a01b031614905090565b610a2833610b96565b610a445760405162461bcd60e51b81526004016103b490611775565b6004805460405163a9059cbb60e01b81526001600160a01b039091169163a9059cbb91610a759186918691016116ff565b600060405180830381600087803b158015610a8f57600080fd5b505af1158015610aa3573d6000803e3d6000fd5b505050505050565b600160005260036020527fa15bc60c955c405d20d9149c709e2460f1c2d9a497496a7f46004d1772c3054c5490565b60026020819052600091825260409091208054600182015491909201546001600160a01b039092169183565b610b0f33610b96565b610b8d576000610b1d6109be565b90508015610b8b57600480546040516302654acd60e51b81526001600160a01b0390911691634ca959a091610b589186913391879101611663565b600060405180830381600087803b158015610b7257600080fd5b505af1158015610b86573d6000803e3d6000fd5b505050505b505b61077982610ca9565b6001600160a01b031660009081526001602052604090205460ff1690565b60036020527f3617319a054d772f909f7c479a2cebe5066e836a939412e32403c99029b92eff5460016000527fa15bc60c955c405d20d9149c709e2460f1c2d9a497496a7f46004d1772c3054c549091565b610c0e6109fb565b610c2a5760405162461bcd60e51b81526004016103b4906117a5565b610c3381610e23565b50565b600081604051602001610c499190611642565b604051602081830303815290604052805190602001209050919050565b600082610c7557506000610ca3565b82820282848281610c8257fe5b0414610ca05760405162461bcd60e51b81526004016103b490611795565b90505b92915050565b6000610cb88260000151610c36565b60008181526002602052604090206060840151919250906001600160a01b0316610cf45760405162461bcd60e51b81526004016103b4906117c5565b80546001600160a01b031615610d1c5760405162461bcd60e51b81526004016103b490611755565b606083015181546001600160a01b039182166001600160a01b03199182161780845560208087015160018087019182556040808a01516002808a0191825560008b81529581905294829020805490971695909716949094178555905490840155925491909201558351905183917f9096b4564a2bafa0ceef5b1e2a3726b6c688e97d8231050b488716d3c5d0632891610db59190611744565b60405180910390a2505050565b600083815260026020526040902080546001600160a01b03838116911614610dfc5760405162461bcd60e51b81526004016103b4906117b5565b80546001600160a01b0319166001600160a01b0393909316929092179091555050565b3390565b6001600160a01b038116610e495760405162461bcd60e51b81526004016103b490611765565b600080546040516001600160a01b03808516939216917f8be0079c531659141344cd1fd0a4f28419497f9722a3daafe3b4186f6b6457e091a3600080546001600160a01b0319166001600160a01b0392909216919091179055565b604080516060810182526000808252602082018190529181019190915290565b8035610ca3816118dc565b8051610ca3816118dc565b600082601f830112610eeb57600080fd5b8135610efe610ef98261180a565b6117e3565b91508181835260208401935060208101905083856020840282011115610f2357600080fd5b60005b83811015610f4f5781610f398882610fc1565b8452506020928301929190910190600101610f26565b5050505092915050565b600082601f830112610f6a57600080fd5b8135610f78610ef98261180a565b81815260209384019390925082018360005b83811015610f4f5781358601610fa08882611026565b8452506020928301929190910190600101610f8a565b8035610ca3816118f0565b8035610ca3816118f9565b8035610ca381611902565b600082601f830112610fe857600080fd5b8135610ff6610ef98261182b565b9150808252602083016020830185838301111561101257600080fd5b61101d83828461189a565b50505092915050565b60006080828403121561103857600080fd5b61104260806117e3565b9050813567ffffffffffffffff81111561105b57600080fd5b61106784828501610fd7565b825250602061107884848301610fc1565b602083015250604061108c84828501610fc1565b60408301525060606110a084828501610ec4565b60608301525092915050565b6000602082840312156110be57600080fd5b60006110ca8484610ec4565b949350505050565b6000602082840312156110e457600080fd5b60006110ca8484610ecf565b6000806000806080858703121561110657600080fd5b60006111128787610ec4565b945050602061112387828801610ec4565b935050604061113487828801610ec4565b925050606061114587828801610fc1565b91505092959194509250565b60008060006060848603121561116657600080fd5b60006111728686610ec4565b935050602061118386828701610ec4565b925050604061119486828701610fc1565b9150509250925092565b600080604083850312156111b157600080fd5b60006111bd8585610ec4565b92505060206111ce85828601610fb6565b9150509250929050565b600080604083850312156111eb57600080fd5b60006111f78585610ec4565b92505060206111ce85828601610fc1565b6000806040838503121561121b57600080fd5b823567ffffffffffffffff81111561123257600080fd5b61123e85828601610eda565b92505060206111ce85828601610ec4565b6000806040838503121561126257600080fd5b823567ffffffffffffffff81111561127957600080fd5b61123e85828601610f59565b60006020828403121561129757600080fd5b60006110ca8484610fc1565b600080604083850312156112b657600080fd5b600061123e8585610fc1565b600080600080608085870312156112d857600080fd5b60006112e48787610fc1565b94505060206112f587828801610fc1565b935050604061130687828801610fc1565b925050606061114587828801610ec4565b60006020828403121561132957600080fd5b60006110ca8484610fcc565b60006020828403121561134757600080fd5b813567ffffffffffffffff81111561135e57600080fd5b6110ca84828501610fd7565b6000806040838503121561137d57600080fd5b823567ffffffffffffffff81111561139457600080fd5b61123e85828601611026565b600080604083850312156113b357600080fd5b60006111f78585610fc1565b6113c88161188f565b82525050565b6113c881611865565b6113c881611870565b6113c881611875565b6113c881611878565b60006113fd82611853565b6114078185611860565b93506114178185602086016118a6565b9290920192915050565b600061142c82611853565b6114368185611857565b93506114468185602086016118a6565b61144f816118d2565b9093019392505050565b6000611466601483611857565b736578697374696e6720706572737065637469766560601b815260200192915050565b6000611496602683611857565b7f4f776e61626c653a206e6577206f776e657220697320746865207a65726f206181526564647265737360d01b602082015260400192915050565b60006114de602883611857565b7f486173537570657255736572733a2063616c6c6572206973206e6f74206120738152673ab832b92ab9b2b960c11b602082015260400192915050565b6000611528602983611857565b7f6f6e6c7920746865206f776e65722063616e207570646174652074686520706581526872737065637469766560b81b602082015260400192915050565b6000611573602183611857565b7f536166654d6174683a206d756c7469706c69636174696f6e206f766572666c6f8152607760f81b602082015260400192915050565b60006115b6602083611857565b7f4f776e61626c653a2063616c6c6572206973206e6f7420746865206f776e6572815260200192915050565b60006115ef601383611857565b72756e617574686f72697a65642061636365737360681b815260200192915050565b600061161e601583611857565b746f776e65722063616e6e6f7420626520656d70747960581b815260200192915050565b600061164e82846113f2565b9392505050565b60208101610ca382846113ce565b6060810161167182866113ce565b61167e60208301856113bf565b6110ca60408301846113e0565b6080810161169982876113ce565b6116a660208301866113ce565b6116b360408301856113ce565b6116c060608301846113e0565b95945050505050565b606081016116d782866113ce565b61167e60208301856113ce565b606081016116f282866113ce565b61167e60208301856113e0565b6040810161170d82856113ce565b61164e60208301846113e0565b60208101610ca382846113d7565b60208101610ca382846113e0565b60208101610ca382846113e9565b6020808252810161164e8184611421565b60208082528101610ca381611459565b60208082528101610ca381611489565b60208082528101610ca3816114d1565b60208082528101610ca38161151b565b60208082528101610ca381611566565b60208082528101610ca3816115a9565b60208082528101610ca3816115e2565b60208082528101610ca381611611565b6040810161170d82856113e0565b60405181810167ffffffffffffffff8111828210171561180257600080fd5b604052919050565b600067ffffffffffffffff82111561182157600080fd5b5060209081020190565b600067ffffffffffffffff82111561184257600080fd5b506020601f91909101601f19160190565b5190565b90815260200190565b919050565b6000610ca382611883565b151590565b90565b6000610ca382611865565b6001600160a01b031690565b6000610ca382611878565b82818337506000910152565b60005b838110156118c15781810151838201526020016118a9565b838111156106a65750506000910152565b601f01601f191690565b6118e581611865565b8114610c3357600080fd5b6118e581611870565b6118e581611875565b6118e58161187856fea365627a7a72315820ba55d7f31097e3368c241b56fc32323d8ba2fad9e7894a8c5423751c7d3786176c6578706572696d656e74616cf564736f6c63430005100040",
  "source": "pragma solidity >=0.5.0 <0.6.0;\npragma experimental ABIEncoderV2;\n\nimport \"./Ownable.sol\";\nimport \"./SafeMath.sol\";\n\nimport \"./UprtclAccounts.sol\";\n\n/** Underscore Protocol Ethereum Service used to store the content of\n* _Prtcl perspectives */\ncontract UprtclRoot is HasSuperUsers {\n    using SafeMath for uint256;\n\n    struct Perspective {\n        address owner;\n        bytes32 headCid1;\n        bytes32 headCid0;\n    }\n\n    struct NewPerspective {\n        string perspectiveId;\n        bytes32 headCid1;\n        bytes32 headCid0;\n        address owner;\n    }\n\n    /** superUsers can update any perspective */\n    mapping(bytes32 => Perspective) public perspectives;\n\n    mapping(uint256 => uint256) public fees;\n\n    event PerspectiveCreated(\n        bytes32 indexed perspectiveIdHash,\n        string perspectiveId\n    );\n\n    UprtclAccounts public accounts;\n\n    function setAccounts(UprtclAccounts _accounts) public onlyOwner {\n        accounts = _accounts;\n    }\n\n    function withdraw(uint256 amount) public onlyOwner {\n        this.owner().transfer(amount);\n    }\n\n    function setFees(uint256 addFee, uint256 updateFee) public onlyOwner {\n        fees[0] = addFee;\n        fees[1] = updateFee;\n    }\n\n    function getFees() public view returns (uint256 addFee, uint256 updateFee) {\n        return (fees[0], fees[1]);\n    }\n\n    function getAddFee() public view returns (uint256) {\n        return fees[0];\n    }\n\n    function getUpdateFee() public view returns (uint256) {\n        return fees[1];\n    }\n\n    function consume(address account, address by, uint256 amount) public onlySuperUser {\n        accounts.consume(account, by, amount);\n    }\n\n    function transferTo(address from, address by, address to, uint256 amount) public onlySuperUser {\n        accounts.transferTo(from, by, to, amount);\n    }\n\n    function transfer(address to, uint256 amount) public onlySuperUser {\n        accounts.transfer(to, amount);\n    }\n\n    function getPerspectiveIdHash(string memory perspectiveId) public pure returns (bytes32 idHash) {\n        return keccak256(abi.encodePacked(perspectiveId));\n    }\n\n    /** Adds a new perspective to the mapping and sets the owner. The head pointer and the context. */\n    function createPerspectiveInternal(NewPerspective memory newPerspective)\n        private\n    {\n        bytes32 perspectiveIdHash = getPerspectiveIdHash(newPerspective.perspectiveId);\n\n        Perspective storage perspective = perspectives[perspectiveIdHash];\n        require(address(0) != newPerspective.owner, \"owner cannot be empty\");\n        require(address(0) == perspective.owner, \"existing perspective\");\n\n        perspective.owner = newPerspective.owner;\n        perspective.headCid1 = newPerspective.headCid1;\n        perspective.headCid0 = newPerspective.headCid0;\n\n        perspectives[perspectiveIdHash] = perspective;\n\n        emit PerspectiveCreated(\n            perspectiveIdHash,\n            newPerspective.perspectiveId\n        );\n    }\n\n    function createPerspective(NewPerspective memory newPerspective, address account)\n        public\n    {\n        if (!isSuperUser(msg.sender)) {\n            uint256 fee = getAddFee();\n            if (fee > 0) {\n                accounts.consume(account, msg.sender, fee);\n            }\n        }\n        createPerspectiveInternal(newPerspective);\n    }\n\n    function createPerspectiveBatch(NewPerspective[] memory newPerspectives, address account)\n        public\n    {\n        uint256 nPerspectives = newPerspectives.length;\n\n        if (!isSuperUser(msg.sender)) {\n            uint256 fee = getUpdateFee().mul(nPerspectives);\n\n            if (fee > 0) {\n                accounts.consume(account, msg.sender, fee);\n            }\n        }\n\n        for (uint256 ix = 0; ix < nPerspectives; ix++) {\n            createPerspectiveInternal(newPerspectives[ix]);\n        }\n    }\n\n    function updateHead(\n        bytes32 perspectiveIdHash,\n        bytes32 newHeadCid1,\n        bytes32 newHeadCid0,\n        address account\n    ) public {\n        if (!isSuperUser(msg.sender)) {\n            uint256 fee = getUpdateFee();\n            if (fee > 0) {\n                accounts.consume(account, msg.sender, fee);\n            }\n        }\n\n        Perspective storage perspective = perspectives[perspectiveIdHash];\n\n        require(\n            (perspective.owner == msg.sender) || isSuperUser(msg.sender),\n            \"only the owner can update the perspective\"\n        );\n\n        if (newHeadCid0 != bytes32(0)) {\n            perspective.headCid0 = newHeadCid0;\n            perspective.headCid1 = newHeadCid1;\n        }\n    }\n\n    function changePerspectiveOwnerInternal(\n        bytes32 perspectiveIdHash,\n        address newOwner,\n        address sender\n    ) private {\n        Perspective storage perspective = perspectives[perspectiveIdHash];\n        require(sender == perspective.owner, \"unauthorized access\");\n        \n        perspective.owner = newOwner;\n    }\n\n    /** Changes the owner of a given perspective. Available only to the current owner of that perspective. */\n    function changePerspectiveOwner(bytes32 perspectiveIdHash, address newOwner)\n        public\n    {\n        changePerspectiveOwnerInternal(perspectiveIdHash, newOwner, msg.sender);\n    }\n\n    function changePerspectiveOwnerBatch(\n        bytes32[] memory perspectiveIdsHashes,\n        address newOwner\n    ) public {\n        for (uint256 ix = 0; ix < perspectiveIdsHashes.length; ix++) {\n            changePerspectiveOwnerInternal(\n                perspectiveIdsHashes[ix],\n                newOwner,\n                msg.sender\n            );\n        }\n    }\n\n    /** Get the perspective owner and details from its ID */\n    function getPerspective(bytes32 perspectiveIdHash)\n        public\n        view\n        returns (address owner, bytes32 headCid1, bytes32 headCid0)\n    {\n        Perspective memory perspective = perspectives[perspectiveIdHash];\n\n        return (perspective.owner, perspective.headCid1, perspective.headCid0);\n    }\n\n    /** Get the perspective owner and details from its ID */\n    function getPerspectiveOwner(bytes32 perspectiveIdHash)\n        public\n        view\n        returns (address owner)\n    {\n        Perspective memory perspective = perspectives[perspectiveIdHash];\n\n        return (perspective.owner);\n    }\n\n}\n",
  "sourcePath": "/home/pepo/pr/uprtcl/eth-uprtcl/contracts/UprtclRoot.sol",
  "compiler": {
    "name": "solc",
    "version": "0.5.16+commit.9c3226ce.Emscripten.clang"
  },
  "schemaVersion": "3.0.11",
  "updatedAt": "2020-03-16T21:31:31.365Z",
  "devdoc": {
    "methods": {
      "isOwner()": {
        "details": "Returns true if the caller is the current owner."
      },
      "owner()": {
        "details": "Returns the address of the current owner."
      },
      "renounceOwnership()": {
        "details": "Leaves the contract without owner. It will not be possible to call `onlyOwner` functions anymore. Can only be called by the current owner.     * NOTE: Renouncing ownership will leave the contract without an owner, thereby removing any functionality that is only available to the owner."
      },
      "transferOwnership(address)": {
        "details": "Transfers ownership of the contract to a new account (`newOwner`). Can only be called by the current owner."
      }
    }
  },
  "userdoc": {
    "methods": {
      "changePerspectiveOwner(bytes32,address)": {
        "notice": "Changes the owner of a given perspective. Available only to the current owner of that perspective. "
      },
      "getPerspective(bytes32)": {
        "notice": "Get the perspective owner and details from its ID "
      },
      "getPerspectiveOwner(bytes32)": {
        "notice": "Get the perspective owner and details from its ID "
      }
    },
    "notice": "Underscore Protocol Ethereum Service used to store the content of _Prtcl perspectives "
  }
}