{
  "contractName": "UprtclAccounts",
  "abi": [
    {
      "constant": false,
      "inputs": [
        {
          "name": "suAddress",
          "type": "address"
        },
        {
          "name": "value",
          "type": "bool"
        }
      ],
      "name": "setSuperUser",
      "outputs": [],
      "payable": false,
      "stateMutability": "nonpayable",
      "type": "function"
    },
    {
      "constant": false,
      "inputs": [],
      "name": "renounceOwnership",
      "outputs": [],
      "payable": false,
      "stateMutability": "nonpayable",
      "type": "function"
    },
    {
      "constant": true,
      "inputs": [],
      "name": "owner",
      "outputs": [
        {
          "name": "",
          "type": "address"
        }
      ],
      "payable": false,
      "stateMutability": "view",
      "type": "function"
    },
    {
      "constant": true,
      "inputs": [],
      "name": "isOwner",
      "outputs": [
        {
          "name": "",
          "type": "bool"
        }
      ],
      "payable": false,
      "stateMutability": "view",
      "type": "function"
    },
    {
      "constant": true,
      "inputs": [
        {
          "name": "",
          "type": "address"
        },
        {
          "name": "",
          "type": "address"
        }
      ],
      "name": "accounts",
      "outputs": [
        {
          "name": "",
          "type": "bool"
        }
      ],
      "payable": false,
      "stateMutability": "view",
      "type": "function"
    },
    {
      "constant": true,
      "inputs": [
        {
          "name": "suAddress",
          "type": "address"
        }
      ],
      "name": "isSuperUser",
      "outputs": [
        {
          "name": "",
          "type": "bool"
        }
      ],
      "payable": false,
      "stateMutability": "view",
      "type": "function"
    },
    {
      "constant": false,
      "inputs": [
        {
          "name": "newOwner",
          "type": "address"
        }
      ],
      "name": "transferOwnership",
      "outputs": [],
      "payable": false,
      "stateMutability": "nonpayable",
      "type": "function"
    },
    {
      "constant": true,
      "inputs": [],
      "name": "token",
      "outputs": [
        {
          "name": "",
          "type": "address"
        }
      ],
      "payable": false,
      "stateMutability": "view",
      "type": "function"
    },
    {
      "anonymous": false,
      "inputs": [
        {
          "indexed": true,
          "name": "previousOwner",
          "type": "address"
        },
        {
          "indexed": true,
          "name": "newOwner",
          "type": "address"
        }
      ],
      "name": "OwnershipTransferred",
      "type": "event"
    },
    {
      "constant": false,
      "inputs": [
        {
          "name": "_token",
          "type": "address"
        }
      ],
      "name": "setToken",
      "outputs": [],
      "payable": false,
      "stateMutability": "nonpayable",
      "type": "function"
    },
    {
      "constant": false,
      "inputs": [
        {
          "name": "to",
          "type": "address"
        },
        {
          "name": "amount",
          "type": "uint256"
        }
      ],
      "name": "withdraw",
      "outputs": [],
      "payable": false,
      "stateMutability": "nonpayable",
      "type": "function"
    },
    {
      "constant": false,
      "inputs": [
        {
          "name": "usufructuary",
          "type": "address"
        },
        {
          "name": "value",
          "type": "bool"
        }
      ],
      "name": "setUsufructuary",
      "outputs": [],
      "payable": false,
      "stateMutability": "nonpayable",
      "type": "function"
    },
    {
      "constant": true,
      "inputs": [
        {
          "name": "account",
          "type": "address"
        },
        {
          "name": "usufructuary",
          "type": "address"
        }
      ],
      "name": "isUsufructuary",
      "outputs": [
        {
          "name": "itIs",
          "type": "bool"
        }
      ],
      "payable": false,
      "stateMutability": "view",
      "type": "function"
    },
    {
      "constant": false,
      "inputs": [
        {
          "name": "account",
          "type": "address"
        },
        {
          "name": "by",
          "type": "address"
        },
        {
          "name": "amount",
          "type": "uint256"
        }
      ],
      "name": "consume",
      "outputs": [],
      "payable": false,
      "stateMutability": "nonpayable",
      "type": "function"
    },
    {
      "constant": false,
      "inputs": [
        {
          "name": "account",
          "type": "address"
        },
        {
          "name": "by",
          "type": "address"
        },
        {
          "name": "to",
          "type": "address"
        },
        {
          "name": "amount",
          "type": "uint256"
        }
      ],
      "name": "transferTo",
      "outputs": [],
      "payable": false,
      "stateMutability": "nonpayable",
      "type": "function"
    }
  ],
  "bytecode": "0x608060405261001261005f60201b60201c565b600080546001600160a01b0319166001600160a01b03928316178082556040519216917f8be0079c531659141344cd1fd0a4f28419497f9722a3daafe3b4186f6b6457e0908290a3610063565b3390565b610a3c806100726000396000f3fe608060405234801561001057600080fd5b50600436106100ea5760003560e01c80638da5cb5b1161008c578063cd784d1b11610066578063cd784d1b14610289578063f2fde38b146102af578063f3fef3a3146102d5578063fc0c546a14610301576100ea565b80638da5cb5b1461022f5780638f32d59b14610253578063ad74b7751461025b576100ea565b806345655b4e116100c857806345655b4e146101875780634ca959a0146101b55780636556cd05146101eb578063715018a614610227576100ea565b80630388a732146100ef578063144fa6d71461011f5780632cc786e514610145575b600080fd5b61011d6004803603604081101561010557600080fd5b506001600160a01b0381351690602001351515610309565b005b61011d6004803603602081101561013557600080fd5b50356001600160a01b0316610341565b6101736004803603604081101561015b57600080fd5b506001600160a01b03813581169160200135166103ad565b604080519115158252519081900360200190f35b61011d6004803603604081101561019d57600080fd5b506001600160a01b03813516906020013515156103db565b61011d600480360360608110156101cb57600080fd5b506001600160a01b03813581169160208101359091169060400135610450565b61011d6004803603608081101561020157600080fd5b506001600160a01b03813581169160208101358216916040820135169060600135610574565b61011d61069b565b61023761072f565b604080516001600160a01b039092168252519081900360200190f35b61017361073e565b6101736004803603604081101561027157600080fd5b506001600160a01b0381358116916020013516610762565b6101736004803603602081101561029f57600080fd5b50356001600160a01b0316610782565b61011d600480360360208110156102c557600080fd5b50356001600160a01b03166107a0565b61011d600480360360408110156102eb57600080fd5b506001600160a01b0381351690602001356107f6565b6102376108c9565b3360009081526002602090815260408083206001600160a01b0395909516835293905291909120805460ff1916911515919091179055565b61034961073e565b61038b5760408051600160e51b62461bcd02815260206004820181905260248201526000805160206109f1833981519152604482015290519081900360640190fd5b600380546001600160a01b0319166001600160a01b0392909216919091179055565b6001600160a01b03918216600090815260026020908152604080832093909416825291909152205460ff1690565b6103e361073e565b6104255760408051600160e51b62461bcd02815260206004820181905260248201526000805160206109f1833981519152604482015290519081900360640190fd5b6001600160a01b03919091166000908152600160205260409020805460ff1916911515919091179055565b61045933610782565b61049757604051600160e51b62461bcd0281526004018080602001828103825260288152602001806109a66028913960400191505060405180910390fd5b6104a183836103ad565b15156001146104e457604051600160e51b62461bcd0281526004018080602001828103825260238152602001806109ce6023913960400191505060405180910390fd5b60035460408051600160e01b6323b872dd0281526001600160a01b03868116600483015230602483015260448201859052915191909216916323b872dd9160648083019260209291908290030181600087803b15801561054357600080fd5b505af1158015610557573d6000803e3d6000fd5b505050506040513d602081101561056d57600080fd5b5050505050565b61057d33610782565b6105bb57604051600160e51b62461bcd0281526004018080602001828103825260288152602001806109a66028913960400191505060405180910390fd5b6105c584846103ad565b151560011461060857604051600160e51b62461bcd0281526004018080602001828103825260238152602001806109ce6023913960400191505060405180910390fd5b60035460408051600160e01b6323b872dd0281526001600160a01b038781166004830152858116602483015260448201859052915191909216916323b872dd9160648083019260209291908290030181600087803b15801561066957600080fd5b505af115801561067d573d6000803e3d6000fd5b505050506040513d602081101561069357600080fd5b505050505050565b6106a361073e565b6106e55760408051600160e51b62461bcd02815260206004820181905260248201526000805160206109f1833981519152604482015290519081900360640190fd5b600080546040516001600160a01b03909116907f8be0079c531659141344cd1fd0a4f28419497f9722a3daafe3b4186f6b6457e0908390a3600080546001600160a01b0319169055565b6000546001600160a01b031690565b600080546001600160a01b03166107536108d8565b6001600160a01b031614905090565b600260209081526000928352604080842090915290825290205460ff1681565b6001600160a01b031660009081526001602052604090205460ff1690565b6107a861073e565b6107ea5760408051600160e51b62461bcd02815260206004820181905260248201526000805160206109f1833981519152604482015290519081900360640190fd5b6107f3816108dc565b50565b6107fe61073e565b6108405760408051600160e51b62461bcd02815260206004820181905260248201526000805160206109f1833981519152604482015290519081900360640190fd5b60035460408051600160e01b63a9059cbb0281526001600160a01b038581166004830152602482018590529151919092169163a9059cbb9160448083019260209291908290030181600087803b15801561089957600080fd5b505af11580156108ad573d6000803e3d6000fd5b505050506040513d60208110156108c357600080fd5b50505050565b6003546001600160a01b031681565b3390565b6001600160a01b03811661092457604051600160e51b62461bcd0281526004018080602001828103825260268152602001806109806026913960400191505060405180910390fd5b600080546040516001600160a01b03808516939216917f8be0079c531659141344cd1fd0a4f28419497f9722a3daafe3b4186f6b6457e091a3600080546001600160a01b0319166001600160a01b039290921691909117905556fe4f776e61626c653a206e6577206f776e657220697320746865207a65726f2061646472657373486173537570657255736572733a2063616c6c6572206973206e6f7420612073757065725573657275736572206973206e6f7420616e206163636f756e74207573756672756374756172794f776e61626c653a2063616c6c6572206973206e6f7420746865206f776e6572a165627a7a723058209a186c5e3aa91dd7c5f2c733ccfdd02013e6dcadaf9c90085815902c1e1d327a0029",
  "source": "pragma solidity >=0.5.0 <0.6.0;\n\nimport \"./HasSuperUsers.sol\";\nimport \"./IERC20.sol\";\n\ncontract UprtclAccounts is HasSuperUsers {\n\n    mapping(address => mapping(address => bool)) public accounts;\n\n    IERC20 public token;\n\n    function setToken (IERC20 _token) public onlyOwner {\n        token = _token;\n    }\n\n    function withdraw (address to, uint256 amount) public onlyOwner {\n        token.transfer(to, amount);\n    }\n\n    function setUsufructuary (address usufructuary, bool value) public {\n        accounts[msg.sender][usufructuary] = value;\n    }\n\n    function isUsufructuary (address account, address usufructuary) public view returns (bool itIs) {\n        return accounts[account][usufructuary];\n    }\n\n    function consume (address account, address by, uint256 amount) public onlySuperUser {\n        require(isUsufructuary(account, by) == true, \"user is not an account usufructuary\");\n        token.transferFrom(account, address(this), amount);\n    }\n\n    function transferTo (address account, address by, address to, uint256 amount) public onlySuperUser {\n        require(isUsufructuary(account, by) == true, \"user is not an account usufructuary\");\n        token.transferFrom(account, to, amount);\n    }\n\n}\n",
  "sourcePath": "/home/pepo/pr/uprtcl/eth-uprtcl/contracts/UprtclAccounts.sol",
  "compiler": {
    "name": "solc",
    "version": "0.5.8+commit.23d335f2.Emscripten.clang"
  },
  "schemaVersion": "3.0.11",
  "updatedAt": "2020-02-27T12:07:58.791Z",
  "devdoc": {
    "methods": {
      "isOwner()": {
        "details": "Returns true if the caller is the current owner."
      },
      "owner()": {
        "details": "Returns the address of the current owner."
      },
      "renounceOwnership()": {
        "details": "Leaves the contract without owner. It will not be possible to call `onlyOwner` functions anymore. Can only be called by the current owner.     * NOTE: Renouncing ownership will leave the contract without an owner, thereby removing any functionality that is only available to the owner."
      },
      "transferOwnership(address)": {
        "details": "Transfers ownership of the contract to a new account (`newOwner`). Can only be called by the current owner."
      }
    }
  },
  "userdoc": {
    "methods": {}
  }
}