{
  "contractName": "UprtclProposals",
  "abi": [
    {
      "anonymous": false,
      "inputs": [
        {
          "indexed": true,
          "internalType": "bytes32",
          "name": "proposalId",
          "type": "bytes32"
        },
        {
          "indexed": true,
          "internalType": "bytes32",
          "name": "perspectiveIdHash",
          "type": "bytes32"
        },
        {
          "indexed": false,
          "internalType": "string",
          "name": "fromPerspectiveId",
          "type": "string"
        },
        {
          "indexed": false,
          "internalType": "string",
          "name": "fromHeadId",
          "type": "string"
        }
      ],
      "name": "HeadUpdateAdded",
      "type": "event"
    },
    {
      "anonymous": false,
      "inputs": [
        {
          "indexed": true,
          "internalType": "address",
          "name": "previousOwner",
          "type": "address"
        },
        {
          "indexed": true,
          "internalType": "address",
          "name": "newOwner",
          "type": "address"
        }
      ],
      "name": "OwnershipTransferred",
      "type": "event"
    },
    {
      "anonymous": false,
      "inputs": [
        {
          "indexed": true,
          "internalType": "bytes32",
          "name": "toPerspectiveIdHash",
          "type": "bytes32"
        },
        {
          "indexed": true,
          "internalType": "bytes32",
          "name": "fromPerspectiveIdHash",
          "type": "bytes32"
        },
        {
          "indexed": true,
          "internalType": "bytes32",
          "name": "proposalId",
          "type": "bytes32"
        },
        {
          "indexed": false,
          "internalType": "string",
          "name": "toPerspectiveId",
          "type": "string"
        },
        {
          "indexed": false,
          "internalType": "string",
          "name": "fromPerspectiveId",
          "type": "string"
        },
        {
          "indexed": false,
          "internalType": "string",
          "name": "toHeadId",
          "type": "string"
        },
        {
          "indexed": false,
          "internalType": "string",
          "name": "fromHeadId",
          "type": "string"
        },
        {
          "indexed": false,
          "internalType": "uint256",
          "name": "nonce",
          "type": "uint256"
        },
        {
          "indexed": false,
          "internalType": "address",
          "name": "creator",
          "type": "address"
        }
      ],
      "name": "ProposalCreated",
      "type": "event"
    },
    {
      "constant": true,
      "inputs": [],
      "name": "factor_den",
      "outputs": [
        {
          "internalType": "uint256",
          "name": "",
          "type": "uint256"
        }
      ],
      "payable": false,
      "stateMutability": "view",
      "type": "function"
    },
    {
      "constant": true,
      "inputs": [],
      "name": "factor_num",
      "outputs": [
        {
          "internalType": "uint256",
          "name": "",
          "type": "uint256"
        }
      ],
      "payable": false,
      "stateMutability": "view",
      "type": "function"
    },
    {
      "constant": true,
      "inputs": [
        {
          "internalType": "address",
          "name": "",
          "type": "address"
        }
      ],
      "name": "fees",
      "outputs": [
        {
          "internalType": "uint256",
          "name": "fee",
          "type": "uint256"
        },
        {
          "internalType": "uint256",
          "name": "balance",
          "type": "uint256"
        }
      ],
      "payable": false,
      "stateMutability": "view",
      "type": "function"
    },
    {
      "constant": true,
      "inputs": [],
      "name": "isOwner",
      "outputs": [
        {
          "internalType": "bool",
          "name": "",
          "type": "bool"
        }
      ],
      "payable": false,
      "stateMutability": "view",
      "type": "function"
    },
    {
      "constant": true,
      "inputs": [
        {
          "internalType": "address",
          "name": "suAddress",
          "type": "address"
        }
      ],
      "name": "isSuperUser",
      "outputs": [
        {
          "internalType": "bool",
          "name": "",
          "type": "bool"
        }
      ],
      "payable": false,
      "stateMutability": "view",
      "type": "function"
    },
    {
      "constant": true,
      "inputs": [],
      "name": "minFee",
      "outputs": [
        {
          "internalType": "uint256",
          "name": "",
          "type": "uint256"
        }
      ],
      "payable": false,
      "stateMutability": "view",
      "type": "function"
    },
    {
      "constant": true,
      "inputs": [],
      "name": "owner",
      "outputs": [
        {
          "internalType": "address payable",
          "name": "",
          "type": "address"
        }
      ],
      "payable": false,
      "stateMutability": "view",
      "type": "function"
    },
    {
      "constant": true,
      "inputs": [
        {
          "internalType": "bytes32",
          "name": "",
          "type": "bytes32"
        }
      ],
      "name": "proposals",
      "outputs": [
        {
          "internalType": "address",
          "name": "owner",
          "type": "address"
        },
        {
          "internalType": "uint8",
          "name": "status",
          "type": "uint8"
        },
        {
          "internalType": "uint8",
          "name": "authorized",
          "type": "uint8"
        },
        {
          "internalType": "uint8",
          "name": "rejected",
          "type": "uint8"
        },
        {
          "internalType": "uint8",
          "name": "withdrawn",
          "type": "uint8"
        }
      ],
      "payable": false,
      "stateMutability": "view",
      "type": "function"
    },
    {
      "constant": false,
      "inputs": [],
      "name": "renounceOwnership",
      "outputs": [],
      "payable": false,
      "stateMutability": "nonpayable",
      "type": "function"
    },
    {
      "constant": false,
      "inputs": [
        {
          "internalType": "address",
          "name": "suAddress",
          "type": "address"
        },
        {
          "internalType": "bool",
          "name": "value",
          "type": "bool"
        }
      ],
      "name": "setSuperUser",
      "outputs": [],
      "payable": false,
      "stateMutability": "nonpayable",
      "type": "function"
    },
    {
      "constant": false,
      "inputs": [
        {
          "internalType": "address payable",
          "name": "newOwner",
          "type": "address"
        }
      ],
      "name": "transferOwnership",
      "outputs": [],
      "payable": false,
      "stateMutability": "nonpayable",
      "type": "function"
    },
    {
      "constant": false,
      "inputs": [
        {
          "internalType": "contract UprtclRoot",
          "name": "_uprtclRoot",
          "type": "address"
        }
      ],
      "name": "setUprtclRoot",
      "outputs": [],
      "payable": false,
      "stateMutability": "nonpayable",
      "type": "function"
    },
    {
      "constant": true,
      "inputs": [
        {
          "internalType": "string",
          "name": "toPerspectiveId",
          "type": "string"
        },
        {
          "internalType": "string",
          "name": "fromPerspectiveId",
          "type": "string"
        },
        {
          "internalType": "uint256",
          "name": "nonce",
          "type": "uint256"
        }
      ],
      "name": "getProposalId",
      "outputs": [
        {
          "internalType": "bytes32",
          "name": "proposalId",
          "type": "bytes32"
        }
      ],
      "payable": false,
      "stateMutability": "pure",
      "type": "function"
    },
    {
      "constant": false,
      "inputs": [
        {
          "internalType": "uint256",
          "name": "_minFee",
          "type": "uint256"
        }
      ],
      "name": "setMinFee",
      "outputs": [],
      "payable": false,
      "stateMutability": "nonpayable",
      "type": "function"
    },
    {
      "constant": false,
      "inputs": [
        {
          "internalType": "uint256",
          "name": "_factor_num",
          "type": "uint256"
        }
      ],
      "name": "setFactorNum",
      "outputs": [],
      "payable": false,
      "stateMutability": "nonpayable",
      "type": "function"
    },
    {
      "constant": false,
      "inputs": [
        {
          "internalType": "uint256",
          "name": "_factor_den",
          "type": "uint256"
        }
      ],
      "name": "setFactorDen",
      "outputs": [],
      "payable": false,
      "stateMutability": "nonpayable",
      "type": "function"
    },
    {
      "constant": false,
      "inputs": [
        {
          "components": [
            {
              "internalType": "string",
              "name": "toPerspectiveId",
              "type": "string"
            },
            {
              "internalType": "string",
              "name": "fromPerspectiveId",
              "type": "string"
            },
            {
              "internalType": "string",
              "name": "toHeadId",
              "type": "string"
            },
            {
              "internalType": "string",
              "name": "fromHeadId",
              "type": "string"
            },
            {
              "internalType": "address",
              "name": "owner",
              "type": "address"
            },
            {
              "internalType": "uint256",
              "name": "nonce",
              "type": "uint256"
            },
            {
              "components": [
                {
                  "internalType": "bytes32",
                  "name": "perspectiveIdHash",
                  "type": "bytes32"
                },
                {
                  "internalType": "bytes32",
                  "name": "headCid1",
                  "type": "bytes32"
                },
                {
                  "internalType": "bytes32",
                  "name": "headCid0",
                  "type": "bytes32"
                },
                {
                  "internalType": "string",
                  "name": "fromPerspectiveId",
                  "type": "string"
                },
                {
                  "internalType": "string",
                  "name": "fromHeadId",
                  "type": "string"
                }
              ],
              "internalType": "struct UprtclProposals.HeadUpdateInput[]",
              "name": "headUpdates",
              "type": "tuple[]"
            },
            {
              "internalType": "address[]",
              "name": "approvedAddresses",
              "type": "address[]"
            }
          ],
          "internalType": "struct UprtclProposals.NewProposal",
          "name": "newProposal",
          "type": "tuple"
        },
        {
          "internalType": "address",
          "name": "account",
          "type": "address"
        }
      ],
      "name": "initProposal",
      "outputs": [],
      "payable": false,
      "stateMutability": "nonpayable",
      "type": "function"
    },
    {
      "constant": false,
      "inputs": [
        {
          "internalType": "bytes32",
          "name": "proposalId",
          "type": "bytes32"
        },
        {
          "components": [
            {
              "internalType": "bytes32",
              "name": "perspectiveIdHash",
              "type": "bytes32"
            },
            {
              "internalType": "bytes32",
              "name": "headCid1",
              "type": "bytes32"
            },
            {
              "internalType": "bytes32",
              "name": "headCid0",
              "type": "bytes32"
            },
            {
              "internalType": "string",
              "name": "fromPerspectiveId",
              "type": "string"
            },
            {
              "internalType": "string",
              "name": "fromHeadId",
              "type": "string"
            }
          ],
          "internalType": "struct UprtclProposals.HeadUpdateInput[]",
          "name": "headUpdates",
          "type": "tuple[]"
        }
      ],
      "name": "addUpdatesToProposal",
      "outputs": [],
      "payable": false,
      "stateMutability": "nonpayable",
      "type": "function"
    },
    {
      "constant": false,
      "inputs": [
        {
          "internalType": "bytes32",
          "name": "proposalId",
          "type": "bytes32"
        },
        {
          "internalType": "uint8",
          "name": "status",
          "type": "uint8"
        }
      ],
      "name": "setProposalStatus",
      "outputs": [],
      "payable": false,
      "stateMutability": "nonpayable",
      "type": "function"
    },
    {
      "constant": false,
      "inputs": [
        {
          "internalType": "bytes32",
          "name": "proposalId",
          "type": "bytes32"
        },
        {
          "internalType": "uint8",
          "name": "authorized",
          "type": "uint8"
        },
        {
          "internalType": "bool",
          "name": "execute",
          "type": "bool"
        },
        {
          "internalType": "address",
          "name": "msgSender",
          "type": "address"
        }
      ],
      "name": "authorizeProposalSuperUser",
      "outputs": [],
      "payable": false,
      "stateMutability": "nonpayable",
      "type": "function"
    },
    {
      "constant": false,
      "inputs": [
        {
          "internalType": "bytes32",
          "name": "proposalId",
          "type": "bytes32"
        },
        {
          "internalType": "uint8",
          "name": "authorized",
          "type": "uint8"
        },
        {
          "internalType": "bool",
          "name": "execute",
          "type": "bool"
        }
      ],
      "name": "authorizeProposal",
      "outputs": [],
      "payable": false,
      "stateMutability": "nonpayable",
      "type": "function"
    },
    {
      "constant": false,
      "inputs": [
        {
          "internalType": "bytes32",
          "name": "proposalId",
          "type": "bytes32"
        }
      ],
      "name": "rejectProposal",
      "outputs": [],
      "payable": false,
      "stateMutability": "nonpayable",
      "type": "function"
    },
    {
      "constant": false,
      "inputs": [
        {
          "internalType": "bytes32",
          "name": "proposalId",
          "type": "bytes32"
        }
      ],
      "name": "withdrawProposal",
      "outputs": [],
      "payable": false,
      "stateMutability": "nonpayable",
      "type": "function"
    },
    {
      "constant": false,
      "inputs": [
        {
          "internalType": "bytes32",
          "name": "proposalId",
          "type": "bytes32"
        }
      ],
      "name": "executeProposalExternal",
      "outputs": [],
      "payable": false,
      "stateMutability": "nonpayable",
      "type": "function"
    },
    {
      "constant": false,
      "inputs": [
        {
          "internalType": "bytes32",
          "name": "proposalId",
          "type": "bytes32"
        },
        {
          "internalType": "uint256[]",
          "name": "indexes",
          "type": "uint256[]"
        }
      ],
      "name": "executeProposalPartially",
      "outputs": [],
      "payable": false,
      "stateMutability": "nonpayable",
      "type": "function"
    },
    {
      "constant": true,
      "inputs": [
        {
          "internalType": "bytes32",
          "name": "proposalId",
          "type": "bytes32"
        }
      ],
      "name": "getProposal",
      "outputs": [
        {
          "components": [
            {
              "internalType": "address",
              "name": "owner",
              "type": "address"
            },
            {
              "components": [
                {
                  "internalType": "bytes32",
                  "name": "perspectiveIdHash",
                  "type": "bytes32"
                },
                {
                  "internalType": "bytes32",
                  "name": "headCid1",
                  "type": "bytes32"
                },
                {
                  "internalType": "bytes32",
                  "name": "headCid0",
                  "type": "bytes32"
                },
                {
                  "internalType": "uint8",
                  "name": "executed",
                  "type": "uint8"
                }
              ],
              "internalType": "struct UprtclProposals.HeadUpdate[]",
              "name": "headUpdates",
              "type": "tuple[]"
            },
            {
              "internalType": "address[]",
              "name": "approvedAddresses",
              "type": "address[]"
            },
            {
              "internalType": "uint8",
              "name": "status",
              "type": "uint8"
            },
            {
              "internalType": "uint8",
              "name": "authorized",
              "type": "uint8"
            },
            {
              "internalType": "uint8",
              "name": "rejected",
              "type": "uint8"
            },
            {
              "internalType": "uint8",
              "name": "withdrawn",
              "type": "uint8"
            }
          ],
          "internalType": "struct UprtclProposals.Proposal",
          "name": "proposal",
          "type": "tuple"
        }
      ],
      "payable": false,
      "stateMutability": "view",
      "type": "function"
    }
  ],
  "bytecode": "0x60806040526100156001600160e01b0361006216565b600080546001600160a01b0319166001600160a01b03928316178082556040519216917f8be0079c531659141344cd1fd0a4f28419497f9722a3daafe3b4186f6b6457e0908290a3610066565b3390565b612c41806100756000396000f3fe608060405234801561001057600080fd5b506004361061018e5760003560e01c8063641591af116100de578063971a294f11610097578063cd784d1b11610071578063cd784d1b14610343578063d043559114610356578063f2fde38b14610369578063faaebd211461037c5761018e565b8063971a294f1461030a5780639a9814a01461031d578063bb61de30146103305761018e565b8063641591af1461029f578063715018a6146102b25780637a9700e2146102ba5780637cce0117146102cd5780638da5cb5b146102e05780638f32d59b146102f55761018e565b806331ac99201161014b5780633ca0df3f116101255780633ca0df3f14610251578063430694cf1461026457806345655b4e1461028457806352f386cb146102975761018e565b806331ac99201461020757806332ed5b121461021a57806339eacf341461023e5761018e565b806305196b9d146101935780630de4cb19146101b157806311ab31ed146101c6578063158215d3146101d957806324ec7590146101ec5780632bc3ed3a146101f4575b600080fd5b61019b61039d565b6040516101a891906128ae565b60405180910390f35b6101c46101bf366004611e81565b6103a3565b005b6101c46101d4366004611e81565b6103d5565b6101c46101e7366004611f04565b61044b565b61019b61045a565b61019b610202366004612047565b610460565b6101c4610215366004611e81565b610496565b61022d610228366004611e81565b6104bf565b6040516101a8959493929190612854565b6101c461024c366004611f4b565b610503565b6101c461025f366004611e81565b61068e565b610277610272366004611e81565b610706565b6040516101a89190612a9b565b6101c4610292366004611e47565b610858565b61019b6108a7565b6101c46102ad366004611f7b565b6108ad565b6101c46108be565b6101c46102c8366004611e81565b61092c565b6101c46102db366004612029565b610939565b6102e861097f565b6040516101a891906127e0565b6102fd61098f565b6040516101a891906128a0565b6101c4610318366004611e81565b6109b3565b6101c461032b366004611ebd565b6109dc565b6101c461033e366004611fc8565b610c97565b6102fd610351366004611e03565b610cc8565b6101c46103643660046120b7565b610ce6565b6101c4610377366004611e03565b6111c8565b61038f61038a366004611e03565b6111f5565b6040516101a8929190612aac565b60055481565b6103ab61098f565b6103d05760405162461bcd60e51b81526004016103c790612a6b565b60405180910390fd5b600555565b600081815260026020526040902080546001600160a01b0316331461040c5760405162461bcd60e51b81526004016103c790612a7b565b6003810154610100900460ff16156104365760405162461bcd60e51b81526004016103c790612a1b565b600301805462ff000019166201000017905550565b61045682823361120e565b5050565b60045481565b6000838383604051602001610477939291906127b1565b6040516020818303038152906040528051906020012090509392505050565b61049e61098f565b6104ba5760405162461bcd60e51b81526004016103c790612a6b565b600455565b600260205260009081526040902080546003909101546001600160a01b039091169060ff808216916101008104821691620100008204811691630100000090041685565b6000828152600260209081526040808320815160e08101835281546001600160a01b031681526001820180548451818702810187019095528085529295946106569492938793858301939092909190889084015b828210156105ae576000848152602090819020604080516080810182526004860290920180548352600180820154848601526002820154928401929092526003015460ff1660608301529083529092019101610557565b5050505081526020016002820180548060200260200160405190810160405280929190818152602001828054801561060f57602002820191906000526020600020905b81546001600160a01b031681526001909101906020018083116105f1575b50505091835250506003919091015460ff808216602084015261010082048116604084015262010000820481166060840152630100000090910416608090910152336114a5565b60ff16116106765760405162461bcd60e51b81526004016103c7906129fb565b600301805460ff191660ff9290921691909117905550565b600081815260026020526040902080546001600160a01b031633146106c55760405162461bcd60e51b81526004016103c790612a7b565b6003810154610100900460ff16156106ef5760405162461bcd60e51b81526004016103c790612a3b565b600301805463ff0000001916630100000017905550565b61070e6118a9565b6000828152600260209081526040808320815160e08101835281546001600160a01b031681526001820180548451818702810187019095528085529195929486810194939192919084015b828210156107b0576000848152602090819020604080516080810182526004860290920180548352600180820154848601526002820154928401929092526003015460ff1660608301529083529092019101610759565b5050505081526020016002820180548060200260200160405190810160405280929190818152602001828054801561081157602002820191906000526020600020905b81546001600160a01b031681526001909101906020018083116107f3575b50505091835250506003919091015460ff80821660208401526101008204811660408401526201000082048116606084015263010000009091041660809091015292915050565b61086061098f565b61087c5760405162461bcd60e51b81526004016103c790612a6b565b6001600160a01b03919091166000908152600160205260409020805460ff1916911515919091179055565b60065481565b6108b983838333611528565b505050565b6108c661098f565b6108e25760405162461bcd60e51b81526004016103c790612a6b565b600080546040516001600160a01b03909116907f8be0079c531659141344cd1fd0a4f28419497f9722a3daafe3b4186f6b6457e0908390a3600080546001600160a01b0319169055565b61093681336115c6565b50565b61094161098f565b61095d5760405162461bcd60e51b81526004016103c790612a6b565b600780546001600160a01b0319166001600160a01b0392909216919091179055565b6000546001600160a01b03165b90565b600080546001600160a01b03166109a46116fc565b6001600160a01b031614905090565b6109bb61098f565b6109d75760405162461bcd60e51b81526004016103c790612a6b565b600655565b600082815260026020526040902080546001600160a01b0316610a115760405162461bcd60e51b81526004016103c7906129cb565b600381015460ff16610a355760405162461bcd60e51b81526004016103c790612a8b565b6040805160e08101825282546001600160a01b031681526001830180548351602080830282018101909552818152600094610acb9493879382860193928890840182156105ae576000848152602090819020604080516080810182526004860290920180548352600180820154848601526002820154928401929092526003015460ff1660608301529083529092019101610557565b60ff1611610aeb5760405162461bcd60e51b81526004016103c7906129fb565b60005b82518160ff161015610c9157610b026118e6565b838260ff1681518110610b1157fe5b602090810291909101015183546007548251604051631393bbf560e01b81529394506001600160a01b03928316939290911691631393bbf591610b56916004016128ae565b60206040518083038186803b158015610b6e57600080fd5b505afa158015610b82573d6000803e3d6000fd5b505050506040513d601f19601f82011682018060405250610ba69190810190611e29565b6001600160a01b031614610bcc5760405162461bcd60e51b81526004016103c79061299b565b610bd4611913565b815181526020808301518183019081526040808501518185019081526000606080870182815260018b8101805480830182559085529790932088516004909802019687559451918601919091559051600285015591516003909301805460ff191660ff9094169390931790925583519084015160808501519251919289927f767a7e7936e539a742cd167c602bcca46c55ab47f49b2660c3a1bc7dcafc1b9692610c7f929091612902565b60405180910390a35050600101610aee565b50505050565b610ca033610cc8565b610cbc5760405162461bcd60e51b81526004016103c7906129eb565b610c9184848484611528565b6001600160a01b031660009081526001602052604090205460ff1690565b600754825160405163fc87de3960e01b81526000926001600160a01b031691631393bbf591839163fc87de3991610d2091906004016128f1565b60206040518083038186803b158015610d3857600080fd5b505afa158015610d4c573d6000803e3d6000fd5b505050506040513d601f19601f82011682018060405250610d709190810190611e9f565b6040518263ffffffff1660e01b8152600401610d8c91906128ae565b60206040518083038186803b158015610da457600080fd5b505afa158015610db8573d6000803e3d6000fd5b505050506040513d601f19601f82011682018060405250610ddc9190810190611e29565b6001600160a01b03811660009081526003602052604090205490915080610e715760045415610e6c57600754600480546040516302654acd60e51b81526001600160a01b0390931692634ca959a092610e3992889233920161282c565b600060405180830381600087803b158015610e5357600080fd5b505af1158015610e67573d6000803e3d6000fd5b505050505b610fb1565b6000610e9a600654610e8e6005548561170090919063ffffffff16565b9063ffffffff61174116565b90506000610ecb600654610e8e610ebe60055460065461178390919063ffffffff16565b869063ffffffff61170016565b6004549091508290811015610edf57506004545b600754604051636556cd0560e01b81526001600160a01b0390911690636556cd0590610f1590899033908a9088906004016127ee565b600060405180830381600087803b158015610f2f57600080fd5b505af1158015610f43573d6000803e3d6000fd5b50506007546040516302654acd60e51b81526001600160a01b039091169250634ca959a09150610f7b9089903390869060040161282c565b600060405180830381600087803b158015610f9557600080fd5b505af1158015610fa9573d6000803e3d6000fd5b505050505050505b6000610fca856000015186602001518760a00151610460565b60008181526002602052604090208054919250906001600160a01b0316156110045760405162461bcd60e51b81526004016103c790612a2b565b608086015181546001600160a01b0319166001600160a01b0390911617815560e0860151805161103e91600284019160209091019061193a565b5060038101805463ffffff001960ff1990911660011716905560c08601516110679083906109dc565b600754602087015160405163fc87de3960e01b815284926001600160a01b03169163fc87de399161109b91906004016128f1565b60206040518083038186803b1580156110b357600080fd5b505afa1580156110c7573d6000803e3d6000fd5b505050506040513d601f19601f820116820180604052506110eb9190810190611e9f565b600754885160405163fc87de3960e01b81526001600160a01b039092169163fc87de399161111b916004016128f1565b60206040518083038186803b15801561113357600080fd5b505afa158015611147573d6000803e3d6000fd5b505050506040513d601f19601f8201168201806040525061116b9190810190611e9f565b7f887b6b2688e70065ea92520acf8e6153a2cf80b2ec02264d0efbc097db7b016689600001518a602001518b604001518c606001518d60a00151336040516111b896959493929190612927565b60405180910390a4505050505050565b6111d061098f565b6111ec5760405162461bcd60e51b81526004016103c790612a6b565b610936816117c5565b6003602052600090815260409020805460019091015482565b60008381526002602052604090206003810154610100900460ff166112455760405162461bcd60e51b81526004016103c790612a5b565b6040805160e08101825282546001600160a01b031681526001830180548351602082810282018101909552818152600094611386949387938286019392889084015b828210156112de576000848152602090819020604080516080810182526004860290920180548352600180820154848601526002820154928401929092526003015460ff1660608301529083529092019101611287565b5050505081526020016002820180548060200260200160405190810160405280929190818152602001828054801561133f57602002820191906000526020600020905b81546001600160a01b03168152600190910190602001808311611321575b50505091835250506003919091015460ff808216602084015261010082048116604084015262010000820481166060840152630100000090910416608090910152846114a5565b60ff16116113a65760405162461bcd60e51b81526004016103c7906129fb565b60005b835181101561149e576000826001018583815181106113c457fe5b6020026020010151815481106113d657fe5b60009182526020909120600490910201600381015490915060ff161561140e5760405162461bcd60e51b81526004016103c7906129db565b60038101805460ff1916600190811790915560075482549183015460028401546040516301d4f0fd60e31b81526001600160a01b0390931693630ea787e89361145f939192906000906004016128bc565b600060405180830381600087803b15801561147957600080fd5b505af115801561148d573d6000803e3d6000fd5b5050600190930192506113a9915050565b5050505050565b6000826040015151600014156114bd57506001611522565b60005b8360400151518163ffffffff16101561151c5783604001518163ffffffff16815181106114e957fe5b60200260200101516001600160a01b0316836001600160a01b03161415611514575060019050611522565b6001016114c0565b50600090505b92915050565b600084815260026020526040902080546001600160a01b038381169116146115625760405162461bcd60e51b81526004016103c7906129bb565b60ff8416156115a45760038101546301000000900460ff16156115975760405162461bcd60e51b81526004016103c790612a0b565b60038101805460ff191690555b60038101805461ff00191661010060ff871602179055821561149e5761149e85835b6000828152600260209081526040808320815160e08101835281546001600160a01b0316815260018201805484518187028101870190955280855292959461166e94929387938583019390929091908890840182156112de576000848152602090819020604080516080810182526004860290920180548352600180820154848601526002820154928401929092526003015460ff1660608301529083529092019101611287565b60ff161161168e5760405162461bcd60e51b81526004016103c7906129fb565b600181015460408051828152602080840282010190915260609180156116be578160200160208202803883390190505b50905060005b60018301548110156116f057808282815181106116dd57fe5b60209081029190910101526001016116c4565b50610c9184828561120e565b3390565b60008261170f57506000611522565b8282028284828161171c57fe5b041461173a5760405162461bcd60e51b81526004016103c790612a4b565b9392505050565b600061173a83836040518060400160405280601a81526020017f536166654d6174683a206469766973696f6e206279207a65726f000000000000815250611846565b600061173a83836040518060400160405280601e81526020017f536166654d6174683a207375627472616374696f6e206f766572666c6f77000081525061187d565b6001600160a01b0381166117eb5760405162461bcd60e51b81526004016103c7906129ab565b600080546040516001600160a01b03808516939216917f8be0079c531659141344cd1fd0a4f28419497f9722a3daafe3b4186f6b6457e091a3600080546001600160a01b0319166001600160a01b0392909216919091179055565b600081836118675760405162461bcd60e51b81526004016103c791906128f1565b50600083858161187357fe5b0495945050505050565b600081848411156118a15760405162461bcd60e51b81526004016103c791906128f1565b505050900390565b6040805160e08101825260008082526060602083018190529282018390529181018290526080810182905260a0810182905260c081019190915290565b6040805160a081018252600080825260208201819052918101919091526060808201819052608082015290565b60408051608081018252600080825260208201819052918101829052606081019190915290565b82805482825590600052602060002090810192821561198f579160200282015b8281111561198f57825182546001600160a01b0319166001600160a01b0390911617825560209092019160019091019061195a565b5061199b92915061199f565b5090565b61098c91905b8082111561199b5780546001600160a01b03191681556001016119a5565b803561152281612bc6565b805161152281612bc6565b600082601f8301126119ea57600080fd5b81356119fd6119f882612aed565b612ac7565b91508181835260208401935060208101905083856020840282011115611a2257600080fd5b60005b83811015611a4e5781611a3888826119c3565b8452506020928301929190910190600101611a25565b5050505092915050565b600082601f830112611a6957600080fd5b8135611a776119f882612aed565b81815260209384019390925082018360005b83811015611a4e5781358601611a9f8882611bfd565b8452506020928301929190910190600101611a89565b600082601f830112611ac657600080fd5b8135611ad46119f882612aed565b81815260209384019390925082018360005b83811015611a4e5781358601611afc8882611bfd565b8452506020928301929190910190600101611ae6565b600082601f830112611b2357600080fd5b8135611b316119f882612aed565b91508181835260208401935060208101905083856020840282011115611b5657600080fd5b60005b83811015611a4e5781611b6c8882611b8d565b8452506020928301929190910190600101611b59565b803561152281612bda565b803561152281612be3565b805161152281612be3565b803561152281612bec565b600082601f830112611bbf57600080fd5b8135611bcd6119f882612b0d565b91508082526020830160208301858383011115611be957600080fd5b611bf4838284612b84565b50505092915050565b600060a08284031215611c0f57600080fd5b611c1960a0612ac7565b90506000611c278484611b8d565b8252506020611c3884848301611b8d565b6020830152506040611c4c84828501611b8d565b60408301525060608201356001600160401b03811115611c6b57600080fd5b611c7784828501611bae565b60608301525060808201356001600160401b03811115611c9657600080fd5b611ca284828501611bae565b60808301525092915050565b60006101008284031215611cc157600080fd5b611ccc610100612ac7565b905081356001600160401b03811115611ce457600080fd5b611cf084828501611bae565b82525060208201356001600160401b03811115611d0c57600080fd5b611d1884828501611bae565b60208301525060408201356001600160401b03811115611d3757600080fd5b611d4384828501611bae565b60408301525060608201356001600160401b03811115611d6257600080fd5b611d6e84828501611bae565b6060830152506080611d82848285016119c3565b60808301525060a0611d9684828501611b8d565b60a08301525060c08201356001600160401b03811115611db557600080fd5b611dc184828501611a58565b60c08301525060e08201356001600160401b03811115611de057600080fd5b611dec848285016119d9565b60e08301525092915050565b803561152281612bf5565b600060208284031215611e1557600080fd5b6000611e2184846119c3565b949350505050565b600060208284031215611e3b57600080fd5b6000611e2184846119ce565b60008060408385031215611e5a57600080fd5b6000611e6685856119c3565b9250506020611e7785828601611b82565b9150509250929050565b600060208284031215611e9357600080fd5b6000611e218484611b8d565b600060208284031215611eb157600080fd5b6000611e218484611b98565b60008060408385031215611ed057600080fd5b6000611edc8585611b8d565b92505060208301356001600160401b03811115611ef857600080fd5b611e7785828601611ab5565b60008060408385031215611f1757600080fd5b6000611f238585611b8d565b92505060208301356001600160401b03811115611f3f57600080fd5b611e7785828601611b12565b60008060408385031215611f5e57600080fd5b6000611f6a8585611b8d565b9250506020611e7785828601611df8565b600080600060608486031215611f9057600080fd5b6000611f9c8686611b8d565b9350506020611fad86828701611df8565b9250506040611fbe86828701611b82565b9150509250925092565b60008060008060808587031215611fde57600080fd5b6000611fea8787611b8d565b9450506020611ffb87828801611df8565b935050604061200c87828801611b82565b925050606061201d878288016119c3565b91505092959194509250565b60006020828403121561203b57600080fd5b6000611e218484611ba3565b60008060006060848603121561205c57600080fd5b83356001600160401b0381111561207257600080fd5b61207e86828701611bae565b93505060208401356001600160401b0381111561209a57600080fd5b6120a686828701611bae565b9250506040611fbe86828701611b8d565b600080604083850312156120ca57600080fd5b82356001600160401b038111156120e057600080fd5b6120ec85828601611cae565b9250506020611e77858286016119c3565b60006121098383612134565b505060200190565b600061211d83836126b1565b505060800190565b61212e81612b79565b82525050565b61212e81612b4c565b600061214882612b3a565b6121528185612b3e565b935061215d83612b34565b8060005b8381101561218b57815161217588826120fd565b975061218083612b34565b925050600101612161565b509495945050505050565b60006121a182612b3a565b6121ab8185612b3e565b93506121b683612b34565b8060005b8381101561218b5781516121ce8882612111565b97506121d983612b34565b9250506001016121ba565b61212e81612b57565b61212e8161098c565b600061220182612b3a565b61220b8185612b3e565b935061221b818560208601612b90565b61222481612bbc565b9093019392505050565b600061223982612b3a565b6122438185612b47565b9350612253818560208601612b90565b9290920192915050565b600061226a603783612b3e565b7f70726f706f73616c2063616e206f6e6c792073746f726520706572737065637481527f69766573206f776e656420627920697473206f776e6572000000000000000000602082015260400192915050565b60006122c9602683612b3e565b7f4f776e61626c653a206e6577206f776e657220697320746865207a65726f206181526564647265737360d01b602082015260400192915050565b6000612311602c83612b3e565b7f50726f706f73616c2063616e206f6e6c7920627920617574686f72697a65642081526b313c9034ba399037bbb732b960a11b602082015260400192915050565b600061235f601283612b3e565b711c1c9bdc1bdcd85b081b9bdd08199bdd5b9960721b815260200192915050565b600061238d601c83612b3e565b7f686561642075706461746520616c726561647920657865637574656400000000815260200192915050565b60006123c6602883612b3e565b7f486173537570657255736572733a2063616c6c6572206973206e6f74206120738152673ab832b92ab9b2b960c11b602082015260400192915050565b6000612410602283612b3e565b7f6d73672e73656e646572206e6f7420616e20617070726f766564206164647265815261737360f01b602082015260400192915050565b6000612454603183612b3e565b7f70726f706f73616c2063616e277420626520617574686f72697a65642c20697481527013b9903132b2b7103bb4ba34323930bbb760791b602082015260400192915050565b60006124a7603383612b3e565b7f70726f706f73616c2063616e27742062652072656a65637465642c206974277381527208185b1c9958591e48185d5d1a1bdc9a5e9959606a1b602082015260400192915050565b60006124fc601683612b3e565b751c1c9bdc1bdcd85b08185b1c9958591e48195e1a5cdd60521b815260200192915050565b600061252e603483612b3e565b7f70726f706f73616c2063616e27742062652077697468647261776e2c206974278152731cc8185b1c9958591e48185d5d1a1bdc9a5e995960621b602082015260400192915050565b6000612584602183612b3e565b7f536166654d6174683a206d756c7469706c69636174696f6e206f766572666c6f8152607760f81b602082015260400192915050565b60006125c7601783612b3e565b7f50726f706f73616c206e6f7420617574686f72697a6564000000000000000000815260200192915050565b6000612600602083612b3e565b7f4f776e61626c653a2063616c6c6572206973206e6f7420746865206f776e6572815260200192915050565b6000612639602a83612b3e565b7f50726f706f73616c2063616e206f6e6c792062792072656a65637465642062798152691034ba399037bbb732b960b11b602082015260400192915050565b6000612685601b83612b3e565b7f70726f706f73616c207374617475732069732064697361626c65640000000000815260200192915050565b805160808301906126c284826121ed565b5060208201516126d560208501826121ed565b5060408201516126e860408501826121ed565b506060820151610c9160608501826127a8565b805160009060e084019061270f8582612134565b50602083015184820360208601526127278282612196565b91505060408301518482036040860152612741828261213d565b915050606083015161275660608601826127a8565b50608083015161276960808601826127a8565b5060a083015161277c60a08601826127a8565b5060c083015161278f60c08601826127a8565b509392505050565b61212e6127a38261098c565b61098c565b61212e81612b73565b60006127bd828661222e565b91506127c9828561222e565b91506127d58284612797565b506020019392505050565b602081016115228284612134565b608081016127fc8287612134565b6128096020830186612125565b6128166040830185612134565b61282360608301846121ed565b95945050505050565b6060810161283a8286612134565b6128476020830185612125565b611e2160408301846121ed565b60a081016128628288612134565b61286f60208301876127a8565b61287c60408301866127a8565b61288960608301856127a8565b61289660808301846127a8565b9695505050505050565b6020810161152282846121e4565b6020810161152282846121ed565b608081016128ca82876121ed565b6128d760208301866121ed565b6128e460408301856121ed565b6128236060830184612125565b6020808252810161173a81846121f6565b6040808252810161291381856121f6565b90508181036020830152611e2181846121f6565b60c0808252810161293881896121f6565b9050818103602083015261294c81886121f6565b9050818103604083015261296081876121f6565b9050818103606083015261297481866121f6565b905061298360808301856121ed565b61299060a0830184612125565b979650505050505050565b602080825281016115228161225d565b60208082528101611522816122bc565b6020808252810161152281612304565b6020808252810161152281612352565b6020808252810161152281612380565b60208082528101611522816123b9565b6020808252810161152281612403565b6020808252810161152281612447565b602080825281016115228161249a565b60208082528101611522816124ef565b6020808252810161152281612521565b6020808252810161152281612577565b60208082528101611522816125ba565b60208082528101611522816125f3565b602080825281016115228161262c565b6020808252810161152281612678565b6020808252810161173a81846126fb565b60408101612aba82856121ed565b61173a60208301846121ed565b6040518181016001600160401b0381118282101715612ae557600080fd5b604052919050565b60006001600160401b03821115612b0357600080fd5b5060209081020190565b60006001600160401b03821115612b2357600080fd5b506020601f91909101601f19160190565b60200190565b5190565b90815260200190565b919050565b600061152282612b67565b151590565b600061152282612b4c565b6001600160a01b031690565b60ff1690565b600061152282612b5c565b82818337506000910152565b60005b83811015612bab578181015183820152602001612b93565b83811115610c915750506000910152565b601f01601f191690565b612bcf81612b4c565b811461093657600080fd5b612bcf81612b57565b612bcf8161098c565b612bcf81612b5c565b612bcf81612b7356fea365627a7a72315820840549e8651e6dd72bd5c1b213e1a7dc10d5de3081cdb993b7c4f6377963af696c6578706572696d656e74616cf564736f6c63430005100040",
  "source": "pragma solidity >=0.5.0 <0.6.0;\npragma experimental ABIEncoderV2;\n\nimport \"./UprtclRoot.sol\";\nimport \"./SafeMath.sol\";\nimport \"./HasSuperUsers.sol\";\n\ncontract UprtclProposals is HasSuperUsers {\n\n    using SafeMath for uint256;\n\n    struct HeadUpdate {\n        bytes32 perspectiveIdHash;\n        bytes32 headCid1;\n        bytes32 headCid0;\n        uint8 executed;\n    }\n\n    struct HeadUpdateInput {\n        bytes32 perspectiveIdHash;\n        bytes32 headCid1;\n        bytes32 headCid0;\n        string fromPerspectiveId;\n        string fromHeadId;\n    }\n\n    struct NewProposal {\n        string toPerspectiveId;\n        string fromPerspectiveId;\n        string toHeadId;\n        string fromHeadId;\n        address owner;\n        uint256 nonce;\n        HeadUpdateInput[] headUpdates;\n        address[] approvedAddresses;\n    }\n\n    struct Proposal {\n        address owner;\n        HeadUpdate[] headUpdates;\n        address[] approvedAddresses;\n        uint8 status;\n        uint8 authorized;\n        uint8 rejected;\n        uint8 withdrawn;\n    }\n\n    struct OwnerFees {\n        uint256 fee;\n        uint256 balance;\n    }\n\n    mapping(bytes32 => Proposal) public proposals;\n    mapping(address => OwnerFees) public fees;\n\n    uint256 public minFee;\n    uint256 public factor_num;\n    uint256 public factor_den;\n\n    UprtclRoot uprtclRoot;\n\n    event ProposalCreated(\n        bytes32 indexed toPerspectiveIdHash,\n        bytes32 indexed fromPerspectiveIdHash,\n        bytes32 indexed proposalId,\n        string toPerspectiveId,\n        string fromPerspectiveId,\n        string toHeadId,\n        string fromHeadId,\n        uint256 nonce,\n        address creator\n    );\n\n    event HeadUpdateAdded(\n        bytes32 indexed proposalId,\n        bytes32 indexed perspectiveIdHash,\n        string fromPerspectiveId,\n        string fromHeadId\n    );\n\n    function setUprtclRoot(UprtclRoot _uprtclRoot) external onlyOwner {\n        uprtclRoot = _uprtclRoot;\n    }\n\n    function getProposalId(\n        string memory toPerspectiveId,\n        string memory fromPerspectiveId,\n        uint256 nonce\n    ) public pure returns (bytes32 proposalId) {\n        proposalId = keccak256(\n            abi.encodePacked(toPerspectiveId, fromPerspectiveId, nonce)\n        );\n    }\n\n    function setMinFee(uint256 _minFee) external onlyOwner {\n        minFee = _minFee;\n    }\n\n    function setFactorNum(uint256 _factor_num) external onlyOwner {\n        factor_num = _factor_num;\n    }\n\n    function setFactorDen(uint256 _factor_den) external onlyOwner {\n        factor_den = _factor_den;\n    }\n\n    function initProposal(\n        NewProposal memory newProposal,\n        address account\n    ) public {\n\n        address perspOwner = uprtclRoot.getPerspectiveOwner(\n            uprtclRoot.getPerspectiveIdHash(newProposal.toPerspectiveId)\n        );\n        uint256 perspFee = fees[perspOwner].fee;\n\n        if (perspFee == 0) {\n            /** charge only min fee */\n            if (minFee > 0) {\n                uprtclRoot.consume(account, msg.sender, minFee);\n            }\n        } else {\n            /** charge fee and transfer to perspOwner, keep a fraction to us */\n            uint256 feeUprtcl = perspFee.mul(factor_num).div(factor_den);\n            uint256 feeOwner = perspFee.mul(factor_den.sub(factor_num)).div(factor_den);\n\n            uint256 feeUprtclActual = feeUprtcl;\n            if (feeUprtcl < minFee) {\n                feeUprtclActual = minFee;\n            }\n\n            uprtclRoot.transferTo(account, msg.sender, perspOwner, feeOwner);\n            uprtclRoot.consume(account, msg.sender, feeUprtclActual);\n        }\n\n        bytes32 proposalId = getProposalId(\n            newProposal.toPerspectiveId,\n            newProposal.fromPerspectiveId,\n            newProposal.nonce\n        );\n\n        /** make sure the proposal does not exist */\n        Proposal storage proposal = proposals[proposalId];\n        require(proposal.owner == address(0), \"proposal already exist\");\n\n        proposal.owner = newProposal.owner;\n        proposal.approvedAddresses = newProposal.approvedAddresses;\n        proposal.status = 1;\n        proposal.authorized = 0;\n        proposal.rejected = 0;\n        proposal.withdrawn = 0;\n\n        addUpdatesToProposal(proposalId, newProposal.headUpdates);\n\n        emit ProposalCreated(\n            uprtclRoot.getPerspectiveIdHash(newProposal.toPerspectiveId),\n            uprtclRoot.getPerspectiveIdHash(newProposal.fromPerspectiveId),\n            proposalId,\n            newProposal.toPerspectiveId,\n            newProposal.fromPerspectiveId,\n            newProposal.toHeadId,\n            newProposal.fromHeadId,\n            newProposal.nonce,\n            msg.sender\n        );\n    }\n\n    function isApproved(Proposal memory proposal, address value)\n        private\n        pure\n        returns (uint8 approved)\n    {\n        if (proposal.approvedAddresses.length == 0) {\n          approved = 1;\n          return approved;\n        }\n\n        for (uint32 ix = 0; ix < proposal.approvedAddresses.length; ix++) {\n            if (value == proposal.approvedAddresses[ix]) {\n                approved = 1;\n                return approved;\n            }\n        }\n        approved = 0;\n    }\n\n    /** Add one or more headUpdate elements to an existing proposal */\n    function addUpdatesToProposal(\n        bytes32 proposalId,\n        HeadUpdateInput[] memory headUpdates\n    ) public {\n        Proposal storage proposal = proposals[proposalId];\n\n        /** make sure the proposal is open for new elements */\n        require(proposal.owner != address(0), \"proposal not found\");\n        require(proposal.status != 0, \"proposal status is disabled\");\n        require(\n            isApproved(proposal, msg.sender) > 0,\n            \"msg.sender not an approved address\"\n        );\n\n        for (uint8 ix = 0; ix < headUpdates.length; ix++) {\n            HeadUpdateInput memory headUpdateInput = headUpdates[ix];\n\n            require(\n                uprtclRoot.getPerspectiveOwner(headUpdateInput.perspectiveIdHash) == proposal.owner,\n                \"proposal can only store perspectives owned by its owner\"\n            );\n\n            HeadUpdate memory headUpdate;\n            headUpdate.perspectiveIdHash = headUpdateInput.perspectiveIdHash;\n            headUpdate.headCid1 = headUpdateInput.headCid1;\n            headUpdate.headCid0 = headUpdateInput.headCid0;\n            headUpdate.executed = 0;\n\n            proposal.headUpdates.push(headUpdate);\n\n            emit HeadUpdateAdded(\n                proposalId,\n                headUpdateInput.perspectiveIdHash,\n                headUpdateInput.fromPerspectiveId,\n                headUpdateInput.fromHeadId        \n            );\n        }\n    }\n\n    function setProposalStatus(bytes32 proposalId, uint8 status) external {\n        Proposal storage proposal = proposals[proposalId];\n        require(\n            isApproved(proposal, msg.sender) > 0,\n            \"msg.sender not an approved address\"\n        );\n        proposal.status = status;\n    }\n\n    function authorizeProposalSuperUser(bytes32 proposalId, uint8 authorized, bool execute, address msgSender) external onlySuperUser {\n        setProposalAuthorized(proposalId, authorized, execute, msgSender);\n    }\n\n    function authorizeProposal(bytes32 proposalId, uint8 authorized, bool execute) external {\n        setProposalAuthorized(proposalId, authorized, execute, msg.sender);\n    }\n\n    function setProposalAuthorized(bytes32 proposalId, uint8 authorized, bool execute, address msgSender) private {\n        Proposal storage proposal = proposals[proposalId];\n        require(\n            msgSender == proposal.owner,\n            \"Proposal can only by authorized by its owner\"\n        );\n        if (authorized > 0) {\n            require(proposal.withdrawn == 0, \"proposal can't be authorized, it's been withdrawn\");\n            /** by default the proposal is closed once it is authorized. */\n            proposal.status = 0;\n        }\n        proposal.authorized = authorized;\n\n        if (execute) {\n            executeProposalInternal(proposalId, msgSender);\n        }\n    }\n\n    function rejectProposal(bytes32 proposalId) external {\n        Proposal storage proposal = proposals[proposalId];\n        require(\n            msg.sender == proposal.owner,\n            \"Proposal can only by rejected by its owner\"\n        );\n        require(proposal.authorized == 0, \"proposal can't be rejected, it's already authorized\");\n        /** once rejected, a proposal cant be executed */\n        proposal.rejected = 1;\n    }\n\n    function withdrawProposal(bytes32 proposalId) external {\n        Proposal storage proposal = proposals[proposalId];\n        require(\n            msg.sender == proposal.owner,\n            \"Proposal can only by rejected by its owner\"\n        );\n        require(proposal.authorized == 0, \"proposal can't be withdrawn, it's already authorized\");\n\n        /** once withdrawn, a proposal cant be authorized */\n        proposal.withdrawn = 1;\n    }\n\n\n    function executeProposalInternal(bytes32 proposalId, address msgSender) private {\n        Proposal storage proposal = proposals[proposalId];\n\n        /** Check the msg.sender is an approved address */\n        require(\n            isApproved(proposal, msgSender) > 0,\n            \"msg.sender not an approved address\"\n        );\n\n        uint256[] memory indexes = new uint256[](proposal.headUpdates.length);\n        for (uint256 ix = 0; ix < proposal.headUpdates.length; ix++) {\n            indexes[ix] = ix;\n        }\n\n        executeProposalPartiallyInternal(proposalId, indexes, msgSender);\n    }\n\n\n    function executeProposalExternal(bytes32 proposalId) external {\n        executeProposalInternal(proposalId, msg.sender);\n    }\n\n    function executeProposalPartially(\n        bytes32 proposalId,\n        uint256[] memory indexes\n    ) public {\n        executeProposalPartiallyInternal(proposalId, indexes, msg.sender);\n    }\n\n    function executeProposalPartiallyInternal(\n        bytes32 proposalId,\n        uint256[] memory indexes,\n        address msgSender\n    ) private {\n        Proposal storage proposal = proposals[proposalId];\n        require(proposal.authorized != 0, \"Proposal not authorized\");\n\n        require(\n            isApproved(proposal, msgSender) > 0,\n            \"msg.sender not an approved address\"\n        );\n\n        for (uint256 ix = 0; ix < indexes.length; ix++) {\n            HeadUpdate storage headUpdate = proposal.headUpdates[indexes[ix]];\n\n            require(headUpdate.executed == 0, \"head update already executed\");\n            headUpdate.executed = 1;\n\n            uprtclRoot.updateHead(headUpdate.perspectiveIdHash, headUpdate.headCid1, headUpdate.headCid0, address(0));\n        }\n    }\n\n    function getProposal(bytes32 proposalId)\n        public\n        view\n        returns (Proposal memory proposal)\n    {\n        return (proposals[proposalId]);\n    }\n}\n",
  "sourcePath": "/home/pepo/pr/uprtcl/eth-uprtcl/contracts/UprtclProposals.sol",
  "compiler": {
    "name": "solc",
    "version": "0.5.16+commit.9c3226ce.Emscripten.clang"
  },
  "schemaVersion": "3.0.23",
  "updatedAt": "2020-04-28T16:12:24.567Z",
  "networkType": "ethereum",
  "devdoc": {
    "methods": {
      "isOwner()": {
        "details": "Returns true if the caller is the current owner."
      },
      "owner()": {
        "details": "Returns the address of the current owner."
      },
      "renounceOwnership()": {
        "details": "Leaves the contract without owner. It will not be possible to call `onlyOwner` functions anymore. Can only be called by the current owner.     * NOTE: Renouncing ownership will leave the contract without an owner, thereby removing any functionality that is only available to the owner."
      },
      "transferOwnership(address)": {
        "details": "Transfers ownership of the contract to a new account (`newOwner`). Can only be called by the current owner."
      }
    }
  },
  "userdoc": {
    "methods": {
      "addUpdatesToProposal(bytes32,(bytes32,bytes32,bytes32,string,string)[])": {
        "notice": "Add one or more headUpdate elements to an existing proposal "
      }
    }
  }
}