{
  "contractName": "UprtclDetails",
  "abi": [
    {
      "constant": false,
      "inputs": [
        {
          "name": "suAddress",
          "type": "address"
        },
        {
          "name": "value",
          "type": "bool"
        }
      ],
      "name": "setSuperUser",
      "outputs": [],
      "payable": false,
      "stateMutability": "nonpayable",
      "type": "function"
    },
    {
      "constant": false,
      "inputs": [],
      "name": "renounceOwnership",
      "outputs": [],
      "payable": false,
      "stateMutability": "nonpayable",
      "type": "function"
    },
    {
      "constant": true,
      "inputs": [],
      "name": "owner",
      "outputs": [
        {
          "name": "",
          "type": "address"
        }
      ],
      "payable": false,
      "stateMutability": "view",
      "type": "function"
    },
    {
      "constant": true,
      "inputs": [],
      "name": "isOwner",
      "outputs": [
        {
          "name": "",
          "type": "bool"
        }
      ],
      "payable": false,
      "stateMutability": "view",
      "type": "function"
    },
    {
      "constant": true,
      "inputs": [
        {
          "name": "suAddress",
          "type": "address"
        }
      ],
      "name": "isSuperUser",
      "outputs": [
        {
          "name": "",
          "type": "bool"
        }
      ],
      "payable": false,
      "stateMutability": "view",
      "type": "function"
    },
    {
      "constant": true,
      "inputs": [
        {
          "name": "",
          "type": "bytes32"
        }
      ],
      "name": "perspectivesDetails",
      "outputs": [
        {
          "name": "name",
          "type": "string"
        },
        {
          "name": "context",
          "type": "string"
        }
      ],
      "payable": false,
      "stateMutability": "view",
      "type": "function"
    },
    {
      "constant": false,
      "inputs": [
        {
          "name": "newOwner",
          "type": "address"
        }
      ],
      "name": "transferOwnership",
      "outputs": [],
      "payable": false,
      "stateMutability": "nonpayable",
      "type": "function"
    },
    {
      "anonymous": false,
      "inputs": [
        {
          "indexed": true,
          "name": "perspectiveIdHash",
          "type": "bytes32"
        },
        {
          "indexed": true,
          "name": "contextHash",
          "type": "bytes32"
        }
      ],
      "name": "PerspectiveDetailsSet",
      "type": "event"
    },
    {
      "anonymous": false,
      "inputs": [
        {
          "indexed": true,
          "name": "previousOwner",
          "type": "address"
        },
        {
          "indexed": true,
          "name": "newOwner",
          "type": "address"
        }
      ],
      "name": "OwnershipTransferred",
      "type": "event"
    },
    {
      "constant": false,
      "inputs": [
        {
          "name": "_uprtclRoot",
          "type": "address"
        }
      ],
      "name": "setUprtclRoot",
      "outputs": [],
      "payable": false,
      "stateMutability": "nonpayable",
      "type": "function"
    },
    {
      "constant": true,
      "inputs": [
        {
          "name": "context",
          "type": "string"
        }
      ],
      "name": "getContextHash",
      "outputs": [
        {
          "name": "contextHash",
          "type": "bytes32"
        }
      ],
      "payable": false,
      "stateMutability": "pure",
      "type": "function"
    },
    {
      "constant": false,
      "inputs": [
        {
          "name": "perspectiveIdHash",
          "type": "bytes32"
        },
        {
          "components": [
            {
              "name": "name",
              "type": "string"
            },
            {
              "name": "context",
              "type": "string"
            }
          ],
          "name": "newDetails",
          "type": "tuple"
        }
      ],
      "name": "setPerspectiveDetails",
      "outputs": [],
      "payable": false,
      "stateMutability": "nonpayable",
      "type": "function"
    },
    {
      "constant": false,
      "inputs": [
        {
          "name": "perspectiveIdHash",
          "type": "bytes32"
        },
        {
          "components": [
            {
              "name": "name",
              "type": "string"
            },
            {
              "name": "context",
              "type": "string"
            }
          ],
          "name": "newDetails",
          "type": "tuple"
        },
        {
          "name": "msgSender",
          "type": "address"
        }
      ],
      "name": "setPerspectiveDetailsSuperUser",
      "outputs": [],
      "payable": false,
      "stateMutability": "nonpayable",
      "type": "function"
    },
    {
      "constant": true,
      "inputs": [
        {
          "name": "perspectiveIdHash",
          "type": "bytes32"
        }
      ],
      "name": "getPerspectiveDetails",
      "outputs": [
        {
          "name": "name",
          "type": "string"
        },
        {
          "name": "context",
          "type": "string"
        }
      ],
      "payable": false,
      "stateMutability": "view",
      "type": "function"
    },
    {
      "constant": false,
      "inputs": [
        {
          "components": [
            {
              "components": [
                {
                  "name": "perspectiveId",
                  "type": "string"
                },
                {
                  "name": "headCid1",
                  "type": "bytes32"
                },
                {
                  "name": "headCid0",
                  "type": "bytes32"
                },
                {
                  "name": "owner",
                  "type": "address"
                }
              ],
              "name": "perspective",
              "type": "tuple"
            },
            {
              "components": [
                {
                  "name": "name",
                  "type": "string"
                },
                {
                  "name": "context",
                  "type": "string"
                }
              ],
              "name": "details",
              "type": "tuple"
            }
          ],
          "name": "perspectiveData",
          "type": "tuple"
        },
        {
          "name": "account",
          "type": "address"
        }
      ],
      "name": "initPerspective",
      "outputs": [],
      "payable": false,
      "stateMutability": "nonpayable",
      "type": "function"
    },
    {
      "constant": false,
      "inputs": [
        {
          "components": [
            {
              "components": [
                {
                  "name": "perspectiveId",
                  "type": "string"
                },
                {
                  "name": "headCid1",
                  "type": "bytes32"
                },
                {
                  "name": "headCid0",
                  "type": "bytes32"
                },
                {
                  "name": "owner",
                  "type": "address"
                }
              ],
              "name": "perspective",
              "type": "tuple"
            },
            {
              "components": [
                {
                  "name": "name",
                  "type": "string"
                },
                {
                  "name": "context",
                  "type": "string"
                }
              ],
              "name": "details",
              "type": "tuple"
            }
          ],
          "name": "perspectivesData",
          "type": "tuple[]"
        },
        {
          "name": "account",
          "type": "address"
        }
      ],
      "name": "initPerspectiveBatch",
      "outputs": [],
      "payable": false,
      "stateMutability": "nonpayable",
      "type": "function"
    }
  ],
  "bytecode": "0x608060405261001261005f60201b60201c565b600080546001600160a01b0319166001600160a01b03928316178082556040519216917f8be0079c531659141344cd1fd0a4f28419497f9722a3daafe3b4186f6b6457e0908290a3610063565b3390565b611779806100726000396000f3fe608060405234801561001057600080fd5b50600436106100ea5760003560e01c8063c08b985d1161008c578063d44d22c811610066578063d44d22c8146101bf578063e3ada24d146101d2578063e7d07599146101e5578063f2fde38b14610205576100ea565b8063c08b985d14610186578063cd784d1b14610199578063cf29e969146101ac576100ea565b80637cce0117116100c85780637cce0117146101365780638da5cb5b146101495780638f32d59b1461015e578063b81c6b3414610173576100ea565b806345655b4e146100ef578063715018a61461010457806376914ecf1461010c575b600080fd5b6101026100fd3660046110be565b610218565b005b610102610273565b61011f61011a36600461113e565b6102e4565b60405161012d929190611584565b60405180910390f35b610102610144366004611225565b610449565b610151610492565b60405161012d9190611521565b6101666104a2565b60405161012d9190611557565b6101026101813660046110f8565b6104c6565b61010261019436600461117a565b61060d565b6101666101a736600461107a565b61061c565b61011f6101ba36600461113e565b61063a565b6101026101cd3660046111c1565b610773565b6101026101e0366004611277565b6107ab565b6101f86101f3366004611243565b6108a7565b60405161012d9190611565565b61010261021336600461107a565b6108d7565b6102206104a2565b61024857604051600160e51b62461bcd02815260040161023f906115e9565b60405180910390fd5b6001600160a01b03919091166000908152600160205260409020805460ff1916911515919091179055565b61027b6104a2565b61029a57604051600160e51b62461bcd02815260040161023f906115e9565b600080546040516001600160a01b03909116907f8be0079c531659141344cd1fd0a4f28419497f9722a3daafe3b4186f6b6457e0908390a3600080546001600160a01b0319169055565b6060806102ef610cf5565b600084815260026020818152604092839020835181546060601f60001961010060018516150201909216959095049081018490049093028101840185529384018281529092849284918401828280156103895780601f1061035e57610100808354040283529160200191610389565b820191906000526020600020905b81548152906001019060200180831161036c57829003601f168201915b50505050508152602001600182018054600181600116156101000203166002900480601f01602080910402602001604051908101604052809291908181526020018280546001816001161561010002031660029004801561042b5780601f106104005761010080835404028352916020019161042b565b820191906000526020600020905b81548152906001019060200180831161040e57829003601f168201915b50505091909252505081516020909201519194509092505050915091565b6104516104a2565b61047057604051600160e51b62461bcd02815260040161023f906115e9565b600380546001600160a01b0319166001600160a01b0392909216919091179055565b6000546001600160a01b03165b90565b600080546001600160a01b03166104b761090a565b6001600160a01b031614905090565b600082519050600061056482600360009054906101000a90046001600160a01b03166001600160a01b031663b7b0ccde6040518163ffffffff1660e01b815260040160206040518083038186803b15801561052057600080fd5b505afa158015610534573d6000803e3d6000fd5b505050506040513d601f19601f82011682018060405250610558919081019061115c565b9063ffffffff61090e16565b905080156105d657600354604051600160e51b6302654acd0281526001600160a01b0390911690634ca959a0906105a39086903390869060040161152f565b600060405180830381600087803b1580156105bd57600080fd5b505af11580156105d1573d6000803e3d6000fd5b505050505b60005b82811015610606576105fe8582815181106105f057fe5b602002602001015185610954565b6001016105d9565b5050505050565b610618828233610a50565b5050565b6001600160a01b031660009081526001602052604090205460ff1690565b600260208181526000928352604092839020805484516001821615610100026000190190911693909304601f81018390048302840183019094528383529283918301828280156106cb5780601f106106a0576101008083540402835291602001916106cb565b820191906000526020600020905b8154815290600101906020018083116106ae57829003601f168201915b505050505090806001018054600181600116156101000203166002900480601f0160208091040260200160405190810160405280929190818152602001828054600181600116156101000203166002900480156107695780601f1061073e57610100808354040283529160200191610769565b820191906000526020600020905b81548152906001019060200180831161074c57829003601f168201915b5050505050905082565b61077c3361061c565b61079b57604051600160e51b62461bcd02815260040161023f906115c9565b6107a6838383610a50565b505050565b60035460408051600160e31b6310d061ab02815290516000926001600160a01b0316916386830d58916004808301926020929190829003018186803b1580156107f357600080fd5b505afa158015610807573d6000803e3d6000fd5b505050506040513d601f19601f8201168201806040525061082b919081019061115c565b9050801561089d57600354604051600160e51b6302654acd0281526001600160a01b0390911690634ca959a09061086a9085903390869060040161152f565b600060405180830381600087803b15801561088457600080fd5b505af1158015610898573d6000803e3d6000fd5b505050505b6107a68383610954565b6000816040516020016108ba919061150e565b604051602081830303815290604052805190602001209050919050565b6108df6104a2565b6108fe57604051600160e51b62461bcd02815260040161023f906115e9565b61090781610c71565b50565b3390565b60008261091d5750600061094e565b8282028284828161092a57fe5b041461094b57604051600160e51b62461bcd02815260040161023f906115d9565b90505b92915050565b6003548251604051600160e01b63c886170b0281526001600160a01b039092169163c886170b916109899185906004016115f9565b600060405180830381600087803b1580156109a357600080fd5b505af11580156109b7573d6000803e3d6000fd5b5050600354845151604051600160e01b63fc87de3902815261061894506001600160a01b03909216925063fc87de39916109f49190600401611573565b60206040518083038186803b158015610a0c57600080fd5b505afa158015610a20573d6000803e3d6000fd5b505050506040513d601f19601f82011682018060405250610a44919081019061115c565b60208401518451606001515b600354604051600160e01b631393bbf50281526001600160a01b03808416921690631393bbf590610a85908790600401611565565b60206040518083038186803b158015610a9d57600080fd5b505afa158015610ab1573d6000803e3d6000fd5b505050506040513d601f19601f82011682018060405250610ad591908101906110a0565b6001600160a01b031614610afe57604051600160e51b62461bcd02815260040161023f906115a9565b6000838152600260209081526040909120835180519192610b2492849290910190610d0f565b506020808401518051610b3d9260018501920190610d0f565b50600084815260026020819052604090912082548392610b6f9183918591600019610100600183161502011604610d8d565b5060018201816001019080546001816001161561010002031660029004610b97929190610d8d565b50905050610c40816001018054600181600116156101000203166002900480601f016020809104026020016040519081016040528092919081815260200182805460018160011615610100020316600290048015610c365780601f10610c0b57610100808354040283529160200191610c36565b820191906000526020600020905b815481529060010190602001808311610c1957829003601f168201915b50505050506108a7565b60405185907f54d694087b2b7af3574607f1c7957f264e43dae2cd138a793dc22d407fac002b90600090a350505050565b6001600160a01b038116610c9a57604051600160e51b62461bcd02815260040161023f906115b9565b600080546040516001600160a01b03808516939216917f8be0079c531659141344cd1fd0a4f28419497f9722a3daafe3b4186f6b6457e091a3600080546001600160a01b0319166001600160a01b0392909216919091179055565b604051806040016040528060608152602001606081525090565b828054600181600116156101000203166002900490600052602060002090601f016020900481019282601f10610d5057805160ff1916838001178555610d7d565b82800160010185558215610d7d579182015b82811115610d7d578251825591602001919060010190610d62565b50610d89929150610e02565b5090565b828054600181600116156101000203166002900490600052602060002090601f016020900481019282601f10610dc65780548555610d7d565b82800160010185558215610d7d57600052602060002091601f016020900482015b82811115610d7d578254825591600101919060010190610de7565b61049f91905b80821115610d895760008155600101610e08565b803561094e81611710565b805161094e81611710565b600082601f830112610e4357600080fd5b8135610e56610e518261163f565b611619565b81815260209384019390925082018360005b83811015610e945781358601610e7e8882610f19565b8452506020928301929190910190600101610e68565b5050505092915050565b803561094e81611724565b803561094e8161172d565b805161094e8161172d565b803561094e81611736565b600082601f830112610edb57600080fd5b8135610ee9610e518261165f565b91508082526020830160208301858383011115610f0557600080fd5b610f108382846116ca565b50505092915050565b600060408284031215610f2b57600080fd5b610f356040611619565b905081356001600160401b03811115610f4d57600080fd5b610f5984828501610f8d565b82525060208201356001600160401b03811115610f7557600080fd5b610f8184828501611012565b60208301525092915050565b600060808284031215610f9f57600080fd5b610fa96080611619565b905081356001600160401b03811115610fc157600080fd5b610fcd84828501610eca565b8252506020610fde84848301610ea9565b6020830152506040610ff284828501610ea9565b604083015250606061100684828501610e1c565b60608301525092915050565b60006040828403121561102457600080fd5b61102e6040611619565b905081356001600160401b0381111561104657600080fd5b61105284828501610eca565b82525060208201356001600160401b0381111561106e57600080fd5b610f8184828501610eca565b60006020828403121561108c57600080fd5b60006110988484610e1c565b949350505050565b6000602082840312156110b257600080fd5b60006110988484610e27565b600080604083850312156110d157600080fd5b60006110dd8585610e1c565b92505060206110ee85828601610e9e565b9150509250929050565b6000806040838503121561110b57600080fd5b82356001600160401b0381111561112157600080fd5b61112d85828601610e32565b92505060206110ee85828601610e1c565b60006020828403121561115057600080fd5b60006110988484610ea9565b60006020828403121561116e57600080fd5b60006110988484610eb4565b6000806040838503121561118d57600080fd5b60006111998585610ea9565b92505060208301356001600160401b038111156111b557600080fd5b6110ee85828601611012565b6000806000606084860312156111d657600080fd5b60006111e28686610ea9565b93505060208401356001600160401b038111156111fe57600080fd5b61120a86828701611012565b925050604061121b86828701610e1c565b9150509250925092565b60006020828403121561123757600080fd5b60006110988484610ebf565b60006020828403121561125557600080fd5b81356001600160401b0381111561126b57600080fd5b61109884828501610eca565b6000806040838503121561128a57600080fd5b82356001600160401b038111156112a057600080fd5b61112d85828601610f19565b6112b5816116bf565b82525050565b6112b581611698565b6112b5816116a3565b6112b58161049f565b60006112e182611686565b6112eb818561168a565b93506112fb8185602086016116d6565b61130481611706565b9093019392505050565b600061131982611686565b6113238185611693565b93506113338185602086016116d6565b9290920192915050565b600061134a602c8361168a565b7f64657461696c732063616e206f6e6c792062792073657420627920706572737081527f656374697665206f776e65720000000000000000000000000000000000000000602082015260400192915050565b60006113a960268361168a565b7f4f776e61626c653a206e6577206f776e657220697320746865207a65726f20618152600160d01b6564647265737302602082015260400192915050565b60006113f460288361168a565b7f486173537570657255736572733a2063616c6c6572206973206e6f74206120738152600160c11b673ab832b92ab9b2b902602082015260400192915050565b600061144160218361168a565b7f536166654d6174683a206d756c7469706c69636174696f6e206f766572666c6f8152600160f81b607702602082015260400192915050565b600061148760208361168a565b7f4f776e61626c653a2063616c6c6572206973206e6f7420746865206f776e6572815260200192915050565b80516080808452600091908401906114cb82826112d6565b91505060208301516114e060208601826112cd565b5060408301516114f360408601826112cd565b50606083015161150660608601826112bb565b509392505050565b600061151a828461130e565b9392505050565b6020810161094e82846112bb565b6060810161153d82866112bb565b61154a60208301856112ac565b61109860408301846112cd565b6020810161094e82846112c4565b6020810161094e82846112cd565b6020808252810161151a81846112d6565b6040808252810161159581856112d6565b9050818103602083015261109881846112d6565b6020808252810161094e8161133d565b6020808252810161094e8161139c565b6020808252810161094e816113e7565b6020808252810161094e81611434565b6020808252810161094e8161147a565b6040808252810161160a81856114b3565b905061151a60208301846112bb565b6040518181016001600160401b038111828210171561163757600080fd5b604052919050565b60006001600160401b0382111561165557600080fd5b5060209081020190565b60006001600160401b0382111561167557600080fd5b506020601f91909101601f19160190565b5190565b90815260200190565b919050565b600061094e826116b3565b151590565b600061094e82611698565b6001600160a01b031690565b600061094e826116a8565b82818337506000910152565b60005b838110156116f15781810151838201526020016116d9565b83811115611700576000848401525b50505050565b601f01601f191690565b61171981611698565b811461090757600080fd5b611719816116a3565b6117198161049f565b611719816116a856fea265627a7a72305820d36bb67f29a43a70496914687419af0c8751dd91cb203af8d7de9259ec1c99116c6578706572696d656e74616cf50037",
  "source": "pragma solidity >=0.5.0 <0.6.0;\npragma experimental ABIEncoderV2;\n\nimport \"./UprtclRoot.sol\";\nimport \"./HasSuperUsers.sol\";\nimport \"./SafeMath.sol\";\n\nlibrary SharedPerspectiveDetails {\n    struct PerspectiveDetails {\n        string name;\n        string context;\n    }\n}\n\ncontract UprtclDetails is HasSuperUsers {\n    using SafeMath for uint256;\n\n    struct InitPerspective {\n        UprtclRoot.NewPerspective perspective;\n        SharedPerspectiveDetails.PerspectiveDetails details;\n    }\n\n    event PerspectiveDetailsSet (\n        bytes32 indexed perspectiveIdHash,\n        bytes32 indexed contextHash\n    );\n\n    mapping(bytes32 => SharedPerspectiveDetails.PerspectiveDetails) public perspectivesDetails;\n\n    UprtclRoot uprtclRoot;\n\n    function setUprtclRoot(UprtclRoot _uprtclRoot) public onlyOwner {\n        uprtclRoot = _uprtclRoot;\n    }\n\n    function getContextHash(string memory context) public pure returns (bytes32 contextHash) {\n        return keccak256(abi.encodePacked(context));\n    }\n\n    /** Adds a new perspective to the mapping and sets the owner. The head pointer and the context. */\n    function setPerspectiveDetailsInternal(\n        bytes32 perspectiveIdHash,\n        SharedPerspectiveDetails.PerspectiveDetails memory newDetails,\n        address sender\n    ) private {\n        require(uprtclRoot.getPerspectiveOwner(perspectiveIdHash) == sender, \"details can only by set by perspective owner\");\n\n        SharedPerspectiveDetails.PerspectiveDetails storage details = perspectivesDetails[perspectiveIdHash];\n\n        details.name = newDetails.name;\n        details.context = newDetails.context;\n\n        perspectivesDetails[perspectiveIdHash] = details;\n\n        emit PerspectiveDetailsSet(\n            perspectiveIdHash,\n            getContextHash(details.context)\n        );\n    }\n\n    function setPerspectiveDetails(\n        bytes32 perspectiveIdHash,\n        SharedPerspectiveDetails.PerspectiveDetails memory newDetails\n    ) public {\n        setPerspectiveDetailsInternal(perspectiveIdHash, newDetails, msg.sender);\n    }\n\n    function setPerspectiveDetailsSuperUser(\n        bytes32 perspectiveIdHash,\n        SharedPerspectiveDetails.PerspectiveDetails memory newDetails,\n        address msgSender\n    ) public onlySuperUser {\n        setPerspectiveDetailsInternal(perspectiveIdHash, newDetails, msgSender);\n    }\n\n    function getPerspectiveDetails(bytes32 perspectiveIdHash) public view returns (string memory name, string memory context) {\n        SharedPerspectiveDetails.PerspectiveDetails memory details = perspectivesDetails[perspectiveIdHash];\n        return (details.name, details.context);\n    }\n\n    function initPerspectiveInternal(InitPerspective memory perspectiveData, address account) private {\n        uprtclRoot.createPerspective(perspectiveData.perspective, account);\n\n        setPerspectiveDetailsInternal(\n            uprtclRoot.getPerspectiveIdHash(perspectiveData.perspective.perspectiveId),\n            perspectiveData.details,\n            perspectiveData.perspective.owner);\n    }\n\n    function initPerspective(\n        InitPerspective memory perspectiveData,\n        address account) public {\n\n        /** collect fee here */\n        uint256 fee = uprtclRoot.getAddFee();\n        if (fee > 0) {\n            uprtclRoot.consume(account, msg.sender, fee);\n        }\n\n        initPerspectiveInternal(perspectiveData, account);\n    }\n\n    function initPerspectiveBatch(InitPerspective[] memory perspectivesData, address account)\n        public\n    {\n        uint256 nPerspectives = perspectivesData.length;\n        uint256 fee = uprtclRoot.getUpdateFee().mul(nPerspectives);\n\n        if (fee > 0) {\n            uprtclRoot.consume(account, msg.sender, fee);\n        }\n\n        for (uint256 ix = 0; ix < nPerspectives; ix++) {\n            initPerspectiveInternal(perspectivesData[ix], account);\n        }\n    }\n\n}\n",
  "sourcePath": "/home/pepo/pr/uprtcl/eth-uprtcl/contracts/UprtclDetails.sol",
  "compiler": {
    "name": "solc",
    "version": "0.5.8+commit.23d335f2.Emscripten.clang"
  },
  "schemaVersion": "3.0.11",
  "updatedAt": "2020-03-23T20:40:10.048Z",
  "devdoc": {
    "methods": {
      "isOwner()": {
        "details": "Returns true if the caller is the current owner."
      },
      "owner()": {
        "details": "Returns the address of the current owner."
      },
      "renounceOwnership()": {
        "details": "Leaves the contract without owner. It will not be possible to call `onlyOwner` functions anymore. Can only be called by the current owner.     * NOTE: Renouncing ownership will leave the contract without an owner, thereby removing any functionality that is only available to the owner."
      },
      "transferOwnership(address)": {
        "details": "Transfers ownership of the contract to a new account (`newOwner`). Can only be called by the current owner."
      }
    }
  },
  "userdoc": {
    "methods": {}
  }
}