{
  "contractName": "UprtclRoot",
  "abi": [
    {
      "constant": false,
      "inputs": [
        {
          "name": "suAddress",
          "type": "address"
        },
        {
          "name": "value",
          "type": "bool"
        }
      ],
      "name": "setSuperUser",
      "outputs": [],
      "payable": false,
      "stateMutability": "nonpayable",
      "type": "function"
    },
    {
      "constant": true,
      "inputs": [
        {
          "name": "",
          "type": "uint256"
        }
      ],
      "name": "fees",
      "outputs": [
        {
          "name": "",
          "type": "uint256"
        }
      ],
      "payable": false,
      "stateMutability": "view",
      "type": "function"
    },
    {
      "constant": true,
      "inputs": [],
      "name": "accounts",
      "outputs": [
        {
          "name": "",
          "type": "address"
        }
      ],
      "payable": false,
      "stateMutability": "view",
      "type": "function"
    },
    {
      "constant": false,
      "inputs": [],
      "name": "renounceOwnership",
      "outputs": [],
      "payable": false,
      "stateMutability": "nonpayable",
      "type": "function"
    },
    {
      "constant": true,
      "inputs": [],
      "name": "owner",
      "outputs": [
        {
          "name": "",
          "type": "address"
        }
      ],
      "payable": false,
      "stateMutability": "view",
      "type": "function"
    },
    {
      "constant": true,
      "inputs": [],
      "name": "isOwner",
      "outputs": [
        {
          "name": "",
          "type": "bool"
        }
      ],
      "payable": false,
      "stateMutability": "view",
      "type": "function"
    },
    {
      "constant": true,
      "inputs": [
        {
          "name": "",
          "type": "bytes32"
        }
      ],
      "name": "perspectives",
      "outputs": [
        {
          "name": "owner",
          "type": "address"
        },
        {
          "name": "headCid1",
          "type": "bytes32"
        },
        {
          "name": "headCid0",
          "type": "bytes32"
        }
      ],
      "payable": false,
      "stateMutability": "view",
      "type": "function"
    },
    {
      "constant": true,
      "inputs": [
        {
          "name": "suAddress",
          "type": "address"
        }
      ],
      "name": "isSuperUser",
      "outputs": [
        {
          "name": "",
          "type": "bool"
        }
      ],
      "payable": false,
      "stateMutability": "view",
      "type": "function"
    },
    {
      "constant": false,
      "inputs": [
        {
          "name": "newOwner",
          "type": "address"
        }
      ],
      "name": "transferOwnership",
      "outputs": [],
      "payable": false,
      "stateMutability": "nonpayable",
      "type": "function"
    },
    {
      "anonymous": false,
      "inputs": [
        {
          "indexed": true,
          "name": "perspectiveIdHash",
          "type": "bytes32"
        },
        {
          "indexed": false,
          "name": "newOwner",
          "type": "address"
        },
        {
          "indexed": false,
          "name": "previousOwner",
          "type": "address"
        }
      ],
      "name": "PerspectiveOwnerUpdated",
      "type": "event"
    },
    {
      "anonymous": false,
      "inputs": [
        {
          "indexed": true,
          "name": "previousOwner",
          "type": "address"
        },
        {
          "indexed": true,
          "name": "newOwner",
          "type": "address"
        }
      ],
      "name": "OwnershipTransferred",
      "type": "event"
    },
    {
      "constant": false,
      "inputs": [
        {
          "name": "_accounts",
          "type": "address"
        }
      ],
      "name": "setAccounts",
      "outputs": [],
      "payable": false,
      "stateMutability": "nonpayable",
      "type": "function"
    },
    {
      "constant": false,
      "inputs": [
        {
          "name": "amount",
          "type": "uint256"
        }
      ],
      "name": "withdraw",
      "outputs": [],
      "payable": false,
      "stateMutability": "nonpayable",
      "type": "function"
    },
    {
      "constant": false,
      "inputs": [
        {
          "name": "addFee",
          "type": "uint256"
        },
        {
          "name": "updateFee",
          "type": "uint256"
        }
      ],
      "name": "setFees",
      "outputs": [],
      "payable": false,
      "stateMutability": "nonpayable",
      "type": "function"
    },
    {
      "constant": true,
      "inputs": [],
      "name": "getFees",
      "outputs": [
        {
          "name": "addFee",
          "type": "uint256"
        },
        {
          "name": "updateFee",
          "type": "uint256"
        }
      ],
      "payable": false,
      "stateMutability": "view",
      "type": "function"
    },
    {
      "constant": true,
      "inputs": [],
      "name": "getAddFee",
      "outputs": [
        {
          "name": "",
          "type": "uint256"
        }
      ],
      "payable": false,
      "stateMutability": "view",
      "type": "function"
    },
    {
      "constant": true,
      "inputs": [],
      "name": "getUpdateFee",
      "outputs": [
        {
          "name": "",
          "type": "uint256"
        }
      ],
      "payable": false,
      "stateMutability": "view",
      "type": "function"
    },
    {
      "constant": false,
      "inputs": [
        {
          "name": "account",
          "type": "address"
        },
        {
          "name": "by",
          "type": "address"
        },
        {
          "name": "amount",
          "type": "uint256"
        }
      ],
      "name": "consume",
      "outputs": [],
      "payable": false,
      "stateMutability": "nonpayable",
      "type": "function"
    },
    {
      "constant": false,
      "inputs": [
        {
          "name": "from",
          "type": "address"
        },
        {
          "name": "by",
          "type": "address"
        },
        {
          "name": "to",
          "type": "address"
        },
        {
          "name": "amount",
          "type": "uint256"
        }
      ],
      "name": "transferTo",
      "outputs": [],
      "payable": false,
      "stateMutability": "nonpayable",
      "type": "function"
    },
    {
      "constant": false,
      "inputs": [
        {
          "components": [
            {
              "name": "perspectiveIdHash",
              "type": "bytes32"
            },
            {
              "name": "headCid1",
              "type": "bytes32"
            },
            {
              "name": "headCid0",
              "type": "bytes32"
            },
            {
              "name": "owner",
              "type": "address"
            }
          ],
          "name": "newPerspective",
          "type": "tuple"
        },
        {
          "name": "account",
          "type": "address"
        }
      ],
      "name": "addPerspective",
      "outputs": [],
      "payable": false,
      "stateMutability": "nonpayable",
      "type": "function"
    },
    {
      "constant": false,
      "inputs": [
        {
          "components": [
            {
              "name": "perspectiveIdHash",
              "type": "bytes32"
            },
            {
              "name": "headCid1",
              "type": "bytes32"
            },
            {
              "name": "headCid0",
              "type": "bytes32"
            },
            {
              "name": "owner",
              "type": "address"
            }
          ],
          "name": "newPerspectives",
          "type": "tuple[]"
        },
        {
          "name": "account",
          "type": "address"
        }
      ],
      "name": "addPerspectiveBatch",
      "outputs": [],
      "payable": false,
      "stateMutability": "nonpayable",
      "type": "function"
    },
    {
      "constant": false,
      "inputs": [
        {
          "name": "perspectiveIdHash",
          "type": "bytes32"
        },
        {
          "name": "newHeadCid1",
          "type": "bytes32"
        },
        {
          "name": "newHeadCid0",
          "type": "bytes32"
        },
        {
          "name": "account",
          "type": "address"
        }
      ],
      "name": "updateHead",
      "outputs": [],
      "payable": false,
      "stateMutability": "nonpayable",
      "type": "function"
    },
    {
      "constant": false,
      "inputs": [
        {
          "name": "perspectiveIdHash",
          "type": "bytes32"
        },
        {
          "name": "newOwner",
          "type": "address"
        }
      ],
      "name": "changePerspectiveOwner",
      "outputs": [],
      "payable": false,
      "stateMutability": "nonpayable",
      "type": "function"
    },
    {
      "constant": false,
      "inputs": [
        {
          "name": "perspectiveIdsHashes",
          "type": "bytes32[]"
        },
        {
          "name": "newOwner",
          "type": "address"
        }
      ],
      "name": "changePerspectiveOwnerBatch",
      "outputs": [],
      "payable": false,
      "stateMutability": "nonpayable",
      "type": "function"
    },
    {
      "constant": true,
      "inputs": [
        {
          "name": "perspectiveIdHash",
          "type": "bytes32"
        }
      ],
      "name": "getPerspectiveDetails",
      "outputs": [
        {
          "name": "owner",
          "type": "address"
        },
        {
          "name": "headCid1",
          "type": "bytes32"
        },
        {
          "name": "headCid0",
          "type": "bytes32"
        }
      ],
      "payable": false,
      "stateMutability": "view",
      "type": "function"
    },
    {
      "constant": true,
      "inputs": [
        {
          "name": "perspectiveIdHash",
          "type": "bytes32"
        }
      ],
      "name": "getPerspectiveOwner",
      "outputs": [
        {
          "name": "owner",
          "type": "address"
        }
      ],
      "payable": false,
      "stateMutability": "view",
      "type": "function"
    }
  ],
  "bytecode": "0x608060405261001261005f60201b60201c565b600080546001600160a01b0319166001600160a01b03928316178082556040519216917f8be0079c531659141344cd1fd0a4f28419497f9722a3daafe3b4186f6b6457e0908290a3610063565b3390565b6116e9806100726000396000f3fe608060405234801561001057600080fd5b50600436106101585760003560e01c806368cd03f6116100c35780638f32d59b1161007c5780638f32d59b146102c8578063b7b0ccde146102dd578063b92d30dc146102e5578063cd784d1b146102f8578063db8d55f11461030b578063f2fde38b1461032157610158565b806368cd03f614610266578063715018a61461027b57806372d50cc51461028357806376914ecf1461029657806386830d58146102b85780638da5cb5b146102c057610158565b806339c375941161011557806339c37594146101e757806345655b4e146101fa5780634acc79ed1461020d5780634ca959a01461022d5780634eee8c43146102405780636556cd051461025357610158565b8063082743821461015d5780630b78f9c0146101725780630de1ef4a146101855780630ea787e8146101985780631393bbf5146101ab5780632e1a7d4d146101d4575b600080fd5b61017061016b3660046111a8565b610334565b005b6101706101803660046111f6565b610386565b6101706101933660046110e0565b610400565b6101706101a6366004611153565b6104d1565b6101be6101b9366004611116565b6105c0565b6040516101cb9190611469565b60405180910390f35b6101706101e2366004611116565b61060b565b6101706101f5366004611134565b6106df565b61017061020836600461105f565b6106ea565b61022061021b366004611116565b61073c565b6040516101cb91906115d1565b61017061023b366004611012565b61074e565b61017061024e366004611099565b6107e3565b610170610261366004610fb1565b61081a565b61026e6108b2565b6040516101cb9190611543565b6101706108c1565b6101706102913660046111c6565b610932565b6102a96102a4366004611116565b6109c5565b6040516101cb9392919061151a565b610220610a19565b6101be610a47565b6102d0610a56565b6040516101cb9190611535565b610220610a7a565b6102a96102f3366004611116565b610aa9565b6102d0610306366004610f6d565b610ad5565b610313610af3565b6040516101cb9291906115df565b61017061032f366004610f6d565b610b45565b61033c610a56565b61036457604051600160e51b62461bcd02815260040161035b906115a1565b60405180910390fd5b600480546001600160a01b0319166001600160a01b0392909216919091179055565b61038e610a56565b6103ad57604051600160e51b62461bcd02815260040161035b906115a1565b60036020527f3617319a054d772f909f7c479a2cebe5066e836a939412e32403c99029b92eff9190915560016000527fa15bc60c955c405d20d9149c709e2460f1c2d9a497496a7f46004d1772c3054c55565b815161040b33610ad5565b61049c5760006104298261041d610a7a565b9063ffffffff610b7816565b9050801561049a5760048054604051600160e51b6302654acd0281526001600160a01b0390911691634ca959a0916104679187913391879101611499565b600060405180830381600087803b15801561048157600080fd5b505af1158015610495573d6000803e3d6000fd5b505050505b505b60005b818110156104cb576104c38482815181106104b657fe5b6020026020010151610bbe565b60010161049f565b50505050565b6104da33610ad5565b61055b5760006104e8610a7a565b905080156105595760048054604051600160e51b6302654acd0281526001600160a01b0390911691634ca959a0916105269186913391879101611499565b600060405180830381600087803b15801561054057600080fd5b505af1158015610554573d6000803e3d6000fd5b505050505b505b600084815260026020526040902080546001600160a01b0316331480610585575061058533610ad5565b6105a457604051600160e51b62461bcd02815260040161035b90611581565b82156105b95760028101839055600181018490555b5050505050565b60006105ca610db6565b5050600090815260026020818152604092839020835160608101855281546001600160a01b0316808252600183015493820193909352920154919092015290565b610613610a56565b61063257604051600160e51b62461bcd02815260040161035b906115a1565b306001600160a01b0316638da5cb5b6040518163ffffffff1660e01b815260040160206040518083038186803b15801561066b57600080fd5b505afa15801561067f573d6000803e3d6000fd5b505050506040513d601f19601f820116820180604052506106a39190810190610f93565b6001600160a01b03166108fc829081150290604051600060405180830381858888f193505050501580156106db573d6000803e3d6000fd5b5050565b6106db828233610c8d565b6106f2610a56565b61071157604051600160e51b62461bcd02815260040161035b906115a1565b6001600160a01b03919091166000908152600160205260409020805460ff1916911515919091179055565b60036020526000908152604090205481565b61075733610ad5565b61077657604051600160e51b62461bcd02815260040161035b90611571565b60048054604051600160e51b6302654acd0281526001600160a01b0390911691634ca959a0916107ac91879187918791016114ff565b600060405180830381600087803b1580156107c657600080fd5b505af11580156107da573d6000803e3d6000fd5b50505050505050565b60005b82518110156108155761080d8382815181106107fe57fe5b60200260200101518333610c8d565b6001016107e6565b505050565b61082333610ad5565b61084257604051600160e51b62461bcd02815260040161035b90611571565b60048054604051600160e01b636556cd050281526001600160a01b0390911691636556cd059161087a918891889188918891016114c1565b600060405180830381600087803b15801561089457600080fd5b505af11580156108a8573d6000803e3d6000fd5b5050505050505050565b6004546001600160a01b031681565b6108c9610a56565b6108e857604051600160e51b62461bcd02815260040161035b906115a1565b600080546040516001600160a01b03909116907f8be0079c531659141344cd1fd0a4f28419497f9722a3daafe3b4186f6b6457e0908390a3600080546001600160a01b0319169055565b61093b33610ad5565b6109bc576000610949610a19565b905080156109ba5760048054604051600160e51b6302654acd0281526001600160a01b0390911691634ca959a0916109879186913391879101611499565b600060405180830381600087803b1580156109a157600080fd5b505af11580156109b5573d6000803e3d6000fd5b505050505b505b6106db82610bbe565b60008060006109d2610db6565b50505060009182525060026020818152604092839020835160608101855281546001600160a01b031680825260018301549382018490529190930154929093018290529192565b6000805260036020527f3617319a054d772f909f7c479a2cebe5066e836a939412e32403c99029b92eff5490565b6000546001600160a01b031690565b600080546001600160a01b0316610a6b610d2e565b6001600160a01b031614905090565b600160005260036020527fa15bc60c955c405d20d9149c709e2460f1c2d9a497496a7f46004d1772c3054c5490565b60026020819052600091825260409091208054600182015491909201546001600160a01b039092169183565b6001600160a01b031660009081526001602052604090205460ff1690565b60036020527f3617319a054d772f909f7c479a2cebe5066e836a939412e32403c99029b92eff5460016000527fa15bc60c955c405d20d9149c709e2460f1c2d9a497496a7f46004d1772c3054c549091565b610b4d610a56565b610b6c57604051600160e51b62461bcd02815260040161035b906115a1565b610b7581610d32565b50565b600082610b8757506000610bb8565b82820282848281610b9457fe5b0414610bb557604051600160e51b62461bcd02815260040161035b90611591565b90505b92915050565b8051600081815260026020526040902060608301516001600160a01b0316610bfb57604051600160e51b62461bcd02815260040161035b906115c1565b80546001600160a01b031615610c2657604051600160e51b62461bcd02815260040161035b90611551565b606083015181546001600160a01b039182166001600160a01b03199182161780845560208087015160018087019182556040988901516002978801908155600098895292879052979096208054909316919093161781559254938301939093559154910155565b600083815260026020526040902080546001600160a01b03838116911614610cca57604051600160e51b62461bcd02815260040161035b906115b1565b80546001600160a01b038481166001600160a01b03198316178084556040519282169287927f4d2778d25f224a7981314f90e4cf321a226f16d8b8a31ea04a6f191e88151b6892610d1f929116908590611477565b60405180910390a25050505050565b3390565b6001600160a01b038116610d5b57604051600160e51b62461bcd02815260040161035b90611561565b600080546040516001600160a01b03808516939216917f8be0079c531659141344cd1fd0a4f28419497f9722a3daafe3b4186f6b6457e091a3600080546001600160a01b0319166001600160a01b0392909216919091179055565b604080516060810182526000808252602082018190529181019190915290565b8035610bb881611680565b8051610bb881611680565b600082601f830112610dfd57600080fd5b8135610e10610e0b82611621565b6115fa565b91508181835260208401935060208101905083856020840282011115610e3557600080fd5b60005b83811015610e615781610e4b8882610ee8565b8452506020928301929190910190600101610e38565b5050505092915050565b600082601f830112610e7c57600080fd5b8135610e8a610e0b82611621565b91508181835260208401935060208101905083856080840282011115610eaf57600080fd5b60005b83811015610e615781610ec58882610efe565b84525060209092019160809190910190600101610eb2565b8035610bb881611694565b8035610bb88161169d565b8035610bb8816116a6565b600060808284031215610f1057600080fd5b610f1a60806115fa565b90506000610f288484610ee8565b8252506020610f3984848301610ee8565b6020830152506040610f4d84828501610ee8565b6040830152506060610f6184828501610dd6565b60608301525092915050565b600060208284031215610f7f57600080fd5b6000610f8b8484610dd6565b949350505050565b600060208284031215610fa557600080fd5b6000610f8b8484610de1565b60008060008060808587031215610fc757600080fd5b6000610fd38787610dd6565b9450506020610fe487828801610dd6565b9350506040610ff587828801610dd6565b925050606061100687828801610ee8565b91505092959194509250565b60008060006060848603121561102757600080fd5b60006110338686610dd6565b935050602061104486828701610dd6565b925050604061105586828701610ee8565b9150509250925092565b6000806040838503121561107257600080fd5b600061107e8585610dd6565b925050602061108f85828601610edd565b9150509250929050565b600080604083850312156110ac57600080fd5b823567ffffffffffffffff8111156110c357600080fd5b6110cf85828601610dec565b925050602061108f85828601610dd6565b600080604083850312156110f357600080fd5b823567ffffffffffffffff81111561110a57600080fd5b6110cf85828601610e6b565b60006020828403121561112857600080fd5b6000610f8b8484610ee8565b6000806040838503121561114757600080fd5b60006110cf8585610ee8565b6000806000806080858703121561116957600080fd5b60006111758787610ee8565b945050602061118687828801610ee8565b935050604061119787828801610ee8565b925050606061100687828801610dd6565b6000602082840312156111ba57600080fd5b6000610f8b8484610ef3565b60008060a083850312156111d957600080fd5b60006111e58585610efe565b925050608061108f85828601610dd6565b6000806040838503121561120957600080fd5b60006112158585610ee8565b925050602061108f85828601610ee8565b61122f81611675565b82525050565b61122f8161164b565b61122f81611656565b61122f8161165b565b61122f8161165e565b6000611266601483611642565b7f6578697374696e67207065727370656374697665000000000000000000000000815260200192915050565b600061129f602683611642565b7f4f776e61626c653a206e6577206f776e657220697320746865207a65726f20618152600160d01b6564647265737302602082015260400192915050565b60006112ea602883611642565b7f486173537570657255736572733a2063616c6c6572206973206e6f74206120738152600160c11b673ab832b92ab9b2b902602082015260400192915050565b6000611337602983611642565b7f6f6e6c7920746865206f776e65722063616e20757064617465207468652070658152600160b81b6872737065637469766502602082015260400192915050565b6000611385602183611642565b7f536166654d6174683a206d756c7469706c69636174696f6e206f766572666c6f8152600160f81b607702602082015260400192915050565b60006113cb602083611642565b7f4f776e61626c653a2063616c6c6572206973206e6f7420746865206f776e6572815260200192915050565b6000611404601383611642565b7f756e617574686f72697a65642061636365737300000000000000000000000000815260200192915050565b600061143d601583611642565b7f6f776e65722063616e6e6f7420626520656d7074790000000000000000000000815260200192915050565b60208101610bb88284611235565b604081016114858285611235565b6114926020830184611235565b9392505050565b606081016114a78286611235565b6114b46020830185611226565b610f8b6040830184611247565b608081016114cf8287611235565b6114dc6020830186611235565b6114e96040830185611235565b6114f66060830184611247565b95945050505050565b6060810161150d8286611235565b6114b46020830185611235565b606081016115288286611235565b6114b46020830185611247565b60208101610bb8828461123e565b60208101610bb88284611250565b60208082528101610bb881611259565b60208082528101610bb881611292565b60208082528101610bb8816112dd565b60208082528101610bb88161132a565b60208082528101610bb881611378565b60208082528101610bb8816113be565b60208082528101610bb8816113f7565b60208082528101610bb881611430565b60208101610bb88284611247565b604081016115ed8285611247565b6114926020830184611247565b60405181810167ffffffffffffffff8111828210171561161957600080fd5b604052919050565b600067ffffffffffffffff82111561163857600080fd5b5060209081020190565b90815260200190565b6000610bb882611669565b151590565b90565b6000610bb88261164b565b6001600160a01b031690565b6000610bb88261165e565b6116898161164b565b8114610b7557600080fd5b61168981611656565b6116898161165b565b6116898161165e56fea265627a7a723058201bc509834e6408c312cf137177df29fe8ab9b0029433e0d5d3315a6b0368075a6c6578706572696d656e74616cf50037",
  "source": "pragma solidity >=0.5.0 <0.6.0;\npragma experimental ABIEncoderV2;\n\nimport \"./Ownable.sol\";\nimport \"./SafeMath.sol\";\n\nimport \"./UprtclAccounts.sol\";\n\n/** Underscore Protocol Ethereum Service used to store the content of\n* _Prtcl perspectives */\ncontract UprtclRoot is HasSuperUsers {\n    using SafeMath for uint256;\n\n    struct Perspective {\n        address owner;\n        bytes32 headCid1;\n        bytes32 headCid0;\n    }\n\n    struct NewPerspective {\n        bytes32 perspectiveIdHash;\n        bytes32 headCid1;\n        bytes32 headCid0;\n        address owner;\n    }\n\n    /** superUsers can update any perspective */\n    mapping(bytes32 => Perspective) public perspectives;\n\n    mapping(uint256 => uint256) public fees;\n\n    event PerspectiveOwnerUpdated(\n        bytes32 indexed perspectiveIdHash,\n        address newOwner,\n        address previousOwner\n    );\n\n    UprtclAccounts public accounts;\n\n    function setAccounts(UprtclAccounts _accounts) public onlyOwner {\n        accounts = _accounts;\n    }\n\n    function withdraw(uint256 amount) public onlyOwner {\n        this.owner().transfer(amount);\n    }\n\n    function setFees(uint256 addFee, uint256 updateFee) public onlyOwner {\n        fees[0] = addFee;\n        fees[1] = updateFee;\n    }\n\n    function getFees() public view returns (uint256 addFee, uint256 updateFee) {\n        return (fees[0], fees[1]);\n    }\n\n    function getAddFee() public view returns (uint256) {\n        return fees[0];\n    }\n\n    function getUpdateFee() public view returns (uint256) {\n        return fees[1];\n    }\n\n    function consume(address account, address by, uint256 amount) public onlySuperUser {\n        accounts.consume(account, by, amount);\n    }\n\n    function transferTo(address from, address by, address to, uint256 amount) public onlySuperUser {\n        accounts.transferTo(from, by, to, amount);\n    }\n\n    /** Adds a new perspective to the mapping and sets the owner. The head pointer and the context. */\n    function addPerspectiveInternal(NewPerspective memory newPerspective)\n        private\n    {\n        bytes32 perspectiveIdHash = newPerspective.perspectiveIdHash;\n\n        Perspective storage perspective = perspectives[perspectiveIdHash];\n        require(address(0) != newPerspective.owner, \"owner cannot be empty\");\n        require(address(0) == perspective.owner, \"existing perspective\");\n\n        perspective.owner = newPerspective.owner;\n        perspective.headCid1 = newPerspective.headCid1;\n        perspective.headCid0 = newPerspective.headCid0;\n\n        perspectives[perspectiveIdHash] = perspective;\n    }\n\n    function addPerspective(NewPerspective memory newPerspective, address account)\n        public\n    {\n        if (!isSuperUser(msg.sender)) {\n            uint256 fee = getAddFee();\n            if (fee > 0) {\n                accounts.consume(account, msg.sender, fee);\n            }\n        }\n        addPerspectiveInternal(newPerspective);\n    }\n\n    function addPerspectiveBatch(NewPerspective[] memory newPerspectives, address account)\n        public\n    {\n        uint256 nPerspectives = newPerspectives.length;\n\n        if (!isSuperUser(msg.sender)) {\n            uint256 fee = getUpdateFee().mul(nPerspectives);\n\n            if (fee > 0) {\n                accounts.consume(account, msg.sender, fee);\n            }\n        }\n\n        for (uint256 ix = 0; ix < nPerspectives; ix++) {\n            addPerspectiveInternal(newPerspectives[ix]);\n        }\n    }\n\n    function updateHead(\n        bytes32 perspectiveIdHash,\n        bytes32 newHeadCid1,\n        bytes32 newHeadCid0,\n        address account\n    ) public {\n        if (!isSuperUser(msg.sender)) {\n            uint256 fee = getUpdateFee();\n            if (fee > 0) {\n                accounts.consume(account, msg.sender, fee);\n            }\n        }\n\n        Perspective storage perspective = perspectives[perspectiveIdHash];\n\n        require(\n            (perspective.owner == msg.sender) || isSuperUser(msg.sender),\n            \"only the owner can update the perspective\"\n        );\n\n        if (newHeadCid0 != bytes32(0)) {\n            perspective.headCid0 = newHeadCid0;\n            perspective.headCid1 = newHeadCid1;\n        }\n    }\n\n    function changePerspectiveOwnerInternal(\n        bytes32 perspectiveIdHash,\n        address newOwner,\n        address sender\n    ) private {\n        Perspective storage perspective = perspectives[perspectiveIdHash];\n        require(sender == perspective.owner, \"unauthorized access\");\n\n        address previousOwner = perspective.owner;\n        perspective.owner = newOwner;\n\n        emit PerspectiveOwnerUpdated(\n            perspectiveIdHash,\n            perspective.owner,\n            previousOwner\n        );\n    }\n\n    /** Changes the owner of a given perspective. Available only to the current owner of that perspective. */\n    function changePerspectiveOwner(bytes32 perspectiveIdHash, address newOwner)\n        public\n    {\n        changePerspectiveOwnerInternal(perspectiveIdHash, newOwner, msg.sender);\n    }\n\n    function changePerspectiveOwnerBatch(\n        bytes32[] memory perspectiveIdsHashes,\n        address newOwner\n    ) public {\n        for (uint256 ix = 0; ix < perspectiveIdsHashes.length; ix++) {\n            changePerspectiveOwnerInternal(\n                perspectiveIdsHashes[ix],\n                newOwner,\n                msg.sender\n            );\n        }\n    }\n\n    /** Get the perspective owner and details from its ID */\n    function getPerspectiveDetails(bytes32 perspectiveIdHash)\n        public\n        view\n        returns (address owner, bytes32 headCid1, bytes32 headCid0)\n    {\n        Perspective memory perspective = perspectives[perspectiveIdHash];\n\n        return (perspective.owner, perspective.headCid1, perspective.headCid0);\n    }\n\n    /** Get the perspective owner and details from its ID */\n    function getPerspectiveOwner(bytes32 perspectiveIdHash)\n        public\n        view\n        returns (address owner)\n    {\n        Perspective memory perspective = perspectives[perspectiveIdHash];\n\n        return (perspective.owner);\n    }\n\n}\n",
  "sourcePath": "/home/pepo/pr/uprtcl/eth-uprtcl/contracts/UprtclRoot.sol",
  "compiler": {
    "name": "solc",
    "version": "0.5.8+commit.23d335f2.Emscripten.clang"
  },
  "schemaVersion": "3.0.11",
  "updatedAt": "2020-02-27T12:07:58.767Z",
  "devdoc": {
    "methods": {
      "isOwner()": {
        "details": "Returns true if the caller is the current owner."
      },
      "owner()": {
        "details": "Returns the address of the current owner."
      },
      "renounceOwnership()": {
        "details": "Leaves the contract without owner. It will not be possible to call `onlyOwner` functions anymore. Can only be called by the current owner.     * NOTE: Renouncing ownership will leave the contract without an owner, thereby removing any functionality that is only available to the owner."
      },
      "transferOwnership(address)": {
        "details": "Transfers ownership of the contract to a new account (`newOwner`). Can only be called by the current owner."
      }
    }
  },
  "userdoc": {
    "methods": {
      "changePerspectiveOwner(bytes32,address)": {
        "notice": "Changes the owner of a given perspective. Available only to the current owner of that perspective. "
      },
      "getPerspectiveDetails(bytes32)": {
        "notice": "Get the perspective owner and details from its ID "
      },
      "getPerspectiveOwner(bytes32)": {
        "notice": "Get the perspective owner and details from its ID "
      }
    },
    "notice": "Underscore Protocol Ethereum Service used to store the content of _Prtcl perspectives "
  }
}