{
  "contractName": "Uprtcl",
  "abi": [
    {
      "constant": true,
      "inputs": [
        {
          "name": "",
          "type": "address"
        }
      ],
      "name": "homePerspectives",
      "outputs": [
        {
          "name": "",
          "type": "bytes32"
        }
      ],
      "payable": false,
      "stateMutability": "view",
      "type": "function"
    },
    {
      "constant": true,
      "inputs": [
        {
          "name": "",
          "type": "bytes32"
        }
      ],
      "name": "requests",
      "outputs": [
        {
          "name": "toPerspectiveIdHash",
          "type": "bytes32"
        },
        {
          "name": "fromPerspectiveIdHash",
          "type": "bytes32"
        },
        {
          "name": "owner",
          "type": "address"
        },
        {
          "name": "status",
          "type": "uint8"
        },
        {
          "name": "authorized",
          "type": "uint8"
        }
      ],
      "payable": false,
      "stateMutability": "view",
      "type": "function"
    },
    {
      "constant": true,
      "inputs": [
        {
          "name": "",
          "type": "bytes32"
        }
      ],
      "name": "perspectives",
      "outputs": [
        {
          "name": "owner",
          "type": "address"
        },
        {
          "name": "headId",
          "type": "string"
        },
        {
          "name": "name",
          "type": "string"
        },
        {
          "name": "context",
          "type": "string"
        }
      ],
      "payable": false,
      "stateMutability": "view",
      "type": "function"
    },
    {
      "anonymous": false,
      "inputs": [
        {
          "indexed": false,
          "name": "perspectiveIdHash",
          "type": "bytes32"
        },
        {
          "indexed": false,
          "name": "pidHome",
          "type": "bytes32"
        }
      ],
      "name": "homePerspectiveChanged",
      "type": "event"
    },
    {
      "anonymous": false,
      "inputs": [
        {
          "indexed": true,
          "name": "perspectiveIdHash",
          "type": "bytes32"
        },
        {
          "indexed": true,
          "name": "contextHash",
          "type": "bytes32"
        },
        {
          "indexed": false,
          "name": "head",
          "type": "string"
        },
        {
          "indexed": false,
          "name": "context",
          "type": "string"
        },
        {
          "indexed": false,
          "name": "name",
          "type": "string"
        },
        {
          "indexed": false,
          "name": "owner",
          "type": "address"
        },
        {
          "indexed": false,
          "name": "perspectiveId",
          "type": "string"
        }
      ],
      "name": "PerspectiveAdded",
      "type": "event"
    },
    {
      "anonymous": false,
      "inputs": [
        {
          "indexed": true,
          "name": "perspectiveIdHash",
          "type": "bytes32"
        },
        {
          "indexed": true,
          "name": "newContextHash",
          "type": "bytes32"
        },
        {
          "indexed": false,
          "name": "author",
          "type": "address"
        },
        {
          "indexed": false,
          "name": "previousHeadId",
          "type": "string"
        },
        {
          "indexed": false,
          "name": "newHeadId",
          "type": "string"
        },
        {
          "indexed": false,
          "name": "previousContext",
          "type": "string"
        },
        {
          "indexed": false,
          "name": "newContext",
          "type": "string"
        },
        {
          "indexed": false,
          "name": "previousName",
          "type": "string"
        },
        {
          "indexed": false,
          "name": "newName",
          "type": "string"
        }
      ],
      "name": "PerspectiveDetailsUpdated",
      "type": "event"
    },
    {
      "anonymous": false,
      "inputs": [
        {
          "indexed": true,
          "name": "perspectiveIdHash",
          "type": "bytes32"
        },
        {
          "indexed": false,
          "name": "newOwner",
          "type": "address"
        },
        {
          "indexed": false,
          "name": "previousOwner",
          "type": "address"
        }
      ],
      "name": "PerspectiveOwnerUpdated",
      "type": "event"
    },
    {
      "anonymous": false,
      "inputs": [
        {
          "indexed": true,
          "name": "toPerspectiveIdHash",
          "type": "bytes32"
        },
        {
          "indexed": true,
          "name": "fromPerspectiveIdHash",
          "type": "bytes32"
        },
        {
          "indexed": false,
          "name": "nonce",
          "type": "uint32"
        },
        {
          "indexed": true,
          "name": "requestId",
          "type": "bytes32"
        },
        {
          "indexed": false,
          "name": "toPerspectiveId",
          "type": "string"
        },
        {
          "indexed": false,
          "name": "fromPerspectiveId",
          "type": "string"
        }
      ],
      "name": "MergeRequestCreated",
      "type": "event"
    },
    {
      "anonymous": false,
      "inputs": [
        {
          "indexed": true,
          "name": "requestId",
          "type": "bytes32"
        }
      ],
      "name": "AddedUpdatesToRequest",
      "type": "event"
    },
    {
      "constant": false,
      "inputs": [
        {
          "name": "perspectiveIdHash",
          "type": "bytes32"
        },
        {
          "name": "contextHash",
          "type": "bytes32"
        },
        {
          "name": "headId",
          "type": "string"
        },
        {
          "name": "context",
          "type": "string"
        },
        {
          "name": "name",
          "type": "string"
        },
        {
          "name": "owner",
          "type": "address"
        },
        {
          "name": "perspectiveId",
          "type": "string"
        }
      ],
      "name": "addPerspective",
      "outputs": [],
      "payable": false,
      "stateMutability": "nonpayable",
      "type": "function"
    },
    {
      "constant": false,
      "inputs": [
        {
          "name": "perspectiveIdHash",
          "type": "bytes32"
        },
        {
          "name": "newContextHash",
          "type": "bytes32"
        },
        {
          "name": "headId",
          "type": "string"
        },
        {
          "name": "context",
          "type": "string"
        },
        {
          "name": "name",
          "type": "string"
        }
      ],
      "name": "updatePerspectiveDetails",
      "outputs": [],
      "payable": false,
      "stateMutability": "nonpayable",
      "type": "function"
    },
    {
      "constant": false,
      "inputs": [
        {
          "name": "perspectiveIdHash",
          "type": "bytes32"
        },
        {
          "name": "newOwner",
          "type": "address"
        }
      ],
      "name": "changeOwner",
      "outputs": [],
      "payable": false,
      "stateMutability": "nonpayable",
      "type": "function"
    },
    {
      "constant": true,
      "inputs": [
        {
          "name": "perspectiveIdHash",
          "type": "bytes32"
        }
      ],
      "name": "getPerspectiveDetails",
      "outputs": [
        {
          "name": "owner",
          "type": "address"
        },
        {
          "name": "headId",
          "type": "string"
        },
        {
          "name": "context",
          "type": "string"
        },
        {
          "name": "name",
          "type": "string"
        }
      ],
      "payable": false,
      "stateMutability": "view",
      "type": "function"
    },
    {
      "constant": false,
      "inputs": [
        {
          "components": [
            {
              "name": "perspectiveIdHash",
              "type": "bytes32"
            },
            {
              "name": "headId",
              "type": "string"
            },
            {
              "name": "executed",
              "type": "uint8"
            }
          ],
          "name": "headUpdates",
          "type": "tuple[]"
        }
      ],
      "name": "updateHeads",
      "outputs": [],
      "payable": false,
      "stateMutability": "nonpayable",
      "type": "function"
    },
    {
      "constant": true,
      "inputs": [
        {
          "name": "toPerspectiveIdHash",
          "type": "bytes32"
        },
        {
          "name": "fromPerspectiveIdHash",
          "type": "bytes32"
        },
        {
          "name": "nonce",
          "type": "uint32"
        }
      ],
      "name": "getRequestId",
      "outputs": [
        {
          "name": "requestId",
          "type": "bytes32"
        }
      ],
      "payable": false,
      "stateMutability": "pure",
      "type": "function"
    },
    {
      "constant": false,
      "inputs": [
        {
          "name": "toPerspectiveIdHash",
          "type": "bytes32"
        },
        {
          "name": "fromPerspectiveIdHash",
          "type": "bytes32"
        },
        {
          "name": "owner",
          "type": "address"
        },
        {
          "name": "nonce",
          "type": "uint32"
        },
        {
          "components": [
            {
              "name": "perspectiveIdHash",
              "type": "bytes32"
            },
            {
              "name": "headId",
              "type": "string"
            },
            {
              "name": "executed",
              "type": "uint8"
            }
          ],
          "name": "headUpdates",
          "type": "tuple[]"
        },
        {
          "name": "approvedAddresses",
          "type": "address[]"
        },
        {
          "name": "toPerspectiveId",
          "type": "string"
        },
        {
          "name": "fromPerspectiveId",
          "type": "string"
        }
      ],
      "name": "initRequest",
      "outputs": [],
      "payable": false,
      "stateMutability": "nonpayable",
      "type": "function"
    },
    {
      "constant": false,
      "inputs": [
        {
          "name": "requestId",
          "type": "bytes32"
        },
        {
          "components": [
            {
              "name": "perspectiveIdHash",
              "type": "bytes32"
            },
            {
              "name": "headId",
              "type": "string"
            },
            {
              "name": "executed",
              "type": "uint8"
            }
          ],
          "name": "headUpdates",
          "type": "tuple[]"
        }
      ],
      "name": "addUpdatesToRequest",
      "outputs": [],
      "payable": false,
      "stateMutability": "nonpayable",
      "type": "function"
    },
    {
      "constant": false,
      "inputs": [
        {
          "name": "requestId",
          "type": "bytes32"
        },
        {
          "name": "authorized",
          "type": "uint8"
        }
      ],
      "name": "setRequestAuthorized",
      "outputs": [],
      "payable": false,
      "stateMutability": "nonpayable",
      "type": "function"
    },
    {
      "constant": false,
      "inputs": [
        {
          "name": "requestId",
          "type": "bytes32"
        },
        {
          "name": "status",
          "type": "uint8"
        }
      ],
      "name": "setRequestStatus",
      "outputs": [],
      "payable": false,
      "stateMutability": "nonpayable",
      "type": "function"
    },
    {
      "constant": false,
      "inputs": [
        {
          "name": "requestId",
          "type": "bytes32"
        }
      ],
      "name": "closeRequest",
      "outputs": [],
      "payable": false,
      "stateMutability": "nonpayable",
      "type": "function"
    },
    {
      "constant": false,
      "inputs": [
        {
          "name": "requestId",
          "type": "bytes32"
        }
      ],
      "name": "executeRequest",
      "outputs": [],
      "payable": false,
      "stateMutability": "nonpayable",
      "type": "function"
    },
    {
      "constant": false,
      "inputs": [
        {
          "name": "requestId",
          "type": "bytes32"
        },
        {
          "name": "indexes",
          "type": "uint256[]"
        }
      ],
      "name": "executeRequestPartially",
      "outputs": [],
      "payable": false,
      "stateMutability": "nonpayable",
      "type": "function"
    },
    {
      "constant": true,
      "inputs": [
        {
          "name": "batchId",
          "type": "bytes32"
        }
      ],
      "name": "getRequest",
      "outputs": [
        {
          "components": [
            {
              "name": "toPerspectiveIdHash",
              "type": "bytes32"
            },
            {
              "name": "fromPerspectiveIdHash",
              "type": "bytes32"
            },
            {
              "name": "owner",
              "type": "address"
            },
            {
              "components": [
                {
                  "name": "perspectiveIdHash",
                  "type": "bytes32"
                },
                {
                  "name": "headId",
                  "type": "string"
                },
                {
                  "name": "executed",
                  "type": "uint8"
                }
              ],
              "name": "headUpdates",
              "type": "tuple[]"
            },
            {
              "name": "approvedAddresses",
              "type": "address[]"
            },
            {
              "name": "status",
              "type": "uint8"
            },
            {
              "name": "authorized",
              "type": "uint8"
            }
          ],
          "name": "batch",
          "type": "tuple"
        }
      ],
      "payable": false,
      "stateMutability": "view",
      "type": "function"
    }
  ],
  "bytecode": "0x608060405234801561001057600080fd5b50613027806100206000396000f3fe608060405234801561001057600080fd5b506004361061010b5760003560e01c8063776de312116100a2578063cee4da5911610071578063cee4da591461022d578063d3a5b10714610240578063d7ea51ae14610253578063e9c2416614610266578063fb1e61ca146102795761010b565b8063776de312146101d057806389484eca146101e35780639d866985146101f6578063b92d30dc1461021a5761010b565b80632aa22eb2116100de5780632aa22eb21461015e5780632eea4b95146101715780635b0410861461018457806376914ecf146101ad5761010b565b8063130c82361461011057806319d43eb5146101255780632328df2414610138578063270eac4a1461014b575b600080fd5b61012361011e3660046124ab565b610299565b005b6101236101333660046124ab565b610313565b610123610146366004612086565b610368565b6101236101593660046121a0565b6103db565b61012361016c3660046120ba565b6104c8565b61012361017f366004612366565b6106d7565b610197610192366004612060565b61089f565b6040516101a49190612cd4565b60405180910390f35b6101c06101bb3660046120ba565b6108b1565b6040516101a49493929190612c82565b6101236101de366004612159565b610ac9565b6101236101f13660046122ac565b610ad4565b6102096102043660046120ba565b610d98565b6040516101a4959493929190612ce2565b6101c06102283660046120ba565b610dd5565b61019761023b36600461245e565b610fa8565b61012361024e3660046120d8565b610fde565b610123610261366004612112565b61107b565b6101236102743660046120ba565b61134e565b61028c6102873660046120ba565b611535565b6040516101a49190612e59565b600082815260016020526040902060028101546001600160a01b031633146102df57604051600160e51b62461bcd0281526004016102d690612e19565b60405180910390fd5b60ff8216156102f55760058101805460ff191690555b600501805460ff9092166101000261ff001990921691909117905550565b600082815260016020526040902060028101546001600160a01b0316331461035057604051600160e51b62461bcd0281526004016102d690612e39565b600501805460ff191660ff9290921691909117905550565b60005b81518160ff1610156103d75761037f611bff565b828260ff168151811061038e57fe5b602002602001015190506103ce81600001516000801b83602001516040518060200160405280600081525060405180602001604052806000815250610ad4565b5060010161036b565b5050565b60006103e8898988610fa8565b60008181526001602052604090206002810154919250906001600160a01b03161561042857604051600160e51b62461bcd0281526004016102d690612e09565b898155600181018990556002810180546001600160a01b0319166001600160a01b038a1617905584516104649060048301906020880190611c26565b5060058101805460ff1916600117905561047e828761107b565b81898b7fcf4216ecc350582f68f1dedd2307cd3a8590edc318ee9fa31a5f920b1f2b1e9f8a88886040516104b493929190612e6a565b60405180910390a450505050505050505050565b6000818152600160208181526040808420815160e08101835281548152938101548484015260028101546001600160a01b0316848301526003810180548351818602810186019094528084529195946106a6949093879360608601939192889084015b82821015610619578382906000526020600020906003020160405180606001604052908160008201548152602001600182018054600181600116156101000203166002900480601f0160208091040260200160405190810160405280929190818152602001828054600181600116156101000203166002900480156105f15780601f106105c6576101008083540402835291602001916105f1565b820191906000526020600020905b8154815290600101906020018083116105d457829003601f168201915b50505091835250506002919091015460ff16602091820152908252600192909201910161052b565b5050505081526020016004820180548060200260200160405190810160405280929190818152602001828054801561067a57602002820191906000526020600020905b81546001600160a01b0316815260019091019060200180831161065c575b50505091835250506005919091015460ff80821660208401526101009091041660409091015233611714565b60ff16116106c957604051600160e51b62461bcd0281526004016102d690612dd9565b600501805460ff1916905550565b60008781526020819052604090206001600160a01b03831661070e57604051600160e51b62461bcd0281526004016102d690612e49565b80546001600160a01b03161561073957604051600160e51b62461bcd0281526004016102d690612d89565b80546001600160a01b0319166001600160a01b03841617815585516107679060018301906020890190611c8b565b50845161077d9060038301906020880190611c8b565b5083516107939060028301906020870190611c8b565b506000888152602081905260409020815481546001600160a01b0319166001600160a01b03909116178155600180830180548493926107ec92818501929091600260001991831615610100029190910190911604611d05565b5060028281018054610811928481019291600019610100600183161502011604611d05565b5060038201816003019080546001816001161561010002031660029004610839929190611d05565b505081546040518992508a917feab4cb649b50daa846628968c34a2b597344a3dbe3f2f535a18b6e9c1d531cd69161088d916001870191600388019160028901916001600160a01b03909116908a90612d24565b60405180910390a35050505050505050565b60026020526000908152604090205481565b600060608060606108c0611d7a565b60008681526020818152604091829020825160808101845281546001600160a01b03168152600180830180548651600261010094831615949094026000190190911692909204601f81018690048602830186019096528582529194929385810193919291908301828280156109765780601f1061094b57610100808354040283529160200191610976565b820191906000526020600020905b81548152906001019060200180831161095957829003601f168201915b5050509183525050600282810180546040805160206001841615610100026000190190931694909404601f81018390048302850183019091528084529381019390830182828015610a085780601f106109dd57610100808354040283529160200191610a08565b820191906000526020600020905b8154815290600101906020018083116109eb57829003601f168201915b505050918352505060038201805460408051602060026001851615610100026000190190941693909304601f8101849004840282018401909252818152938201939291830182828015610a9c5780601f10610a7157610100808354040283529160200191610a9c565b820191906000526020600020905b815481529060010190602001808311610a7f57829003601f168201915b505050919092525050815160208301516060840151604090940151919a9099509297509550909350505050565b6103d7828233611797565b600085815260208190526040902080546001600160a01b03163314610b0e57604051600160e51b62461bcd0281526004016102d690612de9565b6060816001018054600181600116156101000203166002900480601f016020809104026020016040519081016040528092919081815260200182805460018160011615610100020316600290048015610ba85780601f10610b7d57610100808354040283529160200191610ba8565b820191906000526020600020905b815481529060010190602001808311610b8b57829003601f168201915b5050505060038401805460408051602060026001851615610100026000190190941693909304601f8101849004840282018401909252818152949550606094935090830182828015610c3b5780601f10610c1057610100808354040283529160200191610c3b565b820191906000526020600020905b815481529060010190602001808311610c1e57829003601f168201915b50505060028087018054604080516020601f6000196101006001871615020190941695909504928301859004850281018501909152818152959650606095945090925090830182828015610cd05780601f10610ca557610100808354040283529160200191610cd0565b820191906000526020600020905b815481529060010190602001808311610cb357829003601f168201915b5050505050905060608790508051600014610cfc578751610cfa90600187019060208b0190611c8b565b505b8651879015610d1c578751610d1a90600388019060208b0190611c8b565b505b8651879015610d3c578751610d3a90600289019060208b0190611c8b565b505b8a8c7ff7af722c6971bf997e1595e6f1fd65a4bc307fa7041dba7deab55585cbfbabf533898b6001018a8d6003018b8f600201604051610d829796959493929190612b66565b60405180910390a3505050505050505050505050565b6001602081905260009182526040909120805491810154600282015460059092015490916001600160a01b03169060ff8082169161010090041685565b600060208181529181526040908190208054600180830180548551600261010094831615949094026000190190911692909204601f81018790048702830187019095528482526001600160a01b039092169492939092830182828015610e7c5780601f10610e5157610100808354040283529160200191610e7c565b820191906000526020600020905b815481529060010190602001808311610e5f57829003601f168201915b50505060028085018054604080516020601f6000196101006001871615020190941695909504928301859004850281018501909152818152959695945090925090830182828015610f0e5780601f10610ee357610100808354040283529160200191610f0e565b820191906000526020600020905b815481529060010190602001808311610ef157829003601f168201915b5050505060038301805460408051602060026001851615610100026000190190941693909304601f8101849004840282018401909252818152949594935090830182828015610f9e5780601f10610f7357610100808354040283529160200191610f9e565b820191906000526020600020905b815481529060010190602001808311610f8157829003601f168201915b5050505050905084565b6000838383604051602001610fbf93929190612b2f565b6040516020818303038152906040528051906020012090509392505050565b600082815260208190526040902080546001600160a01b0316331461101857604051600160e51b62461bcd0281526004016102d690612e29565b80546001600160a01b038381166001600160a01b03198316178084556040519282169286927f4d2778d25f224a7981314f90e4cf321a226f16d8b8a31ea04a6f191e88151b689261106d929116908590612c67565b60405180910390a250505050565b6000828152600160205260409020600581015460ff166110b057604051600160e51b62461bcd0281526004016102d690612db9565b6040805160e08101825282548152600183015460208083019190915260028401546001600160a01b0316828401526003840180548451818402810184019095528085526000946111f79493879360608601939091889084015b82821015610619578382906000526020600020906003020160405180606001604052908160008201548152602001600182018054600181600116156101000203166002900480601f0160208091040260200160405190810160405280929190818152602001828054600181600116156101000203166002900480156111cf5780601f106111a4576101008083540402835291602001916111cf565b820191906000526020600020905b8154815290600101906020018083116111b257829003601f168201915b50505091835250506002919091015460ff166020918201529082526001929092019101611109565b60ff161161121a57604051600160e51b62461bcd0281526004016102d690612dd9565b60005b82518160ff16101561131d57611231611bff565b838260ff168151811061124057fe5b60200260200101519050806040015160ff1660001461127457604051600160e51b62461bcd0281526004016102d690612d99565b80516000908152602081905260409020600284015481546001600160a01b039081169116146112b857604051600160e51b62461bcd0281526004016102d690612df9565b600380850180546001818101808455600093845260209384902087519390950290940191825582860151805187946112f4938501920190611c8b565b50604091909101516002909101805460ff191660ff90921691909117905550505060010161121d565b5060405183907f5bb2acf5738b1bbd9f0e6235acd595c7b83e76e5424f74e9ed7be340f646c41c90600090a2505050565b6000818152600160208181526040808420815160e08101835281548152938101548484015260028101546001600160a01b03168483015260038101805483518186028101860190945280845291959461149f949093879360608601939192889084015b82821015610619578382906000526020600020906003020160405180606001604052908160008201548152602001600182018054600181600116156101000203166002900480601f0160208091040260200160405190810160405280929190818152602001828054600181600116156101000203166002900480156114775780601f1061144c57610100808354040283529160200191611477565b820191906000526020600020905b81548152906001019060200180831161145a57829003601f168201915b50505091835250506002919091015460ff1660209182015290825260019290920191016113b1565b60ff16116114c257604051600160e51b62461bcd0281526004016102d690612dd9565b600381015460408051828152602080840282010190915260609180156114f2578160200160208202803883390190505b50905060005b6003830154811015611524578082828151811061151157fe5b60209081029190910101526001016114f8565b50611530838233611797565b505050565b61153d611dab565b6000828152600160208181526040808420815160e08101835281548152938101548484015260028101546001600160a01b0316848301526003810180548351818602810186019094528084529495919460608701949192909184015b82821015611687578382906000526020600020906003020160405180606001604052908160008201548152602001600182018054600181600116156101000203166002900480601f01602080910402602001604051908101604052809291908181526020018280546001816001161561010002031660029004801561165f5780601f106116345761010080835404028352916020019161165f565b820191906000526020600020905b81548152906001019060200180831161164257829003601f168201915b50505091835250506002919091015460ff166020918201529082526001929092019101611599565b505050508152602001600482018054806020026020016040519081016040528092919081815260200182805480156116e857602002820191906000526020600020905b81546001600160a01b031681526001909101906020018083116116ca575b50505091835250506005919091015460ff80821660208401526101009091041660409091015292915050565b60008260800151516000141561172c57506001611791565b60005b8360800151518163ffffffff16101561178b5783608001518163ffffffff168151811061175857fe5b60200260200101516001600160a01b0316836001600160a01b03161415611783575060019050611791565b60010161172f565b50600090505b92915050565b60008381526001602052604090206005810154610100900460ff166117d157604051600160e51b62461bcd0281526004016102d690612da9565b6040805160e08101825282548152600183015460208083019190915260028401546001600160a01b0316828401526003840180548451818402810184019095528085526000946119a59493879360608601939091889084015b82821015611918578382906000526020600020906003020160405180606001604052908160008201548152602001600182018054600181600116156101000203166002900480601f0160208091040260200160405190810160405280929190818152602001828054600181600116156101000203166002900480156118f05780601f106118c5576101008083540402835291602001916118f0565b820191906000526020600020905b8154815290600101906020018083116118d357829003601f168201915b50505091835250506002919091015460ff16602091820152908252600192909201910161182a565b5050505081526020016004820180548060200260200160405190810160405280929190818152602001828054801561197957602002820191906000526020600020905b81546001600160a01b0316815260019091019060200180831161195b575b50505091835250506005919091015460ff80821660208401526101009091041660409091015284611714565b60ff16116119c857604051600160e51b62461bcd0281526004016102d690612dd9565b60005b8351811015611ae7576000826003018583815181106119e657fe5b6020026020010151815481106119f857fe5b60009182526020909120600390910201600281015490915060ff1615611a3357604051600160e51b62461bcd0281526004016102d690612dc9565b6002808201805460ff1916600190811790915582548382018054604080516020601f600019978516156101000297909701909316969096049485018290048202860182019052838552611ade94929390830182828015611ad45780601f10611aa957610100808354040283529160200191611ad4565b820191906000526020600020905b815481529060010190602001808311611ab757829003601f168201915b5050505050611aee565b506001016119cb565b5050505050565b60008281526020818152604091829020600180820180548551600293821615610100026000190190911692909204601f81018590048502830185019095528482529193606093919291830182828015611b885780601f10611b5d57610100808354040283529160200191611b88565b820191906000526020600020905b815481529060010190602001808311611b6b57829003601f168201915b50508651939450611ba6936001870193506020880192509050611c8b565b5060405160009085907ff7af722c6971bf997e1595e6f1fd65a4bc307fa7041dba7deab55585cbfbabf590611bf19033908690600189019060038a0190819060028c01908190612bf7565b60405180910390a350505050565b60405180606001604052806000801916815260200160608152602001600060ff1681525090565b828054828255906000526020600020908101928215611c7b579160200282015b82811115611c7b57825182546001600160a01b0319166001600160a01b03909116178255602090920191600190910190611c46565b50611c87929150611de6565b5090565b828054600181600116156101000203166002900490600052602060002090601f016020900481019282601f10611ccc57805160ff1916838001178555611cf9565b82800160010185558215611cf9579182015b82811115611cf9578251825591602001919060010190611cde565b50611c87929150611e0d565b828054600181600116156101000203166002900490600052602060002090601f016020900481019282601f10611d3e5780548555611cf9565b82800160010185558215611cf957600052602060002091601f016020900482015b82811115611cf9578254825591600101919060010190611d5f565b604051806080016040528060006001600160a01b031681526020016060815260200160608152602001606081525090565b6040805160e0810182526000808252602082018190529181018290526060808201819052608082015260a0810182905260c081019190915290565b611e0a91905b80821115611c875780546001600160a01b0319168155600101611dec565b90565b611e0a91905b80821115611c875760008155600101611e13565b803561179181612fbb565b600082601f830112611e4357600080fd5b8135611e56611e5182612ecd565b612ea7565b91508181835260208401935060208101905083856020840282011115611e7b57600080fd5b60005b83811015611ea75781611e918882611e27565b8452506020928301929190910190600101611e7e565b5050505092915050565b600082601f830112611ec257600080fd5b8135611ed0611e5182612ecd565b81815260209384019390925082018360005b83811015611ea75781358601611ef88882611fd8565b8452506020928301929190910190600101611ee2565b600082601f830112611f1f57600080fd5b8135611f2d611e5182612ecd565b91508181835260208401935060208101905083856020840282011115611f5257600080fd5b60005b83811015611ea75781611f688882611f7e565b8452506020928301929190910190600101611f55565b803561179181612fd2565b600082601f830112611f9a57600080fd5b8135611fa8611e5182612eed565b91508082526020830160208301858383011115611fc457600080fd5b611fcf838284612f64565b50505092915050565b600060608284031215611fea57600080fd5b611ff46060612ea7565b905060006120028484611f7e565b82525060208201356001600160401b0381111561201e57600080fd5b61202a84828501611f89565b602083015250604061203e84828501612055565b60408301525092915050565b803561179181612fdb565b803561179181612fe4565b60006020828403121561207257600080fd5b600061207e8484611e27565b949350505050565b60006020828403121561209857600080fd5b81356001600160401b038111156120ae57600080fd5b61207e84828501611eb1565b6000602082840312156120cc57600080fd5b600061207e8484611f7e565b600080604083850312156120eb57600080fd5b60006120f78585611f7e565b925050602061210885828601611e27565b9150509250929050565b6000806040838503121561212557600080fd5b60006121318585611f7e565b92505060208301356001600160401b0381111561214d57600080fd5b61210885828601611eb1565b6000806040838503121561216c57600080fd5b60006121788585611f7e565b92505060208301356001600160401b0381111561219457600080fd5b61210885828601611f0e565b600080600080600080600080610100898b0312156121bd57600080fd5b60006121c98b8b611f7e565b98505060206121da8b828c01611f7e565b97505060406121eb8b828c01611e27565b96505060606121fc8b828c0161204a565b95505060808901356001600160401b0381111561221857600080fd5b6122248b828c01611eb1565b94505060a08901356001600160401b0381111561224057600080fd5b61224c8b828c01611e32565b93505060c08901356001600160401b0381111561226857600080fd5b6122748b828c01611f89565b92505060e08901356001600160401b0381111561229057600080fd5b61229c8b828c01611f89565b9150509295985092959890939650565b600080600080600060a086880312156122c457600080fd5b60006122d08888611f7e565b95505060206122e188828901611f7e565b94505060408601356001600160401b038111156122fd57600080fd5b61230988828901611f89565b93505060608601356001600160401b0381111561232557600080fd5b61233188828901611f89565b92505060808601356001600160401b0381111561234d57600080fd5b61235988828901611f89565b9150509295509295909350565b600080600080600080600060e0888a03121561238157600080fd5b600061238d8a8a611f7e565b975050602061239e8a828b01611f7e565b96505060408801356001600160401b038111156123ba57600080fd5b6123c68a828b01611f89565b95505060608801356001600160401b038111156123e257600080fd5b6123ee8a828b01611f89565b94505060808801356001600160401b0381111561240a57600080fd5b6124168a828b01611f89565b93505060a06124278a828b01611e27565b92505060c08801356001600160401b0381111561244357600080fd5b61244f8a828b01611f89565b91505092959891949750929550565b60008060006060848603121561247357600080fd5b600061247f8686611f7e565b935050602061249086828701611f7e565b92505060406124a18682870161204a565b9150509250925092565b600080604083850312156124be57600080fd5b60006124ca8585611f7e565b925050602061210885828601612055565b60006124e78383612511565b505060200190565b60006124fb8383612a2f565b9392505050565b61250b81612f53565b82525050565b61250b81612f33565b600061252582612f26565b61252f8185612f2a565b935061253a83612f14565b8060005b8381101561256857815161255288826124db565b975061255d83612f14565b92505060010161253e565b509495945050505050565b600061257e82612f26565b6125888185612f2a565b93508360208202850161259a85612f14565b8060005b858110156125d457848403895281516125b785826124ef565b94506125c283612f14565b60209a909a019992505060010161259e565b5091979650505050505050565b61250b81611e0a565b61250b6125f682611e0a565b611e0a565b600061260682612f26565b6126108185612f2a565b9350612620818560208601612f70565b61262981612fab565b9093019392505050565b6000815460018116600081146126505760018114612676576126b5565b607f60028304166126618187612f2a565b60ff19841681529550506020850192506126b5565b600282046126848187612f2a565b955061268f85612f1a565b60005b828110156126ae57815488820152600190910190602001612692565b8701945050505b505092915050565b60006126ca601483612f2a565b7f6578697374696e67207065727370656374697665000000000000000000000000815260200192915050565b6000612703602a83612f2a565b7f68656164207570646174652065786563757465642070726f7065727479206d758152600160b01b697374206265207a65726f02602082015260400192915050565b6000612752601683612f2a565b7f52657175657374206e6f7420617574686f72697a656400000000000000000000815260200192915050565b600061278b601a83612f2a565b7f72657175657374207374617475732069732064697361626c6564000000000000815260200192915050565b60006127c4601c83612f2a565b7f686561642075706461746520616c726561647920657865637574656400000000815260200192915050565b60006127fd602283612f2a565b7f6d73672e73656e646572206e6f7420616e20617070726f7665642061646472658152600160f01b61737302602082015260400192915050565b6000612844602983612f2a565b7f6f6e6c7920746865206f776e65722063616e20757064617465207468652070658152600160b81b6872737065637469766502602082015260400192915050565b6000612892603683612f2a565b7f726571756573742063616e206f6e6c792073746f72652070657273706563746981527f766573206f776e657220627920697473206f776e657200000000000000000000602082015260400192915050565b60006128f1601583612f2a565b7f7265717565737420616c72656164792065786973740000000000000000000000815260200192915050565b600061292a602b83612f2a565b7f526571756573742063616e206f6e6c7920627920617574686f72697a656420628152600160a91b6a3c9034ba399037bbb732b902602082015260400192915050565b600061297a601383612f2a565b7f756e617574686f72697a65642061636365737300000000000000000000000000815260200192915050565b60006129b3602b83612f2a565b7f52657175657374207374617475732063616e206f6e6c792062792073657420628152600160a91b6a3c9034ba399037bbb732b902602082015260400192915050565b6000612a03601583612f2a565b7f6f776e65722063616e6e6f7420626520656d7074790000000000000000000000815260200192915050565b80516000906060840190612a4385826125e1565b5060208301518482036020860152612a5b82826125fb565b9150506040830151612a706040860182612b26565b509392505050565b805160009060e0840190612a8c85826125e1565b506020830151612a9f60208601826125e1565b506040830151612ab26040860182612511565b5060608301518482036060860152612aca8282612573565b91505060808301518482036080860152612ae4828261251a565b91505060a0830151612af960a0860182612b26565b5060c0830151612a7060c0860182612b26565b61250b81612f44565b61250b612b2182612f44565b612fa0565b61250b81612f4d565b6000612b3b82866125ea565b602082019150612b4b82856125ea565b602082019150612b5b8284612b15565b506004019392505050565b60e08101612b74828a612502565b8181036020830152612b8681896125fb565b90508181036040830152612b9a8188612633565b90508181036060830152612bae81876125fb565b90508181036080830152612bc28186612633565b905081810360a0830152612bd681856125fb565b905081810360c0830152612bea8184612633565b9998505050505050505050565b60e08101612c05828a612502565b8181036020830152612c1781896125fb565b90508181036040830152612c2b8188612633565b90508181036060830152612c3f8187612633565b90508181036080830152612c538186612633565b905081810360a0830152612bd68185612633565b60408101612c758285612511565b6124fb6020830184612511565b60808101612c908287612511565b8181036020830152612ca281866125fb565b90508181036040830152612cb681856125fb565b90508181036060830152612cca81846125fb565b9695505050505050565b6020810161179182846125e1565b60a08101612cf082886125e1565b612cfd60208301876125e1565b612d0a6040830186612511565b612d176060830185612b26565b612cca6080830184612b26565b60a08082528101612d358188612633565b90508181036020830152612d498187612633565b90508181036040830152612d5d8186612633565b9050612d6c6060830185612511565b8181036080830152612d7e81846125fb565b979650505050505050565b60208082528101611791816126bd565b60208082528101611791816126f6565b6020808252810161179181612745565b602080825281016117918161277e565b60208082528101611791816127b7565b60208082528101611791816127f0565b6020808252810161179181612837565b6020808252810161179181612885565b60208082528101611791816128e4565b602080825281016117918161291d565b602080825281016117918161296d565b60208082528101611791816129a6565b60208082528101611791816129f6565b602080825281016124fb8184612a78565b60608101612e788286612b0c565b8181036020830152612e8a81856125fb565b90508181036040830152612e9e81846125fb565b95945050505050565b6040518181016001600160401b0381118282101715612ec557600080fd5b604052919050565b60006001600160401b03821115612ee357600080fd5b5060209081020190565b60006001600160401b03821115612f0357600080fd5b506020601f91909101601f19160190565b60200190565b60009081526020902090565b5190565b90815260200190565b60006001600160a01b038216611791565b63ffffffff1690565b60ff1690565b600061179182600061179182612f33565b82818337506000910152565b60005b83811015612f8b578181015183820152602001612f73565b83811115612f9a576000848401525b50505050565b600061179182612fb5565b601f01601f191690565b60e01b90565b612fc481612f33565b8114612fcf57600080fd5b50565b612fc481611e0a565b612fc481612f44565b612fc481612f4d56fea265627a7a723058200bc6d4fe9f6559e493d55225faab4d401e3faf4f51291effa04a7a788ead37616c6578706572696d656e74616cf50037",
  "source": "pragma solidity >=0.4.25 <0.6.0;\npragma experimental ABIEncoderV2;\n\n/** Underscore Protocol Ethereum Service used to store the content of\n* _Prtcl perspectives */\ncontract Uprtcl {\n    struct Perspective {\n        address owner;\n        string headId;\n        string name;\n        string context;\n    }\n\n    struct HeadUpdate {\n        bytes32 perspectiveIdHash;\n        string headId;\n        uint8 executed;\n    }\n\n    struct MergeRequest {\n        bytes32 toPerspectiveIdHash;\n        bytes32 fromPerspectiveIdHash;\n        /** All perspectives in headUpdates must be owned by this owner */\n        address owner;\n        /** Approved addresses can add new HeadUpdate elements to this\n\t\tlist as long as they are all from the same owner and this owner is\n\t\tthe same as the one of existing HeadUpdates. */\n        HeadUpdate[] headUpdates;\n        address[] approvedAddresses;\n        /** Status of the request. New headUpdates can be added by approved\n\t\taddreses as long as status != 0. */\n        uint8 status;\n        /** Authorizing the request lets anyone run one or more of\n\t\tthe head updates in the request in any order. It can only be called\n\t\tby the owner of all the perspectives in the request. */\n        uint8 authorized;\n    }\n\n    mapping(bytes32 => Perspective) public perspectives;\n    mapping(bytes32 => MergeRequest) public requests;\n    mapping(address => bytes32) public homePerspectives;\n\n    event homePerspectiveChanged(bytes32 perspectiveIdHash, bytes32 pidHome);\n\n    event PerspectiveAdded(\n        bytes32 indexed perspectiveIdHash,\n        bytes32 indexed contextHash,\n        string head,\n        string context,\n        string name,\n        address owner,\n        string perspectiveId\n    );\n\n    event PerspectiveDetailsUpdated(\n        bytes32 indexed perspectiveIdHash,\n        bytes32 indexed newContextHash,\n        address author,\n        string previousHeadId,\n        string newHeadId,\n        string previousContext,\n        string newContext,\n        string previousName,\n        string newName\n    );\n\n    event PerspectiveOwnerUpdated(\n        bytes32 indexed perspectiveIdHash,\n        address newOwner,\n        address previousOwner\n    );\n\n    event MergeRequestCreated(\n        bytes32 indexed toPerspectiveIdHash,\n        bytes32 indexed fromPerspectiveIdHash,\n        uint32 nonce,\n        bytes32 indexed requestId,\n        string toPerspectiveId,\n        string fromPerspectiveId\n    );\n\n    event AddedUpdatesToRequest(bytes32 indexed requestId);\n\n\n\n    /** Adds a new perspective to the mapping and sets the owner. The head pointer, the context and the name of the perspective are initialized\n\t *  but can be updated independently using updatePerspectiveDetails(). Validation of the perspectiveId to contextHash should be done\n\t *  externally using any content addressable storage solution for the perspectiveId.\n\t *  The perspectiveId is emited to help perspectiveHash reverse mapping */\n    function addPerspective(\n        bytes32 perspectiveIdHash,\n        bytes32 contextHash,\n        string memory headId,\n        string memory context,\n        string memory name,\n        address owner,\n        string memory perspectiveId /** LSB */\n    ) public {\n        Perspective storage perspective = perspectives[perspectiveIdHash];\n        require(address(0) != owner, \"owner cannot be empty\");\n        require(address(0) == perspective.owner, \"existing perspective\");\n\n        perspective.owner = owner;\n        perspective.headId = headId;\n        perspective.context = context;\n        perspective.name = name;\n\n        perspectives[perspectiveIdHash] = perspective;\n\n        emit PerspectiveAdded(\n            perspectiveIdHash,\n            contextHash,\n            perspective.headId,\n            perspective.context,\n            perspective.name,\n            perspective.owner,\n            perspectiveId\n        );\n    }\n\n    function updatePerspectiveDetails(\n        bytes32 perspectiveIdHash,\n        bytes32 newContextHash, /** used for indexing */\n        string memory headId,\n        string memory context,\n        string memory name\n    ) public {\n        Perspective storage perspective = perspectives[perspectiveIdHash];\n\n        require(\n            perspective.owner == msg.sender,\n            \"only the owner can update the perspective\"\n        );\n\n        string memory previousHead = perspective.headId;\n        string memory previousContext = perspective.context;\n        string memory previousName = perspective.name;\n\n        bytes memory testHeadId = bytes(headId);\n        if (testHeadId.length != 0) {\n            perspective.headId = headId;\n        }\n\n        bytes memory testContext = bytes(context);\n        if (testContext.length != 0) {\n            perspective.context = context;\n        }\n\n        bytes memory testName = bytes(name);\n        if (testName.length != 0) {\n            perspective.name = name;\n        }\n\n        emit PerspectiveDetailsUpdated(\n            perspectiveIdHash,\n            newContextHash,\n            msg.sender,\n            previousHead,\n            perspective.headId,\n            previousContext,\n            perspective.context,\n            previousName,\n            perspective.name\n        );\n    }\n\n    /** internal function that updates the head pointer of a given perspective. It dont\n\t\tcheck the owner to let the request functionality do it. Its internal\n\t\tso user should use updateHeads instead. */\n    function updateHead(bytes32 perspectiveIdHash, string memory newHead)\n        internal\n    {\n        Perspective storage perspective = perspectives[perspectiveIdHash];\n\n        string memory previousHead = perspective.headId;\n        perspective.headId = newHead;\n\n        emit PerspectiveDetailsUpdated(\n            perspectiveIdHash,\n            bytes32(0),\n            msg.sender,\n            previousHead,\n            perspective.headId,\n            perspective.context,\n            perspective.context,\n            perspective.name,\n            perspective.name\n        );\n    }\n\n    /** Changes the owner of a given perspective. Available only to the current owner of that perspective. */\n    function changeOwner(bytes32 perspectiveIdHash, address newOwner) public {\n        Perspective storage perspective = perspectives[perspectiveIdHash];\n        require(msg.sender == perspective.owner, \"unauthorized access\");\n\n        address previousOwner = perspective.owner;\n        perspective.owner = newOwner;\n\n        emit PerspectiveOwnerUpdated(\n            perspectiveIdHash,\n            perspective.owner,\n            previousOwner\n        );\n    }\n\n    /** Get the perspective owner and details from its ID */\n    function getPerspectiveDetails(bytes32 perspectiveIdHash)\n        public\n        view\n        returns (\n            address owner,\n            string memory headId,\n            string memory context,\n            string memory name\n        )\n    {\n        Perspective memory perspective = perspectives[perspectiveIdHash];\n\n        return (\n            perspective.owner,\n            perspective.headId,\n            perspective.context,\n            perspective.name\n        );\n    }\n\n    /** One method to execute the head updates directly, without creating the request. Useful\n\t\tif the owner dont want to use the request authorization feature.\n\t\tIt also works for updating one single perspective */\n    function updateHeads(HeadUpdate[] memory headUpdates) public {\n        for (uint8 ix = 0; ix < headUpdates.length; ix++) {\n            HeadUpdate memory headUpdate = headUpdates[ix];\n\n            /** Update the head */\n            updatePerspectiveDetails(\n                headUpdate.perspectiveIdHash,\n                bytes32(0),\n                headUpdate.headId,\n                \"\",\n                \"\"\n            );\n        }\n    }\n\n    function getRequestId(\n        bytes32 toPerspectiveIdHash,\n        bytes32 fromPerspectiveIdHash,\n        uint32 nonce\n    ) public pure returns (bytes32 requestId) {\n        requestId = keccak256(\n            abi.encodePacked(toPerspectiveIdHash, fromPerspectiveIdHash, nonce)\n        );\n    }\n\n    /** Creates a new request owned and initialize its properties.\n\t\tThe id of the request is derived from the message sender to prevent frontrunning attacks. */\n    function initRequest(\n        bytes32 toPerspectiveIdHash,\n        bytes32 fromPerspectiveIdHash,\n        address owner,\n        uint32 nonce,\n        HeadUpdate[] memory headUpdates,\n        address[] memory approvedAddresses,\n        string memory toPerspectiveId,\n        string memory fromPerspectiveId\n    ) public {\n        bytes32 requestId = getRequestId(\n            toPerspectiveIdHash,\n            fromPerspectiveIdHash,\n            nonce\n        );\n\n        /** make sure the request does not exist */\n        MergeRequest storage request = requests[requestId];\n        require(request.owner == address(0), \"request already exist\");\n\n        request.toPerspectiveIdHash = toPerspectiveIdHash;\n        request.fromPerspectiveIdHash = fromPerspectiveIdHash;\n        request.owner = owner;\n        request.approvedAddresses = approvedAddresses;\n        request.status = 1;\n\n        addUpdatesToRequest(requestId, headUpdates);\n\n        emit MergeRequestCreated(\n            toPerspectiveIdHash,\n            fromPerspectiveIdHash,\n            nonce,\n            requestId,\n            toPerspectiveId,\n            fromPerspectiveId\n        );\n    }\n\n\tfunction isApproved(MergeRequest memory request, address value)\n        private\n        pure\n        returns (uint8 approved)\n    {\n\t\tif (request.approvedAddresses.length == 0) {\n\t\t\tapproved = 1;\n\t\t\treturn approved;\n\t\t}\n\n        for (uint32 ix = 0; ix < request.approvedAddresses.length; ix++) {\n            if (value == request.approvedAddresses[ix]) {\n                approved = 1;\n                return approved;\n            }\n        }\n        approved = 0;\n    }\n\n    /** Add one or more headUpdate elements to an existing request */\n    function addUpdatesToRequest(\n        bytes32 requestId,\n        HeadUpdate[] memory headUpdates\n    ) public {\n        MergeRequest storage request = requests[requestId];\n\n        /** make sure the request is open for new elements */\n        require(request.status != 0, \"request status is disabled\");\n\n        /** check msg sender is approved address unless is this contract */\n        require(\n            isApproved(request, msg.sender) > 0,\n            \"msg.sender not an approved address\"\n        );\n\n        /** initialize */\n        for (uint8 ix = 0; ix < headUpdates.length; ix++) {\n            HeadUpdate memory headUpdate = headUpdates[ix];\n            /** head update executed property must be zero */\n            require(\n                headUpdate.executed == 0,\n                \"head update executed property must be zero\"\n            );\n            /** Only add perspectives of the same owner as the request */\n            Perspective storage newPerspective = perspectives[headUpdate\n                .perspectiveIdHash];\n            require(\n                newPerspective.owner == request.owner,\n                \"request can only store perspectives owner by its owner\"\n            );\n            request.headUpdates.push(headUpdate);\n        }\n\n        emit AddedUpdatesToRequest(requestId);\n    }\n\n    function setRequestAuthorized(bytes32 requestId, uint8 authorized) public {\n        MergeRequest storage request = requests[requestId];\n        require(\n            msg.sender == request.owner,\n            \"Request can only by authorized by its owner\"\n        );\n        /** by default the request is closed once it is authorized. */\n        if (authorized > 0) request.status = 0;\n        request.authorized = authorized;\n    }\n\n    function setRequestStatus(bytes32 requestId, uint8 status) public {\n        MergeRequest storage request = requests[requestId];\n        require(\n            msg.sender == request.owner,\n            \"Request status can only by set by its owner\"\n        );\n        request.status = status;\n    }\n\n    /** set the status to disabled (0) and can be called by any authorized address */\n    function closeRequest(bytes32 requestId) public {\n        MergeRequest storage request = requests[requestId];\n        /** Check the msg.sender is an approved address */\n        require(\n            isApproved(request, msg.sender) > 0,\n            \"msg.sender not an approved address\"\n        );\n        request.status = 0;\n    }\n\n    function executeRequest(bytes32 requestId) public {\n        MergeRequest storage request = requests[requestId];\n\n        /** Check the msg.sender is an approved address */\n        require(\n            isApproved(request, msg.sender) > 0,\n            \"msg.sender not an approved address\"\n        );\n\n        uint256[] memory indexes = new uint256[](request.headUpdates.length);\n        for (uint256 ix = 0; ix < request.headUpdates.length; ix++) {\n            indexes[ix] = ix;\n        }\n\n        executeRequestPartiallyInternal(requestId, indexes, msg.sender);\n    }\n\n    function executeRequestPartially(\n        bytes32 requestId,\n        uint256[] memory indexes\n    ) public {\n        executeRequestPartiallyInternal(requestId, indexes, msg.sender);\n    }\n\n    function executeRequestPartiallyInternal(\n        bytes32 requestId,\n        uint256[] memory indexes,\n        address msgSender\n    ) private {\n        MergeRequest storage request = requests[requestId];\n        require(request.authorized != 0, \"Request not authorized\");\n\n        require(\n            isApproved(request, msgSender) > 0,\n            \"msg.sender not an approved address\"\n        );\n\n        for (uint256 ix = 0; ix < indexes.length; ix++) {\n            HeadUpdate storage headUpdate = request.headUpdates[indexes[ix]];\n\n            require(headUpdate.executed == 0, \"head update already executed\");\n\n            /** mark the update as executed */\n            headUpdate.executed = 1;\n            /** Update the head */\n            updateHead(headUpdate.perspectiveIdHash, headUpdate.headId);\n        }\n    }\n\n    /** Get the perspective owner and head from its ID */\n    function getRequest(bytes32 batchId)\n        public\n        view\n        returns (MergeRequest memory batch)\n    {\n        return (requests[batchId]);\n    }\n\n}\n",
  "sourcePath": "/home/pepo/pr/uprtcl/eth-uprtcl/contracts/Uprtcl.sol",
  "compiler": {
    "name": "solc",
    "version": "0.5.8+commit.23d335f2.Emscripten.clang"
  },
  "schemaVersion": "3.0.11",
  "updatedAt": "2020-01-31T16:40:49.015Z",
  "devdoc": {
    "methods": {}
  },
  "userdoc": {
    "methods": {
      "addPerspective(bytes32,bytes32,string,string,string,address,string)": {
        "notice": "Adds a new perspective to the mapping and sets the owner. The head pointer, the context and the name of the perspective are initialized but can be updated independently using updatePerspectiveDetails(). Validation of the perspectiveId to contextHash should be done externally using any content addressable storage solution for the perspectiveId. The perspectiveId is emited to help perspectiveHash reverse mapping "
      },
      "addUpdatesToRequest(bytes32,(bytes32,string,uint8)[])": {
        "notice": "Add one or more headUpdate elements to an existing request "
      },
      "changeOwner(bytes32,address)": {
        "notice": "Changes the owner of a given perspective. Available only to the current owner of that perspective. "
      },
      "closeRequest(bytes32)": {
        "notice": "set the status to disabled (0) and can be called by any authorized address "
      },
      "getPerspectiveDetails(bytes32)": {
        "notice": "Get the perspective owner and details from its ID "
      },
      "getRequest(bytes32)": {
        "notice": "Get the perspective owner and head from its ID "
      },
      "initRequest(bytes32,bytes32,address,uint32,(bytes32,string,uint8)[],address[],string,string)": {
        "notice": "Creates a new request owned and initialize its properties. The id of the request is derived from the message sender to prevent frontrunning attacks. "
      },
      "updateHeads((bytes32,string,uint8)[])": {
        "notice": "One method to execute the head updates directly, without creating the request. Useful if the owner dont want to use the request authorization feature. It also works for updating one single perspective "
      }
    },
    "notice": "Underscore Protocol Ethereum Service used to store the content of _Prtcl perspectives "
  }
}